:020000040800F2
:1000000000000520496700086D6500086F6500085D
:100010007165000873650008756500080000000040
:10002000000000000000000000000000615800080F
:1000300077650008000000000159000865590008B4
:100040009967000899670008996700089967000890
:100050009967000899670008996700089967000880
:100060009967000899670008996700089967000870
:100070009967000899670008996700089967000860
:100080009967000899670008996700089967000850
:100090009967000899670008996700089967000840
:1000A0009967000879650008996700089967000852
:1000B0009967000899670008996700089967000820
:1000C000996700089967000899670008B9650008F2
:1000D000C9650008996700088965000899650008E6
:1000E00099670008996700089967000899670008F0
:1000F00099670008996700089967000899670008E0
:10010000996700089967000899670008D965000891
:1001100099670008A96500089967000899670008B1
:1001200099670008996700089967000899670008AF
:10013000996700089967000899670008996700089F
:10014000996700089967000899670008996700088F
:10015000996700089967000899670008996700087F
:10016000996700089967000899670008996700086F
:100170009967000899670008996700080000000067
:10018000996700089967000899670008996700084F
:10019000996700089967000899670008996700083F
:1001A000996700089967000800000000000000003F
:1001B00010B5054C237833B9044B13B10448AFF3A1
:1001C00000800123237010BDE0010020000000002A
:1001D00088A1000808B5034B1BB103490348AFF3DE
:1001E000008008BD00000000E401002088A1000894
:1001F000034613F8012B002AFBD1181A0138704767
:1002000001F0FF01102A2BDB10F0070F08D010F8C7
:10021000013B013A8B422DD010F0070F42B3F6D1CB
:10022000F0B441EA012141EA014122F007047FF0E4
:1002300000070023F0E80256083C85EA010586EA3B
:10024000010685FA47F5A3FA87F586FA47F6A5FA77
:1002500087F68EB9EED1F0BC01F0FF0102F0070283
:1002600032B110F8013B013A83EA010313B1F8D12E
:100270000020704701387047002D06BF354603380F
:10028000073815F0010F07D1013015F4807F02BF48
:10029000013015F4C03F0130F0BC0138704700BF99
:1002A00081F0004102E000BF83F0004330B54FEA27
:1002B00041044FEA430594EA050F08BF90EA020F94
:1002C0001FBF54EA000C55EA020C7FEA645C7FEA27
:1002D000655C00F0E2804FEA5454D4EB5555B8BF4A
:1002E0006D420CDD2C4480EA020281EA030382EABB
:1002F000000083EA010180EA020281EA0303362D4D
:1003000088BF30BD11F0004F4FEA01314FF4801C1F
:100310004CEA113102D0404261EB410113F0004F31
:100320004FEA03334CEA133302D0524263EB4303E8
:1003300094EA050F00F0A780A4F10104D5F1200E86
:100340000DDB02FA0EFC22FA05F2801841F10001E1
:1003500003FA0EF2801843FA05F359410EE0A5F1B5
:1003600020050EF1200E012A03FA0EFC28BF4CF0E6
:10037000020C43FA05F3C01851EBE37101F000459C
:1003800007D54FF0000EDCF1000C7EEB00006EEBA9
:100390000101B1F5801F1BD3B1F5001F0CD3490833
:1003A0005FEA30004FEA3C0C04F101044FEA44528A
:1003B00012F5800F80F09A80BCF1004F08BF5FEA11
:1003C000500C50F1000041EB045141EA050130BDF1
:1003D0005FEA4C0C404141EB010111F4801FA4F194
:1003E0000104E9D191F0000F04BF01460020B1FAE9
:1003F00081F308BF2033A3F10B03B3F120020CDA21
:100400000C3208DD02F1140CC2F10C0201FA0CF0FE
:1004100021FA02F10CE002F11402D8BFC2F1200C63
:1004200001FA02F120FA0CFCDCBF41EA0C01904019
:10043000E41AA2BF01EB0451294330BD6FEA040462
:100440001F3C1CDA0C340EDC04F11404C4F120024D
:1004500020FA04F001FA02F340EA030021FA04F35F
:1004600045EA030130BDC4F10C04C4F1200220FAB6
:1004700002F001FA04F340EA0300294630BD21FAF4
:1004800004F0294630BD94F0000F83F4801306BFBA
:1004900081F480110134013D4EE77FEA645C18BFAE
:1004A0007FEA655C29D094EA050F08BF90EA020F45
:1004B00005D054EA000C04BF1946104630BD91EA3D
:1004C000030F1EBF0021002030BD5FEA545C05D140
:1004D0004000494128BF41F0004130BD14F580047F
:1004E0003CBF01F5801130BD01F0004545F0FE41F3
:1004F00041F470014FF0000030BD7FEA645C1ABF28
:10050000194610467FEA655C1CBF0B46024650EA5E
:10051000013406BF52EA033591EA030F41F400218A
:1005200030BD00BF90F0000F04BF0021704730B510
:100530004FF4806404F132044FF000054FF00001E5
:1005400050E700BF90F0000F04BF0021704730B5A6
:100550004FF4806404F1320410F0004548BF40427B
:100560004FF000013EE700BF42004FEAE2014FEAD0
:1005700031014FEA02701FBF12F07F4393F07F4FAB
:1005800081F06051704732F07F4208BF704793F0AE
:100590007F4F04BF41F40021704730B54FF46074C1
:1005A00001F0004521F000411CE700BF50EA0102C4
:1005B00008BF704730B54FF000050AE050EA01026D
:1005C00008BF704730B511F0004502D5404261EBDD
:1005D00041014FF4806404F132045FEA915C3FF41E
:1005E000D8AE4FF003025FEADC0C18BF03325FEABB
:1005F000DC0C18BF033202EBDC02C2F1200300FA6C
:1006000003FC20FA02F001FA03FE40EA0E0021FA90
:1006100002F11444BDE600BF70B54FF0FF0C4CF47E
:10062000E06C1CEA11541DBF1CEA135594EA0C0F30
:1006300095EA0C0F00F0DEF82C4481EA030621EA6B
:100640004C5123EA4C5350EA013518BF52EA0335A6
:1006500041F4801143F4801338D0A0FB02CE4FF058
:100660000005E1FB02E506F00042E0FB03E54FF088
:100670000006E1FB03569CF0000F18BF4EF0010E80
:10068000A4F1FF04B6F5007F64F5407404D25FEA7C
:100690004E0E6D4146EB060642EAC62141EA55512F
:1006A0004FEAC52040EA5E504FEACE2EB4F1FD0C71
:1006B00088BFBCF5E06F1ED8BEF1004F08BF5FEAEF
:1006C000500E50F1000041EB045170BD06F00046A1
:1006D00046EA010140EA020081EA0301B4EB5C044E
:1006E000C2BFD4EB0C0541EA045170BD41F4801146
:1006F0004FF0000E013C00F3AB8014F1360FDEBF6B
:10070000002001F0004170BDC4F10004203C35DA46
:100710000C341BDC04F11404C4F1200500FA05F3C9
:1007200020FA04F001FA05F240EA020001F000426A
:1007300021F0004110EBD37021FA04F642EB0601E0
:100740005EEA430E08BF20EAD37070BDC4F10C040A
:10075000C4F1200500FA04F320FA05F001FA04F2CE
:1007600040EA020001F0004110EBD37041F10001BA
:100770005EEA430E08BF20EAD37070BDC4F12005C5
:1007800000FA05F24EEA020E20FA04F301FA05F22D
:1007900043EA020321FA04F001F0004121FA04F2D5
:1007A00020EA020000EBD3705EEA430E08BF20EAA5
:1007B000D37070BD94F0000F0FD101F000464000DF
:1007C00041EB010111F4801F08BF013CF7D041EA61
:1007D000060195F0000F18BF704703F00046520065
:1007E00043EB030313F4801F08BF013DF7D043EA36
:1007F0000603704794EA0C0F0CEA135518BF95EAEC
:100800000C0F0CD050EA410618BF52EA4306D1D172
:1008100081EA030101F000414FF0000070BD50EA91
:10082000410606BF1046194652EA430619D094EA1B
:100830000C0F02D150EA013613D195EA0C0F05D105
:1008400052EA03361CBF104619460AD181EA030159
:1008500001F0004141F0FE4141F470014FF0000011
:1008600070BD41F0FE4141F4780170BD70B54FF0AC
:10087000FF0C4CF4E06C1CEA11541DBF1CEA13552C
:1008800094EA0C0F95EA0C0F00F0A7F8A4EB05040E
:1008900081EA030E52EA03354FEA013100F0888005
:1008A0004FEA03334FF0805545EA131343EA1263CE
:1008B0004FEA022245EA111545EA10654FEA002683
:1008C0000EF000419D4208BF964244F1FD0404F53C
:1008D000407402D25B084FEA3202B61A65EB030598
:1008E0005B084FEA32024FF480104FF4002CB6EB55
:1008F000020E75EB030E22BFB61A754640EA0C00D5
:100900005B084FEA3202B6EB020E75EB030E22BF14
:10091000B61A754640EA5C005B084FEA3202B6EB55
:10092000020E75EB030E22BFB61A754640EA9C0014
:100930005B084FEA3202B6EB020E75EB030E22BFE4
:10094000B61A754640EADC0055EA060E18D04FEAA2
:10095000051545EA16754FEA06164FEAC30343EA42
:1009600052734FEAC2025FEA1C1CC0D111F4801F0F
:100970000BD141EA00014FF000004FF0004CB6E708
:1009800011F4801F04BF01430020B4F1FD0C88BFA7
:10099000BCF5E06F3FF6AFAEB5EB030C04BFB6EBB2
:1009A000020C5FEA500C50F1000041EB045170BDA5
:1009B0000EF0004E4EEA113114EB5C04C2BFD4EBD2
:1009C0000C0541EA045170BD41F480114FF0000E56
:1009D000013C90E645EA060E8DE60CEA135594EAD2
:1009E0000C0F08BF95EA0C0F3FF43BAF94EA0C0FD5
:1009F0000AD150EA01347FF434AF95EA0C0F7FF44A
:100A000025AF104619462CE795EA0C0F06D152EA9D
:100A100003353FF4FDAE1046194622E750EA410681
:100A200018BF52EA43067FF4C5AE50EA41047FF492
:100A30000DAF52EA43057FF4EBAE12E74FF0FF3CF7
:100A400006E000BF4FF0010C02E000BF4FF0010CC8
:100A50004DF804CD4FEA410C7FEA6C5C4FEA430C41
:100A600018BF7FEA6C5C1BD001B050EA410C0CBF90
:100A700052EA430C91EA030F02BF90EA020F0020F2
:100A8000704710F1000F91EA030F58BF994208BF59
:100A900090422CBFD8176FEAE37040F00100704716
:100AA0004FEA410C7FEA6C5C02D150EA013C07D16D
:100AB0004FEA430C7FEA6C5CD6D152EA033CD3D0B8
:100AC0005DF8040B704700BF8446104662468C46B2
:100AD0001946634600E000BF01B5FFF7B7FF0028E5
:100AE00048BF10F1000F01BD4DF808EDFFF7F4FF0E
:100AF0000CBF012000205DF808FB00BF4DF808ED99
:100B0000FFF7EAFF34BF012000205DF808FB00BFBB
:100B10004DF808EDFFF7E0FF94BF012000205DF8DD
:100B200008FB00BF4DF808EDFFF7CEFF94BF012092
:100B300000205DF808FB00BF4DF808EDFFF7C4FF8B
:100B400034BF012000205DF808FB00BF4FEA410CD4
:100B50007FEA6C5C02D150EA013C0AD14FEA430CB7
:100B60007FEA6C5C02D152EA033C02D14FF00000F4
:100B700070474FF0010070474FEA410212F5001232
:100B800015D211D56FF47873B3EB625212D94FEAD4
:100B9000C12343F0004343EA505311F0004F23FABE
:100BA00002F018BF404270474FF00000704750EA13
:100BB000013005D111F0004008BF6FF000407047D0
:100BC0004FF00000704700BF4A0011D212F500122A
:100BD00011D20DD56FF47873B3EB62520ED44FEA95
:100BE000C12343F0004343EA505323FA02F0704715
:100BF0004FF00000704750EA013002D14FF0FF3053
:100C000070474FF0000070474FEA4102B2F1E043F5
:100C100024BFB3F5001CDCF1FE5C0DD901F0004CE3
:100C20004FEAC0024CEA5070B2F1004F40EB830033
:100C300008BF20F00100704711F0804F21D113F15F
:100C40003872BCBF01F00040704741F480114FEA98
:100C50005252C2F11802C2F1200C10FA0CF320FA21
:100C600002F018BF40F001004FEAC1234FEAD3233E
:100C700003FA0CFC40EA0C0023FA02F34FEA4303A8
:100C8000CCE77FEA625307D150EA01331EBF4FF031
:100C9000FE4040F44000704701F0004040F0FE404C
:100CA00040F40000704700BF53B94AB9002908BF9B
:100CB00000281CBF4FF0FF314FF0FF3000F072B939
:100CC000ADF1080C6DE904CE00F006F8DDF804E0A3
:100CD000DDE9022304B070472DE9F047089E044681
:100CE0008846002B4BD18A42154667D9B2FA82F268
:100CF0004AB1C2F1200701FA02F320FA07F7954042
:100D000047EA030894404FEA154E230CB8FBFEF760
:100D10001FFA85FC0EFB178843EA084307FB0CF11A
:100D2000994209D9EB1807F1FF3080F01B819942F5
:100D300040F21881023F2B445B1AA4B2B3FBFEF0D1
:100D40000EFB103344EA034400FB0CFCA44509D914
:100D50002C1900F1FF3380F00781A44540F2048193
:100D600002382C4440EA0740A4EB0C0400271EB1D3
:100D7000D4400023C6E900433946BDE8F0878B42E2
:100D800009D9002E00F0EB800027C6E900013846A3
:100D90003946BDE8F087B3FA83F7002F47D18B427D
:100DA00002D3824200F2FA80841A61EB030301202D
:100DB0009846002EE0D0C6E90048DDE702B9FFDE24
:100DC000B2FA82F2002A40F08F80491B4FEA154E9A
:100DD0001FFA85F80127B1FBFEFC230C0EFB1C114A
:100DE00043EA014308FB0CF1994207D9EB180CF1D7
:100DF000FF3002D2994200F2CD808446591AA3B244
:100E0000B1FBFEF00EFB101443EA044408FB00F8AB
:100E1000A04507D92C1900F1FF3302D2A04500F2FA
:100E2000B6801846A4EB080440EA0C409FE7C7F1DF
:100E3000200CBB4022FA0CFE4EEA030E01FA07F426
:100E400020FA0CF521FA0CF34FEA1E482543B3FBB8
:100E5000F8F92C0C08FB19331FFA8EFA44EA034305
:100E600009FB0AF49C4202FA07F200FA07F10BD9D7
:100E70001EEB030309F1FF3080F087809C4240F2B3
:100E80008480A9F1020973441B1BADB2B3FBF8F0D7
:100E900008FB103345EA034400FB0AFAA24508D9CF
:100EA0001EEB040400F1FF336BD2A24569D902386E
:100EB000744440EA0940A0FB0289A4EB0A044C45B3
:100EC000C2464B4654D351D0002E69D0B1EB0A052F
:100ED00064EB030404FA0CFCFD40FC404CEA0505FD
:100EE000C6E90054002747E7C2F1200320FA03F7C0
:100EF000954001FA02F021FA03F34FEA154E384308
:100F0000010CB3FBFEF71FFA85F80EFB173341EA1D
:100F1000034107FB08F38B4204FA02F407D969186E
:100F200007F1FF3C2FD28B422DD9023F2944CB1A27
:100F300081B2B3FBFEF00EFB103341EA034100FB2C
:100F400008F38B4207D9691800F1FF3C17D28B4296
:100F500015D902382944C91A40EA07473BE7374602
:100F6000304609E70746E7E61846FBE64145ABD2BF
:100F7000B8EB020A69EB0E0201381346A4E760469B
:100F8000E9E7184695E76746D1E781467CE70238EE
:100F90002C4447E7ACF1020C2B442FE7384608E716
:100FA0003746E9E6704700BF38B5104C204606F0DA
:100FB000FDF80F4D284606F0F9F80E4806F0F6F851
:100FC000284606F0F3F8204606F0F0F80A4C4FF4F5
:100FD0000041204602F095FF4FF4FA6001F090FEC8
:100FE0004FF40041204602F08CFF38BDE8A1000814
:100FF000ECA1000818A20008000C004800B583B05E
:1010000001F060FE05F070F800F048FDFFF7CCFF3E
:1010100000F098F820220121134805F0EEFB134858
:1010200006F0C4F8002004F0F7FE02A8104B40F8C8
:10103000043D0022012104F057FA0E4B186041F2E2
:10104000883104F065FA02A80B4B40F8083D0022F5
:10105000012104F049FA094B186042F2107104F0C2
:1010600057FA04F03CFAFEE764480220B8A10008F1
:10107000195E0008B0490220F11000081447022050
:10108000F0B585B0164B01221A7000F0CDF810EEC5
:10109000100A10EE904A11EE105A124B83ED000A1E
:1010A000C3ED010A83ED021A0F4B83ED000AC3ED75
:1010B000010A83ED021AFFF757FA06460F46284643
:1010C000FFF752FACDE902012046FFF74DFACDE9CC
:1010D000000132463B46054805F0F4FF05B0F0BD7F
:1010E00008020020FC010020C848022034A20008A9
:1010F00000B5C1B0684600F08DF8012808D0074B54
:1011000000221A70064806F051F841B05DF804FB61
:10111000044806F04BF8FFF7B3FFF6E7080200209B
:10112000ACA10008A0A1000808B50268034B9A42D0
:1011300000D008BD01F0D6FDFBE700BF002C014048
:101140007047000070B594B01B4806F02FF81B4E96
:10115000032108A804F0C2FD354608AC0FCC0FC52A
:101160000FCC0FC594E8070085E8070096F82830F3
:101170002BB9134806F01AF8002014B070BD0321F3
:10118000104805F09FFF0D4E6C4606F110050FCD7F
:101190000FC495E8070084E8070096E80F0004F004
:1011A00081FDB268084B1A603269084B1A60726A96
:1011B000074B1A60E1E700BF5CA20008184A022052
:1011C00084A20008B4A20008144A0220104A022097
:1011D000444A022010B582B0064B1C684FF0FF3322
:1011E00000930B4602462021204600F0CBFD02B0C2
:1011F00010BD00BF144A022038B50546002404E0A3
:10120000285D00F033FC0134E4B2FF2CF8D100F08B
:10121000E5FB38BD10B50446E821FFF7DBFF2046AB
:10122000FFF7EAFF10BD000070B596B005A800F00A
:10123000C3FB9DF81C600898FFF796F90022254B28
:10124000FFF714FB04460D463046FFF77BF92246B4
:101250002B46FFF72BF8FFF7D7FC10909DF82430B2
:10126000732B28D09DF828600B98FFF77DF900229A
:10127000184BFFF7FBFA04460D463046FFF762F9BC
:1012800022462B46FFF712F8FFF7BEFC11909DF89F
:101290003030772B16D00E9B129310AB93E80700DB
:1012A00016AB03E907009DED130ADDED140A9DED71
:1012B000151A16B070BD07EE900AF1EE677ACDED03
:1012C000107ACFE707EE900AF1EE677ACDED117A4A
:1012D000E1E700BF00004E40242801D00020704705
:1012E000022070472C2809D04E2803D0532801D063
:1012F00000207047024B187401207047022070478D
:10130000440200202C2809D0452803D0572801D0BA
:1013100000207047024B1877012070470220704769
:10132000440200202C2808D03038C0B2082806D843
:10133000044B83F8200001207047022070470020F2
:10134000704700BF440200202C2810D0A0F13003C9
:10135000DBB2092B10D8104A12788AB90F4A82F8EA
:1013600028300D4A137801331370012070470A4B5F
:1013700000221A70022070470020074B1870704737
:10138000064991F8282002EB82025300DBB2184490
:10139000303881F82800E4E74102002044020020B0
:1013A000D0B5674B1B780A2B32D8DFE803F006066E
:1013B00037376363318F8F8FBA00A0F13002D2B21A
:1013C000092A03D900205E4B187026E0A0F13004F2
:1013D000C3F10100FFF7B6F841EC110B9FED560B7E
:1013E00007F096FD57EC106B2046FFF7ABF832463E
:1013F0003B46FFF711F906460F46524C2078FFF79F
:10140000A1F832463B46FEF751FFFFF7DDFB2070A7
:101410004B4A1378013313700120D0BDA0F1300284
:10142000D2B2092A03D90020454B1870F5E7A0F184
:101430003004C3F10300FFF785F841EC110B9FED79
:101440003E0B07F065FD57EC106B2046FFF77AF86E
:1014500032463B46FFF7E0F806460F46394C6078C7
:10146000FFF770F832463B46FEF720FFFFF7ACFB74
:101470006070CDE7A0F13002D2B2092A03D9002072
:101480002F4B1870C9E7A0F13004C3F10500FFF736
:1014900059F841EC110B9FED280B07F039FD57EC83
:1014A000106B2046FFF74EF832463B46FFF7B4F884
:1014B00006460F46234C6068FFF756F832463B4617
:1014C000FEF7F4FEFFF7A0FB6060A1E7A0F1300299
:1014D000D2B2092A03D90020194B18709DE7A0F158
:1014E0003004981FFFF72EF841EC110B9FED120B03
:1014F00007F00EFD57EC106B2046FFF723F832463D
:101500003B46FFF7B3F906460F460E4C6068FFF7FF
:101510002BF832463B46FEF7C9FEFFF775FB6060CD
:1015200076E7074B00221A702C2801D0002074E7C0
:10153000022072E7AFF300800000000000002440AA
:101540003E02002044020020D0B56B4B1B780B2BD1
:1015500000F28D80DFE803F0060632328B5E5E5EBD
:101560005E8996C1A0F13002D2B2092A03D90020C7
:10157000614B187080E0A0F13004C3F10100FEF768
:10158000E1FF41EC110B9FED5A0B07F0C1FC57EC4A
:10159000106B2046FEF7D6FF32463B46FFF73CF87D
:1015A00006460F46554C207AFEF7CCFF32463B46A6
:1015B000FEF77CFEFFF708FB207258E0A0F1300236
:1015C000D2B2092A03D900204B4B187054E0A0F185
:1015D0003004C3F10300FEF7B5FF41EC110B9FEDA2
:1015E000440B07F095FC57EC106B2046FEF7AAFF62
:1015F00032463B46FFF710F806460F463F4CE06880
:10160000FEF7B2FF32463B46FEF750FEFFF7FCFA0C
:10161000E0602CE0A0F13002D2B2092A03D9002008
:10162000354B187028E0A0F13004181FFEF78AFF30
:1016300041EC110B9FED2E0B07F06AFC57EC106B81
:101640002046FEF77FFF32463B46FFF70FF906467E
:101650000F462A4CE068FEF787FF32463B46FEF70E
:1016600025FEFFF7D1FAE06001E02C2805D0224AE0
:101670001378013313700120D0BD1F4B00221A7064
:101680000220F9E7A0F13002D2B2092A03D90020E2
:10169000194B1870F0E7A0F13004981FFEF752FFC5
:1016A00041EC110B9FED120B07F032FC57EC106B65
:1016B0002046FEF747FF32463B46FFF7D7F806467F
:1016C0000F460E4CE068FEF74FFF32463B46FEF7F2
:1016D000EDFDFFF799FAE060C9E7074B00221A70A9
:1016E0002C2801D00020C7E70220C5E7AFF3008017
:1016F00000000000000024403F02002044020020BF
:10170000F8B56D4B1B780C2B00F29380DFE803F0EB
:10171000070C0C383891646464648F9CC700674A76
:101720000021117500219161A0F13002D2B2092A85
:1017300003D90020604B187080E0A0F13006C3F19F
:101740000200FEF7FFFE41EC110B9FED590B07F075
:10175000DFFB55EC104B3046FEF7F4FE22462B46DD
:10176000FEF75AFF06460F46544C207DFEF7EAFE70
:1017700032463B46FEF79AFDFFF726FA207558E001
:10178000A0F13002D2B2092A03D900204A4B1870C6
:1017900054E0A0F13006C3F10400FEF7D3FE41ECA3
:1017A000110B9FED430B07F0B3FB55EC104B30468C
:1017B000FEF7C8FE22462B46FEF72EFF06460F46D2
:1017C0003E4CA069FEF7D0FE32463B46FEF76EFD6A
:1017D000FFF71AFAA0612CE0A0F13002D2B2092A78
:1017E00003D90020344B187028E0A0F13006581FB0
:1017F000FEF7A8FE41EC110B9FED2D0B07F088FBC7
:1018000055EC104B3046FEF79DFE22462B46FFF767
:101810002DF806460F46294CA069FEF7A5FE324674
:101820003B46FEF743FDFFF7EFF9A06101E02C28EE
:1018300005D0214A1378013313700120F8BD1E4BE7
:1018400000221A700220F9E7A0F13002D2B2092A70
:1018500003D90020184B1870F0E7A0F13006581F8C
:10186000FEF770FE41EC110B9FED110B07F050FBE2
:1018700055EC104B3046FEF765FE22462B46FEF730
:10188000F5FF06460F460D4CA069FEF76DFE324689
:101890003B46FEF70BFDFFF7B7F9A061C9E7064B22
:1018A00000221A702C2801D00020C7E70220C5E7CB
:1018B00000000000000024404002002044020020FC
:1018C000F8B52C2820D02E282FD0A0F13003DBB281
:1018D000092B2ED8344B1B787BB3344B1B78002B51
:1018E00037D1334BD3ED097AB2EE047A27EE877AFB
:1018F000A0F1300207EE902AF8EEE77A77EE877AC9
:10190000C3ED097A012017E00023274A1370274A04
:101910001370284C264D0FCD0FC40FCD0FC495E882
:10192000070084E80700022006E001201F4B187022
:1019300002E000201C4B1870F8BD303807EE900A0A
:10194000F8EEE77A1A4BC3ED097A0120164B1870AE
:10195000F2E7A0F130041846FEF7E4FD41EC110B6C
:101960009FED0F0B07F0D4FA57EC106B2046FEF7F3
:10197000E9FD32463B46FEF779FF06460F460C4C22
:10198000606AFEF7F1FD32463B46FEF78FFCFFF73B
:101990003BF96062054A1378013313700120CBE7ED
:1019A0000000000000002440420200203C02002011
:1019B000440200200C02002070B406460446064D86
:1019C0000FCD0FC40FCD0FC495E8070084E80700C2
:1019D000304670BC704700BF0C020020034B93F8E8
:1019E0002000003018BF0120704700BF0C0200200B
:1019F000074B00221A705A70002159601A72D96080
:101A00005F2018741A759961187783F82020704741
:101A10004402002000B583B00246124B93E8030055
:101A20000090ADF80410090C8DF806100E4B1B78D1
:101A300002A9194411F8081C914205D000200A4B54
:101A4000187003B05DF804FB052B04D00133064A7F
:101A500013700120F5E7044B00221A70FFF7C8FF4E
:101A60000220EEE7D8A200083D0200200A2810D08C
:101A70000D280ED038B5074C074D2B681B01E358D5
:101A800098472B6800EB830004EB800463682B60AD
:101A900038BD7047E0A200083802002008B504F005
:101AA000F7F808BD03689A6912F0020F01D000220E
:101AB0009A6203689A6912F0010F03D19A6942F0A1
:101AC00001029A61704770B4039E05686868740DDE
:101AD00004F4806444F07F7444F4583444F47F7414
:101AE00044F0030420EA0400C1F3090141EA024181
:101AF000194331430143696070BC704770B50446B7
:101B00000D46164603689B6913F0100F1CD023681E
:101B10009A6912F0200F19D1B5F1FF3FF7D001F00B
:101B2000E9F8801BA84201D8002DF0D1636C43F086
:101B300020036364202384F84130002384F842307A
:101B400084F84030012020E000201EE01022DA61FD
:101B500023682025DD612046FFF7A4FF2268536833
:101B600023F0FF7323F48B3323F4FF7323F001037B
:101B70005360636C43F00403636484F841500023B2
:101B800084F8423084F84030012070BDF8B5054635
:101B90000F4616461C462B689B6937EA03030CBFA9
:101BA00001230023B34218D1B4F1FF3FF3D001F079
:101BB000A1F8069BC01AA04201D8002CEBD16B6C97
:101BC00043F020036B64202385F84130002385F81F
:101BD000423085F84030012000E00020F8BD70B5AB
:101BE00005460C4616462B689B6913F0200F1AD148
:101BF000324621462846FFF781FFB0B901F07AF856
:101C0000801BA04201D8002CEDD16B6C43F0200367
:101C10006B64202385F84130002385F8423085F835
:101C20004030012070BD0020FCE70120FAE770B5CC
:101C300004460D46164623689B6913F0040F3ED1F7
:101C4000324629462046FFF759FF0146002838D181
:101C500023689A6912F0200F13D101F04BF8801B12
:101C6000A84201D8002DE6D1636C43F020036364E1
:101C7000202384F84130002384F8403001210846B5
:101C800070BD9A6912F0040F02D0228D002AF6D19D
:101C90002022DA6121684B6823F0FF7323F48B3331
:101CA00023F4FF7323F001034B600023636484F883
:101CB000412084F8423084F840300121DFE70021E0
:101CC000DDE70121DBE7002859D010B5044690F884
:101CD0004130002B43D0242384F84130226813681C
:101CE00023F0010313606368226823F070631361BB
:101CF0002268936823F400439360E368012B33D098
:101D0000A368226843F404439360E368022B31D054
:101D10002268536843F0007343F400435360226821
:101D2000D36823F40043D360236962691343A16934
:101D3000226843EA0123D360E369216A22680B43E6
:101D400013602268136843F001031360002060648D
:101D5000202384F84130206384F8420010BD80F8CD
:101D6000403004F03DFAB6E7A368226843F400432C
:101D70009360CAE723684FF400625A60C8E7012005
:101D8000704700002DE9F04383B090F84150EDB268
:101D9000202D40F0A48090F84040012C00F0A48059
:101DA000984617460E4604464FF0010980F84090C9
:101DB00000F0A0FF0546009019234A464FF4004169
:101DC0002046FFF7E3FE002840F09080222384F8AD
:101DD0004130102384F84230002363646762A4F822
:101DE0002A806363638D9BB2FF2B0AD9FF22228571
:101DF000424B00934FF0807331462046FFF763FE5D
:101E000018E0628D92B222853C4B00934FF0007334
:101E1000D2B231462046FFF756FE0BE0628D92B2F9
:101E20002285002300934FF00073D2B23146204642
:101E3000FFF749FE638D9BB2002B33D02A460A99E7
:101E40002046FFF7F4FE002852D123685A6A636ADD
:101E50001A70636A01336362238D013B9BB2238551
:101E6000628D013A92B26285628D92B2002AE1D00F
:101E7000002BDFD100950A9B002280212046FFF72E
:101E800085FE002836D1638D9BB2FF2BC6D9FF2279
:101E90002285002300934FF0807331462046FFF7E0
:101EA00012FEC7E72A460A992046FFF798FE034626
:101EB00010BB22682021D1612068426822F0FF72A5
:101EC00022F48B3222F4FF7222F00102426084F885
:101ED0004110002284F8422084F8402000E00223D0
:101EE000184603B0BDE8F0830223F9E70123F7E7C2
:101EF0000123F5E70123F3E70123F1E70024008044
:101F000090F84130DBB2202B24D190F84030012BE7
:101F100022D0012380F84030242380F84130026829
:101F2000136823F0010313600268136823F48053DD
:101F3000136002681368194311600268136843F064
:101F400001031360202380F84130002380F84030E3
:101F500018467047022070470220704790F84130C1
:101F6000DBB2202B22D190F84030012B20D001236E
:101F700080F84030242380F841300268136823F051
:101F8000010313600268136823F4706343EA0121BC
:101F900011600268136843F001031360202380F886
:101FA0004130002380F840301846704702207047C7
:101FB000022070477047000030B585B004460268C3
:101FC00050689368C3F3801149B913F0010F06D02C
:101FD00010F0400F03D0E36C2046984708E013F060
:101FE000020F07D010F0800F04D0236D20469847D1
:101FF00005B030BDC3F340151DB911B913F4807F8E
:10200000F6D010F0200FF3D079B194F85D10C9B27A
:10201000032953D0216E41F0040121660021009173
:10202000D168009191680091009965B1216E41F0ED
:10203000010121660021029191680291116821F04D
:1020400040011160029A13F4807F09D0236E43F09F
:10205000080323660023039323689B680393039B71
:10206000236E002BC4D02268536823F0E003536032
:10207000012384F85D3010F0030F27D022685368E5
:1020800023F003035360A36D4BB1124A9A63A06D12
:1020900001F03BFF18B1236E43F040032366636DEC
:1020A000002BA5D00B4A9A63606D01F02EFF00282B
:1020B0009ED0236E43F04003236699E700230193EB
:1020C000D368019393680193019B91E72046FFF742
:1020D00071FF8DE7D920000808B5806A0023A0F8B9
:1020E0004630C387FFF766FF08BD40B338B50446E6
:1020F00003684CF6CC421A60036845F255521A60E8
:10210000036842685A60036882689A6000F0F2FDD2
:1021100005462368DA6832B100F0ECFD401B302838
:10212000F7D9032038BD1969E268914202D01A61DB
:102130000020F7E74AF6AA221A600020F2E7012001
:1021400070470268136823F4907313600268936801
:1021500023F001039360202380F87230002303668C
:102160007047704708B501680A6822F040020A60AB
:10217000202280F8712000224266FFF7F2FF08BD9E
:102180007047000038B504460268D369116890684A
:1021900013F00F050CD113F0200F09D011F0200F10
:1021A00006D0236E002B00F09380204698478FE0E6
:1021B000002D6FD010F0010502D111F4907F69D08D
:1021C00013F0010F07D011F4807F04D001201062BA
:1021D000626F0243626713F0020F07D035B12268C5
:1021E00002201062626F42F00402626713F0040F73
:1021F00007D035B1226804201062626F42F00202FB
:10220000626713F0080F09D011F0200F00D12DB133
:10221000226808201062626F02436267626F002AC0
:1022200056D013F0200F06D011F0200F03D0236EEC
:102230000BB120469847636F13F0080F04D1236851
:102240009B6813F0400F1FD02046FFF77AFF2368EA
:102250009A6812F0400F13D09A6822F040029A60F8
:10226000E36E4BB11D4A9A63E06E01F04EFE78B307
:10227000E06E836B98472BE02046FFF781FF27E055
:102280002046FFF77DFF23E02046FFF779FF00237C
:1022900063671DE013F4801F02D010F4800F0AD191
:1022A00013F0800F0ED011F0800F0BD0636E7BB156
:1022B000204698470CE04FF480131362204600F04C
:1022C00093FB05E013F0400F02D011F0400F00D156
:1022D00038BD2046FFF746FFFAE700BFE1220008BD
:1022E00008B5806A0023A0F85A30A0F85230FFF7F2
:1022F00047FF08BD2DE9F04804460168836802697C
:10230000134342691343C26913430868A24A024057
:1023100013430B602268536823F44053E1680B4376
:102320005360A16922689D4B9A4201D0236A1943E8
:10233000936823F430630B4393602368984A934275
:1023400027D0984A934238D0974A93424ED0974A22
:10235000934261D0964A934274D0904A934200F0DF
:102360008A8010258D4A934200F0AA80E369B3F574
:10237000004F00F03581082D00F2BF81DFE815F035
:102380007F0195019F01BD01AA01BD01BD01BD01F4
:10239000B40102F55842D2F8882002F00302032A61
:1023A00009D8DFE802F0020481060125DAE70425F6
:1023B000D8E70825D6E71025D4E702F5E632D2F8AB
:1023C000882002F00C020C2A0ED8DFE802F0070D7C
:1023D0000D0D090D0D0D6F0D0D0D0B000025C1E745
:1023E0000425BFE70825BDE71025BBE702F5E43269
:1023F000D2F8882002F03002102A09D005D9202A0C
:1024000056D0302A06D10825ACE71AB90025A9E72D
:102410000425A7E71025A5E702F5E232D2F88820C7
:1024200002F0C002402A09D005D9802A42D0C02A31
:1024300006D1082596E71AB9002593E7042591E708
:1024400010258FE702F5E032D2F8882002F44072BE
:10245000B2F5807F0BD007D9B2F5007F2CD0B2F552
:10246000407F06D108257DE71AB900257AE70425C3
:1024700078E7102576E702F5C832D2F8882002F412
:102480004062B2F5806F0BD007D9B2F5006F15D05E
:10249000B2F5406F06D1082564E71AB9002561E757
:1024A00004255FE710255DE702255BE7022559E774
:1024B000022557E7022555E7022553E7022551E794
:1024C000082D00F21D81DFE815F00C001B0114003F
:1024D0001B0111001B011B011B0109004FF40040EF
:1024E00008E001F05BF828B90020D9E000F060FCBA
:1024F000F9E73048626802EB4203834200F202814E
:10250000B0EB023F00F20081082D66D8DFE805F04D
:102510000565206530656565580001F03FF80025C8
:10252000070E0602626850082B4616EB000B47F1B7
:10253000000C58466146FEF7B7FB03462846A3F554
:1025400040711D4A914200F2E1802268D360A7E009
:10255000560800252B46DFF864B04FF0000C1BEB4B
:1025600006004CF10001FEF79FFB03462846E6E714
:1025700000F01EFC0025070E0602626850082B467C
:1025800016EB000B47F1000C58466146FEF78CFB3A
:1025900003462846D3E700BFF369FFEF0080004001
:1025A000003801400044004000480040004C00401A
:1025B000005000400024F400FFFC0F00000024F451
:1025C0005008002700252B4610F5000047F10001B8
:1025D000FEF76AFB03462846B1E701200023AEE779
:1025E000082D49D8DFE805F0051E29483448484839
:1025F0003F0000F0D3FF6268530803EB4003B3FBD6
:10260000F2F39BB20020A3F110014FF6EF7291425A
:102610007ED89AB222F00F02C3F34203134322681A
:10262000D3603DE000F0CCFF6268530803EB400349
:10263000B3FBF2F39BB20020E5E76268530803F1B5
:10264000F47303F59043B3FBF2F39BB20020DAE797
:1026500000F0AEFB6268530803EB4003B3FBF2F3F8
:102660009BB20020CFE76268530803F58033B3FBC9
:10267000F2F39BB20020C6E701200023C3E700F07D
:102680008DFF636800EB5302B2FBF3F292B20020BD
:10269000A2F110014FF6EF7399423BD82368DA603C
:1026A000002222666266BDE8F08800F089FF636858
:1026B00000EB5302B2FBF3F292B20020E8E763684A
:1026C0005A0802F5740202F51052B2FBF3F292B20C
:1026D0000020DDE700F06CFB636800EB5302B2FB07
:1026E000F3F292B20020D3E763685A0802F5004281
:1026F000B2FBF3F292B20020CAE701200022C7E742
:102700000120CDE70120CBE70120C9E70120C7E781
:102710000120C5E70120C3E7436A13F0010F06D08B
:102720000268536823F40033816A0B435360436AA1
:1027300013F0020F06D00268536823F48033C16A95
:102740000B435360436A13F0040F06D002685368CA
:1027500023F48023016B0B435360436A13F0080F8B
:1027600006D00268536823F40043416B0B43536067
:10277000436A13F0100F06D00268936823F4805365
:10278000816B0B439360436A13F0200F06D00268FD
:10279000936823F40053C16B0B439360436A13F0B7
:1027A000400F0AD00268536823F48013016C0B4376
:1027B0005360036CB3F5801F0BD0436A13F0800F96
:1027C00006D00268536823F40023816C0B435360E6
:1027D00070470268536823F4C003416C0B43536095
:1027E000EBE72DE9F04105460F4616469846069C54
:1027F0002B68DB6937EA03030CBF01230023B342D4
:102800001DD1B4F1FF3FF3D02CB100F073FAA0EB6F
:102810000800A042ECD92A68136823F4D07313602F
:102820002A68936823F001039360202385F87130B0
:1028300085F87230002385F87030032000E0002016
:10284000BDE8F0812DE9F04182B01E4690F871306C
:10285000DBB2202B4ED104460D46904600294ED0C7
:10286000002A4ED090F87030012B4CD0012380F814
:10287000703000234367212380F8713000F03AFA6A
:102880000746A4F85080A4F8528009E023682A780B
:102890001A850135B4F85230013B9BB2A4F852308E
:1028A000B4F852309BB2ABB100963B460022802177
:1028B0002046FFF796FF40BBA368B3F5805FE5D1E4
:1028C0002369002BE2D1226835F8023BC3F30803E9
:1028D0001385DFE700963B46002240212046FFF7A4
:1028E00080FF034698B9202284F87120002284F8E2
:1028F000702000E00223184602B0BDE8F0810123F9
:10290000F9E70123F7E70223F5E70323F3E70323BE
:10291000F1E730B583B004460023436700F0EAF9DD
:10292000054623681B6813F0080F0ED123681B6847
:1029300013F0040F17D1202384F8713084F872301B
:10294000002084F8700003B030BD6FF07E43009328
:10295000034600224FF400112046FFF742FF0028F3
:10296000E4D00320EFE76FF07E4300932B46002274
:102970004FF480012046FFF734FF0028DBD003200E
:10298000E1E778B310B5044690F871300BB3242317
:1029900084F871302268136823F001031360204625
:1029A000FFF7A8FC012813D0636ABBB922685368FB
:1029B00023F4904353602268936823F02A039360C2
:1029C0002268136843F0010313602046FFF7A1FF5C
:1029D00010BD80F8703003F0C9FCD8E72046FFF73F
:1029E0009BFEE3E701207047704770470268D36899
:1029F00043F00103D36002689168084B0B40062B3B
:102A000009D09168054B0B40B3F5803F03D01368A4
:102A100043F0010313600020704700BF070001006E
:102A2000704770477047704710B5044603681A69CD
:102A300012F0020F11D0DA6812F0020F0DD06FF011
:102A400002021A610123037703689B6913F0030FE5
:102A500079D0FFF7E6FF0023237723681A6912F085
:102A6000040F12D0DA6812F0040F0ED06FF00402D7
:102A70001A610223237723689B6913F4407F68D08F
:102A80002046FFF7CEFF0023237723681A6912F050
:102A9000080F12D0DA6812F0080F0ED06FF008029B
:102AA0001A61042323772368DB6913F0030F57D0DF
:102AB0002046FFF7B6FF0023237723681A6912F038
:102AC000100F12D0DA6812F0100F0ED06FF0100253
:102AD0001A61082323772368DB6913F4407F46D00B
:102AE0002046FFF79EFF0023237723681A6912F020
:102AF000010F03D0DA6812F0010F3FD123681A6981
:102B000012F0800F03D0DA6812F0800F3DD12368F5
:102B10001A6912F4807F03D0DA6812F0800F3BD17B
:102B200023681A6912F0400F03D0DA6812F0400FE0
:102B300039D123681A6912F0200F03D0DA6812F035
:102B4000200F37D110BDFFF76BFF2046FFF76AFF5C
:102B500081E72046FFF764FF2046FFF763FF92E717
:102B60002046FFF75DFF2046FFF75CFFA3E7204606
:102B7000FFF756FF2046FFF755FFB4E76FF001025D
:102B80001A612046FEF7D0FAB8E76FF080021A61AA
:102B9000204600F095F8BAE76FF480721A6120467B
:102BA00000F08FF8BCE76FF040021A612046FFF793
:102BB0003AFFBEE76FF020021A61204600F07FF86E
:102BC000C0E700000368304A904212D0B0F1804F55
:102BD0000FD0A2F5943290420BD002F58062904261
:102BE00007D002F58062904203D002F59432904201
:102BF00003D123F070034A681343234A90421ED046
:102C0000B0F1804F1BD0A2F59432904217D002F55C
:102C10008062904213D002F5806290420FD002F59C
:102C2000943290420BD002F54062904207D002F5F8
:102C30008062904203D002F58062904203D123F477
:102C40004073CA68134323F080034A691343036047
:102C50008B68C3620B6883620B4B98420FD003F5FD
:102C6000006398420BD003F54063984207D003F508
:102C70008063984203D003F58063984201D10B69C9
:102C80000363012343617047002C0140A8B110B5D4
:102C9000044690F83D305BB1022384F83D30211D9D
:102CA0002068FFF78FFF012384F83D30002010BD1E
:102CB00080F83C30FFF799FEEEE70120704770473F
:102CC0007047704710B5032001F0A0F9002003F011
:102CD00011FC10B10124204610BD044603F060FA37
:102CE000F9E70000024A136801331360704700BF20
:102CF000484A0220014B1868704700BF484A02202A
:102D000038B50446FFF7F6FF0546B4F1FF3F00D0A3
:102D10000134FFF7EFFF401BA042FAD338BD00009B
:102D200030B583B00546204B9B6D13F0805F0BD010
:102D300001F014F9B0F5007F17D0802D1FD82DD0E9
:102D4000702D2DD000211BE0174CA36D43F0805354
:102D5000A365A36D03F080530193019B01F0FEF87E
:102D6000A36D23F08053A365E4E7802D03D9A02D44
:102D700003D9022104E0002102E0012100E0032147
:102D80000A4A136823F007030B431360136803F028
:102D900007038B4206D0012003B030BD0221EFE7CC
:102DA0000121EDE70020F7E700100240002002407B
:102DB000314A9368D26802F0030213F00C030AD080
:102DC0000C2B06D0042B1FD0082B20D0002001464E
:102DD00010E0012AF6D1284A126812F0080F0CD12F
:102DE000254AD2F89420C2F30322244951F8221034
:102DF00043B100200C2B0DD070471F4A1268C2F35C
:102E00000312F2E70846F5E71D480021F2E71D48E6
:102E10000021EFE7184BDA6802F00302DB68C3F326
:102E200002130133022A0AD0032A1AD0B1FBF3F3AA
:102E3000114AD068C0F3062000FB03F008E01048F8
:102E4000B0FBF3F30C4AD068C0F3062000FB03F09C
:102E5000094BDB68C3F3416301335B00B0FBF3F064
:102E6000CAE70848B0FBF3F3034AD068C0F3062072
:102E700000FB03F0ECE700BF00100240B0A3000825
:102E80000024F40000127A00002800F0C182F0B59E
:102E900083B00446AC4B9D6805F00C05DE6806F077
:102EA0000306036813F0100F5DD0E5B10C2D18D0A8
:102EB000A369002B00F0B780A34A136843F0010315
:102EC0001360FFF717FF07469F4B1B6813F0020FB5
:102ED00040F09680FFF70EFFC01B0228F4D90323B1
:102EE000A2E2012EE4D1984B1B6813F0020F03D02D
:102EF000A369002B00F08F82206A934B1B6813F0AC
:102F0000080F5DD0904B1B6803F0F00398425ED928
:102F1000FFF706FF002840F080828B4B1A6842F0D2
:102F200008021A601A6822F0F002216A0A431A6045
:102F30005A6822F47F42E16942EA01225A60FFF7AF
:102F400037FF814B9B68C3F30313804AD35C03F0C4
:102F50001F03D8407E4B1860002003F0CBFA0346D5
:102F6000002840F06182236813F0010F7AD0082D09
:102F70006FD00C2D6BD06368B3F5803F00F091806B
:102F8000B3F5A02F00F093806F4B1A6822F48032C3
:102F90001A601A6822F480221A606368002B00F01D
:102FA0009380FFF7A7FE0746674B1B6813F4003FAB
:102FB00058D1FFF79FFEC01B6428F5D9032333E2E5
:102FC000614BD3F894301B0903F0F0039EE75E4B8E
:102FD0001A6842F008021A601A6822F0F002216AA8
:102FE0000A431A605A6822F47F42E16942EA0122E8
:102FF0005A60206AFFF794FE0028A0D0012313E254
:10300000514B1A6842F008021A601A6822F0F00266
:10301000216A0A431A605A6822F47F42E16942EA4F
:1030200001225A609FE7484A136823F001031360A6
:10303000FFF760FE0746444B1B6813F0020F92D067
:10304000FFF758FEC01B0228F5D90323ECE1032E3D
:1030500091D13D4B1B6813F4003F03D06368002BF4
:1030600000F0DD81236813F0020F4FD0042D3CD017
:103070000C2D38D0E368002B75D0334A136843F425
:1030800080731360FFF736FE06462F4B1B6813F460
:10309000806F5FD1FFF72EFE801B0228F5D9032336
:1030A000C2E1294A136843F48033136075E703F1E2
:1030B0008043A3F53C331A6842F480221A601A68F0
:1030C00042F480321A6068E7FFF714FE07461E4B91
:1030D0001B6813F4003FC5D0FFF70CFEC01B64282B
:1030E000F5D90323A0E1022EC4D1174B1B6813F4BA
:1030F000806F03D0E368002B00F09381124A53687D
:1031000023F0FE43216943EA01635360236813F00F
:10311000080F53D06369002B39D00B4AD2F8943092
:1031200043F00103C2F89430FFF7E4FD0646064B76
:10313000D3F8943013F0020F40D1FFF7DBFD801B72
:103140000228F4D903236FE10010024098A300087D
:1031500004000020B74A536823F0FE43216943EA84
:1031600001635360D2E7B34A136823F4807313609A
:10317000FFF7C0FD0646AF4B1B6813F4806FC5D048
:10318000FFF7B8FD801B0228F5D903234CE1A94ABB
:10319000D2F8943023F00103C2F89430FFF7AAFD6F
:1031A0000646A44BD3F8943013F0020F06D0FFF775
:1031B000A1FD801B0228F4D9032335E1236813F015
:1031C000040F7AD09B4B9B6D13F0805F0BD1994B12
:1031D0009A6D42F080529A659B6D03F08053019383
:1031E000019B012600E00026934B1B6813F4807FAF
:1031F00026D0A368012B37D0052B3DD08D4BD3F8BB
:10320000902022F00102C3F89020D3F8902022F001
:103210000402C3F89020A368002B3BD0FFF76AFD9F
:103220000746844BD3F8903013F0020F44D1FFF7D8
:1032300061FDC01B41F288339842F2D90323F3E0C9
:103240007D4A136843F480731360FFF753FD07460C
:10325000794B1B6813F4807FCBD1FFF74BFDC01B6C
:103260000228F5D90323DFE0724AD2F8903043F008
:103270000103C2F89030CEE76E4BD3F8902042F0B5
:103280000402C3F89020D3F8902042F00102C3F862
:103290009020C0E7FFF72EFD0746664BD3F890302D
:1032A00013F0020F08D0FFF725FDC01B41F2883351
:1032B0009842F2D90323B7E0E6B9236813F0200F50
:1032C00035D0636AE3B15B4AD2F8983043F001032A
:1032D000C2F89830FFF70EFD0646564BD3F89830EB
:1032E00013F0020F23D1FFF705FD801B0228F4D94C
:1032F000032399E04F4A936D23F080539365DCE7F5
:103300004C4AD2F8983023F00103C2F89830FFF706
:10331000F1FC0646474BD3F8983013F0020F06D065
:10332000FFF7E8FC801B0228F4D903237CE0A36AA2
:10333000002B78D00C2D7AD0022B23D03D4B1A686D
:1033400022F080721A601B6813F0205F04D1394AA2
:10335000D36823F00303D360364AD36823F088731D
:1033600023F48033D360FFF7C5FC0446314B1B6860
:1033700013F0007F4AD0FFF7BDFC001B0228F5D9EF
:10338000032351E02B4A136823F080731360FFF787
:10339000B1FC0546274B1B6813F0007F06D0FFF7F2
:1033A000A9FC401B0228F5D903233DE0236B5A1EDC
:1033B000636B1B0243EA0213E26A1343E26B520897
:1033C000013A43EA4253226C5208013A43EA42630B
:1033D000A26B43EAC263174AD360136843F0807359
:1033E0001360D36843F08073D360FFF783FC044617
:1033F000104B1B6813F0007F06D1FFF77BFC001B0E
:103400000228F5D903230FE000230DE000230BE091
:10341000012318467047012306E0012304E001233D
:1034200002E0012300E00023184603B0F0BD0123B1
:10343000FAE700BF0010024000700040002800F0D2
:103440009A8070B504464E4B1B6803F007038B420D
:103450000CD24B4A136823F007030B431360136825
:1034600003F007038B4201D0012070BD0D46236895
:1034700013F0010F39D06368032B09D0022B26D03B
:1034800063BB404A126812F0020F06D10120ECE73C
:103490003C4A126812F0007F6FD03A498A6822F0E5
:1034A000030213438B60FFF725FC0646354B9B68F0
:1034B00003F00C036268B3EB820F16D0FFF71AFC1F
:1034C000801B41F288339842F0D90320CDE72D4A82
:1034D000126812F4003FE0D10120C6E7294A1268C1
:1034E00012F4806FD9D10120BFE7236813F0020FD7
:1034F00006D0244A936823F0F003A1680B4393603D
:103500001F4B1B6803F00703AB420CD91C4A13681E
:1035100023F007032B431360136803F00703AB4248
:1035200001D00120A1E7236813F0040F06D0154A4B
:10353000936823F4E063E1680B439360236813F01E
:10354000080F07D00F4A936823F46053216943EAB8
:10355000C1039360FFF72CFC0A4B9B68C3F3031372
:10356000094AD35C03F01F03D840084B18600020C1
:1035700002F0C0FF79E701207047012075E700BF26
:10358000002002400010024098A300080400002020
:10359000014B1868704700BF0400002008B5FFF712
:1035A000F7FF054B9B68C3F30223044AD35C03F087
:1035B0001F03D84008BD00BF00100240A8A30008A8
:1035C00008B5FFF7E5FF054B9B68C3F3C223044A28
:1035D000D35C03F01F03D84008BD00BF00100240B9
:1035E000A8A300080F2303600B4B9A6802F00302A4
:1035F00042609A6802F0F00282609A6802F4E06227
:10360000C2609B68DB0803F4E0630361034B1B6843
:1036100003F007030B6070470010024000200240D7
:10362000F8B5594BDB6813F0030F18D0564BDB6825
:1036300003F003030268934202D001252846F8BD37
:10364000002A00F09F80504BDB68C3F30213013364
:103650004268934201D00125F0E700251AE0036893
:10366000022B58D0032B5DD0012B01D001250FE098
:10367000454A126812F0020F60D0434DEA6822F00A
:1036800073024468013C43EA04131343EB600025D2
:10369000002DD3D10F4604463B4A136823F08063C4
:1036A0001360FFF727FB0646374B1B6813F0006FCC
:1036B00005D0FFF71FFB801B0228F5D90325002D3D
:1036C000BCD1002F3CD130490B6923F0784323F45F
:1036D000FE43A068E268D20642EA002213430B616F
:1036E000294A136843F080631360FFF703FB064623
:1036F000254B1B6813F0006F05D1FFF7FBFA801B09
:103700000228F5D90325002D98D11F4A1369A16914
:103710000B43136192E71C4A126812F4806FACD11C
:103720000125B5E7184A126812F4003FA5D1164AE0
:10373000126812F4802FA0D10125A9E70125A7E77F
:10374000012F0FD01048026922F0C06222F4FE421D
:10375000A16863695B08013B5B0643EA01231343ED
:103760000361BDE70848026922F4C00222F4FE4268
:10377000A16823695B08013B5B0543EA012313430E
:103780000361ADE7012559E700100240F8B5504B41
:10379000DB6813F0030F18D04D4BDB6803F0030315
:1037A0000268934202D001252846F8BD002A00F0A5
:1037B0008D80474BDB68C3F30213013342689342A9
:1037C00001D00125F0E700251AE00368022B58D04C
:1037D000032B5DD0012B01D001250FE03C4A12687C
:1037E00012F0020F60D03A4DEA6822F0730244688A
:1037F000013C43EA04131343EB600025002DD3D1B1
:103800000F460446324A136823F080531360FFF7D3
:1038100071FA06462E4B1B6813F0005F05D0FFF7C8
:1038200069FA801B0228F5D90325002DBCD1002F91
:103830003CD127494B6923F0784323F4FE43A06829
:10384000E268D20642EA002213434B61204A136821
:1038500043F080531360FFF74DFA06461C4B1B687C
:1038600013F0005F05D1FFF745FA801B0228F5D958
:103870000325002D98D1164A536961690B435361A2
:1038800092E7134A126812F4806FACD10125B5E7B4
:103890000F4A126812F4003FA5D10D4A126812F4C3
:1038A000802FA0D10125A9E70125A7E70848426993
:1038B00022F0C06222F4FE42A16823695B08013B4A
:1038C0005B0643EA012313434361BFE701256BE72E
:1038D000001002402DE9F04182B00446036813F461
:1038E000006F2FD0836EB3F5800F25D008D9B3F5C4
:1038F000000F10D0B3F5400F40F09980002610E083
:10390000002B40F0948000210430FFF789FE06462A
:103910003EB1374618E05E4AD36843F48033D36043
:1039200000265B4AD2F8883023F44003A16E0B4393
:10393000C2F88830002707E000212030FFF726FF7B
:103940000646E5E700273E46236813F4805F15D05E
:10395000E36EB3F1807F7AD06CD9B3F1007F70D081
:10396000B3F1407F7AD1002E7BD1494AD2F888301A
:1039700023F04073E16E0B43C2F88830236813F4E0
:10398000003F00F08E80424B9B6D13F0805F6AD148
:103990003F4B9A6D42F080529A659B6D03F08053C5
:1039A0000193019B4FF001083A4A136843F4807376
:1039B0001360FFF79FF90546364B1B6813F4807FB1
:1039C00005D1FFF797F9401B0228F5D90326002EF1
:1039D00062D12F4BD3F8903013F4407316D0D4F843
:1039E00088209A4212D02A4AD2F8903023F44073A9
:1039F000D2F8901041F48031C2F89010D2F89010B3
:103A000021F48031C2F89010C2F8903013F0010F09
:103A10002CD1002E40F051811D4AD2F8903023F471
:103A20004073D4F888100B43C2F8903035E001277A
:103A30003E4689E793B90021201DFFF7F1FD0646B8
:103A400091E7134AD36843F48033D3608BE70021B6
:103A500004F12000FFF79AFE064684E701273E4660
:103A60008CE737468AE74FF000089DE7FFF742F9F9
:103A70000546074BD3F8903013F0020FC9D1FFF77A
:103A800039F9401B41F288339842F2D90326C0E746
:103A900000100240007000403746B8F1000F40F0BF
:103AA0000E81236813F0010F08D0A44AD2F88830A1
:103AB00023F00303A16B0B43C2F88830236813F093
:103AC000020F08D09D4AD2F8883023F00C03E16B36
:103AD0000B43C2F88830236813F0040F08D0974ACC
:103AE000D2F8883023F03003216C0B43C2F88830C1
:103AF000236813F0080F08D0904AD2F8883023F0DA
:103B0000C003616C0B43C2F88830236813F0100FB8
:103B100008D08A4AD2F8883023F44073A16C0B4352
:103B2000C2F88830236813F0200F08D0834AD2F8F7
:103B3000883023F44063E16C0B43C2F8883023687B
:103B400013F4007F08D07D4AD2F8883023F4402354
:103B5000216E0B43C2F88830236813F4806F08D0BD
:103B6000764AD2F8883023F44013616E0B43C2F8D2
:103B70008830236813F0400F08D0704AD2F888309C
:103B800023F44053216D0B43C2F88830236813F0AF
:103B9000800F08D0694AD2F8883023F44043616D21
:103BA0000B43C2F88830236813F4807F08D0634A3F
:103BB000D2F8883023F44033A16D0B43C2F888302B
:103BC000236813F4801F08D05C4AD2F89C3023F09D
:103BD0000303E16D0B43C2F89C30236813F4005FCC
:103BE0000FD0564AD2F8883023F04063216F0B4340
:103BF000C2F88830236FB3F1006F66D0B3F1806FE5
:103C000068D0236813F4002F0FD04C4AD2F88830C4
:103C100023F04063616F0B43C2F88830636FB3F1E8
:103C2000006F5FD0B3F1806F61D0236813F4802FF1
:103C30000FD0424AD2F8883023F04063A16F0B4383
:103C4000C2F88830A36FB3F1006F58D0B3F1806F22
:103C50005AD0236813F4804F0FD0384AD2F88830F6
:103C600023F04053E16F0B43C2F88830E36FB3F1A8
:103C7000805F51D0B3F1005F56D0236813F4004F3A
:103C800009D02E4AD2F8883023F08043D4F880102F
:103C90000B43C2F88830236813F4803F09D0274AC9
:103CA000D2F8883023F00043D4F884100B43C2F8D4
:103CB0008830384602B0BDE8F0813746EDE61F4A4D
:103CC000936D23F080539365EBE6D36843F4801340
:103CD000D36096E70121201DFFF7A2FC002890D0B9
:103CE00007468EE7D36843F48013D3609DE7012134
:103CF000201DFFF795FC002897D0074695E7D3686D
:103D000043F48013D360A4E70121201DFFF788FC52
:103D100000289ED007469CE70221201DFFF780FC6B
:103D20000028AAD00746A8E7022104F12000FFF7E7
:103D30002DFD0028A1D007469FE700BF00100240DC
:103D4000F0B482B0002336E0072400E00024B44041
:103D50003C430235644E46F82540644C2568D44304
:103D600004EA05064F6817F4803F01D042EA0506D1
:103D70005E4D2E606D6804EA05064F6817F4003F3B
:103D800001D042EA0506594D6E60AD6804EA0506A9
:103D90004F6817F4801F01D042EA0506534DAE600C
:103DA000ED682C404E6816F4001F01D042EA05046D
:103DB0004E4AD46001330A6832FA03F400F091806D
:103DC00001249C402240F5D04D68022D01D0122DD7
:103DD00010D1DE08083650F826C003F00705AF0002
:103DE0000F25BD402CEA050C0D69BD4045EA0C05C8
:103DF00040F8265006685F000325BD40ED4305EA04
:103E0000060C4E6806F00306BE4046EA0C06066045
:103E10004E6806F1FF3CBCF1010F03D9112E01D011
:103E2000122E10D1866805EA060CCE68BE4046EA1E
:103E30000C068660466826EA04044E68C6F300163F
:103E40009E4026434660C46825408C68BC402C4395
:103E5000C4604C6814F0805FACD0254C256E45F0F2
:103E600001052566246E04F001040194019C9D085F
:103E7000AE1C1D4C54F8267003F00304A6000F245A
:103E8000B44027EA0407B0F1904F3FF45FAF194CFC
:103E9000A0421AD004F58064A04218D004F58064D2
:103EA000A04216D004F58064A04214D004F58064CA
:103EB000A04212D004F58064A04210D004F58064C2
:103EC000A0423FF441AF082441E701243FE7022428
:103ED0003DE703243BE7042439E7052437E70624BC
:103EE00035E702B0F0BC704700000140000401401B
:103EF00000100240000400480AB9816270478161E5
:103F00007047436959404161704708B590F82530C2
:103F1000DBB2022B03D00423C363012008BD026877
:103F2000136823F00E0313600268136823F0010383
:103F30001360436C03F01C03016C012202FA03F3CB
:103F40004B6080F82520002380F82430836B13B168
:103F500098470020E2E70020E0E70000024B1868E5
:103F600000F4C060704700BF00700040B0F5007FF3
:103F70000FD01F4B1B6803F4C063B3F5806F34D0C0
:103F80001B4A136823F4C06343F48063136000206A
:103F90007047174B1B6803F4C063B3F5007F22D052
:103FA000134A136823F4C06343F400731360114B86
:103FB0001A68322303FB02F30F4AA2FB03239B0C74
:103FC000013300E0013B0A4A526912F4806F01D0CC
:103FD000002BF7D1064B5B6913F4806F01D10020F1
:103FE000704703207047002070470020704700BFD3
:103FF000007000400400002083DE1B43024A536827
:1040000043F400735360704700700040074AD36860
:1040100023F4E0631B041B0C000200F4E06018436F
:1040200040F0BF6040F40030D060704700ED00E029
:1040300030B4174BDB68C3F30223C3F10704042C2D
:1040400028BF04241D1D062D18D9033B4FF0FF3552
:1040500005FA04F421EA0401994005FA03F322EA7F
:104060000303194300280BDB0901C9B200F16040CA
:1040700000F5614080F8001330BC70470023E5E78D
:1040800000F00F000901C9B2024B1954F4E700BF58
:1040900000ED00E014ED00E000F01F0240090123F4
:1040A0009340024A42F82030704700BF00E100E030
:1040B00010B5044601F0E6FBA26BE36B9A4204D014
:1040C000002401F001FC204610BD0124F9E710B5E1
:1040D000044601F0D7FBA36B23B1002401F0F4FBED
:1040E000204610BD0124F9E770B504461646856BDD
:1040F000026C5AB903681BB100200135A56370BD7D
:10410000406800F05DFF00236360F6E76EB98068E9
:1041100002F068FB226CA3681344A36062689342B8
:1041200019D32368A3600020E7E7C06802F05AFBB8
:10413000226C5242E3681344E36021688B4202D24E
:1041400063681A44E260022E01D00020D5E725B151
:10415000013D0020D1E70020CFE70020CDE7026C31
:1041600072B110B5C3681344C3604468A34201D35D
:104170000368C3600C46C168204602F033FB10BDE3
:10418000704738B5054601F07DFB95F8454064B2AF
:1041900003E000F0FFFE013C64B2002C08DD6B6A16
:1041A00033B105F1240000F063FE0028F3D0F0E7FE
:1041B000FF2385F8453001F087FB01F063FB95F89C
:1041C000444064B203E000F0E5FE013C64B2002C20
:1041D00008DD2B6933B105F1100000F049FE00281D
:1041E000F3D0F0E7FF2385F8443001F06DFB38BDD4
:1041F00038B540B94FF0100383F31188BFF36F8FC8
:10420000BFF34F8FFEE704460D4601F03BFB2168EC
:10421000E26B236C03FB021060600020A063A160CE
:10422000013A02FB0313E360FF2384F8443084F86F
:104230004530A5B923691BB901F046FB012038BD03
:1042400004F1100000F014FE0028F5D0084B4FF0E8
:1042500080521A60BFF34F8FBFF36F8FECE704F10A
:10426000100000F046FA04F1240000F042FAE3E7FF
:1042700004ED00E010B5029B0C4639B11A60D8631A
:104280001C6401211846FFF7B3FF10BD1B60F6E761
:1042900040B94FF0100383F31188BFF36F8FBFF362
:1042A0004F8FFEE7F0B583B0054611B101FB00F07A
:1042B00000E0002017460C46483001F0BDF90646E4
:1042C00038B100903B4600F1480221462846FFF7EE
:1042D000D1FF304603B0F0BDF0B585B0019260B1BA
:1042E000044699B9026C8AB14FF0100383F3118828
:1042F000BFF36F8FBFF34F8FFEE74FF0100383F3D1
:104300001188BFF36F8FBFF34F8FFEE7022B0BD1E6
:10431000E26B012A08D04FF0100383F31188BFF33A
:104320006F8FBFF34F8FFEE71E460F4600F038FE3B
:1043300050B9019B53B14FF0100383F31188BFF3C1
:104340006F8FBFF34F8FFEE700253AE0002538E07E
:10435000324639462046FFF7C7FE636A4BB9A8B11B
:104360003B4B4FF080521A60BFF34F8FBFF36F8FFC
:104370000CE004F1240000F07BFD38B1344B4FF029
:1043800080521A60BFF34F8FBFF36F8F01F09CFA1A
:10439000012005B0F0BD01F097FA0020F9E702A86E
:1043A00000F0ACFD012519E0002384F8443021E041
:1043B000002384F8453023E02046FFF7E2FE00F0BA
:1043C0005DFC01F05FFAA26BE36B9A42C0D3022E50
:1043D000BED0019B002BDED0002DE0D001F074FA9E
:1043E00000F0B2FB01F04EFA94F844305BB2B3F146
:1043F000FF3FD9D094F845305BB2B3F1FF3FD7D03F
:1044000001F062FA01A902A800F084FDC8B92046B3
:10441000FFF74EFE0028CFD0019904F1100000F004
:10442000F3FC2046FFF7ADFE00F028FC0028C8D1C1
:10443000074B4FF080521A60BFF34F8FBFF36F8F5F
:10444000BFE72046FFF79DFE00F018FC0020A0E724
:1044500004ED00E02DE9F84360B1044699B9006C21
:1044600088B14FF0100383F31188BFF36F8FBFF350
:104470004F8FFEE74FF0100383F31188BFF36F8F68
:10448000BFF34F8FFEE7022B0BD1E06B012808D062
:104490004FF0100383F31188BFF36F8FBFF34F8F7B
:1044A000FEE71F469046894601F016FBEFF31186A2
:1044B0004FF0100383F31188BFF36F8FBFF34F8F5B
:1044C000A26BE36B9A4203D3022F01D000200FE0CE
:1044D00094F845506DB23A4649462046FFF704FE2F
:1044E000B5F1FF3F08D06B1C5BB284F8453001206A
:1044F00086F31188BDE8F883636A5BB104F1240098
:1045000000F0B6FC40B1B8F1000F07D00120C8F8A8
:104510000000EDE70120EBE70120E9E70120E7E7F4
:10452000F0B585B0019260B1044699B9036C8BB1C6
:104530004FF0100383F31188BFF36F8FBFF34F8FDA
:10454000FEE74FF0100383F31188BFF36F8FBFF3C3
:104550004F8FFEE70F4600F023FD50B9019B53B18A
:104560004FF0100383F31188BFF36F8FBFF34F8FAA
:10457000FEE700263EE000263CE039462046FFF7F5
:10458000EEFD013DA563236923B901F09DF90120EA
:1045900005B0F0BD04F1100000F06AFC0028F4D072
:1045A000344B4FF080521A60BFF34F8FBFF36F8FC1
:1045B000EBE701F089F90020EAE702A800F09EFC91
:1045C000012621E0002384F8443029E0002384F808
:1045D00045302BE02046FFF7D4FD00F04FFB09E00B
:1045E0002046FFF7CEFD00F049FB2046FFF76FFDA8
:1045F00000283DD101F046F9A56B002DBDD1019BEE
:10460000002BD6D0002ED8D001F05EF900F09CFA35
:1046100001F038F994F844305BB2B3F1FF3FD1D0E8
:1046200094F845305BB2B3F1FF3FCFD001F04CF9C5
:1046300001A902A800F06EFC0028D1D12046FFF7A6
:1046400046FD0028C6D0019904F1240000F0DCFBEF
:104650002046FFF796FD00F011FB0028CAD1054B5C
:104660004FF080521A60BFF34F8FBFF36F8FC1E7D7
:1046700000208DE704ED00E00023072B0CD8074A4B
:1046800052F833200AB10133F7E7044A42F83310F5
:1046900002EBC30358607047704700BF4C4A0220CA
:1046A00070B504460D46164601F0ECF894F8443017
:1046B0005BB2B3F1FF3F0DD094F845305BB2B3F17C
:1046C000FF3F0BD001F000F9A36B5BB12046FFF771
:1046D00058FD70BD002384F84430EDE7002384F8D2
:1046E0004530EFE73246294604F1240000F0A4FBF0
:1046F000ECE700F1080343604FF0FF328260C360D3
:10470000036100230360704700230361704743681F
:104710004B609A688A609A68516099600861036882
:1047200001330360704730B40D68B5F1FF3F02D02C
:1047300000F1080202E0026904E01A4653681C68AE
:10474000AC42FAD953684B6099608A605160086145
:1047500003680133036030BC7047036942688168B5
:1047600091608268416851605A68824206D0002296
:1047700002611A68013A1A601868704782685A60C4
:10478000F5E70000084B1B681B683BB1064B1B6834
:10479000DB68DB685A68054B1A607047034B4FF0C3
:1047A000FF321A60704700BF740200204C030020E3
:1047B00010B50446006B00F0C3FF204600F0C0FFB8
:1047C00010BD2DE9F04780469946089D099F0A9C37
:1047D000266B02F18042013A06EB820626F00706BC
:1047E00000230F2B07D8C85CE21882F83400CA5C9B
:1047F0000AB10133F5E7002384F84330062D00D9D0
:104800000625E56265644FF0000AC4F848A0201D43
:10481000FFF77AFF04F11800FFF776FF2461C5F176
:104820000705A5616462C4F84CA084F850A04A460C
:104830004146304600F0FAFF206007B13C60BDE819
:10484000F087000038B5002407E004EB84029300F1
:104850000E481844FFF74DFF0134062CF5D90C4DD6
:104860002846FFF746FF0B4C2046FFF742FF0A4859
:10487000FFF73FFF0948FFF73CFF0948FFF739FF03
:10488000084B1D60084B1C6038BD00BF7C02002037
:104890002003002034030020540300208003002064
:1048A0006C030020740200207802002010B504463A
:1048B00000F0E8FF204A1368013313601F4B1B68A8
:1048C0005BB11F4B1B686BB91C4B1B68DA6AE36A50
:1048D0009A4207D8194B1C6004E0184B1C601368FF
:1048E000012B26D0174A136801331360E36A0122B3
:1048F0009A401549086802430A6003EB83039A0053
:10490000211D12481044FFF702FF00F0DDFF0C4BA1
:104910001B686BB1094B1B68DA6AE36A9A4207D2DB
:104920000B4B4FF080521A60BFF34F8FBFF36F8F66
:1049300010BDFFF787FFD5E70803002070020020B5
:1049400068030020180300201C0300207C020020C4
:1049500004ED00E00F4B1B68D3B110B500F092FFDF
:104960000D4BDB68DC68201DFFF7F7FE0B4A136870
:10497000013B1360074A1368013B136000F0A4FF7A
:104980002046FFF715FF034B1B68002BE6D110BD37
:10499000704700BF0C0300208003002008030020A4
:1049A00008B5FFF7D7FF064B1B68012BF9D9054B5C
:1049B0004FF080521A60BFF34F8FBFF36F8FF0E755
:1049C0007C02002004ED00E070B504460E461D4B4D
:1049D0001D681D4B18680430FFF7BFFE50B91A4B15
:1049E0001B68DA6A012303FA02F218490B6823EA0A
:1049F00002030B60B4F1FF3F13D02C44124B1B6831
:104A00005C60A54216D8124B18680F4B1968043128
:104A1000FFF789FE0F4B1B68A34212D90D4B1C6098
:104A20000FE0002EE9D0084B196804310A48FFF75F
:104A30006EFE06E0094B1868034B19680431FFF756
:104A400072FE70BD94030020700200201C03002041
:104A5000740200204C0300206C0300207802002028
:104A60002DE9F04385B007468846154699469000E3
:104A700000F0E2FDF8B10646542000F0DDFD0446EA
:104A8000A8B10663D4B10023039302940D9B019354
:104A90000C9B00934B462A4641463846FFF791FE51
:104AA0002046FFF703FF012005B0BDE8F083304644
:104AB00000F046FEE6E74FF0FF30F5E74FF0FF303D
:104AC000F2E7000000B583B0194B01930023009377
:104AD000802218491848FFF7C3FF012807D0012892
:104AE00008D0B0F1FF3F1AD003B05DF804FB00F02E
:104AF00041FBF4E74FF0100383F31188BFF36F8F8E
:104B0000BFF34F8F0D4B4FF0FF321A600C4B012259
:104B10001A600C4B00221A6000F056FFE4E74FF0D9
:104B2000100383F31188BFF36F8FBFF34F8FFEE73E
:104B30004803002080A30008A14900084C0300207E
:104B40006803002094030020024A136801331360B5
:104B5000704700BF14030020014B1868704700BF66
:104B600094030020F8B53A4B1B68002B64D1394BF5
:104B70001D6801351D60C5B9374B1B681B6843B103
:104B80004FF0100383F31188BFF36F8FBFF34F8F84
:104B9000FEE7314A1168314B186810601960304ADD
:104BA000136801331360FFF7EDFD2E4B1B68AB421A
:104BB00038D900242C4B1B68DB6A03EB83039A0073
:104BC0002A4B9B58012B3CD901243AE00124224B6B
:104BD0001B681B6843B3204B1B68DB68DE68736887
:104BE0009D4226D3371D3846FFF7B7FDB36A1BB188
:104BF00006F11800FFF7B1FDF36A01229A401C4943
:104C0000086802430A6003EB83039A003946174899
:104C10001044FFF77CFDF26A134B1B68DB6A9A4273
:104C2000D4D2D4E70024D2E70E4B4FF0FF321A6003
:104C3000C0E70C4A1360BDE70E4A136801331360E6
:104C400000240D4B1B6803B101242046F8BD00BFB2
:104C50001403002094030020740200207802002036
:104C6000500300204C030020700200207C02002032
:104C70001C030020100300209803002038B5334B9C
:104C80001B6843B94FF0100383F31188BFF36F8F94
:104C9000BFF34F8FFEE700F0F5FD2C4B1A68013A89
:104CA0001A601B68002B4DD1294B1B6823B90024C7
:104CB00000F00AFE204638BD0024264B1B681BB3BB
:104CC000244BDB68DC6804F11800FFF746FD251D66
:104CD0002846FFF742FDE36A01229A401E49086810
:104CE00002430A6003EB83039A0029461B481044E1
:104CF000FFF70DFDE26A1A4B1B68DB6A9A42DCD3B0
:104D0000184B01221A60D8E70CB1FFF73BFD164B98
:104D10001C6854B1FFF726FF10B1124B01221A6034
:104D2000013CF7D1104B00221A600E4B1B685BB19F
:104D30000E4B4FF080521A60BFF34F8FBFF36F8F4F
:104D40000124B5E70024B3E70024B1E714030020F1
:104D500008030020540300201C0300207C020020D4
:104D600070020020980300201003002004ED00E0F2
:104D7000204B1B681BB1204B01221A6070471E4B51
:104D800000221A601D4B1B68B3FA83F3DBB2C3F138
:104D90001F0303EB83018A0019498A5842B94FF077
:104DA000100383F31188BFF36F8FBFF34F8FFEE7BC
:104DB00010B413489A00D418A10001444C686468E8
:104DC0004C601A4491000831084484420BD003EB34
:104DD00083039A000A4B13445B68DA68094B1A6034
:104DE0005DF8044B704761680548142202FB03021A
:104DF0005160ECE714030020980300201C030020FE
:104E00007C0200207002002040B94FF0100383F3B1
:104E10001188BFF36F8FBFF34F8FFEE710B50C46BD
:104E2000044B19681831FFF77EFC01212046FFF77B
:104E3000CBFD10BD7002002038B540B94FF0100313
:104E400083F31188BFF36F8FBFF34F8FFEE70C46DC
:104E50001546064A11681831FFF759FC0DB14FF09D
:104E6000FF3429462046FFF7AFFD38BD7002002011
:104E700038B5C368DC6844B94FF0100383F3118878
:104E8000BFF36F8FBFF34F8FFEE704F1180528467D
:104E9000FFF763FC134B1B68E3B9251D2846FFF79A
:104EA0005CFCE36A01229A400F49086802430A60E9
:104EB00003EB83039A0029460C481044FFF727FCB4
:104EC000E26A0B4B1B68DB6A9A4208D90120094B46
:104ED000186038BD29460848FFF719FCF0E70020A4
:104EE000F7E700BF140300201C0300207C02002011
:104EF000700200209803002054030020034B1B681D
:104F00000360034B1B684360704700BF50030020E1
:104F100094030020F8B550B1054689B94FF010034D
:104F200083F31188BFF36F8FBFF34F8FFEE74FF00E
:104F3000100383F31188BFF36F8FBFF34F8FFEE72A
:104F40000C4600F09FFC114B196868680A1A236828
:104F5000B3F1FF3F16D02F680D4E3668B74201D02F
:104F6000884211D9934203D800232360012405E02D
:104F70009B1A23602846FFF7C1FF002400F0A4FC21
:104F80002046F8BD0024F9E70124F7E79403002048
:104F900050030020014B01221A6070479803002043
:104FA000054B1B6833B1054B1B680BB100207047E4
:104FB000022070470120704768030020140300207E
:104FC000002849D038B50446264A1268824208D0E3
:104FD0004FF0100383F31188BFF36F8FBFF34F8F30
:104FE000FEE7826C42B94FF0100383F31188BFF3E0
:104FF0006F8FBFF34F8FFEE7013A8264C06A616C26
:1050000088422BD062BB251D2846FFF7A6FB70B94E
:10501000E26A142303FB02F31349CB583BB9012383
:1050200003FA02F211490B6823EA02030B60636C76
:10503000E362C3F10702A261012404FA03F20B49FF
:10504000086802430A602946074A142000FB03202F
:10505000FFF75DFB204638BD002070470020FAE7CF
:105060000020F8E7700200207C0200201C030020D2
:10507000064B1A681368B3FA83F35B09036013B92C
:10508000D368186870470020704700BF9C03002059
:1050900008B54160006191420CD8D21A83699A42E6
:1050A00001D3012010E0011D094B1868FFF73BFBFD
:1050B000002009E09A4201D2994206D2011D054B17
:1050C0001868FFF730FB002008BD0120FCE700BF97
:1050D000A00300209C03002038B500F0D3FB0F4B49
:1050E0001B6813B100F0F0FB38BD0D4D2846FFF7EB
:1050F00000FB0C4C2046FFF7FCFA0B4B1D600B4BE2
:105100001C6000220C210A20FFF7C2F8034B186034
:105110000028E7D00649FFF7AFFAE3E7D003002005
:10512000A4030020B80300209C030020A00300205B
:1051300088A300082DE9F041079C41B94FF0100306
:1051400083F31188BFF36F8FBFF34F8FFEE70F46D6
:1051500074B11D4616468046FFF7BEFFC4F80080B6
:10516000A761E6612562069B6362201DFFF7CCFA0A
:10517000BDE8F08100B583B0FFF7AEFF0D4B1B68B3
:105180005BB10D4B01930323009300234FF4807216
:105190000A490B48FFF764FC40B94FF0100383F352
:1051A0001188BFF36F8FBFF34F8FFEE703B05DF839
:1051B00004FB00BFD0030020D403002090A300080C
:1051C000BD5400082DE9F04182B005460E46174651
:1051D0009846282000F030FA044640B10190089B20
:1051E000009343463A4631462846FFF7A3FF204640
:1051F00002B0BDE8F0810000C8B130B585B01546F9
:105200000446174A106840B31A4601910295039468
:1052100005291DDCFFF7C4FE022811D000231A4621
:1052200001A90F480068FFF757F805B030BD4FF0EF
:10523000100383F31188BFF36F8FBFF34F8FFEE727
:105240000023089A01A906480068FFF745F8ECE733
:10525000002301A9FFF7FEF8E7E70020E5E700BF1C
:10526000D003002070B582B01A4B1B681A6852B385
:10527000DB681E68DC68251D2846FFF76EFA636A46
:1052800020469847E369012BEED1A36933449E423F
:1052900007D26360246129460E4B1868FFF743FA72
:1052A000E2E7002100910B4632462046FFF7A4FFBB
:1052B0000028D9D14FF0100383F31188BFF36F8F0B
:1052C000BFF34F8FFEE7044A10680249086013607D
:1052D00002B070BD9C030020A003002038B5054635
:1052E000FFF73AFC0446074B1B68834205D80023AE
:1052F0002B60044B1C60204638BDFFF7B3FF012331
:105300002B60F6E7CC03002070B582B005460E4650
:10531000144B1B68DB68DC68201DFFF71EFAE3698D
:10532000012B04D0636A2046984702B070BDA16982
:105330002B46324629442046FFF7AAFE0028F1D02A
:10534000002100910B462A462046FFF755FF002812
:10535000E8D14FF0100383F31188BFF36F8FBFF3D1
:105360004F8FFEE79C03002070B582B006460C46C6
:10537000FFF7EAFB01A8FFF7B1FF019B1BBB054646
:105380000CB9B04218D22CB1114B1B681C68B4FA8E
:1053900084F464092246711B0E4B1868FFF780F9EC
:1053A000FFF76CFC88B90C4B4FF080521A60BFF3CA
:1053B0004F8FBFF36F8F08E0FFF760FC2946304640
:1053C000FFF7A2FF01E0FFF759FC02B070BD00BF7C
:1053D000A0030020D003002004ED00E030B587B02A
:1053E000002203A9344B1868FFF79AF8002860D010
:1053F000039B002BF4DB059C636913B1201DFFF7B1
:10540000ACF902A8FFF76AFF039B092BE8D801A2B9
:1054100052F823F03D5400083D5400083D54000864
:10542000E153000885540008AB5400083D540008BF
:105430003D540008E1530008855400080499A5690B
:105440000B46024629442046FFF722FE0028C7D01B
:10545000636A20469847E369012BC1D1A269002104
:1054600000910B46049802442046FFF7C5FE002831
:10547000B6D14FF0100383F31188BFF36F8FBFF3E2
:105480004F8FFEE70499A16131B103460246014402
:105490002046FFF7FDFDA3E74FF0100383F31188CB
:1054A000BFF36F8FBFF34F8FFEE7204600F048F940
:1054B00096E707B030BD00BFD003002000B583B031
:1054C00001A8FFF7D5FD0199FFF74EFFFFF786FF13
:1054D000F6E7EFF30580003018BF0120704708B5EC
:1054E000FFF7F0FA002008BD00B583B0134601298C
:1054F00009D000220168009101210448FFF762FEF3
:1055000003B05DF804FB0122F4E700BFA8A1000886
:1055100030B585B00546002303930C4601B901243C
:10552000FFF7D7FFA8B10023009303AB2246092160
:105530002846FFF761FE012817D1039BBBB10E4B34
:105540004FF080521A60BFF34F8FBFF36F8F002070
:1055500009E000230093224604212846FFF74CFE71
:10556000012806D1002005B030BDFF20FBE7002058
:10557000F9E7FF20F7E700BF04ED00E0124A12F060
:10558000070F1ED0D11D21F00701C1F510331344C0
:105590000A460E480260002141601344083B23F094
:1055A00007030B48036059601960991A5160136032
:1055B000084B1960084B1960084B4FF000421A6005
:1055C00070474FF41033E4E7DC030020E843022087
:1055D000D8030020E4430220E0430220DC43022001
:1055E00010B4134B1A6882421BD359685C1884426A
:1055F00003D1406801445960184641684418A242EA
:1056000013D10C4C2468A2420DD052681144416061
:105610001A6812680260984200D018605DF8044B66
:1056200070471346DEE70460F5E70260F3E700BF6A
:10563000E8430220D803002070B50446FFF784FA3F
:105640003A4B1B68BBB13A4B1B681C4263D1ACB1EF
:10565000083414F0070F11D024F00704083404F0C4
:1056600007035BB14FF0100383F31188BFF36F8F13
:10567000BFF34F8FFEE7FFF781FFE4E7002C4CD02C
:105680002C4B1B68A3424AD32B4B1D6801E02B46D1
:1056900015466A68A24202D22A68002AF7D1234A34
:1056A0001268AA423DD01E6808362A681A606B68E4
:1056B0001B1B102B10D9281910F0070F08D04FF022
:1056C000100383F31188BFF36F8FBFF34F8FFEE793
:1056D00043606C60FFF784FF6A6816490B689B1A89
:1056E0000B60164909688B4201D214490B60104BBC
:1056F0001B6813436B6000232B60FFF7BFFA16F0A3
:10570000070F10D04FF0100383F31188BFF36F8F92
:10571000BFF34F8FFEE70026EFE70026EDE70026F8
:10572000EBE70026E9E7304670BD00BFD803002054
:10573000DC430220E0430220E8430220E44302204D
:1057400080B338B50446A0F1080550F8042C16497A
:1057500009680A4208D14FF0100383F31188BFF3A0
:105760006F8FBFF34F8FFEE750F8080C40B14FF03A
:10577000100383F31188BFF36F8FBFF34F8FFEE7E2
:1057800022EA010244F8042CFFF7DEF954F8041C65
:10579000064A13680B4413602846FFF721FFFFF702
:1057A0006DFA38BD704700BFDC430220E0430220A1
:1057B00082B0002301930D4B1B68B3F1FF3F08D06B
:1057C0004FF0100383F31188BFF36F8FBFF34F8F38
:1057D000FEE74FF0100383F31188BFF36F8FBFF321
:1057E0004F8F019B002BFCD002B0704700000020BF
:1057F00008480068006880F308884FF0000080F3D4
:10580000148862B661B6BFF34F8FBFF36F8F00DFAE
:1058100000BF000008ED00E0DFF80C00016841F473
:10582000700101607047000088ED00E04FF0807368
:1058300040F8043C21F0010140F8081C054B40F8F9
:105840000C3C40F8202C6FF0020340F8243C443814
:10585000704700BFB15700080000000000000000C2
:10586000074B19680868B0E8F04F80F30988BFF368
:105870006F8F4FF0000080F311887047AFF3008006
:10588000700200204FF0100383F31188BFF36F8F75
:10589000BFF34F8F0A4A136801331360012B00D006
:1058A0007047084B1B6813F0FF0FF9D04FF010033F
:1058B00083F31188BFF36F8FBFF34F8FFEE700BFF5
:1058C0000000002004ED00E0094B1B6843B94FF0D5
:1058D000100383F31188BFF36F8FBFF34F8FFEE781
:1058E000013B034A13600BB983F31188704700BF73
:1058F0000000002000000000000000000000000088
:10590000EFF30980BFF36F8F154B1A681EF0100F6D
:1059100008BF20ED108A20E9F04F10602DE9090042
:105920004FF0100080F31188BFF34F8FBFF36F8FDC
:10593000FFF71EFA4FF0000080F3118809BC1968C8
:105940000868B0E8F04F1EF0100F08BFB0EC108AE6
:1059500080F30988BFF36F8F704700BFAFF30080FB
:105960007002002008B54FF0100383F31188BFF3D5
:105970006F8FBFF34F8FFFF7F5F818B1034B4FF060
:1059800080521A60002383F3118808BD04ED00E003
:10599000084A0023136008490B60084B1B6808493C
:1059A000A1FB03139B09013B06490B60072313600E
:1059B000704700BF10E000E018E000E004000020A5
:1059C000D34D621014E000E03A4B1A683A4B9A4209
:1059D0000DD0384B1A68394B9A4211D14FF0100351
:1059E00083F31188BFF36F8FBFF34F8FFEE74FF044
:1059F000100383F31188BFF36F8FBFF34F8FFEE760
:105A000010B582B02E4B1A78D2B20192FF221A70D2
:105A10001B78DBB28DF803309DF8033003F01003E0
:105A2000284A1370284B07221A6009E0264A136897
:105A3000013B13609DF803305B00DBB28DF803304F
:105A40009DF8033013F0800FF0D11F4B1B68032B20
:105A500008D04FF0100383F31188BFF36F8FBFF3AB
:105A60004F8FFEE71B0203F4E063174A1360019BAC
:105A7000DBB2134A1370154B1A6842F470021A60B5
:105A80001A6842F070421A60FFF782FF0024104B40
:105A90001C60FFF7C1FE0F4A136843F040431360D8
:105AA000FFF7A6FEFFF764F9FFF782FE204602B07B
:105AB00010BD00BF00ED00E071C20F4170C20F4188
:105AC00000E400E0F0430220F443022020ED00E077
:105AD0000000002034EF00E0EFF305830F2B0FD917
