:020000040800F2
:100000000000052049500008754F0008774F000890
:10001000794F00087B4F00087D4F0008000000006A
:100020000000000000000000000000005141000836
:100030007F4F000800000000F14100085542000811
:1000400099500008995000089950000899500008EC
:1000500099500008995000089950000899500008DC
:1000600099500008995000089950000899500008CC
:1000700099500008995000089950000899500008BC
:1000800099500008995000089950000899500008AC
:10009000995000089950000899500008995000089C
:1000A00099500008814F00089950000899500008A5
:1000B000995000089950000899500008995000087C
:1000C000995000089950000899500008C14F000845
:1000D000D14F000899500008914F0008A14F000827
:1000E000995000089950000899500008995000084C
:1000F000995000089950000899500008995000083C
:10010000995000089950000899500008E14F0008E4
:1001100099500008B14F0008995000089950000804
:10012000995000089950000899500008995000080B
:1001300099500008995000089950000899500008FB
:1001400099500008995000089950000899500008EB
:1001500099500008995000089950000899500008DB
:1001600099500008995000089950000899500008CB
:1001700099500008995000089950000800000000AC
:1001800099500008995000089950000899500008AB
:10019000995000089950000899500008995000089B
:1001A000995000089950000800000000000000006D
:1001B00010B5054C237833B9044B13B10448AFF3A1
:1001C00000800123237010BD70000020000000009B
:1001D000485A000808B5034B1BB103490348AFF365
:1001E000008008BD0000000074000020485A00088C
:1001F00053B94AB9002908BF00281CBF4FF0FF318E
:100200004FF0FF3000F072B9ADF1080C6DE904CE8B
:1002100000F006F8DDF804E0DDE9022304B07047E1
:100220002DE9F047089E04468846002B4BD18A42B0
:10023000154667D9B2FA82F24AB1C2F1200701FA33
:1002400002F320FA07F7954047EA030894404FEA83
:10025000154E230CB8FBFEF71FFA85FC0EFB178822
:1002600043EA084307FB0CF1994209D9EB1807F15F
:10027000FF3080F01B81994240F21881023F2B44ED
:100280005B1AA4B2B3FBFEF00EFB103344EA034446
:1002900000FB0CFCA44509D92C1900F1FF3380F0B8
:1002A0000781A44540F2048102382C4440EA07400B
:1002B000A4EB0C0400271EB1D4400023C6E9004380
:1002C0003946BDE8F0878B4209D9002E00F0EB805B
:1002D0000027C6E9000138463946BDE8F087B3FA81
:1002E00083F7002F47D18B4202D3824200F2FA807B
:1002F000841A61EB030301209846002EE0D0C6E982
:100300000048DDE702B9FFDEB2FA82F2002A40F0CF
:100310008F80491B4FEA154E1FFA85F80127B1FB64
:10032000FEFC230C0EFB1C1143EA014308FB0CF1FD
:10033000994207D9EB180CF1FF3002D2994200F232
:10034000CD808446591AA3B2B1FBFEF00EFB101407
:1003500043EA044408FB00F8A04507D92C1900F132
:10036000FF3302D2A04500F2B6801846A4EB080481
:1003700040EA0C409FE7C7F1200CBB4022FA0CFE7C
:100380004EEA030E01FA07F420FA0CF521FA0CF3F9
:100390004FEA1E482543B3FBF8F92C0C08FB193330
:1003A0001FFA8EFA44EA034309FB0AF49C4202FA5C
:1003B00007F200FA07F10BD91EEB030309F1FF3036
:1003C00080F087809C4240F28480A9F10209734446
:1003D0001B1BADB2B3FBF8F008FB103345EA034436
:1003E00000FB0AFAA24508D91EEB040400F1FF3312
:1003F0006BD2A24569D90238744440EA0940A0FB97
:100400000289A4EB0A044C45C2464B4654D351D052
:10041000002E69D0B1EB0A0564EB030404FA0CFC6E
:10042000FD40FC404CEA0505C6E90054002747E7BB
:10043000C2F1200320FA03F7954001FA02F021FAF5
:1004400003F34FEA154E3843010CB3FBFEF71FFAD6
:1004500085F80EFB173341EA034107FB08F38B4293
:1004600004FA02F407D9691807F1FF3C2FD28B4236
:100470002DD9023F2944CB1A81B2B3FBFEF00EFB0B
:10048000103341EA034100FB08F38B4207D9691896
:1004900000F1FF3C17D28B4215D902382944C91A02
:1004A00040EA07473BE73746304609E70746E7E6B5
:1004B0001846FBE64145ABD2B8EB020A69EB0E02E7
:1004C00001381346A4E76046E9E7184695E7674612
:1004D000D1E781467CE702382C4447E7ACF1020CB7
:1004E0002B442FE7384608E73746E9E6704700BF58
:1004F00008B5012003F064FCFBE7000038B5104CA0
:10050000204604F05FFE0F4D284604F05BFE0E48C7
:1005100004F058FE284604F055FE204604F052FE32
:100520000A4C4FF40041204602F011F94FF4FA60F2
:1005300001F00CF84FF40041204602F008F938BDF4
:10054000A45A0008A85A0008D45A0008000C004811
:1005500000B587B000F0DCFF04F01AFA00F03DF8B7
:10056000FFF7CCFF114804F02DFE01AC104D0FCD6C
:100570000FC42B682360002101A803F007FC0D4B7A
:100580001860002004F07EF806A80B4B40F8183DD8
:100590000022012103F01EFC084B186041F2883153
:1005A00003F02CFC03F0EDFBFEE700BF745A0008DB
:1005B000605A0008284202208546000804480220AC
:1005C00008B50268034B9A4200D008BD00F0B0FFA6
:1005D000FBE700BF002C0140704708B503F0D2FFD5
:1005E00008BD002859D010B5044690F84130002BC2
:1005F00043D0242384F841302268136823F0010398
:1006000013606368226823F0706313612268936843
:1006100023F400439360E368012B33D0A36822687E
:1006200043F404439360E368022B31D0226853689B
:1006300043F0007343F4004353602268D36823F40B
:100640000043D360236962691343A169226843EAC6
:100650000123D360E369216A22680B431360226897
:10066000136843F00103136000206064202384F8C2
:100670004130206384F8420010BD80F8403004F01F
:1006800003FAB6E7A368226843F400439360CAE71D
:1006900023684FF400625A60C8E70120704790F861
:1006A0004130DBB2202B24D190F84030012B22D0F6
:1006B000012380F84030242380F841300268136819
:1006C00023F0010313600268136823F4805313605E
:1006D00002681368194311600268136843F001034C
:1006E0001360202380F84130002380F84030184602
:1006F0007047022070470220704790F84130DBB20B
:10070000202B22D190F84030012B20D0012380F8FB
:100710004030242380F841300268136823F001033D
:1007200013600268136823F4706343EA01211160C7
:100730000268136843F001031360202380F84130FE
:10074000002380F84030184670470220704702208E
:100750007047002853D010B504460023836290F8F8
:100760005D30002B40D0022384F85D30226813688E
:1007700023F040031360E368B3F5E06F39D900223A
:10078000B3F5706F04D0B3F5E06F01D00021A16222
:10079000216B21B9B3F5E06F2ED90223236363687F
:1007A000A1680B4321690B4361690B43A16901F403
:1007B00000710B43E1690B43216A0B43A06A216876
:1007C00003430B60638B03F00403616A0B43616BAB
:1007D0000B43E1680B43216813434B600020206604
:1007E000012384F85D3010BD80F85C3004F0D6FA47
:1007F000B9E74FF48052C3E701232363CFE7012019
:100800007047704730B585B00446026850689368F9
:10081000C3F3801149B913F0010F06D010F0400F57
:1008200003D0E36C2046984708E013F0020F07D08E
:1008300010F0800F04D0236D2046984705B030BDDE
:10084000C3F340151DB911B913F4807FF6D010F031
:10085000200FF3D079B194F85D10C9B2032953D0B9
:10086000216E41F00401216600210091D1680091C0
:1008700091680091009965B1216E41F001012166F6
:100880000021029191680291116821F040011160EC
:10089000029A13F4807F09D0236E43F00803236685
:1008A0000023039323689B680393039B236E002B11
:1008B000C4D02268536823F0E0035360012384F816
:1008C0005D3010F0030F27D02268536823F0030334
:1008D0005360A36D4BB1124A9A63A06D01F03BFFC8
:1008E00018B1236E43F040032366636D002BA5D03F
:1008F0000B4A9A63606D01F02EFF00289ED0236E94
:1009000043F04003236699E700230193D3680193E2
:1009100093680193019B91E72046FFF772FF8DE7F3
:100920002509000808B5806A0023A0F84630C3876F
:10093000FFF767FF08BD40B338B5044603684CF6BF
:10094000CC421A60036845F255521A600368426847
:100950005A60036882689A6000F0F2FD05462368D9
:10096000DA6832B100F0ECFD401B3028F7D90320E3
:1009700038BD1969E268914202D01A610020F7E798
:100980004AF6AA221A600020F2E7012070470268A6
:10099000136823F4907313600268936823F00103D3
:1009A0009360202380F872300023036670477047FD
:1009B00008B501680A6822F040020A60202280F827
:1009C000712000224266FFF7F2FF08BD7047000069
:1009D00038B504460268D3691168906813F00F05B2
:1009E0000CD113F0200F09D011F0200F06D0236E88
:1009F000002B00F09380204698478FE0002D6FD0A9
:100A000010F0010502D111F4907F69D013F0010FAD
:100A100007D011F4807F04D001201062626F02437E
:100A2000626713F0020F07D035B12268022010620E
:100A3000626F42F00402626713F0040F07D035B111
:100A4000226804201062626F42F00202626713F0B3
:100A5000080F09D011F0200F00D12DB12268082015
:100A60001062626F02436267626F002A56D013F011
:100A7000200F06D011F0200F03D0236E0BB12046BB
:100A80009847636F13F0080F04D123689B6813F035
:100A9000400F1FD02046FFF77AFF23689A6812F0B4
:100AA000400F13D09A6822F040029A60E36E4BB177
:100AB0001D4A9A63E06E01F04EFE78B3E06E836BE0
:100AC00098472BE02046FFF781FF27E02046FFF7FD
:100AD0007DFF23E02046FFF779FF002363671DE0D9
:100AE00013F4801F02D010F4800F0AD113F0800F8E
:100AF0000ED011F0800F0BD0636E7BB1204698476B
:100B00000CE04FF480131362204600F093FB05E0E5
:100B100013F0400F02D011F0400F00D138BD204635
:100B2000FFF746FFFAE700BF2D0B000808B5806A03
:100B30000023A0F85A30A0F85230FFF747FF08BD55
:100B40002DE9F0480446016883680269134342694D
:100B50001343C26913430868A24A024013430B605F
:100B60002268536823F44053E1680B435360A16942
:100B700022689D4B9A4201D0236A1943936823F45B
:100B800030630B4393602368984A934227D0984A76
:100B9000934238D0974A93424ED0974A934261D0BD
:100BA000964A934274D0904A934200F08A8010256E
:100BB0008D4A934200F0AA80E369B3F5004F00F03C
:100BC0003581082D00F2BF81DFE815F07F01950126
:100BD0009F01BD01AA01BD01BD01BD01B40102F526
:100BE0005842D2F8882002F00302032A09D8DFE82D
:100BF00002F0020481060125DAE70425D8E708257A
:100C0000D6E71025D4E702F5E632D2F8882002F0C4
:100C10000C020C2A0ED8DFE802F0070D0D0D090DAD
:100C20000D0D6F0D0D0D0B000025C1E70425BFE76D
:100C30000825BDE71025BBE702F5E432D2F888208D
:100C400002F03002102A09D005D9202A56D0302AC5
:100C500006D10825ACE71AB90025A9E70425A7E7BE
:100C60001025A5E702F5E232D2F8882002F0C00292
:100C7000402A09D005D9802A42D0C02A06D10825A9
:100C800096E71AB9002593E7042591E710258FE729
:100C900002F5E032D2F8882002F44072B2F5807F8B
:100CA0000BD007D9B2F5007F2CD0B2F5407F06D12A
:100CB00008257DE71AB900257AE7042578E710258D
:100CC00076E702F5C832D2F8882002F44062B2F525
:100CD000806F0BD007D9B2F5006F15D0B2F5406F19
:100CE00006D1082564E71AB9002561E704255FE706
:100CF00010255DE702255BE7022559E7022557E746
:100D0000022555E7022553E7022551E7082D00F299
:100D10001D81DFE815F00C001B0114001B01110000
:100D20001B011B011B0109004FF4004008E001F00A
:100D30005BF828B90020D9E000F060FCF9E7304802
:100D4000626802EB4203834200F20281B0EB023F91
:100D500000F20081082D66D8DFE805F00565206502
:100D600030656565580001F03FF80025070E060262
:100D7000626850082B4616EB000B47F1000C5846F2
:100D80006146FFF735FA03462846A3F540711D4A30
:100D9000914200F2E1802268D360A7E05608002566
:100DA0002B46DFF864B04FF0000C1BEB06004CF153
:100DB0000001FFF71DFA03462846E6E700F01EFC97
:100DC0000025070E0602626850082B4616EB000B42
:100DD00047F1000C58466146FFF70AFA03462846D9
:100DE000D3E700BFF369FFEF008000400038014007
:100DF0000044004000480040004C004000500040CB
:100E00000024F400FFFC0F00000024F45008002729
:100E100000252B4610F5000047F10001FFF7E8F927
:100E200003462846B1E701200023AEE7082D49D844
:100E3000DFE805F0051E2948344848483F0000F027
:100E4000D3FF6268530803EB4003B3FBF2F39BB29A
:100E50000020A3F110014FF6EF7291427ED89AB2B2
:100E600022F00F02C3F3420313432268D3603DE034
:100E700000F0CCFF6268530803EB4003B3FBF2F3CE
:100E80009BB20020E5E76268530803F1F47303F5B1
:100E90009043B3FBF2F39BB20020DAE700F0AEFB25
:100EA0006268530803EB4003B3FBF2F39BB20020EC
:100EB000CFE76268530803F58033B3FBF2F39BB2CC
:100EC0000020C6E701200023C3E700F08DFF636820
:100ED00000EB5302B2FBF3F292B20020A2F1100138
:100EE0004FF6EF7399423BD82368DA6000222266FE
:100EF0006266BDE8F08800F089FF636800EB53028A
:100F0000B2FBF3F292B20020E8E763685A0802F5F8
:100F1000740202F51052B2FBF3F292B20020DDE748
:100F200000F06CFB636800EB5302B2FBF3F292B289
:100F30000020D3E763685A0802F50042B2FBF3F2DF
:100F400092B20020CAE701200022C7E70120CDE7C6
:100F50000120CBE70120C9E70120C7E70120C5E751
:100F60000120C3E7436A13F0010F06D002685368FB
:100F700023F40033816A0B435360436A13F0020F7A
:100F800006D00268536823F48033C16A0B43536070
:100F9000436A13F0040F06D00268536823F48023D9
:100FA000016B0B435360436A13F0080F06D00268CD
:100FB000536823F40043416B0B435360436A13F0BF
:100FC000100F06D00268936823F48053816B0B43A3
:100FD0009360436A13F0200F06D00268936823F4ED
:100FE0000053C16B0B439360436A13F0400F0AD068
:100FF0000268536823F48013016C0B435360036C45
:10100000B3F5801F0BD0436A13F0800F06D002683F
:10101000536823F40023816C0B43536070470268CC
:10102000536823F4C003416C0B435360EBE72DE995
:10103000F04105460F4616469846069C2B68DB692C
:1010400037EA03030CBF01230023B3421DD1B4F1DF
:10105000FF3FF3D02CB100F073FAA0EB0800A042E0
:10106000ECD92A68136823F4D07313602A68936854
:1010700023F001039360202385F8713085F87230E6
:10108000002385F87030032000E00020BDE8F081E7
:101090002DE9F04182B01E4690F87130DBB2202B72
:1010A0004ED104460D46904600294ED0002A4ED01F
:1010B00090F87030012B4CD0012380F87030002361
:1010C0004367212380F8713000F03AFA0746A4F80C
:1010D0005080A4F8528009E023682A781A850135E7
:1010E000B4F85230013B9BB2A4F85230B4F85230FD
:1010F0009BB2ABB100963B46002280212046FFF711
:1011000096FF40BBA368B3F5805FE5D12369002B50
:10111000E2D1226835F8023BC3F308031385DFE709
:1011200000963B46002240212046FFF780FF034601
:1011300098B9202284F87120002284F8702000E001
:101140000223184602B0BDE8F0810123F9E701232C
:10115000F7E70223F5E70323F3E70323F1E730B5CD
:1011600083B004460023436700F0EAF9054623688C
:101170001B6813F0080F0ED123681B6813F0040FCF
:1011800017D1202384F8713084F87230002084F85D
:10119000700003B030BD6FF07E4300930346002221
:1011A0004FF400112046FFF742FF0028E4D003204F
:1011B000EFE76FF07E4300932B4600224FF480014F
:1011C0002046FFF734FF0028DBD00320E1E778B3A7
:1011D00010B5044690F871300BB3242384F87130B5
:1011E0002268136823F0010313602046FFF7A8FC70
:1011F000012813D0636ABBB92268536823F4904373
:1012000053602268936823F02A039360226813686E
:1012100043F0010313602046FFF7A1FF10BD80F8E3
:10122000703003F0F7FCD8E72046FFF79BFEE3E7BA
:1012300001207047704770470268D36843F001038C
:10124000D36002689168084B0B40062B09D0916867
:10125000054B0B40B3F5803F03D0136843F0010307
:1012600013600020704700BF0700010070477047FF
:101270007047704710B5044603681A6912F0020FF0
:1012800011D0DA6812F0020F0DD06FF002021A616D
:101290000123037703689B6913F0030F79D0FFF7ED
:1012A000E6FF0023237723681A6912F0040F12D097
:1012B000DA6812F0040F0ED06FF004021A610223F4
:1012C000237723689B6913F4407F68D02046FFF79B
:1012D000CEFF0023237723681A6912F0080F12D07B
:1012E000DA6812F0080F0ED06FF008021A610423BA
:1012F00023772368DB6913F0030F57D02046FFF7ED
:10130000B6FF0023237723681A6912F0100F12D05A
:10131000DA6812F0100F0ED06FF010021A61082375
:1013200023772368DB6913F4407F46D02046FFF71C
:101330009EFF0023237723681A6912F0010F03D060
:10134000DA6812F0010F3FD123681A6912F0800F9A
:1013500003D0DA6812F0800F3DD123681A6912F4C5
:10136000807F03D0DA6812F0800F3BD123681A69BE
:1013700012F0400F03D0DA6812F0400F39D1236821
:101380001A6912F0200F03D0DA6812F0200F37D15B
:1013900010BDFFF76BFF2046FFF76AFF81E720468D
:1013A000FFF764FF2046FFF763FF92E72046FFF751
:1013B0005DFF2046FFF75CFFA3E72046FFF756FFDF
:1013C0002046FFF755FFB4E76FF001021A6120468F
:1013D000FFF7F6F8B8E76FF080021A61204600F0D8
:1013E00095F8BAE76FF480721A61204600F08FF822
:1013F000BCE76FF040021A612046FFF73AFFBEE7F4
:101400006FF020021A61204600F07FF8C0E700006C
:101410000368304A904212D0B0F1804F0FD0A2F54D
:10142000943290420BD002F58062904207D002F5D0
:101430008062904203D002F59432904203D123F0AF
:1014400070034A681343234A90421ED0B0F1804F84
:101450001BD0A2F59432904217D002F580629042E0
:1014600013D002F5806290420FD002F59432904280
:101470000BD002F54062904207D002F580629042A4
:1014800003D002F58062904203D123F44073CA680E
:10149000134323F080034A69134303608B68C362DC
:1014A0000B6883620B4B98420FD003F500639842A0
:1014B0000BD003F54063984207D003F58063984250
:1014C00003D003F58063984201D10B6903630123C4
:1014D00043617047002C0140A8B110B5044690F854
:1014E0003D305BB1022384F83D30211D2068FFF7B9
:1014F0008FFF012384F83D30002010BD80F83C3080
:10150000FFF799FEEEE7012070477047704770477C
:1015100010B5032001F0A0F9002003F0EFFC10B19A
:101520000124204610BD044603F08EFAF9E70000BE
:10153000024A136801331360704700BF64480220F9
:10154000014B1868704700BF6448022038B5044654
:10155000FFF7F6FF0546B4F1FF3F00D00134FFF777
:10156000EFFF401BA042FAD338BD000030B583B076
:101570000546204B9B6D13F0805F0BD001F014F9F2
:10158000B0F5007F17D0802D1FD82DD0702D2DD015
:1015900000211BE0174CA36D43F08053A365A36D9E
:1015A00003F080530193019B01F0FEF8A36D23F03B
:1015B0008053A365E4E7802D03D9A02D03D9022130
:1015C00004E0002102E0012100E003210A4A13683F
:1015D00023F007030B431360136803F007038B42E8
:1015E00006D0012003B030BD0221EFE70121EDE775
:1015F0000020F7E70010024000200240314A9368C3
:10160000D26802F0030213F00C030AD00C2B06D0B0
:10161000042B1FD0082B20D00020014610E0012A07
:10162000F6D1284A126812F0080F0CD1254AD2F8D8
:101630009420C2F30322244951F8221043B1002020
:101640000C2B0DD070471F4A1268C2F30312F2E749
:101650000846F5E71D480021F2E71D480021EFE7A5
:10166000184BDA6802F00302DB68C3F3021301339C
:10167000022A0AD0032A1AD0B1FBF3F3114AD06828
:10168000C0F3062000FB03F008E01048B0FBF3F3C2
:101690000C4AD068C0F3062000FB03F0094BDB685E
:1016A000C3F3416301335B00B0FBF3F0CAE70848C2
:1016B000B0FBF3F3034AD068C0F3062000FB03F04D
:1016C000ECE700BF00100240205B00080024F4009B
:1016D00000127A00002800F0C182F0B583B0044601
:1016E000AC4B9D6805F00C05DE6806F00306036848
:1016F00013F0100F5DD0E5B10C2D18D0A369002BAD
:1017000000F0B780A34A136843F001031360FFF7AA
:1017100017FF07469F4B1B6813F0020F40F096809F
:10172000FFF70EFFC01B0228F4D90323A2E2012E0B
:10173000E4D1984B1B6813F0020F03D0A369002B70
:1017400000F08F82206A934B1B6813F0080F5DD066
:10175000904B1B6803F0F00398425ED9FFF706FF39
:10176000002840F080828B4B1A6842F008021A6011
:101770001A6822F0F002216A0A431A605A6822F4B9
:101780007F42E16942EA01225A60FFF737FF814B4D
:101790009B68C3F30313804AD35C03F01F03D84054
:1017A0007E4B1860002003F0A9FB0346002840F0A0
:1017B0006182236813F0010F7AD0082D6FD00C2DB1
:1017C0006BD06368B3F5803F00F09180B3F5A02F34
:1017D00000F093806F4B1A6822F480321A601A6806
:1017E00022F480221A606368002B00F09380FFF7D8
:1017F000A7FE0746674B1B6813F4003F58D1FFF75D
:101800009FFEC01B6428F5D9032333E2614BD3F854
:1018100094301B0903F0F0039EE75E4B1A6842F018
:1018200008021A601A6822F0F002216A0A431A605C
:101830005A6822F47F42E16942EA01225A60206A32
:10184000FFF794FE0028A0D0012313E2514B1A6841
:1018500042F008021A601A6822F0F002216A0A4374
:101860001A605A6822F47F42E16942EA01225A6012
:101870009FE7484A136823F001031360FFF760FEF7
:101880000746444B1B6813F0020F92D0FFF758FE37
:10189000C01B0228F5D90323ECE1032E91D13D4B67
:1018A0001B6813F4003F03D06368002B00F0DD8158
:1018B000236813F0020F4FD0042D3CD00C2D38D0EC
:1018C000E368002B75D0334A136843F480731360C8
:1018D000FFF736FE06462F4B1B6813F4806F5FD16F
:1018E000FFF72EFE801B0228F5D90323C2E1294A07
:1018F000136843F48033136075E703F18043A3F565
:101900003C331A6842F480221A601A6842F480322A
:101910001A6068E7FFF714FE07461E4B1B6813F4B6
:10192000003FC5D0FFF70CFEC01B6428F5D9032388
:10193000A0E1022EC4D1174B1B6813F4806F03D0B3
:10194000E368002B00F09381124A536823F0FE43B2
:10195000216943EA01635360236813F0080F53D0F1
:101960006369002B39D00B4AD2F8943043F001035D
:10197000C2F89430FFF7E4FD0646064BD3F89430E6
:1019800013F0020F40D1FFF7DBFD801B0228F4D9D2
:1019900003236FE100100240085B000804000020F0
:1019A000B74A536823F0FE43216943EA0163536059
:1019B000D2E7B34A136823F480731360FFF7C0FDC6
:1019C0000646AF4B1B6813F4806FC5D0FFF7B8FD18
:1019D000801B0228F5D903234CE1A94AD2F89430A0
:1019E00023F00103C2F89430FFF7AAFD0646A44B8A
:1019F000D3F8943013F0020F06D0FFF7A1FD801B3F
:101A00000228F4D9032335E1236813F0040F7AD0B8
:101A10009B4B9B6D13F0805F0BD1994B9A6D42F0FD
:101A200080529A659B6D03F080530193019B0126C0
:101A300000E00026934B1B6813F4807F26D0A36838
:101A4000012B37D0052B3DD08D4BD3F8902022F0C1
:101A50000102C3F89020D3F8902022F00402C3F8CA
:101A60009020A368002B3BD0FFF76AFD0746844B0C
:101A7000D3F8903013F0020F44D1FFF761FDC01B83
:101A800041F288339842F2D90323F3E07D4A136888
:101A900043F480731360FFF753FD0746794B1B68CF
:101AA00013F4807FCBD1FFF74BFDC01B0228F5D983
:101AB0000323DFE0724AD2F8903043F00103C2F80A
:101AC0009030CEE76E4BD3F8902042F00402C3F87A
:101AD0009020D3F8902042F00102C3F89020C0E794
:101AE000FFF72EFD0746664BD3F8903013F0020F38
:101AF00008D0FFF725FDC01B41F288339842F2D988
:101B00000323B7E0E6B9236813F0200F35D0636AEA
:101B1000E3B15B4AD2F8983043F00103C2F8983041
:101B2000FFF70EFD0646564BD3F8983013F0020F20
:101B300023D1FFF705FD801B0228F4D9032399E088
:101B40004F4A936D23F080539365DCE74C4AD2F8FB
:101B5000983023F00103C2F89830FFF7F1FC0646F5
:101B6000474BD3F8983013F0020F06D0FFF7E8FC8C
:101B7000801B0228F4D903237CE0A36A002B78D0D1
:101B80000C2D7AD0022B23D03D4B1A6822F08072A4
:101B90001A601B6813F0205F04D1394AD36823F020
:101BA0000303D360364AD36823F0887323F4803369
:101BB000D360FFF7C5FC0446314B1B6813F0007F70
:101BC0004AD0FFF7BDFC001B0228F5D9032351E0E2
:101BD0002B4A136823F080731360FFF7B1FC0546AE
:101BE000274B1B6813F0007F06D0FFF7A9FC401BB2
:101BF0000228F5D903233DE0236B5A1E636B1B02B9
:101C000043EA0213E26A1343E26B5208013A43EAE1
:101C10004253226C5208013A43EA4263A26B43EA00
:101C2000C263174AD360136843F080731360D368AC
:101C300043F08073D360FFF783FC0446104B1B68AE
:101C400013F0007F06D1FFF77BFC001B0228F5D9BB
:101C500003230FE000230DE000230BE001231846CF
:101C60007047012306E0012304E0012302E0012381
:101C700000E00023184603B0F0BD0123FAE700BFDF
:101C80000010024000700040002800F09A8070B5FB
:101C900004464E4B1B6803F007038B420CD24B4AA1
:101CA000136823F007030B431360136803F0070363
:101CB0008B4201D0012070BD0D46236813F0010F47
:101CC00039D06368032B09D0022B26D063BB404A6E
:101CD000126812F0020F06D10120ECE73C4A1268AC
:101CE00012F0007F6FD03A498A6822F00302134352
:101CF0008B60FFF725FC0646354B9B6803F00C0311
:101D00006268B3EB820F16D0FFF71AFC801B41F21A
:101D100088339842F0D90320CDE72D4A126812F497
:101D2000003FE0D10120C6E7294A126812F4806F13
:101D3000D9D10120BFE7236813F0020F06D0244A4F
:101D4000936823F0F003A1680B4393601F4B1B685B
:101D500003F00703AB420CD91C4A136823F00703B6
:101D60002B431360136803F00703AB4201D001203B
:101D7000A1E7236813F0040F06D0154A936823F4F3
:101D8000E063E1680B439360236813F0080F07D00A
:101D90000F4A936823F46053216943EAC1039360B7
:101DA000FFF72CFC0A4B9B68C3F30313094AD35C6F
:101DB00003F01F03D840084B1860002003F09EF882
:101DC00079E701207047012075E700BF002002403D
:101DD00000100240085B000804000020014B186856
:101DE000704700BF0400002008B5FFF7F7FF054B60
:101DF0009B68C3F30223044AD35C03F01F03D8405B
:101E000008BD00BF00100240185B000808B5FFF7CE
:101E1000E5FF054B9B68C3F3C223044AD35C03F080
:101E20001F03D84008BD00BF00100240185B000827
:101E30000F2303600B4B9A6802F0030242609A681A
:101E400002F0F00282609A6802F4E062C2609B686D
:101E5000DB0803F4E0630361034B1B6803F0070333
:101E60000B6070470010024000200240F8B5594B4B
:101E7000DB6813F0030F18D0564BDB6803F0030345
:101E80000268934202D001252846F8BD002A00F0DE
:101E90009F80504BDB68C3F30213013342689342C7
:101EA00001D00125F0E700251AE00368022B58D085
:101EB000032B5DD0012B01D001250FE0454A1268AC
:101EC00012F0020F60D0434DEA6822F073024468BA
:101ED000013C43EA04131343EB600025002DD3D1EA
:101EE0000F4604463B4A136823F080631360FFF7F4
:101EF00027FB0646374B1B6813F0006F05D0FFF732
:101F00001FFB801B0228F5D90325002DBCD1002F13
:101F10003CD130490B6923F0784323F4FE43A06899
:101F2000E268D20642EA002213430B61294A136891
:101F300043F080631360FFF703FB0646254B1B68E5
:101F400013F0006F05D1FFF7FBFA801B0228F5D9CB
:101F50000325002D98D11F4A1369A1690B43136112
:101F600092E71C4A126812F4806FACD10125B5E7E4
:101F7000184A126812F4003FA5D1164A126812F4EA
:101F8000802FA0D10125A9E70125A7E7012F0FD0B8
:101F90001048026922F0C06222F4FE42A16863691F
:101FA0005B08013B5B0643EA012313430361BDE782
:101FB0000848026922F4C00222F4FE42A1682369A3
:101FC0005B08013B5B0543EA012313430361ADE773
:101FD000012559E700100240F8B5504BDB6813F0BB
:101FE000030F18D04D4BDB6803F0030302689342E4
:101FF00002D001252846F8BD002A00F08D80474B0D
:10200000DB68C3F3021301334268934201D0012518
:10201000F0E700251AE00368022B58D0032B5DD0AF
:10202000012B01D001250FE03C4A126812F0020F8B
:1020300060D03A4DEA6822F073024468013C43EAFA
:1020400004131343EB600025002DD3D10F46044643
:10205000324A136823F080531360FFF771FA064683
:102060002E4B1B6813F0005F05D0FFF769FA801B49
:102070000228F5D90325002DBCD1002F3CD12749DA
:102080004B6923F0784323F4FE43A068E268D2064C
:1020900042EA002213434B61204A136843F0805305
:1020A0001360FFF74DFA06461C4B1B6813F0005FE8
:1020B00005D1FFF745FA801B0228F5D90325002D2D
:1020C00098D1164A536961690B43536192E7134AE9
:1020D000126812F4806FACD10125B5E70F4A12687F
:1020E00012F4003FA5D10D4A126812F4802FA0D13E
:1020F0000125A9E70125A7E70848426922F0C06247
:1021000022F4FE42A16823695B08013B5B0643EAB7
:10211000012313434361BFE701256BE70010024031
:102120002DE9F04182B00446036813F4006F2FD00C
:10213000836EB3F5800F25D008D9B3F5000F10D00A
:10214000B3F5400F40F09980002610E0002B40F0DE
:10215000948000210430FFF789FE06463EB13746E1
:1021600018E05E4AD36843F48033D36000265B4AAC
:10217000D2F8883023F44003A16E0B43C2F88830B4
:10218000002707E000212030FFF726FF0646E5E79D
:1021900000273E46236813F4805F15D0E36EB3F149
:1021A000807F7AD06CD9B3F1007F70D0B3F1407FDB
:1021B0007AD1002E7BD1494AD2F8883023F040737F
:1021C000E16E0B43C2F88830236813F4003F00F03F
:1021D0008E80424B9B6D13F0805F6AD13F4B9A6DAE
:1021E00042F080529A659B6D03F080530193019BEE
:1021F0004FF001083A4A136843F480731360FFF705
:102200009FF90546364B1B6813F4807F05D1FFF715
:1022100097F9401B0228F5D90326002E62D12F4BD7
:10222000D3F8903013F4407316D0D4F888209A4233
:1022300012D02A4AD2F8903023F44073D2F890108A
:1022400041F48031C2F89010D2F8901021F480311E
:10225000C2F89010C2F8903013F0010F2CD1002E6C
:1022600040F051811D4AD2F8903023F44073D4F8E5
:1022700088100B43C2F8903035E001273E4689E7CD
:1022800093B90021201DFFF7F1FD064691E7134A9F
:10229000D36843F48033D3608BE7002104F120003E
:1022A000FFF79AFE064684E701273E468CE737464D
:1022B0008AE74FF000089DE7FFF742F90546074B14
:1022C000D3F8903013F0020FC9D1FFF739F9401B52
:1022D00041F288339842F2D90326C0E70010024049
:1022E000007000403746B8F1000F40F00E812368BF
:1022F00013F0010F08D0A44AD2F8883023F003036A
:10230000A16B0B43C2F88830236813F0020F08D08A
:102310009D4AD2F8883023F00C03E16B0B43C2F8DE
:102320008830236813F0040F08D0974AD2F8883019
:1023300023F03003216C0B43C2F88830236813F07C
:10234000080F08D0904AD2F8883023F0C003616C9F
:102350000B43C2F88830236813F0100F08D08A4A64
:10236000D2F8883023F44073A16C0B43C2F8883054
:10237000236813F0200F08D0834AD2F8883023F462
:102380004063E16C0B43C2F88830236813F4007F8C
:1023900008D07D4AD2F8883023F44023216E0B43C5
:1023A000C2F88830236813F4806F08D0764AD2F8D8
:1023B000883023F44013616E0B43C2F888302368E1
:1023C00013F0400F08D0704AD2F8883023F44053FD
:1023D000216D0B43C2F88830236813F0800F08D0BA
:1023E000694AD2F8883023F44043616D0B43C2F848
:1023F0008830236813F4807F08D0634AD2F888308D
:1024000023F44033A16D0B43C2F88830236813F4E2
:10241000801F08D05C4AD2F89C3023F00303E16DA2
:102420000B43C2F89C30236813F4005F0FD0564A68
:10243000D2F8883023F04063216F0B43C2F8883014
:10244000236FB3F1006F66D0B3F1806F68D023685B
:1024500013F4002F0FD04C4AD2F8883023F0406399
:10246000616F0B43C2F88830636FB3F1006F5FD0C8
:10247000B3F1806F61D0236813F4802F0FD0424AEC
:10248000D2F8883023F04063A16F0B43C2F8883044
:10249000A36FB3F1006F58D0B3F1806F5AD02368A7
:1024A00013F4804F0FD0384AD2F8883023F04053CD
:1024B000E16F0B43C2F88830E36FB3F1805F51D016
:1024C000B3F1005F56D0236813F4004F09D02E4AB1
:1024D000D2F8883023F08043D4F880100B43C2F840
:1024E0008830236813F4803F09D0274AD2F8883017
:1024F00023F00043D4F884100B43C2F888303846E8
:1025000002B0BDE8F0813746EDE61F4A936D23F037
:1025100080539365EBE6D36843F48013D36096E76A
:102520000121201DFFF7A2FC002890D007468EE76E
:10253000D36843F48013D3609DE70121201DFFF78A
:1025400095FC002897D0074695E7D36843F480139D
:10255000D360A4E70121201DFFF788FC00289ED04E
:1025600007469CE70221201DFFF780FC0028AAD027
:102570000746A8E7022104F12000FFF72DFD0028FF
:10258000A1D007469FE700BF00100240F0B482B020
:10259000002336E0072400E00024B4403C43023529
:1025A000644E46F82540644C2568D44304EA050689
:1025B0004F6817F4803F01D042EA05065E4D2E6059
:1025C0006D6804EA05064F6817F4003F01D042EA3F
:1025D0000506594D6E60AD6804EA05064F6817F4AC
:1025E000801F01D042EA0506534DAE60ED682C40D5
:1025F0004E6816F4001F01D042EA05044E4AD4602A
:1026000001330A6832FA03F400F0918001249C40FF
:102610002240F5D04D68022D01D0122D10D1DE08D8
:10262000083650F826C003F00705AF000F25BD405F
:102630002CEA050C0D69BD4045EA0C0540F8265012
:1026400006685F000325BD40ED4305EA060C4E68B1
:1026500006F00306BE4046EA0C0606604E6806F128
:10266000FF3CBCF1010F03D9112E01D0122E10D165
:10267000866805EA060CCE68BE4046EA0C0686600F
:10268000466826EA04044E68C6F300169E402643B8
:102690004660C46825408C68BC402C43C4604C68CC
:1026A00014F0805FACD0254C256E45F00105256601
:1026B000246E04F001040194019C9D08AE1C1D4C85
:1026C00054F8267003F00304A6000F24B44027EA50
:1026D0000407B0F1904F3FF45FAF194CA0421AD0FD
:1026E00004F58064A04218D004F58064A04216D09E
:1026F00004F58064A04214D004F58064A04212D096
:1027000004F58064A04210D004F58064A0423FF438
:1027100041AF082441E701243FE702243DE70324B9
:102720003BE7042439E7052437E7062435E702B000
:10273000F0BC70470000014000040140001002405E
:10274000000400480AB9816270478161704743699B
:1027500059404161704708B590F82530DBB2022B33
:1027600003D00423C363012008BD0268136823F06B
:102770000E0313600268136823F001031360436CB7
:1027800003F01C03016C012202FA03F34B6080F892
:102790002520002380F82430836B13B19847002054
:1027A000E2E70020E0E70000024B186800F4C06098
:1027B000704700BF00700040B0F5007F0FD01F4B86
:1027C0001B6803F4C063B3F5806F34D01B4A1368F1
:1027D00023F4C06343F48063136000207047174BF9
:1027E0001B6803F4C063B3F5007F22D0134A13685B
:1027F00023F4C06343F400731360114B1A6832234F
:1028000003FB02F30F4AA2FB03239B0C013300E0FE
:10281000013B0A4A526912F4806F01D0002BF7D1B4
:10282000064B5B6913F4806F01D1002070470320D1
:102830007047002070470020704700BF00700040C4
:102840000400002083DE1B43024A536843F40073F4
:102850005360704700700040074AD36823F4E06378
:102860001B041B0C000200F4E060184340F0BF6042
:1028700040F40030D060704700ED00E030B4174BFA
:10288000DB68C3F30223C3F10704042C28BF04242C
:102890001D1D062D18D9033B4FF0FF3505FA04F432
:1028A00021EA0401994005FA03F322EA03031943DC
:1028B00000280BDB0901C9B200F1604000F561405E
:1028C00080F8001330BC70470023E5E700F00F00EC
:1028D0000901C9B2024B1954F4E700BF00ED00E052
:1028E00014ED00E000F01F02400901239340024A6A
:1028F00042F82030704700BF00E100E010B5044608
:1029000001F038FCA26BE36B9A4204D0002401F082
:1029100053FC204610BD0124F9E710B5044601F030
:1029200029FCA36B23B1002401F046FC204610BD16
:102930000124F9E770B504461646856B026C5AB956
:1029400003681BB100200135A56370BD406800F02D
:1029500083FF00236360F6E76EB9806802F0C2FB74
:10296000226CA3681344A3606268934219D323685E
:10297000A3600020E7E7C06802F0B4FB226C52427B
:10298000E3681344E36021688B4202D263681A440F
:10299000E260022E01D00020D5E725B1013D0020E4
:1029A000D1E70020CFE70020CDE7026C72B110B56F
:1029B000C3681344C3604468A34201D30368C3607F
:1029C0000C46C168204602F08DFB10BD704738B53B
:1029D000054601F0CFFB95F8454064B203E000F0F6
:1029E00025FF013C64B2002C08DD6B6A33B105F1B0
:1029F000240000F089FE0028F3D0F0E7FF2385F8DB
:102A0000453001F0D9FB01F0B5FB95F8444064B2C4
:102A100003E000F00BFF013C64B2002C08DD2B69E1
:102A200033B105F1100000F06FFE0028F3D0F0E79D
:102A3000FF2385F8443001F0BFFB38BD38B540B9FD
:102A40004FF0100383F31188BFF36F8FBFF34F8FE5
:102A5000FEE704460D4601F08DFB2168E26B236C16
:102A600003FB021060600020A063A160013A02FB3A
:102A70000313E360FF2384F8443084F84530A5B99C
:102A800023691BB901F098FB012038BD04F1100047
:102A900000F03AFE0028F5D0084B4FF080521A6043
:102AA000BFF34F8FBFF36F8FECE704F1100000F01E
:102AB00046FA04F1240000F042FAE3E704ED00E0F6
:102AC00010B5029B0C4639B11A60D8631C64012111
:102AD0001846FFF7B3FF10BD1B60F6E740B94FF093
:102AE000100383F31188BFF36F8FBFF34F8FFEE79F
:102AF000F0B583B0054611B101FB00F000E0002005
:102B000017460C46483001F00DFA064638B10090E1
:102B10003B4600F1480221462846FFF7D1FF3046E8
:102B200003B0F0BDF0B585B0019260B1044699B92B
:102B3000026C8AB14FF0100383F31188BFF36F8FDB
:102B4000BFF34F8FFEE74FF0100383F31188BFF3FD
:102B50006F8FBFF34F8FFEE7022B0BD1E26B012A81
:102B600008D04FF0100383F31188BFF36F8FBFF3CA
:102B70004F8FFEE71E460F4600F05EFE50B9019BE8
:102B800053B14FF0100383F31188BFF36F8FBFF37E
:102B90004F8FFEE700253AE0002538E032463946FF
:102BA0002046FFF7C7FE636A4BB9A8B13B4B4FF015
:102BB00080521A60BFF34F8FBFF36F8F0CE004F1A8
:102BC000240000F0A1FD38B1344B4FF080521A6060
:102BD000BFF34F8FBFF36F8F01F0EEFA012005B006
:102BE000F0BD01F0E9FA0020F9E702A800F0D2FDFB
:102BF000012519E0002384F8443021E0002384F803
:102C0000453023E02046FFF7E2FE00F05DFC01F0D6
:102C1000B1FAA26BE36B9A42C0D3022EBED0019BE5
:102C2000002BDED0002DE0D001F0C6FA00F0B2FBA0
:102C300001F0A0FA94F844305BB2B3F1FF3FD9D071
:102C400094F845305BB2B3F1FF3FD7D001F0B4FA4E
:102C500001A902A800F0AAFDC8B92046FFF74EFE60
:102C60000028CFD0019904F1100000F019FD204692
:102C7000FFF7ADFE00F028FC0028C8D1074B4FF04D
:102C800080521A60BFF34F8FBFF36F8FBFE72046AC
:102C9000FFF79DFE00F018FC0020A0E704ED00E027
:102CA0002DE9F84360B1044699B9006C88B14FF042
:102CB000100383F31188BFF36F8FBFF34F8FFEE7CD
:102CC0004FF0100383F31188BFF36F8FBFF34F8F63
:102CD000FEE7022B0BD1E06B012808D04FF0100368
:102CE00083F31188BFF36F8FBFF34F8FFEE71F464B
:102CF0009046894601F068FBEFF311864FF0100310
:102D000083F31188BFF36F8FBFF34F8FA26BE36B19
:102D10009A4203D3022F01D000200FE094F84550CF
:102D20006DB23A4649462046FFF704FEB5F1FF3F33
:102D300008D06B1C5BB284F84530012086F3118803
:102D4000BDE8F883636A5BB104F1240000F0DCFCA9
:102D500040B1B8F1000F07D00120C8F80000EDE73E
:102D60000120EBE70120E9E70120E7E7F0B585B0B6
:102D7000019260B1044699B9036C8BB14FF0100316
:102D800083F31188BFF36F8FBFF34F8FFEE74FF0D0
:102D9000100383F31188BFF36F8FBFF34F8FFEE7EC
:102DA0000F4600F049FD50B9019B53B14FF010039D
:102DB00083F31188BFF36F8FBFF34F8FFEE70026B9
:102DC0003EE000263CE039462046FFF7EEFD013D9F
:102DD000A563236923B901F0EFF9012005B0F0BD27
:102DE00004F1100000F090FC0028F4D0344B4FF0B8
:102DF00080521A60BFF34F8FBFF36F8FEBE701F084
:102E0000DBF90020EAE702A800F0C4FC012621E07B
:102E1000002384F8443029E0002384F845302BE077
:102E20002046FFF7D4FD00F04FFB09E02046FFF7F6
:102E3000CEFD00F049FB2046FFF76FFD00283DD195
:102E400001F098F9A56B002DBDD1019B002BD6D0C8
:102E5000002ED8D001F0B0F900F09CFA01F08AF908
:102E600094F844305BB2B3F1FF3FD1D094F84530D1
:102E70005BB2B3F1FF3FCFD001F09EF901A902A8E8
:102E800000F094FC0028D1D12046FFF746FD002831
:102E9000C6D0019904F1240000F002FC2046FFF79F
:102EA00096FD00F011FB0028CAD1054B4FF080526F
:102EB0001A60BFF34F8FBFF36F8FC1E700208DE71C
:102EC00004ED00E00023072B0CD8074A52F833200A
:102ED0000AB10133F7E7044A42F8331002EBC303A7
:102EE00058607047704700BF6848022070B50446BC
:102EF0000D46164601F03EF994F844305BB2B3F14A
:102F0000FF3F0DD094F845305BB2B3F1FF3F0BD0DB
:102F100001F052F9A36B5BB12046FFF758FD70BD7D
:102F2000002384F84430EDE7002384F84530EFE7D0
:102F30003246294604F1240000F0CAFBECE700F118
:102F4000080343604FF0FF328260C36003610023D7
:102F50000360704700230361704743684B609A68C1
:102F60008A609A6851609960086103680133036060
:102F7000704730B40D68B5F1FF3F02D000F1080290
:102F800002E0026904E01A4653681C68AC42FAD9B0
:102F900053684B6099608A6051600861036801332F
:102FA000036030BC70470369426881689160826841
:102FB000416851605A68824206D0002202611A6854
:102FC000013A1A601868704782685A60F5E7000095
:102FD000084B1B681B683BB1064B1B68DB68DB6852
:102FE0005A68054B1A607047034B4FF0FF321A6066
:102FF000704700BF900000206801002010B5044613
:10300000006B01F013F8204601F010F810BD2DE917
:10301000F04780469946089D099F0A9C266B02F15D
:103020008042013A06EB820626F0070600230F2BAA
:1030300007D8C85CE21882F83400CA5C0AB10133D0
:10304000F5E7002384F84330062D00D90625E56214
:1030500065644FF0000AC4F848A0201DFFF77AFF0E
:1030600004F11800FFF776FF2461C5F10705A5619B
:103070006462C4F84CA084F850A04A4641463046E9
:1030800001F04AF8206007B13C60BDE8F08700001D
:1030900038B5002407E004EB840293000E4818447E
:1030A000FFF74DFF0134062CF5D90C4D2846FFF7EC
:1030B00046FF0B4C2046FFF742FF0A48FFF73FFF51
:1030C0000948FFF73CFF0948FFF739FF084B1D602F
:1030D000084B1C6038BD00BF980000203C01002058
:1030E00050010020700100209C0100208801002078
:1030F000900000209400002010B5044601F03AF83A
:10310000204A1368013313601F4B1B685BB11F4BD0
:103110001B686BB91C4B1B68DA6AE36A9A4207D8D2
:10312000194B1C6004E0184B1C601368012B26D05F
:10313000174A136801331360E36A01229A40154964
:10314000086802430A6003EB83039A00211D1248BA
:103150001044FFF702FF01F02FF80C4B1B686BB116
:10316000094B1B68DA6AE36A9A4207D20B4B4FF0AD
:1031700080521A60BFF34F8FBFF36F8F10BDFFF700
:1031800087FFD5E7240100208C0000208401002067
:1031900034010020380100209800002004ED00E0F8
:1031A0000F4B1B68D3B110B500F0E4FF0D4BDB688B
:1031B000DC68201DFFF7F7FE0B4A1368013B136024
:1031C000074A1368013B136000F0F6FF2046FFF743
:1031D00015FF034B1B68002BE6D110BD704700BFE5
:1031E000280100209C0100202401002008B5FFF7E1
:1031F000D7FF064B1B68012BF9D9054B4FF08052C6
:103200001A60BFF34F8FBFF36F8FF0E79800002075
:1032100004ED00E070B504460E461D4B1D681D4BC5
:1032200018680430FFF7BFFE50B91A4B1B68DA6A02
:10323000012303FA02F218490B6823EA02030B6028
:10324000B4F1FF3F13D02C44124B1B685C60A542C5
:1032500016D8124B18680F4B19680431FFF789FE16
:103260000F4B1B68A34212D90D4B1C600FE0002EC0
:10327000E9D0084B196804310A48FFF76EFE06E0F2
:10328000094B1868034B19680431FFF772FE70BDD3
:10329000B00100208C0000203801002090000020A8
:1032A0006801002088010020940000202DE9F043EF
:1032B00085B00746884615469946900000F032FED4
:1032C000F8B10646542000F02DFE0446A8B106636E
:1032D000D4B10023039302940D9B01930C9B0093A4
:1032E0004B462A4641463846FFF791FE2046FFF7F7
:1032F00003FF012005B0BDE8F083304600F096FEE4
:10330000E6E74FF0FF30F5E74FF0FF30F2E700005F
:1033100000B583B0194B0193002300938022184914
:103320001848FFF7C3FF012807D0012808D0B0F1E3
:10333000FF3F1AD003B05DF804FB00F067FBF4E731
:103340004FF0100383F31188BFF36F8FBFF34F8FDC
:103350000D4B4FF0FF321A600C4B01221A600C4BE0
:1033600000221A6000F0A8FFE4E74FF0100383F397
:103370001188BFF36F8FBFF34F8FFEE7640100200A
:10338000F05A0008ED310008680100208401002097
:10339000B0010020024A136801331360704700BF78
:1033A00030010020014B1868704700BFB0010020B9
:1033B000F8B53A4B1B68002B64D1394B1D680135B9
:1033C0001D60C5B9374B1B681B6843B14FF0100334
:1033D00083F31188BFF36F8FBFF34F8FFEE7314A3E
:1033E0001168314B186810601960304A1368013356
:1033F0001360FFF7EDFD2E4B1B68AB4238D900245C
:103400002C4B1B68DB6A03EB83039A002A4B9B5807
:10341000012B3CD901243AE00124224B1B681B6894
:1034200043B3204B1B68DB68DE6873689D4226D37C
:10343000371D3846FFF7B7FDB36A1BB106F1180018
:10344000FFF7B1FDF36A01229A401C490868024364
:103450000A6003EB83039A00394617481044FFF7CC
:103460007CFDF26A134B1B68DB6A9A42D4D2D4E724
:103470000024D2E70E4B4FF0FF321A60C0E70C4A2F
:103480001360BDE70E4A13680133136000240D4B2F
:103490001B6803B101242046F8BD00BF30010020A5
:1034A000B001002090000020940000206C0100205A
:1034B000680100208C0000209800002038010020C6
:1034C0002C010020B401002038B5334B1B6843B9F0
:1034D0004FF0100383F31188BFF36F8FBFF34F8F4B
:1034E000FEE700F047FE2C4B1A68013A1A601B6891
:1034F000002B4DD1294B1B6823B9002400F05CFE42
:10350000204638BD0024264B1B681BB3244BDB68C8
:10351000DC6804F11800FFF746FD251D2846FFF77B
:1035200042FDE36A01229A401E49086802430A608C
:1035300003EB83039A0029461B481044FFF70DFD57
:10354000E26A1A4B1B68DB6A9A42DCD3184B0122F1
:103550001A60D8E70CB1FFF73BFD164B1C6854B15D
:10356000FFF726FF10B1124B01221A60013CF7D180
:10357000104B00221A600E4B1B685BB10E4B4FF0D4
:1035800080521A60BFF34F8FBFF36F8F0124B5E7EE
:103590000024B3E70024B1E730010020240100201B
:1035A0007001002038010020980000208C000020CD
:1035B000B40100202C01002004ED00E010B5A8B1FA
:1035C00004460F4B1B6843B14FF0100383F311887F
:1035D000BFF36F8FBFF34F8FFEE7FFF7DBFE0021D6
:1035E0002046FFF717FEFFF76FFF38B9054B4FF086
:1035F00080521A60BFF34F8FBFF36F8F10BD00BFB3
:103600003001002004ED00E0204B1B681BB1204B73
:1036100001221A6070471E4B00221A601D4B1B6866
:10362000B3FA83F3DBB2C3F11F0303EB83018A0018
:1036300019498A5842B94FF0100383F31188BFF338
:103640006F8FBFF34F8FFEE710B413489A00D41862
:10365000A10001444C6864684C601A449100083130
:10366000084484420BD003EB83039A000A4B1344B3
:103670005B68DA68094B1A605DF8044B7047616853
:103680000548142202FB03025160ECE730010020E0
:10369000B401002038010020980000208C00002098
:1036A00040B94FF0100383F31188BFF36F8FBFF35E
:1036B0004F8FFEE710B50C46044B19681831FFF721
:1036C00058FC01212046FFF7A5FD10BD8C0000200D
:1036D00038B540B94FF0100383F31188BFF36F8FF3
:1036E000BFF34F8FFEE70C461546064A11681831A6
:1036F000FFF733FC0DB14FF0FF3429462046FFF7AA
:1037000089FD38BD8C00002038B5C368DC6844B939
:103710004FF0100383F31188BFF36F8FBFF34F8F08
:10372000FEE704F118052846FFF73DFC134B1B6824
:10373000E3B9251D2846FFF736FCE36A01229A40CB
:103740000F49086802430A6003EB83039A00294685
:103750000C481044FFF701FCE26A0B4B1B68DB6A64
:103760009A4208D90120094B186038BD29460848FB
:10377000FFF7F3FBF0E70020F7E700BF3001002080
:1037800038010020980000208C000020B4010020A7
:1037900070010020034B1B680360034B1B684360F0
:1037A000704700BF6C010020B0010020F8B550B197
:1037B000054689B94FF0100383F31188BFF36F8F6B
:1037C000BFF34F8FFEE74FF0100383F31188BFF371
:1037D0006F8FBFF34F8FFEE70C4600F0CBFC114B11
:1037E000196868680A1A2368B3F1FF3F16D02F687A
:1037F0000D4E3668B74201D0884211D9934203D8A2
:1038000000232360012405E09B1A23602846FFF76C
:10381000C1FF002400F0D0FC2046F8BD0024F9E7E9
:103820000124F7E7B00100206C010020014B0122C8
:103830001A607047B4010020054B1B6833B1054B7B
:103840001B680BB1002070470220704701207047B1
:103850008401002030010020002849D038B50446FA
:10386000264A1268824208D04FF0100383F3118871
:10387000BFF36F8FBFF34F8FFEE7826C42B94FF0FB
:10388000100383F31188BFF36F8FBFF34F8FFEE7F1
:10389000013A8264C06A616C88422BD062BB251DEC
:1038A0002846FFF780FB70B9E26A142303FB02F39A
:1038B0001349CB583BB9012303FA02F211490B68B3
:1038C00023EA02030B60636CE362C3F10702A261A7
:1038D000012404FA03F20B49086802430A602946EE
:1038E000074A142000FB0320FFF737FB204638BDB2
:1038F000002070470020FAE70020F8E78C00002045
:103900009800002038010020064B1A681368B3FAAB
:1039100083F35B09036013B9D3681868704700200C
:10392000704700BFB801002008B5416000619142B6
:103930000CD8D21A83699A4201D3012010E0011DEC
:10394000094B1868FFF715FB002009E09A4201D2E5
:10395000994206D2011D054B1868FFF70AFB0020AB
:1039600008BD0120FCE700BFBC010020B801002019
:1039700038B500F0FFFB0F4B1B6813B100F01CFCC7
:1039800038BD0D4D2846FFF7DAFA0C4C2046FFF7FC
:10399000D6FA0B4B1D600B4B1C6000220C210A2039
:1039A000FFF79CF8034B18600028E7D00649FFF7A3
:1039B00089FAE3E7EC010020C0010020D4010020D7
:1039C000B8010020BC010020F85A00082DE9F041A0
:1039D000079C41B94FF0100383F31188BFF36F8F39
:1039E000BFF34F8FFEE70F4674B11D461646804663
:1039F000FFF7BEFFC4F80080A761E6612562069B61
:103A00006362201DFFF7A6FABDE8F08100B583B020
:103A1000FFF7AEFF0D4B1B685BB10D4B019303230A
:103A2000009300234FF480720A490B48FFF73EFCD5
:103A300040B94FF0100383F31188BFF36F8FBFF3CA
:103A40004F8FFEE703B05DF804FB00BFEC010020E0
:103A5000F0010020005B0008553D00082DE9F04111
:103A600082B005460E4617469846282000F05AFABE
:103A7000044640B10190089B009343463A463146C4
:103A80002846FFF7A3FF204602B0BDE8F081000002
:103A9000C8B130B585B015460446174A106840B322
:103AA0001A4601910295039405291DDCFFF7C4FE17
:103AB000022811D000231A4601A90F480068FFF719
:103AC00031F805B030BD4FF0100383F31188BFF318
:103AD0006F8FBFF34F8FFEE70023089A01A90648B6
:103AE0000068FFF71FF8ECE7002301A9FFF7D8F8FB
:103AF000E7E70020E5E700BFEC01002070B582B0E9
:103B00001A4B1B681A6852B3DB681E68DC68251DF7
:103B10002846FFF748FA636A20469847E369012B75
:103B2000EED1A36933449E4207D2636024612946E3
:103B30000E4B1868FFF71DFAE2E7002100910B46D3
:103B400032462046FFF7A4FF0028D9D14FF01003DA
:103B500083F31188BFF36F8FBFF34F8FFEE7044AE3
:103B6000106802490860136002B070BDB8010020FF
:103B7000BC01002038B50546FFF714FC0446074B8E
:103B80001B68834205D800232B60044B1C60204631
:103B900038BDFFF7B3FF01232B60F6E7E8010020F3
:103BA00070B582B005460E46144B1B68DB68DC68B6
:103BB000201DFFF7F8F9E369012B04D0636A204662
:103BC000984702B070BDA1692B4632462944204671
:103BD000FFF7AAFE0028F1D0002100910B462A46EB
:103BE0002046FFF755FF0028E8D14FF0100383F37C
:103BF0001188BFF36F8FBFF34F8FFEE7B80100202E
:103C000070B582B006460C46FFF7C4FB01A8FFF76B
:103C1000B1FF019B1BBB05460CB9B04218D22CB1B9
:103C2000114B1B681C68B4FA84F464092246711BAA
:103C30000E4B1868FFF75AF9FFF746FC88B90C4B92
:103C40004FF080521A60BFF34F8FBFF36F8F08E0C1
:103C5000FFF73AFC29463046FFF7A2FF01E0FFF7E5
:103C600033FC02B070BD00BFBC010020EC0100209D
:103C700004ED00E030B587B0002203A9344B18688A
:103C8000FFF774F8002860D0039B002BF4DB059C41
:103C9000636913B1201DFFF786F902A8FFF76AFFD9
:103CA000039B092BE8D801A252F823F0D53C000869
:103CB000D53C0008D53C0008793C00081D3D0008B3
:103CC000433D0008D53C0008D53C0008793C00087D
:103CD0001D3D00080499A5690B460246294420466B
:103CE000FFF722FE0028C7D0636A20469847E369A1
:103CF000012BC1D1A269002100910B460498024416
:103D00002046FFF7C5FE0028B6D14FF0100383F31D
:103D10001188BFF36F8FBFF34F8FFEE70499A16146
:103D200031B10346024601442046FFF7FDFDA3E7FB
:103D30004FF0100383F31188BFF36F8FBFF34F8FE2
:103D4000FEE7204600F072F996E707B030BD00BFED
:103D5000EC01002000B583B001A8FFF7D5FD019963
:103D6000FFF74EFFFFF786FFF6E7842801D0033008
:103D7000704700207047EFF30580003018BF012026
:103D8000704708B5FFF7C4FA002008BDF0B585B04C
:103D90000F46446805680669B0F90800FFF7E5FFBB
:103DA00003AB019300903B46B2B229462046FFF791
:103DB0007DFA012802D1039805B0F0BD0020FBE791
:103DC00008B5034600B901231846FFF7F7FB0020AA
:103DD00008BD000000B583B01346012909D00022B8
:103DE0000168009101210448FFF738FE03B05DF837
:103DF00004FB0122F4E700BFE05A000830B585B0AB
:103E00000546002303930C4601B90124FFF7B3FFD5
:103E1000A8B10023009303AB224609212846FFF7EF
:103E200037FE012817D1039BBBB10E4B4FF08052D8
:103E30001A60BFF34F8FBFF36F8F002009E000239C
:103E40000093224604212846FFF722FE012806D1CE
:103E5000002005B030BDFF20FBE70020F9E7FF2080
:103E6000F7E700BF04ED00E0124A12F0070F1ED082
:103E7000D11D21F00701C1F5103313440A460E4845
:103E80000260002141601344083B23F007030B4804
:103E9000036059601960991A51601360084B1960EA
:103EA000084B1960084B4FF000421A6070474FF4FE
:103EB0001033E4E7F801002004420220F40100205E
:103EC00000420220FC410220F841022010B4134BB2
:103ED0001A6882421BD359685C18844203D1406837
:103EE00001445960184641684418A24213D10C4C51
:103EF0002468A2420DD05268114441601A681268C9
:103F00000260984200D018605DF8044B7047134679
:103F1000DEE70460F5E70260F3E700BF0442022039
:103F2000F401002070B50446FFF734FA3A4B1B68E1
:103F3000BBB13A4B1B681C4263D1ACB1083414F0DE
:103F4000070F11D024F00704083404F007035BB115
:103F50004FF0100383F31188BFF36F8FBFF34F8FC0
:103F6000FEE7FFF781FFE4E7002C4CD02C4B1B68E9
:103F7000A3424AD32B4B1D6801E02B4615466A68C5
:103F8000A24202D22A68002AF7D1234A1268AA4222
:103F90003DD01E6808362A681A606B681B1B102B00
:103FA00010D9281910F0070F08D04FF0100383F331
:103FB0001188BFF36F8FBFF34F8FFEE743606C60D4
:103FC000FFF784FF6A6816490B689B1A0B60164955
:103FD00009688B4201D214490B60104B1B681343D4
:103FE0006B6000232B60FFF76FFA16F0070F10D0FD
:103FF0004FF0100383F31188BFF36F8FBFF34F8F20
:10400000FEE70026EFE70026EDE70026EBE70026B7
:10401000E9E7304670BD00BFF4010020F8410220FE
:10402000FC410220044202200042022080B338B545
:104030000446A0F1080550F8042C164909680A4204
:1040400008D14FF0100383F31188BFF36F8FBFF3D4
:104050004F8FFEE750F8080C40B14FF0100383F388
:104060001188BFF36F8FBFF34F8FFEE722EA010283
:1040700044F8042CFFF78EF954F8041C064A136820
:104080000B4413602846FFF721FFFFF71DFA38BDE8
:10409000704700BFF8410220FC41022082B000239B
:1040A00001930D4B1B68B3F1FF3F08D04FF0100395
:1040B00083F31188BFF36F8FBFF34F8FFEE74FF08D
:1040C000100383F31188BFF36F8FBFF34F8F019BF2
:1040D000002BFCD002B070470000002008480068A8
:1040E000006880F308884FF0000080F3148862B6FF
:1040F00061B6BFF34F8FBFF36F8F00DF00BF0000CB
:1041000008ED00E0DFF80C00016841F47001016087
:104110007047000088ED00E04FF0807340F8043CE9
:1041200021F0010140F8081C054B40F80C3C40F818
:10413000202C6FF0020340F8243C4438704700BF45
:104140009D4000080000000000000000000000008A
:10415000074B19680868B0E8F04F80F30988BFF38F
:104160006F8F4FF0000080F311887047AFF300802D
:104170008C0000204FF0100383F31188BFF36F8F82
:10418000BFF34F8F0A4A136801331360012B00D02D
:104190007047084B1B6813F0FF0FF9D04FF0100366
:1041A00083F31188BFF36F8FBFF34F8FFEE700BF1C
:1041B0000000002004ED00E0094B1B6843B94FF0FC
:1041C000100383F31188BFF36F8FBFF34F8FFEE7A8
:1041D000013B034A13600BB983F31188704700BF9A
:1041E00000000020000000000000000000000000AF
:1041F000EFF30980BFF36F8F154B1A681EF0100F95
:1042000008BF20ED108A20E9F04F10602DE9090069
:104210004FF0100080F31188BFF34F8FBFF36F8F03
:10422000FFF7F2F94FF0000080F3118809BC19681C
:104230000868B0E8F04F1EF0100F08BFB0EC108A0D
:1042400080F30988BFF36F8F704700BFAFF3008022
:104250008C00002008B54FF0100383F31188BFF3E2
:104260006F8FBFF34F8FFFF7A3F818B1034B4FF0D9
:1042700080521A60002383F3118808BD04ED00E02A
:10428000084A0023136008490B60084B1B68084963
:10429000A1FB03139B09013B06490B600723136035
:1042A000704700BF10E000E018E000E004000020CC
:1042B000D34D621014E000E03A4B1A683A4B9A4230
:1042C0000DD0384B1A68394B9A4211D14FF0100378
:1042D00083F31188BFF36F8FBFF34F8FFEE74FF06B
:1042E000100383F31188BFF36F8FBFF34F8FFEE787
:1042F00010B582B02E4B1A78D2B20192FF221A70FA
:104300001B78DBB28DF803309DF8033003F0100307
:10431000284A1370284B07221A6009E0264A1368BE
:10432000013B13609DF803305B00DBB28DF8033076
:104330009DF8033013F0800FF0D11F4B1B68032B47
:1043400008D04FF0100383F31188BFF36F8FBFF3D2
:104350004F8FFEE71B0203F4E063174A1360019BD3
:10436000DBB2134A1370154B1A6842F470021A60DC
:104370001A6842F070421A60FFF782FF0024104B67
:104380001C60FFF7BFFE0F4A136843F04043136001
:10439000FFF7A4FEFFF738F9FFF780FE204602B0D2
:1043A00010BD00BF00ED00E071C20F4170C20F41AF
:1043B00000E400E00C4202201042022020ED00E068
:1043C0000000002034EF00E0EFF305830F2B0FD93E
:1043D000104A9B5CDBB2104A12789A4208D94FF01F
:1043E000100383F31188BFF36F8FBFF34F8FFEE786
:1043F0000A4B1B6803F4E063094A1268934208D928
:104400004FF0100383F31188BFF36F8FBFF34F8F0B
:10441000FEE77047F0E300E00C4202200CED00E004
:10442000104202200F49D1F8883043F47003C1F8DC
:1044300088300D4B1A6842F001021A600020986023
:104440001A6822F0A85222F410221A604FF4805207
:10445000DA601A6822F480221A6098614FF00063D3
:104460008B60704700ED00E00010024008B500F0DE
:1044700011F900F0F1F800F0C9F800F0B9FD4FF4BF
:10448000E13000F089F808BD0A4B01221A700A4A8F
:104490005A600A4A9A600A4ADA600A4A1A610A4A63
:1044A0005A610A4A9A610A4ADA610A4A1A620A4A4F
:1044B0005A62704754470220EC4302208444022091
:1044C000344502209047022054480220F44602203E
:1044D0006444022098470220E44602200A4B02224C
:1044E0001A700A4A5A600A4A9A600A4ADA600A4A04
:1044F0001A610A4A5A610A4A9A610A4ADA610A4A00
:104500001A620A4A5A627047FC4602208042022020
:1045100008480220A047022064430220804702206E
:10452000EC4602202C420220F84202205C46022087
:104530000A4B03221A700A4A5A600A4A9A600A4AC7
:10454000DA600A4A1A610A4A5A610A4A9A610A4AB0
:10455000DA610A4A1A620A4A5A62704728470220F8
:104560006C43022034420220D0440220E443022063
:104570007C440220644602205C48022088470220D6
:104580002042022008B5FFF771FFFFF77DFFFFF71C
:10459000A5FFFFF7CDFF08BD08B50A4B0A4A1A6010
:1045A000586000229A60DA601A610C2159619A61A0
:1045B0001A625A621846FCF70AFE00B908BDFCF7F9
:1045C0000BF8FBE7984502200080004000B583B05F
:1045D00002A941F8040D4FF6FF7301220348FCF7CE
:1045E00057FD019803B05DF804FB00BF9845022019
:1045F00070B51646002405E04D1C0878FFF7E6FF6D
:1046000001342946B442F7DB304670BD08B5104886
:10461000104B03604FF482734360002383604FF4B8
:10462000E062C260036143614FF400728261C36162
:104630000362436283620722C26201220263436310
:10464000FCF787F800B908BDFBF7C6FFFBE700BF22
:10465000004302200030014008B50848084B0360C1
:104660000623436040F6FF73C3608360FCF763F981
:1046700000B908BDFBF7B0FFFBE700BF6C440220A8
:1046800000300040024B4AF6AA221A60704700BF71
:10469000003000402DE9F04F8DB0002407940894BD
:1046A00009940A940B94A04BDA6C42F01002DA647D
:1046B000DA6C02F010020092009ADA6C42F0040206
:1046C000DA64DA6C02F004020192019ADA6C42F0C8
:1046D0002002DA64DA6C02F020020292029ADA6CAA
:1046E00042F00102DA64DA6C02F001020392039AEA
:1046F000DA6C42F00202DA64DA6C02F0020204922E
:10470000049ADA6C42F04002DA64DA6C02F0400299
:104710000592059ADA6C42F00802DA64DB6C03F069
:1047200008030693069BFEF78FF8804D012240F2A6
:10473000FC712846FEF706F87D4E012244F228114E
:104740003046FDF7FFFF22464FF400713046FDF77B
:10475000F9FFDFF8308201224FF442714046FDF745
:10476000F1FF012202214FF09040FDF7EBFF012203
:1047700080214FF09040FDF7E5FFDFF80C92012219
:1047800003214846FDF7DEFF22464FF481414846AB
:10479000FDF7D8FFDFF8F4B101224FF4404158464D
:1047A000FDF7D0FF40F2FC730793012708970994A7
:1047B0000A9407A92846FDF7E9FE4FF4005ACDF800
:1047C0001CA05C4B0893099407A94046FDF7DEFE48
:1047D00044F2A8330793089709940A9407A930462E
:1047E000FDF7D4FE4FF442730793089709940A9497
:1047F00007A94046FDF7CAFE82230793089709944C
:104800000A9407A94FF09040FDF7C0FE44F28303DD
:104810000793089709940A9407A94846FDF7B6FE3E
:10482000032307930894099407A94348FDF7AEFEB4
:104830004FF440430793089709940A9407A95846F0
:10484000FDF7A4FECDF81CA0089709940A9407A9C7
:104850003046FDF79BFE40F6010BCDF81CB00897E3
:1048600009940A9407A92846FDF790FE3A46514656
:104870003046FDF767FF224659462846FDF762FF9E
:104880002E4BC3F800804FF4007199802C4AC2F877
:1048900000804FF4807393802A480660082282804B
:1048A000294C4FF0904020608020A080274C26604B
:1048B0002027A780264CC4F80080A280254C2560C4
:1048C0004FF0040CA4F804C0234C25604FF0100CEA
:1048D000A4F804C0214C25604FF0400CA4F804C09B
:1048E0001F4C2560A7801F4C2660A3801E4C2560AE
:1048F000A2801E4A156090801D4A15604FF48060AA
:1049000090801C4A16604FF4804090801A4A1560CF
:1049100093801A4B1D609980194BC3F800900222B6
:104920009A800DB0BDE8F08F0010024000100048E2
:1049300000140048000011100018004890470220A1
:1049400054480220F4460220644402209847022082
:10495000E44602206443022080470220EC46022005
:104960002C420220F84202205C460220E44302204E
:104970007C440220644602205C48022088470220D2
:10498000204202200008004800040048000C0048B3
:1049900000B5BBB0242200212AA800F0AEFB002104
:1049A000249125912691279128918C2201A800F02D
:1049B000A4FB1823299301222E922F929023319346
:1049C000022333933492052235924722369237934D
:1049D00038930623399329A8FCF77CFE28BB0F23C4
:1049E000249303232593902326934FF480632793E6
:1049F0000021289124A8FDF747F9C8B9114B01936C
:104A000000231093119313931493159316931793F4
:104A1000189301A8FDF784FB68B94FF40070FDF707
:104A2000CBFE58B93BB05DF804FBFBF7D5FDD6E7EC
:104A3000FBF7D2FDE2E7FBF7CFFDEEE7FBF7CCFD9E
:104A4000F0E700BFF601100000B583B00D4B1A6E01
:104A500042F001021A661A6E02F001020092009AF8
:104A60009A6D42F080529A659B6D03F080530193DA
:104A7000019B00220F216FF00100FDF7FFFE03B044
:104A80005DF804FB00100240F0B58FB0044600232F
:104A900009930A930B930C930D930268554B9A421A
:104AA0000BD02368544A93422AD0544A934248D0A8
:104AB000534A934266D00FB0F0BD524DEB6C43F0B9
:104AC0000203EB64EB6C03F002030093009B4FF4D2
:104AD0004073099312230A9301230B9303230C932E
:104AE00004230D9309A94848FDF750FDAB6D43F42D
:104AF0000013AB65AB6D03F400130193019BD0E78A
:104B0000404CE36C43F02003E364E36C03F02003C8
:104B10000293029B0323099312220A9201220B9211
:104B20000C9304230D9309A93848FDF72FFDA36DBD
:104B300043F48003A365A36D03F480030393039BF5
:104B4000B9E7304CE36C43F00403E364E36C03F037
:104B500004030493049B0323099312220A92012263
:104B60000B920C9304230D9309A92948FDF70EFD20
:104B7000A36D43F40003A365A36D03F40003059341
:104B8000059B98E71F4CE36C43F02003E364E36C60
:104B900003F020030693069BE36C43F00203E364F7
:104BA000E36C03F002030793079B4FF40043099360
:104BB00012270A9701260B9603250C9504230D93C3
:104BC00009A91248FDF7E2FC4FF4806309930A97A4
:104BD0000B960C950D9509A90B48FDF7D7FCE36DD5
:104BE00043F00203E365E36D03F002030893089BBF
:104BF00061E700BF0054004000580040005C0040E6
:104C000000840040001002400004004800140048E6
:104C10000008004870B58EB0002309930A930B93E7
:104C20000C930D930368554A93420AD0544A934219
:104C30002CD0544A93425ED0534A93427CD00EB05B
:104C400070BD524BDA6D42F00102DA65DA6D02F0A6
:104C500001020092009ADA6C42F04002DA64DB6CE6
:104C600003F040030193019BFDF7EEFD4FF4C07389
:104C7000099302230A9300230B9303230C93082325
:104C80000D9309A94248FDF781FCD8E73F4B9A6D87
:104C900042F480129A659A6D02F480120292029A8E
:104CA000DA6C42F00402DA64DA6C02F00402039275
:104CB000039ADA6C42F00802DA64DB6C03F0080352
:104CC0000493049B4FF48053099302260A9603250C
:104CD0000C9508240D9409A92E48FDF757FC0423D0
:104CE00009930A9600230B930C950D9409A92A4861
:104CF000FDF74CFCA3E7254B9A6D42F400329A6510
:104D00009A6D02F400320592059ADA6C42F00102C3
:104D1000DA64DB6C03F001030693069B0C23099312
:104D200002230A9303230C9307230D9309A94FF041
:104D30009040FDF72BFC82E7144B9A6D42F48022E1
:104D40009A659A6D02F480220792079ADA6C42F013
:104D50000802DA64DB6C03F008030893089B4FF445
:104D60004073099302230A9303230C9307230D93A3
:104D700009A90948FDF70AFC61E700BF008000406F
:104D80000050004000440040004800400010024035
:104D90000018004800080048000C004870B58CB0AE
:104DA00000230793089309930A930B9303684C4AD3
:104DB000934207D04B4A93422DD04B4A934252D054
:104DC0000CB070BD494B1A6E42F480521A661A6ECE
:104DD00002F480520092009ADA6C42F01002DA6417
:104DE000DB6C03F010030193019B4FF470430793B6
:104DF0000223089303230A9305230B9307A93C4836
:104E0000FDF7C4FB002211462320FDF737FD2320C8
:104E1000FDF768FDD4E7354B9A6D42F480429A6500
:104E20009A6D02F480420292029ADA6C42F0080211
:104E3000DA64DB6C03F008030393039B1B230793E3
:104E40000223089303230A9305230B9307A92948F8
:104E5000FDF79CFB002211462420FDF70FFD2420C6
:104E6000FDF740FDACE7214B9A6D42F400429A6594
:104E70009A6D02F400420492049ADA6C42F0010244
:104E8000DA64DA6C02F001020592059ADA6C42F0FB
:104E90000202DA64DB6C03F002030693069B102324
:104EA00007930224089403260A9606250B9507A962
:104EB0004FF09040FDF76AFB3823079308940024D5
:104EC00009940A960B9507A90B48FDF75FFB22464C
:104ED00021463320FDF7D2FC3320FDF703FD6FE7B9
:104EE0000030014000380040003C0040001002400B
:104EF00000100048000C00480004004800B589B0CC
:104F0000002201461920FDF7B9FC1920FDF7EAFC43
:104F1000144B1A6E42F400621A661B6E03F40063AF
:104F20000193019B02A903A8FCF782FFFCF76EFF27
:104F30000D4BA3FB00239B0C013B0C480C4A026069
:104F400040F2E732C2604360002303618360FCF7F4
:104F5000C3FA18B1012009B05DF804FB0348FCF75F
:104F60006BF9F8E70010024083DE1B43A8480220DB
:104F7000002C01407047FEE7FEE7FEE7FEE77047C2
:104F800008B50248FCF776F908BD00BFA848022022
:104F900008B50248FBF71CFD08BD00BF8042022097
:104FA00008B50248FBF714FD08BD00BF6C430220A2
:104FB00008B50248FBF70CFD08BD00BFEC4302201A
:104FC00008B50248FBF71EFC08BD00BFD044022014
:104FD00008B50248FBF716FC08BD00BFA047022039
:104FE00008B50248FBF70EFC08BD00BF344502209F
:104FF00008B51248124B0360124B436000238360D4
:105000000122C260036143618361C3610362FBF7F4
:10501000E8FA50B900210948FBF741FB40B90021EB
:105020000648FBF76AFB30B908BDFBF7D5FAF1E794
:10503000FBF7D2FAF3E7FBF7CFFAF5E710460220C9
:1050400000540040261A1000DFF834D0002103E09D
:105050000C4B5B58435004310B480C4B42189A429E
:10506000F6D30B4A02E0002342F8043B094B9A4274
:10507000F9D3FFF7D7F900F011F8FBF769FAFEE76B
:1050800000000520D05B0008000000207000002018
:1050900070000020EC480220FEE7000070B50D4EC5
:1050A0000D4CA41BA4100025A54209D10B4E0C4C9D
:1050B00000F0CAFCA41BA4100025A54205D170BDB8
:1050C00056F8253098470135EEE756F825309847D1
:1050D0000135F2E7C05B0008C05B0008C05B000858
:1050E000C45B000810B5431E0A44914200D110BDB4
:1050F00011F8014B03F8014FF7E7024403469342CE
:1051000000D1704703F8011BF9E7000070B50E46A7
:10511000054618B183690BB900F00CFAAB69AC68AD
:1051200013B9284600F006FA234B9C4217D16C684D
:10513000A3891B071DD52369DBB1013EA36816F8BF
:10514000011F013BA360E9B9002B2EDA22460A2198
:10515000284600F03FF8013011D00A2011E0174B2B
:105160009C4201D1AC68E3E7154B9C4208BFEC6858
:10517000DEE72146284600F07FF80028DDD04FF01A
:10518000FF3070BD002B04DAA2699A4206DC0A29BE
:1051900004D023685A1C22601970CFE722462846A3
:1051A00000F018F80130C9D1E9E723680A205A1C39
:1051B00022601870E5E700BF745B0008945B00088C
:1051C000545B0008024B01461868FFF79FBF00BF01
:1051D00008000020F8B50E461446054618B183694C
:1051E0000BB900F0A7F9214B9C422AD16C68A36946
:1051F000A360A3891A072ED5236963B323692068A6
:10520000C01A6369F6B28342374604DC2146284659
:1052100000F026F928BBA368013BA36023685A1C51
:1052200022601E7063690130834204D0A389DB07CA
:1052300019D50A2E17D12146284600F011F990B150
:105240000FE00B4B9C4201D1AC68D0E7094B9C426C
:1052500008BFEC68CBE72146284600F00DF800288F
:10526000CCD04FF0FF373846F8BD00BF745B000864
:10527000945B0008545B0008324B70B51D6806460D
:105280000C4625B1AB6913B9284600F053F92E4BF3
:105290009C420FD16C68B4F90C309AB215072CD42B
:1052A000D00611D40922326043F04003A3814FF0AD
:1052B000FF303EE0254B9C4201D1AC68EBE7244B2C
:1052C0009C4208BFEC68E6E7510712D5616B41B11B
:1052D00004F14403994202D0304600F019FA002349
:1052E0006363A38923F02403A381002363602369FC
:1052F0002360A38943F00803A38123694BB9A389E1
:1053000003F42073B3F5007F03D02146304600F04C
:10531000BFF9A28912F001030CD00023A3606369D6
:105320005B42A361236953B9B4F90C3013F08000D8
:10533000BAD170BD920758BF6369A360F2E700203D
:10534000F7E700BF08000020745B0008945B0008CA
:10535000545B00088A892DE9F041054610070C4688
:1053600058D44B68002B05DC0B6C002B02DC0020B2
:10537000BDE8F081E66A002EF9D0002312F48052D5
:105380002F68216A2B6032D0606DA3895A0705D53A
:105390006368C01A636B0BB1236CC01A002302460A
:1053A000E66A216A2846B047431CA38906D12968CA
:1053B0001D2948D8294ACA40D60744D50022626030
:1053C000D9042269226004D5421C01D12B6803B99B
:1053D0006065616B2F600029C9D004F144039942D4
:1053E00002D0284600F094F900206063C0E7012352
:1053F0002846B047411CC8D12B68002BC5D01D2BB7
:1054000001D0162B01D12F60B1E7A38943F04003EF
:10541000A381ADE70F69002FA9D093070E6808BFDD
:105420004B690F6018BF0023A6EB07088B60B8F12B
:10543000000F9CDD43463A46216AA66A2846B047DB
:10544000002806DCA38943F04003A3814FF0FF301E
:105450008EE70744A8EB0008E9E700BF0100402001
:1054600038B50B6905460C46DBB118B183690BB939
:1054700000F060F80C4B9C4209D16C68B4F90C3018
:105480007BB121462846BDE83840FFF763BF074B94
:105490009C4201D1AC68F1E7054B9C4208BFEC6827
:1054A000ECE7002038BD00BF745B0008945B000887
:1054B000545B0008002310B50446C0E90033836044
:1054C00081814366C281C0E90433836119460822A1
:1054D0005C30FFF712FE054B6362054BA362054B80
:1054E000E362054B2462236310BD00BF81580008AE
:1054F000A3580008DB580008FF580008014900F0D5
:1055000085B800BF6154000870B54A1E6825554330
:105510000E4605F1740100F049F9044640B100213E
:10552000C0E900160C30A06005F16802FFF7E5FD48
:10553000204670BD836910B5044633BBC0E9123301
:105540000365124B124A1B688262984204BF012312
:10555000836100F01FF86060204600F01BF8A06037
:10556000204600F017F80022E06004216068FFF791
:10557000A1FF01220921A068FFF79CFF022212214E
:10558000E068FFF797FF0123A36110BD505B00089F
:10559000FD540008F8B51B4B1E68B369074613B9E4
:1055A0003046FFF7C7FF4836D6E90134013B03D543
:1055B000336833B13668F7E7B4F90C506DB168342D
:1055C000F4E704213846FFF79FFF30600028F1D14F
:1055D0000C233B6004462046F8BD0B4B6566C4E9CE
:1055E0000055A560C4E90335C4E9055508222946DC
:1055F00004F15C00FFF781FDC4E90D55C4E91255C3
:10560000E9E700BF505B00080100FFFF2DE9F84308
:105610008046894600F14804002614B93046BDE8AA
:10562000F883D4E90175013F01D52468F5E7AB891A
:10563000012B07D9B5F90E30013303D02946404676
:10564000C84706436835EEE770B50E46B1F90E104F
:10565000002996B014461D4607DA00232B60B38953
:105660001A0610D44FF480630EE06A4600F06EF91B
:105670000028F2DB019A02F47042A2F500535A426C
:105680005A412A60EEE740230020236016B070BD27
:105690008B8973B59D0706460C4607D504F1470371
:1056A000236023610123636102B070BD01AB6A46D0
:1056B000FFF7CAFF00990546304600F077F848B971
:1056C000B4F90C309A05EFD423F0030343F002033E
:1056D000A381E3E70D4BB362A389206043F080030D
:1056E000A381009B6361019B20615BB1B4F90E1043
:1056F000304600F03DF928B1A38923F0030343F0BD
:105700000103A381A3891D43A581CDE7FD540008B2
:1057100038B50546002945D051F8043C0C1F002B34
:10572000B8BFE41800F046F91F4A1368104633B9B1
:10573000636014602846BDE8384000F03CB9A342DD
:105740000CD921686218934204BF1A685B686360D1
:1057500004BF521822600460ECE713465A680AB18D
:10576000A242FAD919685818A0420BD12068014406
:10577000581882421960DDD1106852685A6001449D
:105780001960D7E702D90C232B60D3E720682118D2
:105790008A4204BF11685268626004BF0918216020
:1057A0005C60C7E738BD00BF1442022070B5CD1C55
:1057B00025F0030508350C2D38BF0C25002D0646B5
:1057C00001DBA94203D90C233360002070BD00F037
:1057D000F1F8214A1468214691B9204C23681BB97D
:1057E000304600F03DF820602946304600F038F899
:1057F000431C24D10C233360304600F0DCF8E4E78E
:105800000B685B1B18D40B2B0FD90B60CD50CC1839
:10581000304600F0D0F804F10B00231D20F0070003
:10582000C31AD3D05A42E250D0E78C424B6816BF1D
:10583000636013600C46EBE70C464968CCE7C41C78
:1058400024F00304A04205D0211A304600F008F8E5
:105850000130CFD02560DBE714420220184202203D
:1058600038B5064C002305460846236000F0DEF8F4
:10587000431C02D1236803B12B6038BDE8480220E5
:1058800010B50C46B1F90E1000F096F80028ABBF29
:10589000636DA3891B1823F48053ACBF6365A38198
:1058A00010BD2DE9F0411F468B89DB0505460C46EE
:1058B000164605D502230022B1F90E1000F068F853
:1058C000A389B4F90E1023F48053A38132463B46DA
:1058D0002846BDE8F04100F017B810B50C46B1F904
:1058E0000E1000F055F8431CA38915BF606523F422
:1058F000805343F48053A38118BFA38110BDB1F935
:105900000E1000F013B8000038B5074C05460846E5
:105910001146002222601A46FEF76AFE431C02D19D
:10592000236803B12B6038BDE848022038B5064C27
:10593000002305460846236000F050F8431C02D1BE
:10594000236803B12B6038BDE848022038B5074C06
:105950000023054608461146236000F047F8431C23
:1059600002D1236803B12B6038BD00BFE848022094
:1059700038B5064C002305460846236000F03EF883
:10598000431C02D1236803B12B6038BDE8480220D4
:1059900038B5074C054608461146002222601A46D3
:1059A00000F034F8431C02D1236803B12B6038BDEA
:1059B000E84802207047704738B5074C054608464E
:1059C0001146002222601A4600F028F8431C02D13A
:1059D000236803B12B6038BDE8480220024B5822EF
:1059E0001A604FF0FF307047E8480220024B5822FF
:1059F0001A604FF0FF307047E8480220024B5822EF
:105A00001A600020704700BFE8480220024B58226D
:105A10001A604FF0FF307047E8480220024B5822CE
:105A20001A604FF0FF307047E8480220044A0549E9
:105A30001368002B08BF0B461844106018467047C7
:105A40001C420220F0480220F8B500BFF8BC08BC98
:105A50009E467047F8B500BFF8BC08BC9E4670472C
:105A6000E45A0008F1040008FEFF000000000000F6
:105A700080000000496E697469616C697A696E67BB
:105A80002052544F532074696D6572732C207468D2
:105A9000726561647320616E64206D757465780D44
:105AA000000000000D0000002A2A2A2A2A2A2A2A99
:105AB0002A2A2A2A2A2A2A2A2A2A2A2A2A2A2A2A46
:105AC0002A2A2A2A2A2A2A2A2A2A2A2A2A2A2A2A36
:105AD0002A0D000068656C6C6F2D776F726C640D19
