:020000040000FA
:10000000100C0020491700008B41000079170000F8
:1000100079170000791700007917000079170000A0
:100020000000000000000000000000009515000026
:1000300079170000000000004D150000834000000B
:100040000917000009170000091700000917000030
:100050000917000009170000091700000917000020
:100060000917000009170000091700000917000010
:100070000917000009170000091700000917000000
:1000800009170000091700000917000009170000F0
:1000900009170000091700000917000009170000E0
:1000A00009170000091700000917000009170000D0
:1000B00009170000091700000917000009170000C0
:1000C00009170000091700000917000009170000B0
:1000D00009170000091700000917000009170000A0
:1000E0000917000009170000091700000917000090
:1000F0000917000009170000091700000917000080
:10010000091700000917000009170000091700006F
:10011000091700000917000009170000091700005F
:10012000091700000917000009170000091700004F
:10013000091700000917000009170000091700003F
:10014000091700000000000000000000000000008F
:10015000000000000000000000000000000000009F
:10016000000000000000000000000000000000008F
:10017000000000000000000000000000000000007F
:10018000000000000000000000000000000000006F
:10019000000000000000000000000000000000005F
:1001A000000000000000000000000000000000004F
:1001B000000000000000000000000000000000003F
:1001C000000000000000000000000000000000002F
:1001D000000000000000000000000000000000001F
:1001E000000000000000000000000000000000000F
:1001F00000000000000000000000000000000000FF
:10020000DEE61E284CBBCE8F025B00003C000000E7
:10021000008000000100000000000000000000005D
:10022000FFFF02910000000000000000000000003D
:1002300000000000000000000000000053B94AB9AF
:10024000002908BF00281CBF4FF0FF314FF0FF30DE
:1002500000F080B9ADF1080C6DE904CE00F006F8AD
:10026000DDF804E0DDE9022304B070472DE9F04F2A
:10027000099D04468846002B40F084808A42174638
:1002800043D9B2FA82F242B1C2F1200091409740C4
:1002900024FA00F0944040EA01084FEA174C230C7E
:1002A0001FFA87FEB8FBFCF60CFB168106FB0EF06E
:1002B00043EA0143984207D9FB1806F1FF3102D205
:1002C000984200F231810E46191AA3B2B1FBFCF03C
:1002D0000CFB101100FB0EFE43EA0144A64507D9B2
:1002E0003C1900F1FF3302D2A64500F21A811846EC
:1002F00040EA0640A4EB0E0400261DB1D4400023C2
:10030000C5E900433146BDE8F08F02B9FFDEB2FA1D
:1003100082F2002A52D1CB1B4FEA174E1FFA87F800
:100320000126210CB3FBFEFC0EFB1C3008FB0CF974
:1003300041EA004189450BD979180CF1FF332CBFF4
:1003400001200020894502D9002800F0F0809C4659
:10035000A1EB0901A3B2B1FBFEF00EFB101108FBEB
:1003600000F843EA0144A04507D93C1900F1FF33E6
:1003700002D2A04500F2D2801846A4EB080440EA5D
:100380000C40BAE78B4209D9002D00F0BE80002650
:10039000C5E9000130463146BDE8F08FB3FA83F677
:1003A000002E4DD18B42C0F0B380824240F2B0802B
:1003B0003046002DA6D0C5E90048A3E79740C2F11A
:1003C000200301FA02F04FEA174ED94024FA03F352
:1003D0001FFA87F894400343B1FBFEF01E0C0EFB9E
:1003E000101100FB08FC46EA01418C450ED9791832
:1003F00000F1FF362CBF4FF001094FF000098C458A
:1004000003D9B9F1000F00F096803046A1EB0C0142
:100410009BB2B1FBFEF60EFB161106FB08FC43EA8D
:1004200001418C4507D9791806F1FF3302D28C457A
:1004300000F288801E46A1EB0C0346EA004670E7F6
:10044000C6F1200703FA06F402FA06FC01FA06FEDA
:10045000FA4020FA07F8F94000FA06F3224348EA86
:100460000E044FEA12484FEA144E1FFA82F9B1FB0C
:10047000F8FA08FB1A110AFB09F04EEA014E704522
:100480000ED912EB0E0E0AF1FF312CBF4FF0010B0B
:100490004FF0000B704502D9BBF1000F4ED08A46D9
:1004A000AEEB000EA4B2BEFBF8F008FB10EE00FBB2
:1004B00009F944EA0E4EF14507D912EB0E0E00F190
:1004C000FF3101D2F14540D8084640EA0A40AEEB80
:1004D000090EA0FB0C89CE4541464C4602D306D1FD
:1004E000434504D20138B8EB0C0169EB02047DB33B
:1004F0005A1A6EEB040EF2400EFA07F72EFA06F3C4
:1005000000261743C5E90073FCE62E462846F9E6A7
:10051000841A61EB0301012088464AE702383C4413
:100520002BE702383C44E3E6023E3B44CCE6ACF128
:10053000020C39440CE70238394467E7AAF1020A91
:100540009644ADE7023E394475E702389644BCE76D
:100550002E46D7E6704700BF2DE9E04F2746A0465C
:10056000A146A246A346A4462DED108B4FF00005F0
:1005700045EC185B45EC195A45EC1A5A45EC1B5AE8
:1005800045EC1C5A45EC1D5A45EC1E5A45EC1F5AC9
:10059000F1EE105A4FF66076C0F6FF763540E1EE88
:1005A000105A84F3008825462646A447BDEC108BDC
:1005B000BDE8E08F2DE9F04F87B00F461946109B3C
:1005C00006461425104698469DF844B09DF848A06C
:1005D0001E4C4FEAE37950EA01031AD1142D08BFEB
:1005E0003023139C18BF01352C4408BF8DF81430FC
:1005F000152C1BD0153C002C1ADC1DF805003946C3
:100600000135B047152DF8D1002C19DC07B0BDE835
:10061000F08F42464B46FFF711FE84460B46A25C24
:1006200060460DF805201946013DD4E70024E4E7B3
:10063000BBF1000FE1D039465046B047013CDAE744
:1006400039465046B047013CDEE700BF654A00002E
:100650000B6801330B60014B1B681847000000203A
:100660002DE9F04F002605468B461C464FF0FF381B
:10067000374687B002F1FF39002307E06BB9252820
:1006800000F0FC8059460493A847049B19F8010F19
:100690000028F3D107B0BDE8F08F7A280AD8622885
:1006A00010D8302852D045D8252800F0E5802D28D4
:1006B00000F0EA8059462520A847594699F80000DD
:1006C000A847D9E7A0F16302172AF3D801A151F88E
:1006D00022F000BF7108000095070000B506000079
:1006E000B5060000B506000077070000950700007A
:1006F000B5060000B506000077070000B50600004B
:10070000B5060000B5060000F9070000B5060000B8
:10071000B50600003B080000B50600009507000084
:10072000B5060000B50600003D070000B506000054
:1007300077070000392815D95828BBD199F800301F
:10074000702B63D1002354F8042B6AE0B8F1000F3A
:100750000BDA002F00F09A80A0F13008002F08BFBC
:10076000022793E7B8F1000FF6DB0A2202FB080824
:10077000A8F13008F2E7682803D1682E06D1482690
:1007800084E76C2802D16C2E00F08280002E91D17B
:1007900006467BE77A2E03D154F8042BD31708E0E2
:1007A0006C2EF9D04C2EF7D1073424F00704F4E86E
:1007B000022375280FD0002A73F100010BDA594685
:1007C0002D20CDE90423A847DDE90423524263EB41
:1007D000430308F1FF38F91E18BF0121012F0CBF98
:1007E0003020202001910A21CDE9020800912846FD
:1007F0005946FFF7DFFE3FE759463020A8475946E4
:100800007820A8474FF00808012797E76C2E99D069
:100810004C2E97D1E31D23F007031C465B6854F868
:10082000082BF91E18BF0121012F0CBF30202020FA
:100830000191CDE902081021D8E7A2465AF8043BFD
:100840001C46214614F8010B40B9032F22D1CC1AC3
:10085000A8EB0404002C06DC54460DE7594604932B
:10086000A847049BEDE759462020A847013CF1E743
:10087000594654F8040B23E7594621E71E461F4604
:100880004FF0FF38012301E70327FFE60127FDE6CC
:100890004C26FBE654460346F8E600BF07B50B4678
:1008A000002102460191034801A9FFF7D9FE03B0D8
:1008B0005DF804FB510600002DE9F74FB0F81890E1
:1008C000044619F0080893460ED001290CBF49F0E0
:1008D000100949F02009A0F818908BF31188BFF394
:1008E0006F8F03B0BDE8F08FDFF890A109F0070922
:1008F000022907D1204603F090F90028EDD0012805
:10090000238B4BD16769218B002F15DA256821F0E5
:100910000701C4E9008841F0010121830026218BF1
:1009200001F007024A4502D0A368002B57D10DB948
:10093000002E6FD0002353E001F007035A1F012A55
:100940001DD821F00701062B256889B2C4E900886B
:100950000AD13DB12A46638B126801339BB2002A4B
:10096000FAD1638341F002012046218303F055F957
:100970000028D3D0238B43F020032383CEE7042B1E
:100980000AD121F0070189B22046218303F045F9FD
:1009900010B141F0200121830025BFE7032809D1D0
:1009A000226923F00703166843F00603002523831A
:1009B0002F46B4E7042806D1226923F007035668BE
:1009C00043F00403F2E7052806D1226923F0070368
:1009D000966843F00503E9E700252E46E8E7012382
:1009E00041F0080121838BF31188BFF36F8F03BBA4
:1009F000002D31D116B151462046B0474FF02003AB
:100A0000EFF3118B83F31188BFF36F8F238B23F0E8
:100A100008032383238BDA0627D5012123F0100353
:100A20002383B4F8189009F0070900297FF460AF18
:100A300053E7A1680029DBD0D1F800903B4620465F
:100A4000D1F804B00192D847019AB9F1000FCFD084
:100A50004946D9F80090F1E729463B4620460192E5
:100A60002D6803F0F6F8019AC2E713F020011EBFCB
:100A700023F0200302212383D3E700BF7F3C000043
:100A80004FF02002EFF3118382F31188BFF36F8FD1
:100A90000121044AC2F8401583F31188BFF36F8F18
:100AA000002070470090035020B1034B800143F0B9
:100AB00001031847704700BFF047000007B50190D9
:100AC0004FF02002EFF3118382F31188BFF36F8F91
:100AD00003F0D9FA019800F065FF034803F090F89D
:100AE00000F0CAFDFCE700BF764A00000122014B7E
:100AF0001A607047085000500022034B1A60012210
:100B000043F8F82C704700BF045100502DE9F04124
:100B10000E4F0546FA680E46841A0C204021A31099
:100B20000B4C5C43E4B200FB0420084403F013FACE
:100B3000011E05DB7B6803EBC40463689847002152
:100B400028463346BDE8F041184700BF700000203A
:100B5000B76DDBB62DE9F0470C25DFF850808146F4
:100B6000D8F80C600F46841BA3100E4C40215C4348
:100B7000E4B2654305F14000304403F005FA011E7C
:100B80000ADB094A7319C3E90E27D8F8043053F871
:100B90003430BDE8F047184748463B46BDE8F047CB
:100BA000184700BFB76DDBB6EB3F000070000020B8
:100BB00070B5002201210446052000F00BFD052040
:100BC00000F0F8FC4FF050230222C3F8182503224E
:100BD000E6680A493046C3F8042303F06EF800289B
:100BE0000BDB01253564E468044904F11C0003F0C3
:100BF00064F80028A4BF0020E56470BD1C48000014
:100C0000F7B50C23014600274B430A4EF068C41881
:100C10004033D4E90E521844A763019203F0D2F98D
:100C200035B130462B46019A03B0BDE8F040184775
:100C300003B0F0BD7000002008B54FF02003EFF3C3
:100C4000118183F31188BFF36F8F134A136843F048
:100C5000020013F0010310600ED04FF05022D2F8C2
:100C60000C34D2F80C2413F0010305D00B4BD868D8
:100C7000403003F0A7F9012381F31188BFF36F8F90
:100C800023B1BDE808400020FFF7BABF4FF0502362
:100C900001221A6008BD00BF700200207000002011
:100CA000084AD2E8EF3F23F00201C2E8E01F002823
:100CB000F7D113F0010304D1034A13600122034B5F
:100CC0001A6070477002002000510050045000501C
:100CD0000023012210B588B0CDE906320193094BFB
:100CE00004AC01AACDE90444CDE9023403F0ABF928
:100CF000002805DB4FF480420023204601F064FE0B
:100D000008B010BDFF3F000008B5144B1A689AB137
:100D10004FF05022D2F80423D0070DD500221A60DC
:100D20000F4BDB68186C10F0070005D10D4B1B68EA
:100D3000990701D5FFF764FF0B4B1A6862B14FF0BA
:100D40005022D2F80423920706D5002201201A600F
:100D5000BDE80840FFF754BF08BD00BF0051005078
:100D600070000020700200200451005010B50122D4
:100D700004460D49D1E8EF3FC1E8E02F0028F9D142
:100D800043B90A49C8680A491C304B60CB608A6085
:100D900002F0A6FF012C01D0022C04D12046BDE8B0
:100DA000104003F02FB910BD740200207000002025
:100DB00010020020821C084B22F07F42C3F840251D
:100DC000D3F80425904200D17047D3F80405821C63
:100DD00022F07F42F2E700BF005001500022064B94
:100DE0001A60064AD3F800041368C01A20F07F4046
:100DF0000344136001F066BF4051015078020020A7
:100E000038B500244FF400120E4D0F4BC5F80845BD
:100E10001C600E4B0121C3F880214FF48033224621
:100E2000C5F80433152000F0D5FB152000F0C2FBF7
:100E30000123074A204613602B60FFF797FF2046E7
:100E400038BD00BF005001504051015000E100E0AA
:100E500008500150F8B52C4B2C4CD3F804252C4BE2
:100E6000B0F1FF3F08BF20461968521A22F07F43B5
:100E7000120236D4013820EAE070A042A8BF204612
:100E800001331844A04294BF0C180C194FF4803061
:100E900000271D4B1F4EC3F80803D3F80415D3F8E1
:100EA000402521F07F45521A22F07F42012A376007
:100EB000C3F840551D46C3F8440303D10F2003F087
:100EC00003FB37604FF40012134BC3F88021D5F8B1
:100ED0000405231A23F07F43012B04D1FFF76AFF97
:100EE0000BE00020CCE724F07F43C5F84035D5F86F
:100EF0000405241A023C2302F0D44FF48032024B42
:100F0000C3F80423F8BD00BF00500150FFFF7F006D
:100F1000780200204051015000E100E04FF0200233
:100F2000EFF3118382F31188BFF36F8F064AD2F873
:100F30000405064A1268801A20F07F4083F3118866
:100F4000BFF36F8F704700BF005001507802002040
:100F5000F7B500281C460D4614BF4FF400534FF45C
:100F60000043204E954232D302FB03F0013A4B433B
:100F700000901D4802F044FE1C4B14F0100F1C4959
:100F80001C4808BF194602F03BFE14F0040F14BFC2
:100F900072212D21184802F033FE14F0020F14BF05
:100FA00077212D21144802F02BFE14F0010F0CBF05
:100FB0002D217821104802F023FE6C210E4802F00A
:100FC0001FFE0E4803B0BDE8F04002F019BE28B184
:100FD00005F5E07746F827400135C3E705F5C0770A
:100FE000F8E700BF00300050BE4A0000B24A0000DF
:100FF000A94A00003D4C0000D84A00000C4E0000F9
:1010000008B543B2002B0CDB012200F01F018A401F
:101010005B091049203341F82320BFF34F8FBFF302
:101020006F8F830003F1A04303F540533128D3F8B9
:10103000002806D0002A07DA02F00302023A012A49
:1010400002D8054AC3F80028002103F06FF80020F9
:1010500008BD00BF00E100E00001008030B54FF4A2
:1010600040444CF2040585B04FF440412C4802F056
:10107000C7FD21682B4802F0C3FD29682A4802F009
:10108000BFFD10220021684603F002F9236868467C
:101090000093029400F042FE012000F06FFE002059
:1010A00000F058FE002000F07DFE0121002000F03D
:1010B00097FE00F08BFE2C681C4802F0A1FD082072
:1010C000FFF79EFF24F00104BFF34F8FBFF36F8F34
:1010D000640864002046214622462346B7EE000AF3
:1010E000F7EE000AB7EE001AF7EE001AB7EE002A84
:1010F000F7EE002AB7EE003AF7EE003AB7EE004AF4
:10110000F7EE004AB7EE005AF7EE005AB7EE006A63
:10111000F7EE006AB7EE007AF7EE007AFFF71CFAF6
:10112000DB4A0000F24A0000074B0000254B00009C
:101130002DE9F8433B4802F063FD002140F217130C
:1011400008460122FFF704FF40F207132022012185
:101150000020FFF7FDFE344802F052FD334B344AC5
:10116000C3F3C431C3F30E03C3F50043C3F3431306
:10117000C2F80015C2F80435D2F80015D2F80425DB
:101180002C48520102F03CFD274802F039FD02F0E4
:101190007BFF014610B1284802F032FD00242748A9
:1011A00002F02EFD40F21713082200210120FFF764
:1011B000CFFE1F4D40F20713202208210120FFF728
:1011C000C7FE194802F01CFDC5F880441C4802F017
:1011D00017FD1C4FC5F8C044DFF87C801A4DDFF8BE
:1011E0007C906E792146002E14BF3B46434648460C
:1011F0002A6802F005FD66B91448013402F000FDCA
:101200001A2C05F10805ECD10748BDE8F84302F0B7
:10121000F7BC2879FFF7F4FE08B10D48EDE70D485B
:10122000EBE700BF5B4B00000C4E0000E07F0000CE
:10123000003000507F4B0000C54B0000F54B000014
:10124000174C0000504B000028480000404C0000A4
:10125000474C00004F4C0000B64A0000334C0000E1
:1012600010B500284BD0002A49D0264B99423CD9D2
:10127000541803F61D239C423AD802F0DEFF0020EA
:10128000BDE81040714672467346B7EE000AF7EEAD
:10129000000AB7EE001AF7EE001AB7EE002AF7EED2
:1012A000002AB7EE003AF7EE003AB7EE004AF7EE42
:1012B000004AB7EE005AF7EE005AB7EE006AF7EEB2
:1012C000006AB7EE007AF7EE007A8EF3008C10B465
:1012D000F1EE10CA4FF66074C0F6FF740CEA040C0D
:1012E000E1EE10CA10BCF4467447074B994203D98B
:1012F000064B54189C42C0D94FF0FF30C0E76FF046
:101300001500BDE70302FF002F01FF003801FF00B9
:101310002DE9F04F81460E4685B0002954D04FF09C
:101320000008DFF8B8B0DFF8B8A001AF5BF8045BE5
:101330009AE807004D4487E807000C223946284602
:1013400002F054FF044608B9002D40D108F101080D
:10135000B8F1050FEAD16FF00D04204605B0B7EEE5
:10136000000AF7EE000AB7EE001AF7EE001AB7EE21
:10137000002AF7EE002AB7EE003AF7EE003AB7EE91
:10138000004AF7EE004AB7EE005AF7EE005AB7EE01
:10139000006AF7EE006AB7EE007ABDE8F04F7146DA
:1013A00072467346F7EE007A8EF3008C10B4F1EEBD
:1013B00010CA4FF66074C0F6FF740CEA040CE1EE3C
:1013C00010CA10BCF44674476FF01504C5E73C2200
:1013D0002946304602F031FFBFE700BFF848000061
:1013E000C0470000014801F003BF00BF0C490000E6
:1013F00008B530B143683BB1006800F0F9FF002048
:1014000008BD6FF4E040FBE70048F9E7EA8FFFFF13
:1014100038B5044618B90B4B0B485B6898476568AC
:1014200055B115F00205206807D10146074800F0C4
:101430003DFF25600023636038BD1422002102F0C7
:1014400027FFF7E744000020504D00007C020020F9
:1014500010B5044618B9144B14485B689847636884
:10146000CBB92368BBB94FF0FF324FF0FF332146B1
:101470000F4800F0E9FE08B923681BB90A4B0D4874
:101480005B68984714220021206802F001FF63681E
:1014900043F002036360206802F063FF636843F077
:1014A0000103636010BD00BF44000020504D0000E8
:1014B0007C020020764D000008B568B1436873B126
:1014C00000684FF0FF334FF0FF3200F019FF054B7B
:1014D000002818BF184608BD6FF4E040FBE702483B
:1014E000F9E700BFE98FFFFFEA8FFFFF08B5064964
:1014F00040231422054802F019FFBDE808400449C2
:10150000044801F0ADBE00BF980200207C0200201C
:101510002449000014490000094A0A4993680968EF
:101520009867D96708494B6843F080534B600023A4
:1015300083F31188BFF36F8F9368D86F704700BF34
:10154000AC0700206049000000ED00E00F498A6808
:101550004FF038001044EFF3098C80E8F01F202092
:1015600080F31188BFF36F8F094F4FF000664A6A0E
:101570008A603E60906F0023936780F3118802F1C8
:10158000380090E8F01F8CF309887047AC07002002
:1015900004ED00E01EF0040F0CBFEFF30880EFF342
:1015A0000980816911F8021C0229FFD001B502F0FF
:1015B000E8FD01BD43B2002B08DB012200F01F0053
:1015C00002FA00F0024A5B0942F82300704700BFAC
:1015D00000E100E043B2002B01F10101ACBF03F1D7
:1015E0006043064B4FEA4111C9B2ABBF03F56143FB
:1015F00000F00F0083F800131954704714ED00E059
:1016000042F8203C009B0B4942F81C3C019B21F016
:10161000010142F8183C029B42F8081C42F8143CB5
:101620004FF0807342F8043C0023203A82658367C0
:10163000704700BF733D000008B506460D461446CE
:101640000023E1EE103A00F0F1F9074B9E602046CE
:1016500085F30988002163B681F31188BFF36F8F8A
:101660000022002302F085FBAC0700200149102274
:101670000A60704710ED00E072B6404080F31188B8
:10168000BFF36F8FBFF34F8F30BF62B6BFF36F8F63
:10169000704700BF30BFFFF7FDBF00BF174A08B556
:1016A000174B22F07F029A60BFF34F8FBFF36F8F0B
:1016B000D3F8882022F47002C3F88820D3F8882059
:1016C00042F4A002C3F888200E4A536823F0404336
:1016D0005360BFF34F8FBFF36F8F0023E1EE103ADB
:1016E000EFF3148323F0040383F3148800F0CAFC9F
:1016F00000F0D2FC00F068F900F000FD00000000EE
:1017000000ED00E030EF00E001B572B60B4A106A60
:1017100000281EBF0021116202F006FE62B6EFF340
:101720000580A0F110004FEAC0000549014409C935
:101730009847BDE80140034908470000AC07002076
:10174000AC4500008919000002F0FAFB202080F36C
:10175000118808484FF40061401880F30988EFF3BE
:1017600014800221084380F31488BFF36F8FFFF7C2
:1017700095FF0000500D0020EFF30880EFF3098182
:10178000724601B500F06CF801BD00BF0C4B9A6ABF
:101790009A6A9A6A920708D55A6B9A6A120604D511
:1017A00018B19A6A22F080029A620020044B9A6A69
:1017B0009A6A9A6A9A6A42F0FF029A6208707047BF
:1017C00000ED00E00D4B9A6A9A6A9A6A920508D574
:1017D0009A6B9A6A120404D518B19A6A22F40042EC
:1017E0009A620020054B9A6A9A6AD20558BF9A6A93
:1017F0009A6A42F47F429A620870704700ED00E0F6
:10180000074B00209A6A9A6A9A6A9A6A9A6A9A6A4E
:101810009A6A9A6A6FEA02426FEA12429A627047C3
:1018200000ED00E00D4B9A695A695A69D0070FD450
:101830005A6991070CD45A69520709D45A6910079A
:1018400006D45A69D10603D45A69920658BF5A6918
:101850005A6942F0FF025A61704700BFD0ED00E0C4
:10186000F0B5414B00255B688BB0C3F3080385F3EB
:101870001188BFF36F8F02F07F44B4F17F4F1ED108
:1018800012F001041AD0560602F0080467D482F060
:101890000402C2F3800564B1EFF389860022033BA2
:1018A0008DF80720042B4BD8DFE803F00B4C504198
:1018B0004800EFF38886F1E70E46EFE725462E460F
:1018C000ECE7294BDA6A92073AD4DC6A14F08044D8
:1018D00008D028331B78EBB101200DF10701FFF789
:1018E00055FF04469DF8073093B92022314602A8DF
:1018F00002F0A3FC099B6DB3C3F3080222B96FEA9F
:1019000053236FEA43230993204602A902F037FCD0
:101910000BB0F0BD154B1B782BB101200DF1070169
:10192000FFF750FFDDE7124B1F88BFB217B1FFF77B
:1019300067FFD6E70F4B5C69002CD3D0FFF772FF2F
:101940000024CFE700200DF10701C8E700200DF1CA
:101950000701E5E723F4FF7323F00103D3E7002C2D
:10196000AAD10646012599E700ED00E029ED00E047
:101970002AED00E0D0ED00E0024A536943F0100385
:101980005361704700ED00E0044B9968586A884243
:1019900003D003494FF080520A607047AC07002023
:1019A00004ED00E0BFF34F8F0549064BCA6802F40F
:1019B000E0621343CB60BFF34F8F00BFFDE700BF72
:1019C00000ED00E00400FA05002320210348C218BE
:1019D0000133412B82F80013F9D1704700E100E098
:1019E00038B504464FF02003EFF3118583F31188D7
:1019F000BFF36F8F00F0C6FE0A4B9B68A3420BD16A
:101A0000094B5A68C2F3080212B92846FFF784FD51
:101A10005A6842F080525A602846BDE8384002F0C9
:101A2000A7BC00BFAC07002000ED00E010B50E4BD6
:101A300088B002930D4B0E4C03930E4B0E4A049349
:101A400002AB019301A82346012100F007F900230E
:101A500007930A4B0121E41A05A80593069400F0A8
:101A600007F908B010BD00BF000000200000000012
:101A700000000120060001000000002008010020F5
:101A800010B50B680C7A23F01F0204F01F031A43F1
:101A9000CB68640923F01F03044943EA440343F07D
:101AA00001038860CA600B6110BD00BF90ED00E0CB
:101AB0002DE9F04F07468846144600264A4D85B06A
:101AC00046450BDA57F82630D3F80490B9F1000FE9
:101AD0003AD0B9F11F0F05D86FF01504204605B0B4
:101AE000BDE8F08F19F01F0FF6D1D3F800A01AF05F
:101AF0001F0FF1D1504602F06FFB834609EB0A003D
:101B0000013802F069FB8345E6D11BF1160FE3D0E3
:101B1000631E5B45E0DBC5F808B0E868C5F808B0AF
:101B20002B6957F8261020F01F0043F01F0AD1E957
:101B300000321A44984202F1FF3918D1CA4505D142
:101B40005FFA8BF002F028FB0136B9E7C5F808B060
:101B5000EB6822F01F0203F01F031A43EA60E0B2B1
:101B600002F01AFB10F1160FB6D0441CECE7C5F8D2
:101B700008B02A69013B23F01F0302F01F02134340
:101B8000CA45E0B22B61EBD002F006FB10F1160F54
:101B9000A2D0C5F808B0EA689DF808300AF1FF3A0B
:101BA00062F304038DF808302B699DF808205B0868
:101BB00063F3471257F826308DF80820D3E9001355
:101BC0000B44009323F01F0301305344A3EB09039C
:101BD000C0B223F01F030F2803933FF67DAF694681
:101BE000FFF74EFFC1E700BF90ED00E00522034B79
:101BF0005A60BFF34F8FBFF36F8F704790ED00E0D7
:101C0000BFF35F8F0022014B5A60704790ED00E0F8
:101C100038B50E4C2568102D14D8FFF7F1FF0020C1
:101C20000B4B0C4A1A63854205D10B4B1D70FFF715
:101C3000DDFF002038BD616801EB0011FFF720FFD8
:101C40000130F0E74FF0FF30F4E700BF3849000003
:101C500090ED00E0AAFF44000808002010B5034CF6
:101C60002278FFF725FF207010BD00BF0808002074
:101C70002DE9F74F264D8A4606464FF00008AB4641
:101C8000244FD0451BDAD6F80490B9F1000F39D0B3
:101C900031680846019102F09FFA0199044609EB68
:101CA0000100013802F098FA84424FF014021A4BF6
:101CB00008D06FF0150302FB08F84BF8083003B0AA
:101CC000BDE8F08F14F1160F2C60F8D01978A142FE
:101CD000F5DD02FB08B0BC60BC60FC6800F10801E7
:101CE000007B64F30400087138690C79400860F3E4
:101CF00047140C71F96821F01F016960396921F0FE
:101D00001F01296108F1010814350C36B9E700BF3D
:101D10009807002090ED00E00808002082680C4B36
:101D20009A60036883F38888436883F38988027B19
:101D300002F00101EFF3948323F00303920748BFFD
:101D400043F0020309B143F0010383F39488704721
:101D500000ED02E0084AD36848B123F400531B04A5
:101D60001B0C43F0BF6343F40033D36070479BB256
:101D700043F40053F5E700BF00ED00E0084AD368E4
:101D800040B19BB243F4804343F0BF6343F400335C
:101D9000D360704723F480431B041B0CF4E700BF9F
:101DA00000ED00E0084AD36840B19BB243F008035D
:101DB00043F0BF6343F40033D360704723F008035C
:101DC0001B041B0CF4E700BF00ED00E0034AD2F84F
:101DD0008C3043F44063C2F88C30704700ED00E073
:101DE000084B1A6818B142F001021A60704722F0DD
:101DF00001021A601A6811B142F00202F5E722F0FE
:101E00000202F2E7D0ED00E02DE9F0430025214C7D
:101E1000214E54F8048CDFF8889085B0A84503D88B
:101E2000002005B0BDE8F083636A96E807001F68EC
:101E300001AB83E807000C221946384602F0D6F9B8
:101E400090B98FB1636A21691B681A6991420BD1FD
:101E50009A69A169914207D8E169914204D96269FE
:101E60005B6932EA03030AD0276A67B10B4801F0C5
:101E7000C7FE404080F311884FF0040002DFE368A2
:101E800001351C44CAE7484601F0BAFE636A1F6088
:101E9000F5E700BF3C020000CC470000B24D000057
:101EA000DB4D0000064B1868043B1B68092B05D16D
:101EB000013801288CBF00200120704700207047A6
:101EC0003401FF00054B1868043B1B68092B03D144
:101ED000431E584258417047002070473401FF00AC
:101EE0004E4A08B5136843F002031360FFF7DAFFA8
:101EF00030B14FF050230022C3F81421C3F8182149
:101F0000FFF7E0FF30B10123454A1360A2F6382203
:101F1000C2F87835434B1B68092B07D1424B1B682D
:101F2000022B02BF0122414BC3F87825FFF7CAFFFD
:101F300010B10E223E4B1A60FFF7B4FF20B1002211
:101F40003C4B1A6001225A600022D30003F57F0344
:101F5000D3F80013013108D0D3F800130132D3F8BD
:101F60000433B2F5807F0B60EFD1334BDA69D107D0
:101F70003BD5324B1946D3F80024012AFBD1C3F8D4
:101F80000425D1F80034012BFBD12B4BDA69D207A1
:101F900008D5DA69294922F00102DA61D1F8002472
:101FA000012AFBD11A6A01320AD11A6A22F0FF0211
:101FB00042F020021A62214AD2F80034012BFBD1F0
:101FC00000221E4BC3F80425D3F80024012AFBD1BC
:101FD000BFF34F8F1A491B4BCA6802F4E0621343E8
:101FE000CB60BFF34F8F00BFFDE71B6A0133C0D04A
:101FF000134BD3F88C2042F44062C3F88C20D3F802
:10200000882042F47002C3F88820BFF34F8FBFF3DB
:102010006F8F0D4B0D4A1A6008BD00BFD0ED00E078
:10202000384A00503001FF003401FF0000400050EA
:10203000E4AE03500C4700500080FF0000900350B6
:1020400000ED00E00400FA05240000200090D00319
:1020500008B50B4D4FF02002EFF3118382F3118886
:10206000BFF36F8F02F048FA012104460228D8BF5F
:10207000084602F051FA2C62FFF7FEFAEAE700BFC9
:10208000AC0700200248034A0021121A02F000B9EE
:10209000080100200C08002008B50648064A074938
:1020A000121A02F0CAF8BDE80840054A0549064878
:1020B00002F0C3B80000002004010020244E0000FC
:1020C00000000000244E000000000020012208B59E
:1020D000084B02201A7000F05FFE032000F05CFE47
:1020E00000F0CCFC01F066FD034A137B23F00103F2
:1020F000137308BD09080020880100202DE98048DD
:10210000DFF8F890A7B089F308880024E023334D66
:102110004FF0010B85F82230EC772C766C76AC769C
:10212000EC766B6A2E4E43F4E0236B626B6ADFF849
:10213000D0A043F400236B62AC63FFF71DFCFFF7F4
:1021400095FA4FF0FF33AB62EB6240F20113254D7D
:10215000ADF8243006ABAB602046CDE9204400F05A
:102160001BFE012000F018FE00F0FCFB1E4B6E620F
:102170004FF480621D49059330465346CDE9034B29
:10218000CDE90144009400F049FC737B804623F0C4
:1021900004033046737302F007F90F23144F4FF412
:1021A000A072CDE902431349134B3846CDE904B47C
:1021B000CDE9004400F032FC7B7B524623F004035F
:1021C0007B7305F1180341463046C5E90633EF60DD
:1021D0002C75C5F80490FFF72FFA00BF00ED00E062
:1021E00088010020AC070020194E000010080020D4
:1021F00008010020100C0020512000005015002084
:10220000CD20000070B50E4B0E4CA34201D3002030
:1022100070BDD3E9030141EA000212F003020BD1C1
:102220009D685A61AA4201D11C33EEE75E69013212
:102230000E6059610144F5E76FF01500E8E700BF53
:10224000A0000020A0000020D3B50C4616461F4673
:102250004FF02003EFF3118183F31188BFF36F8FE9
:1022600043695BB123601B68436183690133836108
:10227000002081F31188BFF36F8F11E056EA070247
:1022800003D16FF00B002360F3E70246CDE900674E
:10229000044800F013FB18B9034B9B685B6923608B
:1022A00002B0D0BD0A080020AC07002070B504467B
:1022B0000D464FF02003EFF3118683F31188BFF32F
:1022C0006F8F02F0D4F858B100212A68C1674261CB
:1022D00002F06AF83146BDE87040084800F010B9D5
:1022E0002B6862691A602B686361A369013BA36173
:1022F00086F31188BFF36F8F70BD00BF0A080020FE
:102300002DE9F341044616461F464FF02003EFF334
:10231000118883F31188BFF36F8FC368324A6BB1A2
:1023200080689168884219D056EA070318D188F36B
:102330001188BFF36F8F6FF00F000CE0916891F977
:102340000E100133E36093682161A36088F3118864
:10235000BFF36F8F002002B0BDE8F0812169F0E784
:1023600090F90E3091F90E109942A8BF194621EA52
:10237000E17199422CDA00F0B5FA05462246414651
:10238000CDE90067194800F099FA0028E3D04FF032
:102390002003EFF3118683F31188BFF36F8F236857
:1023A0002169A34207D033B193F90E309942A8BFF7
:1023B000194621EAE171A06890F90E30994209D1DD
:1023C0006DB13146094800F09BF86FF00A00C2E792
:1023D0000025D3E700F086FA0028F2D1F0E786F373
:1023E0001188BFF36F8FF0E7AC0700200A080020C8
:1023F00038B583680446002B36D01E4A9268934253
:1024000035D1DA7B013ADA73C368012B05D0013B81
:10241000C36000F0D5F8002038BD4FF02003EFF383
:10242000118583F31188BFF36F8F0169806890F97C
:102430000E30994201D000F055FA204602F017F80C
:10244000A06058B190F90E2022610022C26701F00D
:10245000ABFF2946084800F053F8DAE7E06085F35F
:102460001188BFF36F8FD4E76FF01500D4E74FF0FA
:10247000FF30D1E7AC0700200A08002010B5084C57
:1024800023685BB1FEF74AFD2268064910440861E3
:10249000BDE810400021104602F03EB810BD00BF5C
:1024A000E4070020AC070020F8B50C464FF02003ED
:1024B000EFF3118583F31188BFF36F8F4FF4004161
:1024C00040F2E73600270022E1FB0067094B304667
:1024D0001A6139464FF47A720023FDF7AFFE064BBE
:1024E0001860064B1C60FFF7C9FF85F31188BFF326
:1024F0006F8FF8BDAC070020E4070020E007002044
:1025000049B9EFF3058030B9054B5A6A9B689A4286
:1025100001D0FFF701B881F31188BFF36F8F7047C7
:10252000AC0700204FF02003EFF3118183F31188F3
:10253000BFF36F8F044B9A68D37B013BD37381F356
:102540001188BFF36F8F7047AC070020094B03F170
:102550002802824205D19B688B4202D14B7BDB066D
:1025600006D1D1E9003213605A600023C1E900337B
:10257000704700BFAC07002070B5104C064604F150
:10258000280001F00BFF0546A368597B880644BF6D
:1025900041F00801597305B9E5684EB95A7BD20676
:1025A00006D1AA6922B9DA897F2A01D9636270BD8E
:1025B000AB4201D0FFF762FF6562F8E7AC0700208D
:1025C00010B54FF02003EFF3118483F31188BFF3AC
:1025D0006F8F084B00209A68D37B0133D373FFF7CA
:1025E000CBFF84F31188BFF36F8FBDE8104001F07B
:1025F000CBBE00BFAC07002070B4437BDB0627D105
:1026000083692BBB134A02F12801D2E90A348B42B9
:1026100018D0BBB190F90E5093F90E60AE420CDDAC
:102620005A68C0E9003210605860437B63F07F0352
:10263000437370BC0020FFF79FBF9C4202D01B6811
:10264000002BE9D1C0E90014D36A1860D062ECE72E
:1026500070BC7047AC07002010B54FF02002EFF3BC
:10266000118482F31188BFF36F8F427B510704D42A
:1026700084F31188BFF36F8F10BD22F00402427300
:10268000FFF7BAFF2146BDE810400148FFF738BF09
:102690000A0800200146F8B54FF02003EFF311843B
:1026A00083F31188BFF36F8F90F90D30002B02DA9E
:1026B0001748FFF74BFF174A02F12800D2E90A3505
:1026C00083421FD0F3B191F90E6093F90E70B742B7
:1026D00013DD5868C1E90030016059604B7B906898
:1026E00063F07F034B73431A58425841FFF744FF8E
:1026F00084F31188BFF36F8FF8BD9D4202D01B6831
:10270000002BE2D1C1E90005D36A1960D162E5E787
:10271000D4070020AC07002038B5154A154B1468C3
:1027200001469868A0421C4603D1BDE83840FFF737
:10273000A5BE00251560104A1268B2B1C2897F2A71
:1027400013D80E4A90F90E50126895420DDB0C4AD0
:1027500090420AD0826942B91A698A4202DCFFF7C4
:1027600099FFE2E7521A1A6138BD00232361FBE7A3
:10277000DC070020AC070020E4070020E007002071
:1027800008010020036E2DE9F041044603B198478B
:1027900004F1180001F09AFE4FF02003EFF31186C8
:1027A00083F31188BFF36F8F637BD80623D1A269AF
:1027B0000ABB190607D521461E48FFF7C7FE637BF3
:1027C00003F07F0363731C4B9868021B5042504117
:1027D000FFF7D2FE0027637B04F1300843F00803C3
:1027E0006373256B454500D095B986F31188BFF317
:1027F0006F8FBDE8F0819B07ECD52146A068FFF7FD
:10280000A5FE637B23F0020363730023A360E1E76B
:1028100005F1180001F05AFEA8682946FFF796FE58
:102820006B7B284623F002036B73AF60EF67FFF703
:10283000E3FED6E7D4070020AC07002008B590F9E6
:102840000D300146002B06DA0748FFF77FFE4B7B71
:1028500003F07F034B73054B9868431A5842584165
:10286000BDE80840FFF788BED4070020AC07002071
:102870002DE9F041064614461D464FF02003EFF3C4
:10288000118783F31188BFF36F8F01F0C8FD87F3C1
:102890001188BFF36F8F6B1C08BFB4F1FF3F08D0E6
:1028A00022462B4606F118000349BDE8F04100F02E
:1028B00081B9BDE8F08100BFC943000010B50C46E6
:1028C000064B11469868064B1860DDE90223FFF7B6
:1028D000CFFF2046BDE81040FEF71EBEAC0700202B
:1028E000DC070020F8B504464FF02003EFF3118712
:1028F00083F31188BFF36F8F437B4EB2DB062CD17D
:10290000836953BB164D214605F12800FFF71EFED3
:10291000AB6A2A468342A67318D0BBB1E96A93F921
:102920000E50B5420DDD5A68C4E9003214605C6097
:102930000120FFF721FE012087F31188BFF36F8F7D
:10294000F8BD8B4202D01B68002BE8D1D36A20600F
:102950006360D36A1C60D462EAE70020A673EBE7E9
:10296000AC0700200021044B084603F12802C3E90C
:102970000A22FFF799BD00BFAC070020014B986801
:10298000704700BFAC07002038B504464FF0200365
:10299000EFF3118583F31188BFF36F8F01F067FDAB
:1029A00048B10022C26701F0FFFC2946BDE838406B
:1029B0000448FFF7A5BDD4E902329A4218BF01339B
:1029C000A360F2E70A08002037B514461D464FF011
:1029D0002003EFF3118183F31188BFF36F8F8368B6
:1029E00043B1013B836081F31188BFF36F8F0020F7
:1029F00003B030BD54EA050306D181F31188BFF35B
:102A00006F8F6FF00F00F3E70246CDE900450248F3
:102A1000FFF754FFECE700BF0A0800202DE9B041A2
:102A200000F1300585B0C0E90C550E9D04460573D4
:102A3000042545730D9D07328573002522F007029A
:102A4000C0E91A1201EB02080C9AC0E90655C573D9
:102A5000056702920B9A01920A9A00924246FEF78B
:102A6000CFFD054BC4E917559B6803B15B6F40462A
:102A7000636705B0BDE8B081AC0700202DE9F047E1
:102A80002A4E2B4DB04686B0B54205F1300410D326
:102A9000FFF748FD4FF4004940F2E7360027244C89
:102AA000DFF890A0444521D306B0BDE8F047FFF71A
:102AB00087BD54F8043C059354F8103C049354F833
:102AC000143C039354F8183C029354F81C3C0193B3
:102AD00054F8203C009354E90A2354E90C01FFF711
:102AE0009DFF54F8303CDD652546CDE7636A5A1CEE
:102AF0000DD03046394623EAE373C9FB0301B942DE
:102B000008BFB042256804D12846FFF7A5FD303440
:102B1000C8E74FF47A720023FDF790FB02460B469C
:102B200005F11800514600F045F8F0E7A00000203C
:102B3000A0000020C9430000034B1B680BB9FEF73F
:102B4000EDB90020704700BFE807002030B50368EA
:102B500068B10A4A5268904209D043B1D3E90421CE
:102B6000D0E90445121945EB0101C3E9042142688B
:102B700013605A600023C0E9003330BD28000020F4
:102B80000A4B10B51C689C4208BF0024FFF7D4FF15
:102B900044B12369181A064B1B6913B19842A8BFA8
:102BA000184610BD6FF00040F5E700BF2800002078
:102BB000AC0700202DE9F74F019119464B1C08BFC7
:102BC000B2F1FF3F82466BD06FF001034FF0FF3B45
:102BD000541C41F10005B3EB04086BEB0509B8F197
:102BE000000F79F100030FDBFFF7A6FF6FF0010381
:102BF000324AD2E9001C5B1A6BEB0C021E1B62EB23
:102C00000507341A67EBE075019BCAF808304FF0EE
:102C10002003EFF3118683F31188BFF36F8FFFF763
:102C20008BFF012C75F10003BCBF01240025244B50
:102C300024181A6845EBE0759A42CAE9044501D0A8
:102C40005F6852B95A68CAF80030CAF804205A6856
:102C5000C2F800A0C3F804A014E0D2E90489DAE9BC
:102C600004454D4508BF44451DD2B8EB040069EB4F
:102C70000501C2E904015168CAE90021C1F800A0B8
:102C8000C2F804A01A689A4206D0924504D1FFF710
:102C900077FF0021FEF7DEF886F31188BFF36F8F10
:102CA00003B0BDE8F08FB4EB080065EB0901BA4250
:102CB000CAE90401C6D01268C3E700BF08020020B9
:102CC000280000202DE9F74F0646FFF725FD4FF0BD
:102CD0002003EFF3118483F31188BFF36F8FDFF8C4
:102CE000B0A02A4D5146DFF8ACB02E60D5F800C038
:102CF000DBF800006246DAE90089D3175845CDE9D0
:102D000000230ED068B1D0E90467BB4208BFB445C8
:102D10001DD2009BB6EB030C019B67EB0306C0E9D9
:102D200004C60026009B2E6013EB0802019B43EBB8
:102D30000903C1E90023FFF723FF3146FEF78AF8B4
:102D400084F31188BFF36F8F03B0BDE8F08F0022CA
:102D5000002318EB060849EBE679C0E90423ACEB45
:102D60000606CAE900892E60FFF7F0FE84F3118899
:102D7000BFF36F8F836898474FF02003EFF3118400
:102D800083F31188BFF36F8F0149AFE7E807002095
:102D90000802002028000020F8B50027084B53F84F
:102DA0002040013053F82060A64200D8F8BDD4E995
:102DB00000352846984708B105B1AF600834F3E7FD
:102DC0006449000038B5064C064DAC4201D30020E2
:102DD00038BD2046D4E9011201F0B9FB1434F4E700
:102DE000A0000020A000002001F010BA0A46002137
:102DF00001F04EBA10B5114800F048F800B110BD0E
:102E00000F4800F043F80028F9D10E4C204600F09E
:102E10003DF80028F3D10C4B0C481C6000F036F84C
:102E200001460028EBD100F02DF8044608B12046F9
:102E300010BD00F051F82046FAE700BF3C0000202A
:102E40003000002038000020400000203400002026
:102E500008B5084800F024F8074800F021F80748B2
:102E600000F01EF8064800F01BF8BDE8084000F02E
:102E70000BB800BF3C0000203000002038000020CC
:102E80003400002000207047704700BF08B5034B96
:102E900002681B6810689847002008BD4C0000209D
:102EA00008B5034B02685B6810689847002008BDAE
:102EB0004C0000200268024B10689B68184700BF56
:102EC0004C00002008B5034B0268DB681068984787
:102ED000002008BD4C00002070B5094C094D206948
:102EE000AB68984718B1084B08485B6898470021C1
:102EF000074AEB6811602069BDE87040184700BFC1
:102F00005C0000204C0000204400002078490000B4
:102F1000EC070020F8B51A4C1A4D0746AB6820693B
:102F20009847E8B9184E33687FB93BB90120174A72
:102F30001749C2F800050A68002AFCD10133336042
:102F4000EB68206998470020F8BD002BF8D0012BD2
:102F500008D0013B33602069EB6898470020F3E715
:102F60000C48F8BD0A4A1368002BFCD1074A6FF0E1
:102F70007E40C2F8003500F021F83368E9E700BF71
:102F80005C0000204C000020EC0700200000845072
:102F900010198450E98FFFFF002070470020704710
:102FA000430503D54FF0FF32024B1A60024B186005
:102FB000704700BF08118450081A8450014B1860F4
:102FC000704700BF041A845008B100F003B84FF4F2
:102FD000750070470246074803681342FCD021B1D0
:102FE000054B06481B680B600360054B00201A6008
:102FF000704700BF001A8450041184500811845097
:10300000081A845000F0A0B830B129B1002301445F
:10301000037001308142FBD1704700BF2DE9F041C0
:10302000ADF51A7D0F4605920021144612A84FF403
:1030300008721E4601F02CF9002308A81946282220
:10304000069301F025F9002F3CD0002E3AD0002C39
:1030500038D0042106A8FFF7C9FE08A82821FFF7E9
:10306000C5FE08A800F032F878B14FF0FF3512A87D
:103070004FF40871FFF7C8FF06A80421FFF7C4FF4B
:1030800028460DF51A7DBDE8F08112AB0DF11C0844
:103090000390CDE90163024605AB08A9CDF8008095
:1030A00006A800F0E9FC0028DFD13368A342DCD396
:1030B000D8F800100546083138462246FFF794FE3E
:1030C0003460D4E74FF0FF35DAE700BF1C2330B59A
:1030D00083B002A941F8043D044600F0B1F9054669
:1030E000D8B9019B1C2B1BD1D4E90032012100333C
:1030F000E16118BF01230AB143F00203A26832B9AB
:10310000E268AAB9C4E908323BB90D4D09E0E268AA
:1031100043F0040362B9C4E90832284603B030BD65
:10312000084D20461C21FFF761FE284603B030BD44
:103130000022284643F00803C4E9083203B030BD3A
:103140000E0CF000370CF00010B50C4C236813B1D6
:103150000B4B1B686BB900F031F938B10138062808
:1031600096BF084B084853F8200010BD0122044BBD
:103170001A6001230020236010BD00BFF00700206B
:10318000F407002098490000FE8FFFFF10B5094C9E
:1031900023681BB101230020236010BD00F07CF8E0
:1031A0000028F7D00138062896BF034B034853F890
:1031B000200010BDF007002098490000FE8FFFFF9F
:1031C000BFF34F8F0549064BCA6802F4E062134310
:1031D000CB60BFF34F8F00BFFDE700BF00ED00E005
:1031E0000400FA05014B5B68184700BF440000204B
:1031F000024BD0E90012C3E90012704744000020DE
:10320000704700BF10B5044620B1BFF35F8F0020A8
:10321000206010BD0348FFF7E5FFBFF35F8F00207C
:10322000206010BDD849000010B5044610B100233D
:10323000236010BD0248FFF7D5FF0023236010BDB7
:10324000B449000050B10122D0E8EF3FC0E8E12FBF
:103250000029F9D1012BF7D0BFF35F8F0020704711
:1032600070B40B4B0668C268D0E90154C3E902424E
:10327000C3E90065D1E903020E68064BD1E90154A8
:10328000C3E90065C3E902401A6170BC704700BF22
:103290004C0000205C00002010B5FFF77DFE70B9E7
:1032A000FFF7A8FD80B9FFF735FE80B9114B1B6809
:1032B0001B0EF02B0DD00624FFF770FE00E0032458
:1032C000FFF7C6FD204610BD0424204610BD002493
:1032D000F2E7094A094B12689A4201D00724EBE74A
:1032E0000120FFF717FE0028F1D1054B04461860B6
:1032F000E8E700BF28198450241A84500000E02019
:103300000C1A845030B5ADF5157D4FF408720021CC
:103310000CA800F0BDFF002302A819462822019343
:1033200000F0B6FF02A8FFF7D1FE18B105200DF599
:10333000157D30BD1C4D4FF0FF312868FFF7BAFDF9
:103340000446F0B90020FFF7E5FDB0B90CAA02A9C8
:1033500001A800F0D5FB04460120FFF7DBFDF0B922
:103360002868FFF7AFFD10B11048FFF73BFF20467C
:10337000002CDBD10DF5157D30BD0D48FFF732FF78
:10338000E4E70C48FFF72EFF012CDBD12868FFF79C
:1033900099FD0028CAD00548FFF724FFC6E7064874
:1033A000FFF720FFDCE700BF40000020104A0000CC
:1033B000284A0000F8490000484A000008B5FFF715
:1033C000EBFD18B1FFF744FD032008BDFFF712FD28
:1033D00068B9FFF79FFD60B9154B1B681B0EF02BFA
:1033E00012D0FFF7DBFDFFF733FD062008BD0420F8
:1033F00008BDFFF7D3FDFFF72BFDFFF783FF002884
:103400000CBF0020052008BD0A4A0B4B12689A42E7
:1034100005D0FFF7C3FDFFF71BFD072008BD012006
:10342000FFF778FD0028E4D1044B1860E5E700BF02
:1034300028198450241A84500000E0200C1A84506B
:1034400018B111B10B681C2B01D0012070474FF44B
:103450007F033A4AD3F8101C91425AD0D3F8102C6B
:10346000013256D0D3F8102C4FF47F030260D3F80A
:10347000141C334A91425ED0D3F8142C01325AD036
:10348000D3F8142C4FF47F034260D3F8182C12F5B4
:10349000947F4DD0D3F8182C013249D0D3F8182C92
:1034A0004FF47F038260D3F81C1C264A91423CD023
:1034B000D3F81C2C013238D0D3F81C2C4FF47F03E6
:1034C000C260D3F8002C70322DD0D3F8002C01321A
:1034D00029D0D3F8002C4FF47F030261D3F8042CD9
:1034E000AF321ED0D3F8042C01321AD0D3F8042CFA
:1034F0004FF47F034261D3F8081C134A91420BD06A
:10350000D3F8082C013207D0D3F8083C836100209F
:10351000704740F6FC02A7E740F237338361002092
:1035200070475122E4E79022D5E742F60412C5E73E
:1035300040F6D862B4E742F2D002A3E7FCF8FFFFFE
:10354000D020FFFF0429FFFF37F3FFFFA8B32DE9C9
:10355000F0414C1EB4F5047F2CD25BB352B34FF054
:10356000000CC900E646654664464F1E03F1FF386D
:103570000CE0AB4216D08E4501D10CF1010CA845F0
:1035800016D00134BC4205F1010518D8610950F884
:10359000211004F01F06F1401F2E18BF01F0010199
:1035A000002CE6D10025A8458E464FF0010CE8D14D
:1035B0006245E6D20348BDE8F0810248704700202A
:1035C000BDE8F081370CF1002DE9F04F8FB00D46CA
:1035D000DDE919418346002957D12969039100216A
:1035E0001C60189B1960002A00F02281814A824BDE
:1035F00011686A6A1B689A4257D10A2955D19BF80B
:10360000033006930399042308467C4A0293A2FBE5
:1036100000029208CB0002EB420204F10800A1EB89
:103620004202013BDFF8D091DFF800A20490009243
:103630000593189B039C1C60002C00F0CC80002696
:10364000049F00F0A9FA00230793069BBBF1000F2B
:103650003AD0002D34D053BB5B000693BBF1000F72
:1036600036D0002D34D0E3B106A9284600F084FA04
:10367000002800F07D81624B984212D0009000F04B
:103680008BFA00980FB0BDE8F08F4FF47F01D1F8AE
:103690000C0C01300CBF4FF40471D1F80C1C0391D9
:1036A0009DE72B6A73B95648E8E75648E6E706A94E
:1036B000284600F061FA68B1534B9842DED0069B71
:1036C000082BC9D15148D9E7082BFBD05B000693E2
:1036D0004F48D3E72946069800F030FA0028EBD18E
:1036E000069B082B00F00E81042B00F03181A3F122
:1036F0000203B3FA83F35B09019301231946454A98
:10370000136042F8843C434B19606B6AC9F800307F
:10371000D9F800206B6A9A42F5D14FF000084FF0BB
:10372000FF30CAF80080FFF73BFC3B4A3B4B40466A
:103730001A60FFF743FC0A22019839492D4B0860B3
:103740001A602A69A8F15538A8FB02126B6A12099F
:1037500003EB4303DB0303FB02F3324A9B091360D1
:103760000123CAF800300699DBF800200B0243EA77
:10377000016322F07F421343CBF8003007A800F02A
:10378000CDF9002898D1284BA8FB04281A681433D7
:10379000089253F8102CB6EB980F099253F80C2CA2
:1037A0000A9253F8082C0B9253F8042C0C921B68C5
:1037B0000D9301D1009B9BB93846182208A9FFF749
:1037C00013FB183C18370136002C7FF43AAF049BEA
:1037D000002B40F09A800023189A1360069B6FE735
:1037E0001A46384608A9E41AFFF7FEFA009B1F4460
:1037F000E9E700BF3811845030118450ABAAAAAA5F
:10380000310CF100300CF100020CF100320CF1002F
:10381000350CF100C4118450FEFFFF0F00118450DD
:103820000C118450D8118450141184502C118450E0
:10383000BBF1000F3FF44CAF002D3FF449AF012323
:103840000EA941F8203DCBF80020284600F094F95D
:1038500000287FF413AF2946069800F06FF900287E
:103860007FF40CAF069F082F00F0EB80042F00F0D0
:10387000EA80A7F10207B7FA87F77F090122164607
:10388000734B74491A6018460A60943B06606A6A72
:103890001A6019686A6A9142F8D14FF000086E4BBD
:1038A0004FF0FF30C3F80080FFF77AFB6B4B6C4A98
:1038B00040461A60FFF782FB0A226A496A4B0F6092
:1038C0001A601A992B6901296A6A00F0B180674968
:1038D000A1FB03131B09012102EB4202D20303FBEC
:1038E00002F3634A9B0913605B4B19600699DBF88E
:1038F00000200B0243EA016322F07F421343CBF81E
:1039000000307FE603230193F7E6039BB3F5047FC2
:103910003FF661AFDDE9047C204623466E6904E092
:10392000012001336345144615D85A0957F822205F
:1039300003F01F01CA401F2918BF02F00102002B2B
:10394000EED0A242ECD101308642EAD149480BE0E8
:1039500002230193D1E64FF48063DDE90310AA69E5
:10396000FFF7F4FD00285DD00023189A1360A3E64A
:103970002946069800F0E2F800287FF47CAE069C09
:10398000082C51D0042C51D0A4F10204B4FA84F4D0
:10399000640901231E4619462D4A136042F8843CEF
:1039A0002B4B19606B6AC9F80030D9F800206B6A9C
:1039B0009A42F5D100274FF0FF30CAF80070FFF7A8
:1039C000EFFA264B264A38461A60FFF7F7FA0A2222
:1039D0002449254B0C601A602A6924496B6AA1FBB3
:1039E000021203EB43031209DB0303FB02F3204A39
:1039F0009B091360CAF80060069BDBF800101A02EE
:103A000042EA036321F07F421A43130A03F47F035F
:103A1000134323F07F43CBF80030029B013B02931A
:103A20007FF407AE002029E60324B2E70224B0E7C2
:103A30004FF47F03D3F80C1C013106D0D3F80C3CB3
:103A400045E703271AE7022718E7162343E700BFD5
:103A5000C4118450401184502C11845000118450A2
:103A6000FEFFFF0F0C11845038118450ABAAAAAA94
:103A7000D8118450360CF1002DE9F0431B4C85B071
:103A80000746DDE90D56884620684FF0FF31914624
:103A9000FFF710FA28BB0020FFF73CFAE8B9002333
:103AA000CDE9005602934A46414638460C9BFFF743
:103AB0008BFD05460120FFF72DFA50B92068FFF76E
:103AC00001FA10B10A48FFF78DFB284605B0BDE8A2
:103AD000F0830848FFF786FBF0E70748FFF782FB13
:103AE000DDE70648FFF77EFBD5E700BF400000207A
:103AF000104A0000484A0000284A0000F849000027
:103B000010B5012486B005ABCDE901240093002255
:103B100004ABFFF759FD06B010BD00BF08B5014664
:103B20004FF48060FFF750FA00230249024A0B600D
:103B3000136008BDC81184502C1184500138072827
:103B400015D8DFE800F0100C140814141404CB6826
:103B500000204B6270478B6800204B6270474B68B7
:103B600000204B6270470B6800204B627047014891
:103B7000704700BF310CF1000B6802E0082B0B60AE
:103B800006D8026A13424FEA4303F7D00020704779
:103B900000487047310CF10000230449044A0B60CF
:103BA0004FF480601360FFF7FBB900BF2C11845005
:103BB000C411845008B5FDF7BBFABDE80840FDF715
:103BC0004DBA60B1436803F00303012B03D0032B0C
:103BD00005D103681BB100238360184670476FF05E
:103BE0001500704700224368816003F00303032B34
:103BF00014BF1346036842601846704700207047A0
:103C00000FB407B504A951F8040B0191FCF746FE67
:103C100003B05DF804EB04B07047038B13F00703A7
:103C200005D10368002B0CBF002003207047022B36
:103C300005D1438B002B14BF002004207047012BBB
:103C400005D10368002B0CBF002005207047002021
:103C5000704773B50D4606461946281D019200931C
:103C6000FFF7C0FF044640B1DDE900322946304687
:103C7000A44602B0BDE87040604702B070BD10B409
:103C80004FF02004EFF3118284F31188BFF36F8F9C
:103C900041615DF8044B0121FCF70EBE10B50C46E6
:103CA00040B139B1081DFFF78CFF28B9A36833F084
:103CB000030301D06FF0150010BD38B50C46054662
:103CC00058B151B10B6843B14B6833B11C2200218C
:103CD00000F0DEFA00202C6138BD6FF01500FBE724
:103CE00070B504460E46FFF7D9FF051E31DB4FF0D5
:103CF0002003EFF3118183F31188BFF36F8F4FF629
:103D0000FF75638B208BAB4200F007022ED0022A96
:103D10000ED1013363831546012381F31188BFF36C
:103D20006F8FB3B1002331462046FFF792FF10E0BA
:103D3000830701D0062A0ED100233360636893B94C
:103D4000C4E90066154662B90A4620460221FCF71E
:103D5000B3FD284670BD052A0CBF6FF022056FF039
:103D600004050023D9E71E606660EBE76FF00A05E3
:103D7000F7E7044608B5084611461A46A047FEF77D
:103D8000FDFDFDF72DFE836800EBC101B3F5004F8B
:103D90002CBF51F8220031F81200704700EBC1012E
:103DA0008068B0F5004F2CBF41F8223021F8123066
:103DB0007047012208B5FFF7E6FF400808BD836899
:103DC00000EBC101B3F5004F08D34B681AB143F0C3
:103DD00001034B60704723F00103FAE74B881AB1E7
:103DE00043F001034B80704723F00103FAE75300CF
:103DF0000122FFF7D3BF80680131B0F5004F2CBF1F
:103E000002200120081AB0FA80F0C0F11F007047AC
:103E10002DE9F04104460D46FFF7CBFFA3680146AC
:103E2000B3F5004F01D3012835D02046FFF7E3FF5B
:103E300004EB800216699EB9012303FA00F0E368DF
:103E400029460343E360204615612B460222FFF713
:103E5000A5FF032229462046BDE8F041FFF79EBF9B
:103E6000022231462046FFF78EFF07460346022214
:103E700029462046FFF792FF334603222946204673
:103E8000FFF78CFF032239462B462046FFF786FFBB
:103E900002223146DFE7BDE8F081B2F5802FF8B5A8
:103EA0002CBF082504250023551B0022CC1D24F01F
:103EB00007040460C4E9002300230D4425F007052E
:103EC0002D1BED0829462046A560E360FFF793FF10
:103ED0008600411C18461B36F60804F110028B427E
:103EE00029DB324620460021FFF781FFAF1B204629
:103EF00001220021FFF763FF3A463146FFF777FFC3
:103F00003346314620460022FFF748FF2946204627
:103F10000022FFF76CFF3B46294620460022FFF7B0
:103F20003DFF294620460122FFF749FF3146BDE803
:103F3000F840FFF76DBF42F8040B0133CFE770473D
:103F4000FDF7CEBFCBB20C21C26803FB0121086C88
:103F500000F0070070474FF02003EFF3118283F366
:103F60001188BFF36F8F036813F0C00301D08B4239
:103F700007D101230360002082F31188BFF36F8F04
:103F800070474FF0FF30F7E710B54FF02003EFF325
:103F9000118283F31188BFF36F8F036803F0070466
:103FA000012C06D10160002082F31188BFF36F8FCE
:103FB00010BD03F0C0038B4214BF4FF0FF306FF011
:103FC0000F00F1E74FF02003EFF3118283F3118824
:103FD000BFF36F8F036803F0C00343F00203036075
:103FE00082F31188BFF36F8F704710B41C24C06830
:103FF000CBB203FB040000215DF8044B10471046D0
:10400000FEF7C2BC4FF05022D2F81834D2F8181480
:10401000C903F9D503F003039842F5D1704738B5C9
:104020000C23CCB263430546C0684033802118445A
:10403000FFF791FF002805DB696801EBC4046368A2
:104040009847002038BD2DE9F0414FF00C08CDB263
:1040500008FB05F8C468064608F1400080212044AA
:104060001746FFF791FF002809DB7B684444A363F0
:10407000BB68E363736853F8353098470020BDE8A8
:10408000F081704770477047002307B501A88DF88D
:104090000430FEF7B7FF03B05DF804FB902908B5C4
:1040A000134639D10A4601460020FEF7B7FFBDE8A6
:1040B0000840714672467346B7EE000AF7EE000AF2
:1040C000B7EE001AF7EE001AB7EE002AF7EE002A54
:1040D000B7EE003AF7EE003AB7EE004AF7EE004AC4
:1040E000B7EE005AF7EE005AB7EE006AF7EE006A34
:1040F000B7EE007AF7EE007A8EF3008C10B4F1EE92
:1041000010CA4FF66074C0F6FF740CEA040CE1EEBE
:1041100010CA10BCF44674476FF01500C7E70020C2
:10412000FCF7CCBC0021012000F029B843B2A9B1B2
:10413000002B12DB01215B099B0003F1604303F5B7
:104140006143D3F8802200F01F0001FA00F022EA58
:104150000000C3F88002D3F880327047002BFCDBEC
:1041600001225B099B0003F1604303F56143D3F82F
:10417000801200F01F0002FA00F00843E9E700F0A7
:10418000B7B80146006800F0B3B808B5FDF782FA89
:10419000BDE80840FDF7F8BB30B54B680C6885B04A
:1041A0000A898D7A0094013B24F01F04234402F015
:1041B0001F0242EA451223F01F030F2804468DF820
:1041C0000820039305D86946FDF75AFC204605B040
:1041D00030BD6FF01504F9E740E800F0C3B210F409
:1041E000803F14BF18466FF01500704710B55AB1E4
:1041F0000139841810F8012B11F8013FA04201D0B9
:104200009A42F7D0D01A10BD1046FCE7431A9342E9
:1042100010B500EB020308D3024601399A420BD0D5
:1042200011F8014F02F8014BF8E70A4412F8014D6A
:104230008A4203F8014DF9D110BDF0B581EA0004BE
:10424000A50703460BD0013B0A4491421BD1F0BDA8
:10425000002AFCD011F8014B013A03F8014B9C07EE
:10426000F6D122F003041D1F96080F19B94205D19B
:104270006FF00305234405FB0622E4E751F804CB65
:1042800045F804CFF2E711F8014B03F8014FDCE7E2
:10429000034670B5C9B29C0711D141EA012422F04E
:1042A000030644EA04451E449408B3420DD16FF05E
:1042B000030505FB04221A44934209D170BD002A6C
:1042C000FCD003F8011B013AE5E743F8045BECE797
:1042D00003F8011BF0E7002008B5FDF763FB08B504
:1042E000FDF780F8FDF702F9BDE80840FEF74EBF84
:1042F00073B5054601914FF02003EFF3118683F368
:104300001188BFF36F8FFEF739FB019904462846E9
:10431000FFF7E1FF86F31188BFF36F8F204602B0ED
:10432000BDE87040FDF75CBBFFF7ACBE30B50024C4
:10433000846141EA020414F00304C0E9023201611D
:104340000CD14461A34203D1C0E90000002030BD7C
:10435000456901340D6041611144F3E76FF01500C8
:10436000F5E70023C0E90000C0E9023318467047B2
:10437000034620B9EFF305820AB9FDF7CDB883F300
:104380001188BFF36F8F70474FF02003EFF3118058
:1043900083F31188BFF36F8FFFF7EABF036898427A
:1043A00014BF18460020704710B54FF02003EFF3FC
:1043B000118483F31188BFF36F8FFEF71DF984F327
:1043C0001188BFF36F8F10BD38B550F8103C04460C
:1043D000A0F11801C3B14FF02003EFF3118583F36F
:1043E0001188BFF36F8F50F8100CFEF7AFF814F878
:1043F0000B3C23F0020304F80B3C002344F8103C70
:1044000085F31188BFF36F8F14F80B3C084623F037
:10441000140304F80B3CBDE83840FFF7C5BF38B5BE
:1044200004460D46FEF70AFA637B43F0020363730A
:104430007DB12B68A5609D4212D08BB194F90E20FE
:1044400093F90E10914205DD5A68C4E900321460F8
:104450005C6038BD69688B4202D01B68002BEFD1CD
:104460006B68256063606B681C606C60F1E738B551
:104470004FF02003EFF3118283F31188BFF36F8FA6
:10448000FFF78CFF044682F31188BFF36F8FC8B12A
:104490004FF02003EFF3118583F31188BFF36F8F83
:1044A00001468068FEF752F8637B23F002036373D2
:1044B0000023A36085F31188BFF36F8F04F1180008
:1044C00000F004F8204638BDFCF7EEBA10B54FF006
:1044D0002002EFF3118482F31188BFF36F8F03681A
:1044E0003BB1FEF733FB002084F31188BFF36F8FDD
:1044F00010BD6FF01500F7E710B54FF02003EFF394
:10450000118483F31188BFF36F8FFEF739FB84F3B7
:104510001188BFF36F8F10BD37B5044601914FF07E
:104520002003EFF3118583F31188BFF36F8FFEF73C
:1045300027FB012805DDA042019902DD2046FCF79A
:1045400089FC85F31188BFF36F8F03B030BD10B4C1
:1045500000F10C04C0E903445DF8044BFFF79DBC77
:104560007047FFFF08BDFF7F01000000810A0000C7
:10457000000000000522000000000000C52D000022
:1045800000000000111C000000000000B10B000042
:1045900070000020010E000080000020DF420000BB
:1045A00090000020091E0000000000000000000034
:1045B000254100000000000025410000000000002F
:1045C000254100000000000025410000000000001F
:1045D0002541000000000000090D0000000000005F
:1045E00025410000000000002541000000000000FF
:1045F00025410000000000002541000000000000EF
:1046000025410000000000002541000000000000DE
:1046100025410000000000002541000000000000CE
:1046200025410000000000002541000000000000BE
:1046300025410000000000002541000000000000AE
:10464000254100000000000025410000000000009E
:104650002541000000000000DD0D0000000000000A
:10466000254100000000000025410000000000007E
:10467000254100000000000025410000000000006E
:10468000254100000000000025410000000000005E
:10469000254100000000000025410000000000004E
:1046A000254100000000000025410000000000003E
:1046B000254100000000000025410000000000002E
:1046C000254100000000000025410000000000001E
:1046D000254100000000000025410000000000000E
:1046E00025410000000000002541000000000000FE
:1046F00025410000000000002541000000000000EE
:1047000025410000000000002541000000000000DD
:1047100025410000000000002541000000000000CD
:1047200025410000000000002541000000000000BD
:1047300025410000000000002541000000000000AD
:10474000254100000000000025410000000000009D
:10475000254100000000000025410000000000008D
:10476000254100000000000025410000000000007D
:10477000254100000000000025410000000000006D
:10478000254100000000000025410000000000005D
:10479000254100000000000025410000000000004D
:1047A000254100000000000025410000000000003D
:1047B00025410000FFFFFFFFFFFFFFFFFFFFFFFF9F
:1047C000DEE61E284CBBCE8F025B0000DEE61E2814
:1047D000EAAC45B8025B0000DEE61E284CBBCE8F7B
:1047E000025B00000000000000000000000000006C
:1047F0000338FDD870470000D10C00001F400000B6
:104800004740000000000000453F0000390C000058
:10481000A10C0000ED0A0000F90A0000550B000091
:104820000D0B000000000000544C0000420100008D
:104830005B4C000005010000654C00001401000005
:104840006E4C000015010000774C0000390100009B
:10485000804C0000090100008B4C00000A010000A0
:10486000964C00000A010000A04C00000B01000063
:10487000AA4C00000F010000B54C00001001000020
:10488000C04C000011010000CB4C00000E010000E4
:10489000D54C000021010000DE4C00002201000088
:1048A000E74C000023010000F04C00002401000050
:1048B000F94C000018010000014D00002A01000021
:1048C000094D00003A010000114D00002C010000CC
:1048D000194D00001C010000224D00001D010000C8
:1048E0002B4D000017010000354D00003101000084
:1048F000414D000004010000000000000002000023
:10490000000400000008000000100000000000008B
:104910001F4100005114000011140000B9140000E0
:10492000F11300001C0000200400002014000020EF
:10493000000000000C0000200200000040490000C0
:1049400000000000A34D000006000000E0FF0F0083
:1049500000000020AB4D000021000000E0FF00201F
:10496000F5FFFFFF6C450000944500009C450000EA
:10497000AC450000AC450000436F756C64206E6F61
:1049800074206C6F636B20706F7765722073617633
:1049900065206D7574657800FF8FFFFFFF8FFFFF47
:1049A000FE8FFFFFFE8FFFFFFD8FFFFFFC8FFFFFDE
:1049B000FC8FFFFF43616E277420696E6974696123
:1049C0006C697A65206D757465782C207761732029
:1049D0004E554C4C0D0A000043616E277420756ED5
:1049E0006C6F636B206D757465782C207761732014
:1049F0004E554C4C0D0A00004661696C20746F20C6
:104A000061637175697265206D757465780A00005F
:104A10004661696C20746F2072656C6561736520F6
:104A20006D757465780A00004661696C20746F20AA
:104A3000696E63726561736520504D20636F756E9A
:104A40007465720A000000004661696C20746F2072
:104A5000646563726561736520504D20636F756E88
:104A60007465720A00303132333435363738396183
:104A70006263646566004661696C656420746F20DA
:104A80007265626F6F743A207370696E6E696E67DB
:104A900020656E646C6573736C792E2E2E0A00731C
:104AA00079735F636C6F636B00536563757265093F
:104AB00009004E6F6E2D53656375726509002530D0
:104AC0003275202530327520307825303578203009
:104AD000782530357820090025630053504D3A2061
:104AE0004E5320696D6167652061742030782578A8
:104AF0000A0053504D3A204E53204D5350206174BC
:104B000020307825780A0053504D3A204E532072B9
:104B10006573657420766563746F722061742030EC
:104B20007825780A0053504D3A2070726570617292
:104B30006520746F206A756D7020746F204E6F6EE3
:104B40002D53656375726520696D6167652E0A0076
:104B50004E6F6E2D53656375726500466C617368A8
:104B600020726567696F6E730909446F6D61696EC4
:104B700009095065726D697373696F6E730A004E2F
:104B80006F6E2D7365637572652063616C6C616215
:104B90006C6520726567696F6E203020706C616390
:104BA000656420696E20666C617368207265676950
:104BB0006F6E20256420776974682073697A652098
:104BC00025642E0A00436F756C64206E6F74206933
:104BD0006E697469616C697A652073656375726565
:104BE000207365727669636573202865727220256B
:104BF00064292E0A005352414D20726567696F6E19
:104C00000909446F6D61696E09095065726D6973B8
:104C100073696F6E730A00506572697068657261BE
:104C20006C0909446F6D61696E090953746174758B
:104C3000730A002530327520252D3231732573001B
:104C400009534B49500A00094552524F520A000974
:104C50004F4B0A004E52465F5030004E52465F4363
:104C60004C4F434B004E52465F52544330004E521D
:104C7000465F52544331004E52465F4E564D4300FC
:104C80004E52465F554152544531004E52465F5593
:104C90004152544532004E52465F5457494D3200FE
:104CA0004E52465F5350494D33004E52465F544971
:104CB0004D455230004E52465F54494D45523100E9
:104CC0004E52465F54494D455232004E52465F5354
:104CD00041414443004E52465F50574D30004E52C2
:104CE000465F50574D31004E52465F50574D32008F
:104CF0004E52465F50574D33004E52465F57445414
:104D0000004E52465F495043004E52465F564D4357
:104D1000004E52465F465055004E52465F4547553D
:104D200031004E52465F45475532004E52465F4471
:104D300050504943004E52465F4750494F54453109
:104D4000004E52465F524547554C41544F52530016
:104D50006D757465785F696E69742063616C6C65EC
:104D6000642077697468204E554C4C2070617261E4
:104D70006D6574657200436F756C64206E6F74208E
:104D8000616C6C6F63617465206D75746578206209
:104D900065666F726520696E697469616C697A69AC
:104DA0006E6700464C4153485F30005352414D5F9F
:104DB00030004552524F523A2043616E6E6F74205C
:104DC00066756C66696C6C204558545F415049208B
:104DD000726571756573742E0D0A005741524E4904
:104DE0004E473A204F7074696F6E616C204558547D
:104DF0005F4150492072657175657374206E6F74E0
:104E00002066756C66696C6C65642E0D0A004857E7
:104E10005F43433331305F30006D61696E000000E5
:104E200000000000FD3B0000A00000200100000089
:104E3000C800002001000000DC000020010000008C
:104E4000F0000020010000000090D00328000020A6
:104E500028000020600000206C000020640000207A
:104E60005C0000203800002000000000C13100007C
:104E700029320000013200004532000005320000F6
:104E800004080020F80700200008002000000000AF
:104E9000FC0700205F4C00000C480000F8470000B1
:104EA000200200209F4A00000000000000000000D7
:104EB000000000000E4E0000000000000000000096
:104EC00000000000A0000020A00000200000000062
:104ED000000000000F000000B4000020B40000201B
:104EE00000000000000000000F000000C8000020CB
:104EF000C800002000000000000000000F000000BB
:104F0000DC000020DC0000200000000000000000A9
:104F10000F000000F0000020F00000200000000062
:104F2000000000000F000000FFFFFFFFFFFFFFFF7A
:104F3000FFFFFFFFFFFFFFFFFFFFFFFFFFFFFFFF81
:104F40000000000000000000000000000000000061
:104F50000000000000000000000000000000000051
:104F60000000000000000000000000000000000041
:107FE0007FE97FE9F9F73CB97FE97FE9F9F790B9D3
:107FF0007FE97FE9FCF752B80000000000000000B4
:10C00000B8EE02202D450100F35802005D45010005
:10C010005D4501005D4501005D4501005D45010094
:10C020000000000000000000000000004942010084
:10C030005D45010000000000A54101002B580200F1
:10C04000ED440100ED440100ED440100ED44010028
:10C05000ED440100ED440100ED440100ED44010018
:10C06000ED440100ED440100ED440100ED44010008
:10C07000ED440100ED440100ED440100ED440100F8
:10C08000ED440100ED440100ED440100ED440100E8
:10C09000ED440100ED440100ED440100ED440100D8
:10C0A000ED440100ED440100ED440100ED440100C8
:10C0B000056001005B6D0200ED440100ED440100EC
:10C0C000ED440100ED440100ED440100ED440100A8
:10C0D000ED440100ED440100ED440100ED44010098
:10C0E000ED440100ED440100796D0200ED440100D2
:10C0F000ED440100ED440100ED440100ED44010078
:10C10000ED440100ED440100ED440100ED44010067
:10C11000ED440100ED440100ED440100ED44010057
:10C12000ED440100ED440100ED440100ED44010047
:10C13000ED440100ED440100ED440100ED44010037
:10C14000ED440100000000000000000000000000BD
:10C1500000000000000000000000000000000000DF
:10C1600000000000000000000000000000000000CF
:10C1700000000000000000000000000000000000BF
:10C1800000000000000000000000000000000000AF
:10C19000000000000000000000000000000000009F
:10C1A000000000000000000000000000000000008F
:10C1B000000000000000000000000000000000007F
:10C1C000000000000000000000000000000000006F
:10C1D000000000000000000000000000000000005F
:10C1E000000000000000000000000000000000004F
:10C1F000000000000000000000000000000000003F
:10C20000DEE61E284CBBCE8F025B00003C00000027
:10C21000D00602000100000000C0000000C00000C5
:10C22000FFFF02910000000000000000000000007D
:10C23000000000000000000000000000FFFFFFFF02
:10C2400081F0004102E000BF83F0004330B54FEAC7
:10C2500041044FEA430594EA050F08BF90EA020F34
:10C260001FBF54EA000C55EA020C7FEA645C7FEAC7
:10C27000655C00F0E2804FEA5454D4EB5555B8BFEA
:10C280006D420CDD2C4480EA020281EA030382EA5B
:10C29000000083EA010180EA020281EA0303362DED
:10C2A00088BF30BD11F0004F4FEA01314FF4801CC0
:10C2B0004CEA113102D0404261EB410113F0004FD2
:10C2C0004FEA03334CEA133302D0524263EB430389
:10C2D00094EA050F00F0A780A4F10104D5F1200E27
:10C2E0000DDB02FA0EFC22FA05F2801841F1000182
:10C2F00003FA0EF2801843FA05F359410EE0A5F156
:10C3000020050EF1200E012A03FA0EFC28BF4CF086
:10C31000020C43FA05F3C01851EBE37101F000453C
:10C3200007D54FF0000EDCF1000C7EEB00006EEB49
:10C330000101B1F5801F1BD3B1F5001F0CD34908D3
:10C340005FEA30004FEA3C0C04F101044FEA44522A
:10C3500012F5800F80F09A80BCF1004F08BF5FEAB1
:10C36000500C50F1000041EB045141EA050130BD91
:10C370005FEA4C0C404141EB0101013C28BFB1F5A3
:10C38000801FE9D291F0000F04BF01460020B1FAEE
:10C3900081F308BF2033A3F10B03B3F120020CDAC1
:10C3A0000C3208DD02F1140CC2F10C0201FA0CF09F
:10C3B00021FA02F10CE002F11402D8BFC2F1200C04
:10C3C00001FA02F120FA0CFCDCBF41EA0C019040BA
:10C3D000E41AA2BF01EB0451294330BD6FEA040403
:10C3E0001F3C1CDA0C340EDC04F11404C4F12002EE
:10C3F00020FA04F001FA02F340EA030021FA04F300
:10C4000045EA030130BDC4F10C04C4F1200220FA56
:10C4100002F001FA04F340EA0300294630BD21FA94
:10C4200004F0294630BD94F0000F83F4801306BF5A
:10C4300081F480110134013D4EE77FEA645C18BF4E
:10C440007FEA655C29D094EA050F08BF90EA020FE5
:10C4500005D054EA000C04BF1946104630BD91EADD
:10C46000030F1EBF0021002030BD5FEA545C05D1E0
:10C470004000494128BF41F0004130BD14F580041F
:10C480003CBF01F5801130BD01F0004545F0FE4193
:10C4900041F470014FF0000030BD7FEA645C1ABFC8
:10C4A000194610467FEA655C1CBF0B46024650EAFF
:10C4B000013406BF52EA033591EA030F41F400212B
:10C4C00030BD00BF90F0000F04BF0021704730B5B1
:10C4D0004FF4806404F132044FF000054FF0000186
:10C4E00050E700BF90F0000F04BF0021704730B547
:10C4F0004FF4806404F1320410F0004548BF40421C
:10C500004FF000013EE700BF42004FEAE2014FEA70
:10C5100031014FEA02701FBF12F07F4393F07F4F4B
:10C5200081F06051704732F07F4208BF704793F04E
:10C530007F4F04BF41F40021704730B54FF4607461
:10C5400001F0004521F000411CE700BF50EA010264
:10C5500008BF704730B54FF000050AE050EA01020D
:10C5600008BF704730B511F0004502D5404261EB7D
:10C5700041014FF4806404F132045FEA915C3FF4BE
:10C58000D8AE4FF003025FEADC0C18BF03325FEA5B
:10C59000DC0C18BF033202EBDC02C2F1200300FA0C
:10C5A00003FC20FA02F001FA03FE40EA0E0021FA31
:10C5B00002F11444BDE600BF53B94AB9002908BFCF
:10C5C00000281CBF4FF0FF314FF0FF3000F080B962
:10C5D000ADF1080C6DE904CE00F006F8DDF804E0DA
:10C5E000DDE9022304B070472DE9F04F099D0446B0
:10C5F0008846002B40F084808A42174643D9B2FA1D
:10C6000082F242B1C2F120009140974024FA00F03A
:10C61000944040EA01084FEA174C230C1FFA87FEAA
:10C62000B8FBFCF60CFB168106FB0EF043EA014357
:10C63000984207D9FB1806F1FF3102D2984200F266
:10C6400031810E46191AA3B2B1FBFCF00CFB10119C
:10C6500000FB0EFE43EA0144A64507D93C1900F150
:10C66000FF3302D2A64500F21A81184640EA06407E
:10C67000A4EB0E0400261DB1D4400023C5E90043FD
:10C680003146BDE8F08F02B9FFDEB2FA82F2002A2D
:10C6900052D1CB1B4FEA174E1FFA87F80126210C07
:10C6A000B3FBFEFC0EFB1C3008FB0CF941EA004119
:10C6B00089450BD979180CF1FF332CBF01200020DC
:10C6C000894502D9002800F0F0809C46A1EB0901C1
:10C6D000A3B2B1FBFEF00EFB101108FB00F843EA19
:10C6E0000144A04507D93C1900F1FF3302D2A0450F
:10C6F00000F2D2801846A4EB080440EA0C40BAE7E6
:10C700008B4209D9002D00F0BE800026C5E900014A
:10C7100030463146BDE8F08FB3FA83F6002E4DD196
:10C720008B42C0F0B380824240F2B0803046002D90
:10C73000A6D0C5E90048A3E79740C2F1200301FA5B
:10C7400002F04FEA174ED94024FA03F31FFA87F894
:10C7500094400343B1FBFEF01E0C0EFB101100FBD6
:10C7600008FC46EA01418C450ED9791800F1FF36E4
:10C770002CBF4FF001094FF000098C4503D9B9F1E6
:10C78000000F00F096803046A1EB0C019BB2B1FB8C
:10C79000FEF60EFB161106FB08FC43EA01418C4530
:10C7A00007D9791806F1FF3302D28C4500F2888050
:10C7B0001E46A1EB0C0346EA004670E7C6F12007CF
:10C7C00003FA06F402FA06FC01FA06FEFA4020FA21
:10C7D00007F8F94000FA06F3224348EA0E044FEA4C
:10C7E00012484FEA144E1FFA82F9B1FBF8FA08FB1F
:10C7F0001A110AFB09F04EEA014E70450ED912EBF0
:10C800000E0E0AF1FF312CBF4FF0010B4FF0000B61
:10C81000704502D9BBF1000F4ED08A46AEEB000E38
:10C82000A4B2BEFBF8F008FB10EE00FB09F944EAE5
:10C830000E4EF14507D912EB0E0E00F1FF3101D279
:10C84000F14540D8084640EA0A40AEEB090EA0FB8D
:10C850000C89CE4541464C4602D306D1434504D20D
:10C860000138B8EB0C0169EB02047DB35A1A6EEB88
:10C87000040EF2400EFA07F72EFA06F300261743CD
:10C88000C5E90073FCE62E462846F9E6841A61EBFA
:10C890000301012088464AE702383C442BE702386E
:10C8A0003C44E3E6023E3B44CCE6ACF1020C3944A6
:10C8B0000CE70238394467E7AAF1020A9644ADE76B
:10C8C000023E394475E702389644BCE72E46D7E667
:10C8D000704700BF70B54FF0FF0C4CF4E06C1CEAE1
:10C8E00011541DBF1CEA135594EA0C0F95EA0C0F66
:10C8F00000F0DEF82C4481EA030621EA4C5123EAD9
:10C900004C5350EA013518BF52EA033541F4801107
:10C9100043F4801338D0A0FB02CE4FF00005E1FBBA
:10C9200002E506F00042E0FB03E54FF00006E1FB04
:10C9300003569CF0000F18BF4EF0010EA4F1FF0447
:10C94000B6F5007F64F5407404D25FEA4E0E6D4187
:10C9500046EB060642EAC62141EA55514FEAC52098
:10C9600040EA5E504FEACE2EB4F1FD0C88BFBCF514
:10C97000E06F1ED8BEF1004F08BF5FEA500E50F1C5
:10C98000000041EB045170BD06F0004646EA01018B
:10C9900040EA020081EA0301B4EB5C04C2BFD4EBBD
:10C9A0000C0541EA045170BD41F480114FF0000EB6
:10C9B000013C00F3AB8014F1360FDEBF002001F024
:10C9C000004170BDC4F10004203C35DA0C341BDC9E
:10C9D00004F11404C4F1200500FA05F320FA04F070
:10C9E00001FA05F240EA020001F0004221F00041A4
:10C9F00010EBD37021FA04F642EB06015EEA430E17
:10CA000008BF20EAD37070BDC4F10C04C4F1200546
:10CA100000FA04F320FA05F001FA04F240EA0200F9
:10CA200001F0004110EBD37041F100015EEA430ECA
:10CA300008BF20EAD37070BDC4F1200500FA05F2EA
:10CA40004EEA020E20FA04F301FA05F243EA020369
:10CA500021FA04F001F0004121FA04F220EA020078
:10CA600000EBD3705EEA430E08BF20EAD37070BDBE
:10CA700094F0000F0FD101F00046400041EB01019E
:10CA800011F4801F08BF013CF7D041EA060195F080
:10CA9000000F18BF704703F00046520043EB03033A
:10CAA00013F4801F08BF013DF7D043EA0603704727
:10CAB00094EA0C0F0CEA135518BF95EA0C0F0CD032
:10CAC00050EA410618BF52EA4306D1D181EA030178
:10CAD00001F000414FF0000070BD50EA410606BF72
:10CAE0001046194652EA430619D094EA0C0F02D1B7
:10CAF00050EA013613D195EA0C0F05D152EA0336FC
:10CB00001CBF104619460AD181EA030101F0004119
:10CB100041F0FE4141F470014FF0000070BD41F062
:10CB2000FE4141F4780170BD70B54FF0FF0C4CF43C
:10CB3000E06C1CEA11541DBF1CEA135594EA0C0F5B
:10CB400095EA0C0F00F0A7F8A4EB050481EA030EA8
