:020000040800F2
:1000000000000520D5440008A13F0008A33F0008D8
:10001000A53F0008A73F0008A93F00080000000016
:100020000000000000000000000000009133000804
:10003000AB3F000800000000C13300082534000871
:1000400025450008254500082545000825450008E8
:1000500025450008254500082545000825450008D8
:1000600025450008254500082545000825450008C8
:1000700025450008254500082545000825450008B8
:1000800025450008254500082545000825450008A8
:100090002545000825450008254500082545000898
:1000A00025450008AD3F0008254500082545000806
:1000B0002545000825450008254500082545000878
:1000C000254500082545000825450008ED3F0008A6
:1000D000FD3F000825450008BD3F0008CD3F000852
:1000E0002545000825450008254500082545000848
:1000F0002545000825450008254500082545000838
:100100002545000825450008254500080D40000844
:1001100025450008DD3F0008254500082545000865
:100120002545000825450008254500082545000807
:1001300025450008254500082545000825450008F7
:1001400025450008254500082545000825450008E7
:1001500025450008254500082545000825450008D7
:1001600025450008254500082545000825450008C7
:100170002545000825450008254500080000000029
:1001800025450008254500082545000825450008A7
:100190002545000825450008254500082545000897
:1001A000254500082545000800000000000000006B
:1001B00010B5054C237833B9044B13B10448AFF3A1
:1001C00000800123237010BD6800002000000000A3
:1001D000D44E000808B5034B1BB103490348AFF3E5
:1001E000008008BD000000006C000020D44E000814
:1001F00053B94AB9002908BF00281CBF4FF0FF318E
:100200004FF0FF3000F072B9ADF1080C6DE904CE8B
:1002100000F006F8DDF804E0DDE9022304B07047E1
:100220002DE9F047089E04468846002B4BD18A42B0
:10023000154667D9B2FA82F24AB1C2F1200701FA33
:1002400002F320FA07F7954047EA030894404FEA83
:10025000154E230CB8FBFEF71FFA85FC0EFB178822
:1002600043EA084307FB0CF1994209D9EB1807F15F
:10027000FF3080F01B81994240F21881023F2B44ED
:100280005B1AA4B2B3FBFEF00EFB103344EA034446
:1002900000FB0CFCA44509D92C1900F1FF3380F0B8
:1002A0000781A44540F2048102382C4440EA07400B
:1002B000A4EB0C0400271EB1D4400023C6E9004380
:1002C0003946BDE8F0878B4209D9002E00F0EB805B
:1002D0000027C6E9000138463946BDE8F087B3FA81
:1002E00083F7002F47D18B4202D3824200F2FA807B
:1002F000841A61EB030301209846002EE0D0C6E982
:100300000048DDE702B9FFDEB2FA82F2002A40F0CF
:100310008F80491B4FEA154E1FFA85F80127B1FB64
:10032000FEFC230C0EFB1C1143EA014308FB0CF1FD
:10033000994207D9EB180CF1FF3002D2994200F232
:10034000CD808446591AA3B2B1FBFEF00EFB101407
:1003500043EA044408FB00F8A04507D92C1900F132
:10036000FF3302D2A04500F2B6801846A4EB080481
:1003700040EA0C409FE7C7F1200CBB4022FA0CFE7C
:100380004EEA030E01FA07F420FA0CF521FA0CF3F9
:100390004FEA1E482543B3FBF8F92C0C08FB193330
:1003A0001FFA8EFA44EA034309FB0AF49C4202FA5C
:1003B00007F200FA07F10BD91EEB030309F1FF3036
:1003C00080F087809C4240F28480A9F10209734446
:1003D0001B1BADB2B3FBF8F008FB103345EA034436
:1003E00000FB0AFAA24508D91EEB040400F1FF3312
:1003F0006BD2A24569D90238744440EA0940A0FB97
:100400000289A4EB0A044C45C2464B4654D351D052
:10041000002E69D0B1EB0A0564EB030404FA0CFC6E
:10042000FD40FC404CEA0505C6E90054002747E7BB
:10043000C2F1200320FA03F7954001FA02F021FAF5
:1004400003F34FEA154E3843010CB3FBFEF71FFAD6
:1004500085F80EFB173341EA034107FB08F38B4293
:1004600004FA02F407D9691807F1FF3C2FD28B4236
:100470002DD9023F2944CB1A81B2B3FBFEF00EFB0B
:10048000103341EA034100FB08F38B4207D9691896
:1004900000F1FF3C17D28B4215D902382944C91A02
:1004A00040EA07473BE73746304609E70746E7E6B5
:1004B0001846FBE64145ABD2B8EB020A69EB0E02E7
:1004C00001381346A4E76046E9E7184695E7674612
:1004D000D1E781467CE702382C4447E7ACF1020CB7
:1004E0002B442FE7384608E73746E9E6704700BF58
:1004F00038B5104C204604F0ABF80F4D284604F0F8
:10050000A7F80E4804F0A4F8284604F0A1F8204605
:1005100004F09EF80A4C4FF40041204602F053FDCF
:100520004FF4FA6001F04EFC4FF40041204602F017
:100530004AFD38BD204F0008244F0008504F0008E6
:10054000000C004838B501F01FFC03F037FA00F04A
:1005500056F8FFF7CDFF1E4803F08CFD03F028FF8F
:10056000C0B280B31B4804F073F8002003F0A0F879
:10057000194C4FF48041204602F025FD4FF47A706B
:1005800001F020FC4FF48041204602F01CFD134D89
:100590000121284602F017FD4FF47A7001F012FC99
:1005A0000121284602F00FFD4FF40041204602F0E1
:1005B0000AFD4FF47A7001F005FC4FF4004120462B
:1005C00002F001FDD1E7064804F042F8CDE700BF94
:1005D00020040020F04E0008000C004800040048F1
:1005E000084F000808B50268034B9A4200D008BDC6
:1005F00001F0DAFBFBE700BF002C0140704708B5B3
:1006000002F0D6FF08BD002859D010B5044690F876
:100610004130002B43D0242384F8413022681368F2
:1006200023F0010313606368226823F07063136191
:100630002268936823F400439360E368012B33D06E
:10064000A368226843F404439360E368022B31D02B
:100650002268536843F0007343F4004353602268F8
:10066000D36823F40043D360236962691343A1690B
:10067000226843EA0123D360E369216A22680B43BD
:1006800013602268136843F0010313600020606464
:10069000202384F84130206384F8420010BD80F8A4
:1006A000403003F007FAB6E7A368226843F400433A
:1006B0009360CAE723684FF400625A60C8E70120DC
:1006C000704790F84130DBB2202B24D190F84030B5
:1006D000012B22D0012380F84030242380F84130C0
:1006E0000268136823F0010313600268136823F49F
:1006F000805313600268136819431160026813681D
:1007000043F001031360202380F84130002380F878
:10071000403018467047022070470220704790F81A
:100720004130DBB2202B22D190F84030012B20D079
:10073000012380F84030242380F841300268136898
:1007400023F0010313600268136823F4706343EA23
:10075000012111600268136843F001031360202334
:1007600080F84130002380F840301846704702205E
:10077000704702207047F8B505460F4616461C46DE
:100780002B689B6837EA03030CBF01230023B342A5
:1007900037D0B4F1FF3FF3D001F00EFB069BC01A37
:1007A000A04201D2002CEBD12A68536823F0E00369
:1007B00053606B68B3F5827F0BD0AB6AB3F5005F13
:1007C00014D0012385F85D30002385F85C300320C8
:1007D00018E0AB68B3F5004F02D0B3F5806FECD1F1
:1007E0002A68136823F040031360E6E72A68136859
:1007F00023F4005313602A68136843F40053136012
:10080000DFE70020F8BDF8B507460C4615461E4642
:1008100002E0B6F1FF3F0BD13A6893682340AB4248
:100820003BD0B4F5C06FF4D1002DF2D1137BF0E7CB
:1008300001F0C2FA069BC01AB04201D2002EEBD1E1
:100840003A68536823F0E00353607B68B3F5827F16
:100850000BD0BB6AB3F5005F14D0012387F85D307D
:10086000002387F85C30032018E0BB68B3F5004F25
:1008700002D0B3F5806FECD13A68136823F04003DF
:100880001360E6E73A68136823F4005313603A688C
:10089000136843F400531360DFE70020F8BD70B520
:1008A00082B004460D46164600920B4600224FF4D5
:1008B000C051FFF7A8FFB8B900962B46002280214F
:1008C0002046FFF758FFB8B900962B4600224FF498
:1008D000C0612046FFF797FF034650B1236E43F0F7
:1008E00020032366032304E0236E43F020032366E2
:1008F0000323184602B070BD236E43F02003236625
:100900000323F6E770B582B004460D4616464368E9
:10091000B3F5827F0FD000962B460022802120461F
:10092000FFF729FF034698B96268B2F5827F15D0B8
:10093000184602B070BD8368B3F5004F02D0B3F51E
:10094000806FE8D12268136823F040031360E2E768
:10095000236E43F0200323660323E9E7A268B2F580
:10096000004F02D0B2F5806FE2D100962B460022F4
:100970004FF4C0612046FFF746FF03460028D7D05A
:10098000236E43F0200323660323D1E7002853D0CE
:1009900010B504460023836290F85D30002B40D0F0
:1009A000022384F85D302268136823F0400313604B
:1009B000E368B3F5E06F39D90022B3F5706F04D066
:1009C000B3F5E06F01D00021A162216B21B9B3F52D
:1009D000E06F2ED9022323636368A1680B4321696A
:1009E0000B4361690B43A16901F400710B43E16999
:1009F0000B43216A0B43A06A216803430B60638B9E
:100A000003F00403616A0B43616B0B43E1680B4322
:100A1000216813434B6000202066012384F85D3079
:100A200010BD80F85C3003F0CFF9B9E74FF4805285
:100A3000C3E701232363CFE7012070472DE9F0418D
:100A400082B090F85C40012C00F0E4801E46154610
:100A500088460446012380F85C3001F0ADF9074672
:100A600094F85D20D2B2012A09D00220012384F833
:100A70005D30002384F85C3002B0BDE8F081B8F14D
:100A8000000F00F0B980002D00F0B880032384F837
:100A90005D3000232366C4F83880A587E58723648A
:100AA000A4F84430A4F846302365E364A368B3F5A2
:100AB000004F1CD023681A6812F0400F03D11A6847
:100AC00042F040021A60E368B3F5E06F33D963681F
:100AD0000BB1012D1BD1A26B23681288DA60A36BC6
:100AE0000233A363E38F013B9BB2E3870FE02268ED
:100AF000136843F480431360DCE701F05DF9C01B29
:100B0000B04202D3B6F1FF3F7AD1002E7AD0E38F04
:100B10009BB2002B5BD023689A6812F0020FECD0D6
:100B2000A26B1288DA60A36B0233A363E38F013BED
:100B30009BB2E387EBE763680BB1012D30D1E38F04
:100B40009BB2012B0BD9A26B23681288DA60A36BCE
:100B50000233A363E38F023B9BB2E38720E0A26BE7
:100B6000236812781A73A36B0133A363E38F013BED
:100B70009BB2E38714E0A36B1B781373A36B013361
:100B8000A363E38F013B9BB2E38709E001F014F913
:100B9000C01BB04202D3B6F1FF3F35D1002E35D095
:100BA000E38F9BB29BB12268936813F0020FEDD0E4
:100BB000E38F9BB2012BDED9A36B1B88D360A36BA1
:100BC0000233A363E38F023B9BB2E387E8E73A4635
:100BD00031462046FFF763FE08B120232366A36851
:100BE00033B901932368DA6801929B680193019BF2
:100BF000236E6BB9002039E7012037E7012035E784
:100C0000032033E7032031E703202FE703202DE7FC
:100C100001202BE702202FE72DE9F843DDF82080A3
:100C200090F85C40012C00F05C811D4617460E4692
:100C30000446012380F85C3001F0BEF8814694F848
:100C40005D00C0B26368012814D0B3F5827F09D07B
:100C50000223012284F85D20002284F85C201846DB
:100C6000BDE8F883A368002B40F02D81042801D053
:100C70000223EEE7002E00F02881002F00F02781EC
:100C8000002D00F0268194F85D30DBB2042B02D0F9
:100C9000052384F85D30002323662764A4F84650BA
:100CA000A4F84450A663E587A587E3642365E36859
:100CB000B3F5E06F01D8012D22D92268536823F4DF
:100CC0008053536023681A6812F0400F03D11A68EA
:100CD00042F040021A60E368B3F5E06F56D96368EA
:100CE0000BB1012D0AD1A26B23681288DA60A36BC5
:100CF0000233A363E38F013B9BB2E387012525E029
:100D00002268536843F480535360DBE723689A6892
:100D100012F0010F10D0B4F8462092B262B1DA6836
:100D2000236C1A80236C02332364B4F84630013BF1
:100D30009BB2A4F84630012501F03EF8A0EB090073
:100D4000404503D3B8F1FF3F40F0C580E38F9BB22D
:100D50002BB9B4F846309BB2002B00F0A780236873
:100D60009A6812F0020FD1D0E28F92B2002ACDD051
:100D7000002DCBD0A26B1288DA60A36B0233A36381
:100D8000E38F013B9BB2E3870025BFE763680BB1AC
:100D9000012D0ED1E38F9BB2012B0CD9A26B2368DE
:100DA0001288DA60A36B0233A363E38F023B9BB22A
:100DB000E387012547E0A26B236812781A73A36BBF
:100DC0000133A363E38F013B9BB2E387F1E7E28F3B
:100DD00092B2012A0BD9A26B1288DA60A36B02339C
:100DE000A363E38F023B9BB2E38700253CE0A26B49
:100DF00012781A73A36B0133A363E38F013B9BB299
:100E0000E387002530E02268536843F48053536041
:100E100001250CE0226C1B7B1370236C01332364CF
:100E2000B4F84630013B9BB2A4F84630012500F0EF
:100E3000C3FFA0EB0900404502D3B8F1FF3F4CD1FE
:100E4000B8F1000F4BD0E38F9BB21BB9B4F846301A
:100E50009BB25BB323689A6812F0020F04D0E28F52
:100E600092B20AB1002DB2D123689A6812F0010F34
:100E7000DDD0B4F8462092B2002AD8D0B4F846208B
:100E800092B2012AC6D9DA68236C1A80236C023325
:100E90002364B4F84630023B9BB2A4F84630B4F861
:100EA00046309BB2012BAED90125C0E74A464146E8
:100EB0002046FFF7F4FC034600283FF4CAAE202387
:100EC00023660123C5E60223C3E60123C1E601230D
:100ED000BFE60123BDE60323BBE60323B9E60323F4
:100EE000B7E60223BBE62DE9F04182B004460F4687
:100EF00090461D464368B3F5827F19D094F85C3064
:100F0000012B00F0B880012384F85C3000F054FF1E
:100F1000064694F85D30DBB2012B15D00220012388
:100F200084F85D30002384F85C3002B0BDE8F081C5
:100F30008368002BE2D1042380F85D3000951346CE
:100F40000A46FFF769FEF0E7002F00F08680B8F14F
:100F5000000F00F08480042384F85D3000232366B2
:100F60002764A4F84480A4F84680A363A387E3879A
:100F7000E3642365E368B3F5E06F16D9226853682C
:100F800023F480535360A368B3F5004F13D0236854
:100F90001A6812F0400F03D11A6842F040021A603A
:100FA000E368B3F5E06F16D935E02268536843F47F
:100FB00080535360E7E72268136823F4804313608B
:100FC000E5E700F0F9FE801BA84202D3B5F1FF3F30
:100FD00047D1002D47D0B4F846309BB2002B30D01B
:100FE00023689A6812F0010FEBD0226C1B7B137000
:100FF000236C01332364B4F84630013B9BB2A4F860
:101000004630E8E700F0D8FE801BA84202D3B5F1D5
:10101000FF3F2AD15DB3B4F846309BB28BB1236851
:101020009A6812F0010FEDD0DA68236C1A80236CF5
:1010300002332364B4F84630013B9BB2A4F8463037
:10104000E9E7324629462046FFF75CFC08B1202339
:101050002366236E6BB9002061E701205FE7012062
:101060005DE703205BE7032059E7032057E70320F0
:1010700055E7012053E7022057E7704730B585B0A8
:101080000446026850689368C3F3801149B913F0AD
:10109000010F06D010F0400F03D0E36C20469847B4
:1010A00008E013F0020F07D010F0800F04D0236D7A
:1010B0002046984705B030BDC3F340151DB911B99E
:1010C00013F4807FF6D010F0200FF3D079B194F8AC
:1010D0005D10C9B2032953D0216E41F0040121668D
:1010E00000210091D168009191680091009965B14B
:1010F000216E41F001012166002102919168029167
:10110000116821F040011160029A13F4807F09D028
:10111000236E43F0080323660023039323689B6830
:101120000393039B236E002BC4D02268536823F0E3
:10113000E0035360012384F85D3010F0030F27D0E3
:101140002268536823F003035360A36D4BB1124A26
:101150009A63A06D01F03BFF18B1236E43F040038A
:101160002366636D002BA5D00B4A9A63606D01F076
:101170002EFF00289ED0236E43F04003236699E79C
:1011800000230193D368019393680193019B91E736
:101190002046FFF772FF8DE79D11000808B5806AB1
:1011A0000023A0F84630C387FFF767FF08BD40B3B0
:1011B00038B5044603684CF6CC421A60036845F221
:1011C00055521A60036842685A60036882689A60E0
:1011D00000F0F2FD05462368DA6832B100F0ECFD5C
:1011E000401B3028F7D9032038BD1969E2689142C5
:1011F00002D01A610020F7E74AF6AA221A600020FE
:10120000F2E7012070470268136823F490731360BB
:101210000268936823F001039360202380F8723002
:10122000002303667047704708B501680A6822F01A
:1012300040020A60202280F8712000224266FFF7F7
:10124000F2FF08BD7047000038B504460268D36954
:101250001168906813F00F050CD113F0200F09D01E
:1012600011F0200F06D0236E002B00F09380204653
:1012700098478FE0002D6FD010F0010502D111F4D6
:10128000907F69D013F0010F07D011F4807F04D054
:1012900001201062626F0243626713F0020F07D0F1
:1012A00035B1226802201062626F42F00402626768
:1012B00013F0040F07D035B1226804201062626F6A
:1012C00042F00202626713F0080F09D011F0200FFC
:1012D00000D12DB1226808201062626F024362675C
:1012E000626F002A56D013F0200F06D011F0200FA5
:1012F00003D0236E0BB120469847636F13F0080F9D
:1013000004D123689B6813F0400F1FD02046FFF7DD
:101310007AFF23689A6812F0400F13D09A6822F07F
:1013200040029A60E36E4BB11D4A9A63E06E01F091
:101330004EFE78B3E06E836B98472BE02046FFF7B4
:1013400081FF27E02046FFF77DFF23E02046FFF7DF
:1013500079FF002363671DE013F4801F02D010F4AF
:10136000800F0AD113F0800F0ED011F0800F0BD038
:10137000636E7BB1204698470CE04FF480131362F4
:10138000204600F093FB05E013F0400F02D011F06F
:10139000400F00D138BD2046FFF746FFFAE700BFF7
:1013A000A513000808B5806A0023A0F85A30A0F8F9
:1013B0005230FFF747FF08BD2DE9F04804460168A9
:1013C00083680269134342691343C269134308687F
:1013D000A24A024013430B602268536823F440532F
:1013E000E1680B435360A16922689D4B9A4201D08A
:1013F000236A1943936823F430630B439360236893
:10140000984A934227D0984A934238D0974A9342B9
:101410004ED0974A934261D0964A934274D0904AF4
:10142000934200F08A8010258D4A934200F0AA80F2
:10143000E369B3F5004F00F03581082D00F2BF815C
:10144000DFE815F07F0195019F01BD01AA01BD01F3
:10145000BD01BD01B40102F55842D2F8882002F066
:101460000302032A09D8DFE802F0020481060125FD
:10147000DAE70425D8E70825D6E71025D4E702F5F2
:10148000E632D2F8882002F00C020C2A0ED8DFE8EF
:1014900002F0070D0D0D090D0D0D6F0D0D0D0B005B
:1014A0000025C1E70425BFE70825BDE71025BBE7F8
:1014B00002F5E432D2F8882002F03002102A09D076
:1014C00005D9202A56D0302A06D10825ACE71AB90A
:1014D0000025A9E70425A7E71025A5E702F5E232D4
:1014E000D2F8882002F0C002402A09D005D9802A0B
:1014F00042D0C02A06D1082596E71AB9002593E7FD
:10150000042591E710258FE702F5E032D2F8882014
:1015100002F44072B2F5807F0BD007D9B2F5007F9C
:101520002CD0B2F5407F06D108257DE71AB90025F9
:101530007AE7042578E7102576E702F5C832D2F875
:10154000882002F44062B2F5806F0BD007D9B2F563
:10155000006F15D0B2F5406F06D1082564E71AB9BF
:10156000002561E704255FE710255DE702255BE7BD
:10157000022559E7022557E7022555E7022553E7DB
:10158000022551E7082D00F21D81DFE815F00C005F
:101590001B0114001B0111001B011B011B01090091
:1015A0004FF4004008E001F05BF828B90020D9E0D2
:1015B00000F060FCF9E73048626802EB42038342C6
:1015C00000F20281B0EB023F00F20081082D66D8E4
:1015D000DFE805F00565206530656565580001F0B8
:1015E0003FF80025070E0602626850082B4616EBEE
:1015F000000B47F1000C58466146FEF7F9FD034623
:101600002846A3F540711D4A914200F2E18022680C
:10161000D360A7E0560800252B46DFF864B04FF0F2
:10162000000C1BEB06004CF10001FEF7E1FD034648
:101630002846E6E700F01EFC0025070E0602626859
:1016400050082B4616EB000B47F1000C584661463C
:10165000FEF7CEFD03462846D3E700BFF369FFEF50
:101660000080004000380140004400400048004035
:10167000004C0040005000400024F400FFFC0F002C
:10168000000024F45008002700252B4610F5000028
:1016900047F10001FEF7ACFD03462846B1E7012003
:1016A0000023AEE7082D49D8DFE805F0051E2948DC
:1016B000344848483F0000F0D3FF6268530803EB0A
:1016C0004003B3FBF2F39BB20020A3F110014FF6ED
:1016D000EF7291427ED89AB222F00F02C3F3420316
:1016E00013432268D3603DE000F0CCFF62685308EA
:1016F00003EB4003B3FBF2F39BB20020E5E7626823
:10170000530803F1F47303F59043B3FBF2F39BB278
:101710000020DAE700F0AEFB6268530803EB4003F9
:10172000B3FBF2F39BB20020CFE76268530803F5E6
:101730008033B3FBF2F39BB20020C6E70120002305
:10174000C3E700F08DFF636800EB5302B2FBF3F2D6
:1017500092B20020A2F110014FF6EF7399423BD8EC
:101760002368DA60002222666266BDE8F08800F035
:1017700089FF636800EB5302B2FBF3F292B20020E0
:10178000E8E763685A0802F5740202F51052B2FBEA
:10179000F3F292B20020DDE700F06CFB636800EB2F
:1017A0005302B2FBF3F292B20020D3E763685A0807
:1017B00002F50042B2FBF3F292B20020CAE7012028
:1017C0000022C7E70120CDE70120CBE70120C9E7D0
:1017D0000120C7E70120C5E70120C3E7436A13F0F2
:1017E000010F06D00268536823F40033816A0B436B
:1017F0005360436A13F0020F06D00268536823F463
:101800008033C16A0B435360436A13F0040F06D060
:101810000268536823F48023016B0B435360436ACF
:1018200013F0080F06D00268536823F40043416B9D
:101830000B435360436A13F0100F06D0026893689D
:1018400023F48053816B0B439360436A13F0200FA2
:1018500006D00268936823F40053C16B0B43936076
:10186000436A13F0400F0AD00268536823F48013D0
:10187000016C0B435360036CB3F5801F0BD0436ABC
:1018800013F0800F06D00268536823F40023816CA4
:101890000B43536070470268536823F4C003416CE4
:1018A0000B435360EBE72DE9F04105460F46164622
:1018B0009846069C2B68DB6937EA03030CBF0123BB
:1018C0000023B3421DD1B4F1FF3FF3D02CB100F09F
:1018D00073FAA0EB0800A042ECD92A68136823F43D
:1018E000D07313602A68936823F001039360202368
:1018F00085F8713085F87230002385F87030032048
:1019000000E00020BDE8F0812DE9F04182B01E46E4
:1019100090F87130DBB2202B4ED104460D46904634
:1019200000294ED0002A4ED090F87030012B4CD0B8
:10193000012380F8703000234367212380F8713041
:1019400000F03AFA0746A4F85080A4F8528009E063
:1019500023682A781A850135B4F85230013B9BB2CE
:10196000A4F85230B4F852309BB2ABB100963B466B
:10197000002280212046FFF796FF40BBA368B3F505
:10198000805FE5D12369002BE2D1226835F8023B64
:10199000C3F308031385DFE700963B46002240218E
:1019A0002046FFF780FF034698B9202284F8712073
:1019B000002284F8702000E00223184602B0BDE83F
:1019C000F0810123F9E70123F7E70223F5E7032379
:1019D000F3E70323F1E730B583B004460023436700
:1019E00000F0EAF9054623681B6813F0080F0ED1D2
:1019F00023681B6813F0040F17D1202384F871307B
:101A000084F87230002084F8700003B030BD6FF0AD
:101A10007E430093034600224FF400112046FFF757
:101A200042FF0028E4D00320EFE76FF07E430093ED
:101A30002B4600224FF480012046FFF734FF002898
:101A4000DBD00320E1E778B310B5044690F871309D
:101A50000BB3242384F871302268136823F0010348
:101A600013602046FFF7A8FC012813D0636ABBB9B6
:101A70002268536823F4904353602268936823F0EC
:101A80002A0393602268136843F001031360204621
:101A9000FFF7A1FF10BD80F8703002F0D1F8D8E751
:101AA0002046FFF79BFEE3E7012070477047704731
:101AB0000268D36843F00103D36002689168084B61
:101AC0000B40062B09D09168054B0B40B3F5803FC6
:101AD00003D0136843F0010313600020704700BF78
:101AE00007000100704770477047704710B5044603
:101AF00003681A6912F0020F11D0DA6812F0020FAF
:101B00000DD06FF002021A610123037703689B690D
:101B100013F0030F79D0FFF7E6FF00232377236844
:101B20001A6912F0040F12D0DA6812F0040F0ED006
:101B30006FF004021A610223237723689B6913F470
:101B4000407F68D02046FFF7CEFF0023237723682D
:101B50001A6912F0080F12D0DA6812F0080F0ED0CE
:101B60006FF008021A61042323772368DB6913F0FE
:101B7000030F57D02046FFF7B6FF002323772368D3
:101B80001A6912F0100F12D0DA6812F0100F0ED08E
:101B90006FF010021A61082323772368DB6913F4BE
:101BA000407F46D02046FFF79EFF0023237723681F
:101BB0001A6912F0010F03D0DA6812F0010F3FD159
:101BC00023681A6912F0800F03D0DA6812F0800FD0
:101BD0003DD123681A6912F4807F03D0DA6812F0CD
:101BE000800F3BD123681A6912F0400F03D0DA68E6
:101BF00012F0400F39D123681A6912F0200F03D078
:101C0000DA6812F0200F37D110BDFFF76BFF2046C6
:101C1000FFF76AFF81E72046FFF764FF2046FFF7E2
:101C200063FF92E72046FFF75DFF2046FFF75CFF6A
:101C3000A3E72046FFF756FF2046FFF755FFB4E71E
:101C40006FF001021A612046FEF7CCFCB8E76FF096
:101C500080021A61204600F095F8BAE76FF48072AE
:101C60001A61204600F08FF8BCE76FF040021A615D
:101C70002046FFF73AFFBEE76FF020021A612046C8
:101C800000F07FF8C0E700000368304A904212D0AD
:101C9000B0F1804F0FD0A2F5943290420BD002F5F4
:101CA0008062904207D002F58062904203D002F534
:101CB0009432904203D123F070034A681343234ABD
:101CC00090421ED0B0F1804F1BD0A2F594329042CA
:101CD00017D002F58062904213D002F580629042E4
:101CE0000FD002F5943290420BD002F54062904240
:101CF00007D002F58062904203D002F580629042E4
:101D000003D123F44073CA68134323F080034A6964
:101D1000134303608B68C3620B6883620B4B98426A
:101D20000FD003F5006398420BD003F5406398424F
:101D300007D003F58063984203D003F5806398428F
:101D400001D10B690363012343617047002C0140FB
:101D5000A8B110B5044690F83D305BB1022384F879
:101D60003D30211D2068FFF78FFF012384F83D30AF
:101D7000002010BD80F83C30FFF799FEEEE701200F
:101D8000704770477047704710B5032001F0A0F905
:101D9000002002F0C9F810B10124204610BD04460D
:101DA00001F068FEF9E70000024A1368013313608E
:101DB000704700BF80090020014B1868704700BFC2
:101DC0008009002038B50446FFF7F6FF0546B4F158
:101DD000FF3F00D00134FFF7EFFF401BA042FAD3D2
:101DE00038BD000030B583B00546204B9B6D13F025
:101DF000805F0BD001F014F9B0F5007F17D0802D73
:101E00001FD82DD0702D2DD000211BE0174CA36DB5
:101E100043F08053A365A36D03F080530193019BAE
:101E200001F0FEF8A36D23F08053A365E4E7802D55
:101E300003D9A02D03D9022104E0002102E00121F1
:101E400000E003210A4A136823F007030B431360E1
:101E5000136803F007038B4206D0012003B030BDA6
:101E60000221EFE70121EDE70020F7E70010024033
:101E700000200240314A9368D26802F0030213F056
:101E80000C030AD00C2B06D0042B1FD0082B20D01B
:101E90000020014610E0012AF6D1284A126812F00B
:101EA000080F0CD1254AD2F89420C2F3032224490A
:101EB00051F8221043B100200C2B0DD070471F4A5F
:101EC0001268C2F30312F2E70846F5E71D48002145
:101ED000F2E71D480021EFE7184BDA6802F0030231
:101EE000DB68C3F302130133022A0AD0032A1AD093
:101EF000B1FBF3F3114AD068C0F3062000FB03F0F6
:101F000008E01048B0FBF3F30C4AD068C0F3062099
:101F100000FB03F0094BDB68C3F3416301335B0053
:101F2000B0FBF3F0CAE70848B0FBF3F3034AD0680C
:101F3000C0F3062000FB03F0ECE700BF00100240F6
:101F40007C4F00080024F40000127A00002800F002
:101F5000C182F0B583B00446AC4B9D6805F00C051A
:101F6000DE6806F00306036813F0100F5DD0E5B1DC
:101F70000C2D18D0A369002B00F0B780A34A13687A
:101F800043F001031360FFF717FF07469F4B1B68E1
:101F900013F0020F40F09680FFF70EFFC01B0228DF
:101FA000F4D90323A2E2012EE4D1984B1B6813F06D
:101FB000020F03D0A369002B00F08F82206A934B9D
:101FC0001B6813F0080F5DD0904B1B6803F0F00303
:101FD00098425ED9FFF706FF002840F080828B4BC5
:101FE0001A6842F008021A601A6822F0F002216AA8
:101FF0000A431A605A6822F47F42E16942EA0122E8
:102000005A60FFF737FF814B9B68C3F30313804A85
:10201000D35C03F01F03D8407E4B1860002001F012
:1020200083FF0346002840F06182236813F0010F0C
:102030007AD0082D6FD00C2D6BD06368B3F5803F3C
:1020400000F09180B3F5A02F00F093806F4B1A68D9
:1020500022F480321A601A6822F480221A606368BF
:10206000002B00F09380FFF7A7FE0746674B1B6825
:1020700013F4003F58D1FFF79FFEC01B6428F5D929
:10208000032333E2614BD3F894301B0903F0F003D0
:102090009EE75E4B1A6842F008021A601A6822F046
:1020A000F002216A0A431A605A6822F47F42E16909
:1020B00042EA01225A60206AFFF794FE0028A0D06D
:1020C000012313E2514B1A6842F008021A601A68A1
:1020D00022F0F002216A0A431A605A6822F47F4211
:1020E000E16942EA01225A609FE7484A136823F0F7
:1020F00001031360FFF760FE0746444B1B6813F0B3
:10210000020F92D0FFF758FEC01B0228F5D9032317
:10211000ECE1032E91D13D4B1B6813F4003F03D03B
:102120006368002B00F0DD81236813F0020F4FD0AD
:10213000042D3CD00C2D38D0E368002B75D0334AE9
:10214000136843F480731360FFF736FE06462F4B87
:102150001B6813F4806F5FD1FFF72EFE801B0228EF
:10216000F5D90323C2E1294A136843F4803313608D
:1021700075E703F18043A3F53C331A6842F48022EB
:102180001A601A6842F480321A6068E7FFF714FE9A
:1021900007461E4B1B6813F4003FC5D0FFF70CFE2B
:1021A000C01B6428F5D90323A0E1022EC4D1174B2C
:1021B0001B6813F4806F03D0E368002B00F0938159
:1021C000124A536823F0FE43216943EA01635360D6
:1021D000236813F0080F53D06369002B39D00B4AE2
:1021E000D2F8943043F00103C2F89430FFF7E4FDD5
:1021F0000646064BD3F8943013F0020F40D1FFF798
:10220000DBFD801B0228F4D903236FE1001002409C
:10221000644F000800000020B74A536823F0FE43D3
:10222000216943EA01635360D2E7B34A136823F498
:1022300080731360FFF7C0FD0646AF4B1B6813F4B5
:10224000806FC5D0FFF7B8FD801B0228F5D90323A6
:102250004CE1A94AD2F8943023F00103C2F894303B
:10226000FFF7AAFD0646A44BD3F8943013F0020FF3
:1022700006D0FFF7A1FD801B0228F4D9032335E126
:10228000236813F0040F7AD09B4B9B6D13F0805F93
:102290000BD1994B9A6D42F080529A659B6D03F079
:1022A00080530193019B012600E00026934B1B689D
:1022B00013F4807F26D0A368012B37D0052B3DD0A7
:1022C0008D4BD3F8902022F00102C3F89020D3F870
:1022D000902022F00402C3F89020A368002B3BD08A
:1022E000FFF76AFD0746844BD3F8903013F0020FD6
:1022F00044D1FFF761FDC01B41F288339842F2D907
:102300000323F3E07D4A136843F480731360FFF7FF
:1023100053FD0746794B1B6813F4807FCBD1FFF741
:102320004BFDC01B0228F5D90323DFE0724AD2F827
:10233000903043F00103C2F89030CEE76E4BD3F8F3
:10234000902042F00402C3F89020D3F8902042F08D
:102350000102C3F89020C0E7FFF72EFD0746664B49
:10236000D3F8903013F0020F08D0FFF725FDC01B03
:1023700041F288339842F2D90323B7E0E6B92368E3
:1023800013F0200F35D0636AE3B15B4AD2F898307E
:1023900043F00103C2F89830FFF70EFD0646564B96
:1023A000D3F8983013F0020F23D1FFF705FD801BFF
:1023B0000228F4D9032399E04F4A936D23F0805308
:1023C0009365DCE74C4AD2F8983023F00103C2F859
:1023D0009830FFF7F1FC0646474BD3F8983013F0DE
:1023E000020F06D0FFF7E8FC801B0228F4D9032374
:1023F0007CE0A36A002B78D00C2D7AD0022B23D05E
:102400003D4B1A6822F080721A601B6813F0205F3F
:1024100004D1394AD36823F00303D360364AD36822
:1024200023F0887323F48033D360FFF7C5FC0446A0
:10243000314B1B6813F0007F4AD0FFF7BDFC001B37
:102440000228F5D9032351E02B4A136823F0807347
:102450001360FFF7B1FC0546274B1B6813F0007FA4
:1024600006D0FFF7A9FC401B0228F5D903233DE065
:10247000236B5A1E636B1B0243EA0213E26A134387
:10248000E26B5208013A43EA4253226C5208013A85
:1024900043EA4263A26B43EAC263174AD3601368FC
:1024A00043F080731360D36843F08073D360FFF709
:1024B00083FC0446104B1B6813F0007F06D1FFF726
:1024C0007BFC001B0228F5D903230FE000230DE05D
:1024D00000230BE0012318467047012306E0012387
:1024E00004E0012302E0012300E00023184603B0CA
:1024F000F0BD0123FAE700BF001002400070004069
:10250000002800F09A8070B504464E4B1B6803F01B
:1025100007038B420CD24B4A136823F007030B438B
:102520001360136803F007038B4201D0012070BDD4
:102530000D46236813F0010F39D06368032B09D0CF
:10254000022B26D063BB404A126812F0020F06D15C
:102550000120ECE73C4A126812F0007F6FD03A4944
:102560008A6822F0030213438B60FFF725FC0646BE
:10257000354B9B6803F00C036268B3EB820F16D0F7
:10258000FFF71AFC801B41F288339842F0D90320F0
:10259000CDE72D4A126812F4003FE0D10120C6E7D2
:1025A000294A126812F4806FD9D10120BFE723684D
:1025B00013F0020F06D0244A936823F0F003A168B9
:1025C0000B4393601F4B1B6803F00703AB420CD90E
:1025D0001C4A136823F007032B431360136803F0AE
:1025E0000703AB4201D00120A1E7236813F0040FD9
:1025F00006D0154A936823F4E063E1680B439360C7
:10260000236813F0080F07D00F4A936823F4605330
:10261000216943EAC1039360FFF72CFC0A4B9B68D6
:10262000C3F30313094AD35C03F01F03D840084BDC
:102630001860002001F078FC79E701207047012044
:1026400075E700BF0020024000100240644F000800
:1026500000000020014B1868704700BF00000020F8
:1026600008B5FFF7F7FF054B9B68C3F30223044A45
:10267000D35C03F01F03D84008BD00BF0010024028
:10268000744F000808B5FFF7E5FF054B9B68C3F3DF
:10269000C223044AD35C03F01F03D84008BD00BF27
:1026A00000100240744F00080F2303600B4B9A6820
:1026B00002F0030242609A6802F0F00282609A68B7
:1026C00002F4E062C2609B68DB0803F4E06303612C
:1026D000034B1B6803F007030B60704700100240B8
:1026E00000200240F8B5594BDB6813F0030F18D0F7
:1026F000564BDB6803F003030268934202D00125C6
:102700002846F8BD002A00F09F80504BDB68C3F3D9
:10271000021301334268934201D00125F0E70025FE
:102720001AE00368022B58D0032B5DD0012B01D097
:1027300001250FE0454A126812F0020F60D0434DA8
:10274000EA6822F073024468013C43EA041313432D
:10275000EB600025002DD3D10F4604463B4A136899
:1027600023F080631360FFF727FB0646374B1B6897
:1027700013F0006F05D0FFF71FFB801B0228F5D96F
:102780000325002DBCD1002F3CD130490B6923F02B
:10279000784323F4FE43A068E268D20642EA0022AE
:1027A00013430B61294A136843F080631360FFF7FA
:1027B00003FB0646254B1B6813F0006F05D1FFF79E
:1027C000FBFA801B0228F5D90325002D98D11F4A5A
:1027D0001369A1690B43136192E71C4A126812F452
:1027E000806FACD10125B5E7184A126812F4003F9A
:1027F000A5D1164A126812F4802FA0D10125A9E7AD
:102800000125A7E7012F0FD01048026922F0C0620E
:1028100022F4FE42A16863695B08013B5B0643EA60
:10282000012313430361BDE70848026922F4C00293
:1028300022F4FE42A16823695B08013B5B0543EA81
:10284000012313430361ADE7012559E7001002405E
:10285000F8B5504BDB6813F0030F18D04D4BDB6815
:1028600003F003030268934202D001252846F8BD15
:10287000002A00F08D80474BDB68C3F3021301335D
:102880004268934201D00125F0E700251AE0036871
:10289000022B58D0032B5DD0012B01D001250FE076
:1028A0003C4A126812F0020F60D03A4DEA6822F0FA
:1028B00073024468013C43EA04131343EB600025B0
:1028C000002DD3D10F460446324A136823F08053BB
:1028D0001360FFF771FA06462E4B1B6813F0005F7A
:1028E00005D0FFF769FA801B0228F5D90325002DD2
:1028F000BCD1002F3CD127494B6923F0784323F406
:10290000FE43A068E268D20642EA002213434B610C
:10291000204A136843F080531360FFF74DFA0646D0
:102920001C4B1B6813F0005F05D1FFF745FA801BB5
:102930000228F5D90325002D98D1164A53696169FB
:102940000B43536192E7134A126812F4806FACD1C3
:102950000125B5E70F4A126812F4003FA5D10D4AD0
:10296000126812F4802FA0D10125A9E70125A7E75D
:102970000848426922F0C06222F4FE42A16823693D
:102980005B08013B5B0643EA012313434361BFE756
:1029900001256BE7001002402DE9F04182B00446AA
:1029A000036813F4006F2FD0836EB3F5800F25D02A
:1029B00008D9B3F5000F10D0B3F5400F40F099805F
:1029C000002610E0002B40F0948000210430FFF737
:1029D00089FE06463EB1374618E05E4AD36843F4A6
:1029E0008033D36000265B4AD2F8883023F440035A
:1029F000A16E0B43C2F88830002707E00021203089
:102A0000FFF726FF0646E5E700273E46236813F456
:102A1000805F15D0E36EB3F1807F7AD06CD9B3F1CB
:102A2000007F70D0B3F1407F7AD1002E7BD1494A2C
:102A3000D2F8883023F04073E16E0B43C2F888303F
:102A4000236813F4003F00F08E80424B9B6D13F01F
:102A5000805F6AD13F4B9A6D42F080529A659B6DC0
:102A600003F080530193019B4FF001083A4A136829
:102A700043F480731360FFF79FF90546364B1B68DC
:102A800013F4807F05D1FFF797F9401B0228F5D991
:102A90000326002E62D12F4BD3F8903013F44073ED
:102AA00016D0D4F888209A4212D02A4AD2F8903010
:102AB00023F44073D2F8901041F48031C2F89010A2
:102AC000D2F8901021F48031C2F89010C2F8903002
:102AD00013F0010F2CD1002E40F051811D4AD2F885
:102AE000903023F44073D4F888100B43C2F8903030
:102AF00035E001273E4689E793B90021201DFFF705
:102B0000F1FD064691E7134AD36843F48033D3605E
:102B10008BE7002104F12000FFF79AFE064684E7C8
:102B200001273E468CE737468AE74FF000089DE7CD
:102B3000FFF742F90546074BD3F8903013F0020F28
:102B4000C9D1FFF739F9401B41F288339842F2D9D5
:102B50000326C0E700100240007000403746B8F17D
:102B6000000F40F00E81236813F0010F08D0A44A33
:102B7000D2F8883023F00303A16B0B43C2F88830EE
:102B8000236813F0020F08D09D4AD2F8883023F052
:102B90000C03E16B0B43C2F88830236813F0040F79
:102BA00008D0974AD2F8883023F03003216C0B43C9
:102BB000C2F88830236813F0080F08D0904AD2F882
:102BC000883023F0C003616C0B43C2F8883023685F
:102BD00013F0100F08D08A4AD2F8883023F44073DB
:102BE000A16C0B43C2F88830236813F0200F08D083
:102BF000834AD2F8883023F44063E16C0B43C2F877
:102C00008830236813F4007F08D07D4AD2F88830DA
:102C100023F44023216E0B43C2F88830236813F459
:102C2000806F08D0764AD2F8883023F44013616E62
:102C30000B43C2F88830236813F0400F08D0704A65
:102C4000D2F8883023F44053216D0B43C2F888300A
:102C5000236813F0800F08D0694AD2F8883023F433
:102C60004043616D0B43C2F88830236813F4807FC2
:102C700008D0634AD2F8883023F44033A16D0B4367
:102C8000C2F88830236813F4801F08D05C4AD2F859
:102C90009C3023F00303E16D0B43C2F89C302368A2
:102CA00013F4005F0FD0564AD2F8883023F0406307
:102CB000216F0B43C2F88830236FB3F1006F66D0E9
:102CC000B3F1806F68D0236813F4002F0FD04C4A03
:102CD000D2F8883023F04063616F0B43C2F888302C
:102CE000636FB3F1006F5FD0B3F1806F61D0236881
:102CF00013F4802F0FD0424AD2F8883023F040637B
:102D0000A16F0B43C2F88830A36FB3F1006F58D0A6
:102D1000B3F1806F5AD0236813F4804F0FD0384A34
:102D2000D2F8883023F04053E16F0B43C2F888306B
:102D3000E36FB3F1805F51D0B3F1005F56D02368E9
:102D400013F4004F09D02E4AD2F8883023F0804384
:102D5000D4F880100B43C2F88830236813F4803F06
:102D600009D0274AD2F8883023F00043D4F88410E1
:102D70000B43C2F88830384602B0BDE8F0813746D0
:102D8000EDE61F4A936D23F080539365EBE6D3681D
:102D900043F48013D36096E70121201DFFF7A2FCC6
:102DA000002890D007468EE7D36843F48013D360A1
:102DB0009DE70121201DFFF795FC002897D00746CD
:102DC00095E7D36843F48013D360A4E70121201D65
:102DD000FFF788FC00289ED007469CE70221201DB3
:102DE000FFF780FC0028AAD00746A8E7022104F1DB
:102DF0002000FFF72DFD0028A1D007469FE700BF68
:102E000000100240F0B482B0002336E0072400E056
:102E10000024B4403C430235644E46F82540644CDF
:102E20002568D44304EA05064F6817F4803F01D0B3
:102E300042EA05065E4D2E606D6804EA05064F689D
:102E400017F4003F01D042EA0506594D6E60AD68A7
:102E500004EA05064F6817F4801F01D042EA050610
:102E6000534DAE60ED682C404E6816F4001F01D043
:102E700042EA05044E4AD46001330A6832FA03F488
:102E800000F0918001249C402240F5D04D68022D35
:102E900001D0122D10D1DE08083650F826C003F0FC
:102EA0000705AF000F25BD402CEA050C0D69BD409C
:102EB00045EA0C0540F8265006685F000325BD4032
:102EC000ED4305EA060C4E6806F00306BE4046EAEE
:102ED0000C0606604E6806F1FF3CBCF1010F03D9F9
:102EE000112E01D0122E10D1866805EA060CCE688C
:102EF000BE4046EA0C068660466826EA04044E6830
:102F0000C6F300169E4026434660C46825408C6880
:102F1000BC402C43C4604C6814F0805FACD0254C9E
:102F2000256E45F001052566246E04F00104019428
:102F3000019C9D08AE1C1D4C54F8267003F0030440
:102F4000A6000F24B44027EA0407B0F1904F3FF4E5
:102F50005FAF194CA0421AD004F58064A04218D08B
:102F600004F58064A04216D004F58064A04214D019
:102F700004F58064A04212D004F58064A04210D011
:102F800004F58064A0423FF441AF082441E70124E6
:102F90003FE702243DE703243BE7042439E7052407
:102FA00037E7062435E702B0F0BC70470000014067
:102FB0000004014000100240000400480AB9816288
:102FC000704781617047436959404161704708B556
:102FD00090F82530DBB2022B03D00423C363012019
:102FE00008BD0268136823F00E03136002681368BB
:102FF00023F001031360436C03F01C03016C0122F6
:1030000002FA03F34B6080F82520002380F8243077
:10301000836B13B198470020E2E70020E0E700004F
:10302000024B186800F4C060704700BF0070004099
:10303000B0F5007F0FD01F4B1B6803F4C063B3F5DE
:10304000806F34D01B4A136823F4C06343F4806359
:10305000136000207047174B1B6803F4C063B3F57F
:10306000007F22D0134A136823F4C06343F4007333
:103070001360114B1A68322303FB02F30F4AA2FBC1
:1030800003239B0C013300E0013B0A4A526912F40E
:10309000806F01D0002BF7D1064B5B6913F4806F72
:1030A00001D10020704703207047002070470020A6
:1030B000704700BF007000400000002083DE1B430B
:1030C000024A536843F40073536070470070004035
:1030D000074AD36823F4E0631B041B0C000200F4CE
:1030E000E060184340F0BF6040F40030D0607047AB
:1030F00000ED00E030B4174BDB68C3F30223C3F1EB
:103100000704042C28BF04241D1D062D18D9033BD9
:103110004FF0FF3505FA04F421EA0401994005FA5D
:1031200003F322EA0303194300280BDB0901C9B2A8
:1031300000F1604000F5614080F8001330BC70473A
:103140000023E5E700F00F000901C9B2024B195452
:10315000F4E700BF00ED00E014ED00E000F01F0216
:10316000400901239340024A42F82030704700BFD3
:1031700000E100E043684B609A688A609A68516099
:10318000996008610368013303607047036942680E
:10319000816891608268416851605A68824206D0B5
:1031A000002202611A68013A1A6018687047826842
:1031B0005A60F5E7084B1B681B683BB1064B1B6860
:1031C000DB68DB685A68054B1A607047034B4FF0A9
:1031D000FF321A60704700BF8800002028010020DD
:1031E000F8B53A4B1B68002B64D1394B1D6801358B
:1031F0001D60C5B9374B1B681B6843B14FF0100306
:1032000083F31188BFF36F8FBFF34F8FFEE7314A0F
:103210001168314B186810601960304A1368013327
:103220001360FFF7C7FF2E4B1B68AB4238D9002451
:103230002C4B1B68DB6A03EB83039A002A4B9B58D9
:10324000012B3CD901243AE00124224B1B681B6866
:1032500043B3204B1B68DB68DE6873689D4226D34E
:10326000371D3846FFF792FFB36A1BB106F118000D
:10327000FFF78CFFF36A01229A401C490868024359
:103280000A6003EB83039A00394617481044FFF79E
:1032900071FFF26A134B1B68DB6A9A42D4D2D4E7FF
:1032A0000024D2E70E4B4FF0FF321A60C0E70C4A01
:1032B0001360BDE70E4A13680133136000240D4B01
:1032C0001B6803B101242046F8BD00BF2001002087
:1032D00030010020880000208C0000202C010020FC
:1032E00028010020840000209000002024010020FC
:1032F0001C01002034010020204B1B681BB1204B17
:1033000001221A6070471E4B00221A601D4B1B6879
:10331000B3FA83F3DBB2C3F11F0303EB83018A002B
:1033200019498A5842B94FF0100383F31188BFF34B
:103330006F8FBFF34F8FFEE710B413489A00D41875
:10334000A10001444C6864684C601A449100083143
:10335000084484420BD003EB83039A000A4B1344C6
:103360005B68DA68094B1A605DF8044B7047616866
:103370000548142202FB03025160ECE72001002003
:10338000340100202401002090000020840000204F
:10339000074B19680868B0E8F04F80F30988BFF35D
:1033A0006F8F4FF0000080F311887047AFF30080FB
:1033B0008400002000000000000000000000000069
:1033C000EFF30980BFF36F8F154B1A681EF0100FD3
:1033D00008BF20ED108A20E9F04F10602DE90900A8
:1033E0004FF0100080F31188BFF34F8FBFF36F8F42
:1033F000FFF782FF4FF0000080F3118809BC1968C5
:103400000868B0E8F04F1EF0100F08BFB0EC108A4B
:1034100080F30988BFF36F8F704700BFAFF3008060
:103420008400002008B54FF0100383F31188BFF328
:103430006F8FBFF34F8FFFF7D3FE18B1034B4FF0E1
:1034400080521A60002383F3118808BD04ED00E068
:103450000F49D1F8883043F47003C1F888300D4B20
:103460001A6842F001021A60002098601A6822F07F
:10347000A85222F410221A604FF48052DA601A68BF
:1034800022F480221A6098614FF000638B607047CD
:1034900000ED00E00010024008B500F011F900F066
:1034A000F1F800F0C9F800F0B9FD4FF4E13000F098
:1034B00089F808BD0A4B01221A700A4A5A600A4A62
:1034C0009A600A4ADA600A4A1A610A4A5A610A4A42
:1034D0009A610A4ADA610A4A1A620A4A5A627047CB
:1034E000740800200C050020A405002054060020CC
:1034F000B008002070090020140800208405002076
:10350000B8080020040800200A4B02221A700A4A58
:103510005A600A4A9A600A4ADA600A4A1A610A4AF2
:103520005A610A4A9A610A4ADA610A4A1A620A4ADE
:103530005A6270471C080020A003002024090020C4
:10354000C008002084040020A00800200C080020EF
:103550004C030020180400207C0700200A4B0322A3
:103560001A700A4A5A600A4A9A600A4ADA600A4A93
:103570001A610A4A5A610A4A9A610A4ADA610A4A8F
:103580001A620A4A5A627047480800208C040020D8
:1035900054030020F0050020040500209C050020B5
:1035A0008407002078090020A80800204403002098
:1035B00008B5FFF771FFFFF77DFFFFF7A5FFFFF7E6
:1035C000CDFF08BD08B50A4B0A4A1A6058600022B0
:1035D0009A60DA601A610C2159619A611A625A6222
:1035E0001846FEF730FA00B908BDFDF707F8FBE70B
:1035F000B80600200080004000B583B002A941F861
:10360000040D4FF6FF7301220348FEF77DF9019880
:1036100003B05DF804FB00BFB806002070B5164685
:10362000002405E04D1C0878FFF7E6FF0134294629
:10363000B442F7DB304670BD08B51048104B03604C
:103640004FF482734360002383604FF4E062C260F2
:10365000036143614FF400728261C361036243629C
:1036600083620722C262012202634363FDF78EF97F
:1036700000B908BDFCF7C2FFFBE700BF2004002033
:103680000030014008B50848084B0360062343603A
:1036900040F6FF73C3608360FDF789FD00B908BD84
:1036A000FCF7ACFFFBE700BF8C05002000300040BA
:1036B000024B4AF6AA221A60704700BF0030004051
:1036C0002DE9F04F8DB000240794089409940A94D2
:1036D0000B94A04BDA6C42F01002DA64DA6C02F060
:1036E00010020092009ADA6C42F00402DA64DA6C9A
:1036F00002F004020192019ADA6C42F02002DA64CC
:10370000DA6C02F020020292029ADA6C42F00102B4
:10371000DA64DA6C02F001020392039ADA6C42F086
:103720000202DA64DA6C02F002020492049ADA6CA1
:1037300042F04002DA64DA6C02F040020592059A27
:10374000DA6C42F00802DA64DB6C03F008030693DB
:10375000069BFFF7B5FC804D012240F2FC71284624
:10376000FFF72CFC7D4E012244F228113046FFF772
:1037700025FC22464FF400713046FFF71FFCDFF8AE
:10378000308201224FF442714046FFF717FC0122BC
:1037900002214FF09040FFF711FC012280214FF0F1
:1037A0009040FFF70BFCDFF80C9201220321484602
:1037B000FFF704FC22464FF481414846FFF7FEFB29
:1037C000DFF8F4B101224FF440415846FFF7F6FB11
:1037D00040F2FC7307930127089709940A9407A9FC
:1037E0002846FFF70FFB4FF4005ACDF81CA05C4BA6
:1037F0000893099407A94046FFF704FB44F2A83355
:103800000793089709940A9407A93046FFF7FAFA34
:103810004FF442730793089709940A9407A9404606
:10382000FFF7F0FA82230793089709940A9407A9EF
:103830004FF09040FFF7E6FA44F2830307930897AE
:1038400009940A9407A94846FFF7DCFA0323079373
:103850000894099407A94348FFF7D4FA4FF440436A
:103860000793089709940A9407A95846FFF7CAFADC
:10387000CDF81CA0089709940A9407A93046FFF7D1
:10388000C1FA40F6010BCDF81CB0089709940A94D0
:1038900007A92846FFF7B6FA3A4651463046FFF7E1
:1038A0008DFB224659462846FFF788FB2E4BC3F86E
:1038B00000804FF4007199802C4AC2F800804FF4C8
:1038C000807393802A48066008228280294C4FF03A
:1038D000904020608020A080274C26602027A78071
:1038E000264CC4F80080A280254C25604FF0040CC3
:1038F000A4F804C0234C25604FF0100CA4F804C0B9
:10390000214C25604FF0400CA4F804C01F4C2560EA
:10391000A7801F4C2660A3801E4C2560A2801E4AF3
:10392000156090801D4A15604FF4806090801C4A9D
:1039300016604FF4804090801A4A156093801A4BAD
:103940001D609980194BC3F8009002229A800DB037
:10395000BDE8F08F0010024000100048001400483D
:103960000000111000180048B00800207009002065
:103970001408002084050020B80800200408002056
:1039800084040020A00800200C0800204C03002024
:10399000180400207C070020040500209C0500205E
:1039A0008407002078090020A80800204403002094
:1039B0000008004800040048000C004800B5BBB0F7
:1039C000242200212AA800F0DEFD00212491259167
:1039D0002691279128918C2201A800F0D4FD18236C
:1039E000299301222E922F92902331930223339315
:1039F0003492052235924722369237933893062324
:103A0000399329A8FEF7A2FA28BB0F232493032396
:103A10002593902326934FF48063279300212891C8
:103A200024A8FEF76DFDC8B9114B01930023109334
:103A3000119313931493159316931793189301A846
:103A4000FEF7AAFF68B94FF40070FFF7F1FA58B912
:103A50003BB05DF804FBFCF7D1FDD6E7FCF7CEFDEB
:103A6000E2E7FCF7CBFDEEE7FCF7C8FDF0E700BFAF
:103A7000F601100000B583B00D4B1A6E42F0010242
:103A80001A661A6E02F001020092009A9A6D42F0D4
:103A900080529A659B6D03F080530193019B002235
:103AA0000F216FF00100FFF725FB03B05DF804FB69
:103AB00000100240F0B58FB00446002309930A932A
:103AC0000B930C930D930268554B9A420BD02368CD
:103AD000544A93422AD0544A934248D0534A93427C
:103AE00066D00FB0F0BD524DEB6C43F00203EB64B7
:103AF000EB6C03F002030093009B4FF440730993B7
:103B000012230A9301230B9303230C9304230D9395
:103B100009A94848FFF776F9AB6D43F40013AB658C
:103B2000AB6D03F400130193019BD0E7404CE36CB1
:103B300043F02003E364E36C03F020030293029B51
:103B40000323099312220A9201220B920C9304235D
:103B50000D9309A93848FFF755F9A36D43F4800385
:103B6000A365A36D03F480030393039BB9E7304C73
:103B7000E36C43F00403E364E36C03F00403049395
:103B8000049B0323099312220A9201220B920C93A5
:103B900004230D9309A92948FFF734F9A36D43F4D1
:103BA0000003A365A36D03F400030593059B98E749
:103BB0001F4CE36C43F02003E364E36C03F0200349
:103BC0000693069BE36C43F00203E364E36C03F0AB
:103BD00002030793079B4FF40043099312270A97A8
:103BE00001260B9603250C9504230D9309A9124871
:103BF000FFF708F94FF4806309930A970B960C9529
:103C00000D9509A90B48FFF7FDF8E36D43F002039A
:103C1000E365E36D03F002030893089B61E700BFCF
:103C20000054004000580040005C00400084004008
:103C3000001002400004004800140048000800483A
:103C400070B58EB0002309930A930B930C930D93D8
:103C50000368554A93420AD0544A93422CD0544A9E
:103C600093425ED0534A93427CD00EB070BD524B0B
:103C7000DA6D42F00102DA65DA6D02F001020092BB
:103C8000009ADA6C42F04002DA64DB6C03F0400325
:103C90000193019BFFF714FA4FF4C07309930223B9
:103CA0000A9300230B9303230C9308230D9309A974
:103CB0004248FFF7A7F8D8E73F4B9A6D42F48012CD
:103CC0009A659A6D02F480120292029ADA6C42F0BE
:103CD0000402DA64DA6C02F004020392039ADA6CEA
:103CE00042F00802DA64DB6C03F008030493049BDF
:103CF0004FF48053099302260A9603250C95082455
:103D00000D9409A92E48FFF77DF8042309930A961C
:103D100000230B930C950D9409A92A48FFF772F81C
:103D2000A3E7254B9A6D42F400329A659A6D02F42E
:103D300000320592059ADA6C42F00102DA64DB6C1B
:103D400003F001030693069B0C23099302230A93B5
:103D500003230C9307230D9309A94FF09040FFF71D
:103D600051F882E7144B9A6D42F480229A659A6D5D
:103D700002F480220792079ADA6C42F00802DA64B1
:103D8000DB6C03F008030893089B4FF4407309931E
:103D900002230A9303230C9307230D9309A90948CF
:103DA000FFF730F861E700BF00800040005000409E
:103DB0000044004000480040001002400018004845
:103DC00000080048000C004870B58CB00023079331
:103DD000089309930A930B9303684C4A934207D0C4
:103DE0004B4A93422DD04B4A934252D00CB070BDF7
:103DF000494B1A6E42F480521A661A6E02F48052CF
:103E00000092009ADA6C42F01002DA64DB6C03F084
:103E100010030193019B4FF470430793022308930F
:103E200003230A9305230B9307A93C48FEF7EAFFF7
:103E3000002211462320FFF75DF92320FFF78EF9BA
:103E4000D4E7354B9A6D42F480429A659A6D02F43C
:103E500080420292029ADA6C42F00802DA64DB6C69
:103E600003F008030393039B1B2307930223089388
:103E700003230A9305230B9307A92948FEF7C2FFE2
:103E8000002211462420FFF735F92420FFF766F9B8
:103E9000ACE7214B9A6D42F400429A659A6D02F4A8
:103EA00000420492049ADA6C42F00102DA64DA6C9D
:103EB00002F001020592059ADA6C42F00202DA641D
:103EC000DB6C03F002030693069B10230793022486
:103ED000089403260A9606250B9507A94FF09040F3
:103EE000FEF790FF382307930894002409940A965C
:103EF0000B9507A90B48FEF785FF22462146332084
:103F0000FFF7F8F83320FFF729F96FE70030014099
:103F100000380040003C0040001002400010004803
:103F2000000C00480004004800B589B0002201469A
:103F30001920FFF7DFF81920FFF710F9144B1A6E5C
:103F400042F400621A661B6E03F400630193019B46
:103F500002A903A8FEF7A8FBFEF794FB0D4BA3FBF9
:103F600000239B0C013B0C480C4A026040F2E732F4
:103F7000C2604360002303618360FDF7E9FE18B16E
:103F8000012009B05DF804FB0348FDF791FDF8E757
:103F90000010024083DE1B4384090020002C0140F6
:103FA0007047FEE7FEE7FEE7FEE7704708B5024808
:103FB000FDF79CFD08BD00BF8409002008B502483C
:103FC000FDF742F908BD00BFA003002008B5024874
:103FD000FDF73AF908BD00BF8C04002008B502487F
:103FE000FDF732F908BD00BF0C05002008B50248F6
:103FF000FDF744F808BD00BFF005002008B50248F1
:10400000FDF73CF808BD00BFC008002008B5024815
:10401000FDF734F808BD00BF5406002008B512486B
:10402000124B0360124B4360002383600122C26085
:10403000036143618361C3610362FCF7E4FA50B931
:1040400000210948FCF73DFB40B900210648FCF778
:1040500066FB30B908BDFCF7D1FAF1E7FCF7CEFA00
:10406000F3E7FCF7CBFAF5E73007002000540040F7
:10407000261A100070B506460024134B1C804FF41E
:1040800080722146114800F07EFA4FF44013104A26
:104090001360104A1360104D2C70104B1E600122EB
:1040A0004FF400510E48FEF789FF0E4C01224FF4E9
:1040B00000612046FEF782FF012211462046FEF7EE
:1040C0007DFF0120287070BDD2090020D809002092
:1040D000D4090020C8090020C5090020D80A002002
:1040E000001400480010004808B500224FF40051A9
:1040F0000148FEF763FF08BD0014004808B501221F
:104100004FF400510148FEF759FF08BD0014004864
:1041100038B5114D2870114C23681A68136843F0A4
:1041200040031360FFF7E0FF4FF0FF330122294601
:104130002068FCF783FC4FF0FF3301220849206818
:10414000FCF7D1FE23681A68136823F0400313605C
:10415000FFF7D4FF002038BDCC090020D80A00208A
:10416000C409002008B53220FDF72CFE00210520EF
:10417000FFF7CEFF00B908BD0020FCE710B50446EC
:104180003220FDF71FFEFFF7EDFF50B9084B9C42B0
:104190000AD804F540542402064B1C60064B1C60F0
:1041A00010BD6FF00100FBE76FF00300F8E700BF00
:1041B00047B80100D4090020C809002070B50646A0
:1041C0000D46FFF7CFFFE0B90F4C26702B0E637042
:1041D000C5F30743A370C5F30723E37025710B4DA7
:1041E0002B681A68136843F040031360FFF77CFFE5
:1041F0004FF0FF33052221462868FCF71FFC002002
:1042000070BD6FF00100FBE7CC090020D80A002048
:1042100038B505460C463220FDF7D4FDFFF7A2FF66
:1042200098B90B4B19681320FFF7C8FF10F1030F63
:104230000AD04FF0FF33A2B2294606480068FCF7C7
:1042400052FEFFF75BFF204638BD6FF00100FBE731
:10425000D4090020D80A002038B50446FFF782FFB1
:10426000D8B90F4D2C700F4C23681A68136843F0AF
:1042700040031360FFF738FF4FF0FF330122294658
:104280002068FCF7DBFB23681A68136823F04003FF
:104290001360FFF733FF002038BD6FF00100FBE72C
:1042A000CC090020D80A002008B5FFF75BFF68BBE7
:1042B0000620FFF7D1FF10F1030F26D0154B196828
:1042C0001220FFF77BFF10F1030F1ED04FF0FF33DA
:1042D0004FF48072104911480068FCF7AFFBFFF7FC
:1042E0000DFF0420FFF7B8FF10F1030F0DD0094AAE
:1042F000136803F5807313604FF480720021064841
:1043000000F041F90020064B188008BD6FF0010055
:10431000FBE700BFC8090020D8090020D80A002008
:10432000D2090020F8B505460F463220FDF74AFDB8
:10433000FFF718FF50BB1A4B1A681A4B9A4228D83D
:104340003C46194B1B881A19FF2A0FD9C3F58076F2
:104350004FF4807229461548184400F009F9FFF718
:10436000A3FF002809DB3544A41BEAE70C4A1168C7
:104370000C4A914210D80CB9381BF8BD2246294688
:104380000A48184400F0F4F80024F5E76FF0010043
:10439000F3E76FF00400F0E76FF00400EDE700BF13
:1043A000C80900200048E801D2090020D8090020EF
:1043B00070B5002302E0454AD3540133FF2BFADDE8
:1043C0000020FFF7DBFE4FF480714048FFF7AAFFA3
:1043D00002E03220FDF7F6FCFFF7C4FE0546002898
:1043E000F7D14FF480713A48FFF712FF0023012400
:1043F00000E00133FF2B07DC344AD15C344AD25C45
:104400009142F6D02C46F4E7002303E0D9432F4A2B
:10441000D1540133FF2BF9DD0120FFF7AFFE4FF43C
:1044200080712A48FFF77EFF02E03220FDF7CAFCC8
:10443000FFF798FE06460028F7D14FF48071244814
:10444000FFF7E6FE0023012500E00133FF2B07DC28
:104450001E4AD15C1E4AD25C9142F6D03546F4E742
:10446000002305E003EBD37252101849CA540133FC
:10447000FF2BF7DD0220FFF781FE4FF48071134818
:10448000FFF750FF02E03220FDF79CFCFFF76AFEC9
:1044900006460028F7D14FF480710D48FFF7B8FEAB
:1044A0000023012000E00133FF2B07DC074AD15C29
:1044B000074AD25C9142F6D03046F4E70CB105B120
:1044C00008B9304670BD0646FBE700BF3802002041
:1044D00038010020DFF834D0002103E00C4B5B589A
:1044E000435004310B480C4B42189A42F6D30B4A06
:1044F00002E0002342F8043B094B9A42F9D3FEF74D
:10450000A7FF00F011F8FCF71DF8FEE700000520FA
:1045100028500008000000206800002068000020EB
:10452000E00A0020FEE7000070B50D4E0D4CA41B04
:10453000A4100025A54209D10B4E0C4C00F0CAFC7A
:10454000A41BA4100025A54205D170BD56F8253046
:1045500098470135EEE756F8253098470135F2E7E0
:104560001850000818500008185000081C50000887
:1045700010B5431E0A44914200D110BD11F8014B01
:1045800003F8014FF7E702440346934200D1704716
:1045900003F8011BF9E7000070B50E46054618B197
:1045A00083690BB900F00CFAAB69AC6813B9284603
:1045B00000F006FA234B9C4217D16C68A3891B07B5
:1045C0001DD52369DBB1013EA36816F8011F013B2D
:1045D000A360E9B9002B2EDA22460A21284600F012
:1045E0003FF8013011D00A2011E0174B9C4201D155
:1045F000AC68E3E7154B9C4208BFEC68DEE7214658
:10460000284600F07FF80028DDD04FF0FF3070BD65
:10461000002B04DAA2699A4206DC0A2904D0236836
:104620005A1C22601970CFE72246284600F018F87D
:104630000130C9D1E9E723680A205A1C22601870AA
:10464000E5E700BFD04F0008F04F0008B04F00086A
:10465000024B01461868FFF79FBF00BF040000200F
:10466000F8B50E461446054618B183690BB900F03B
:10467000A7F9214B9C422AD16C68A369A360A38946
:104680001A072ED5236963B323692068C01A6369AA
:10469000F6B28342374604DC2146284600F026F96C
:1046A00028BBA368013BA36023685A1C22601E70CC
:1046B00063690130834204D0A389DB0719D50A2E30
:1046C00017D12146284600F011F990B10FE00B4BAD
:1046D0009C4201D1AC68D0E7094B9C4208BFEC6812
:1046E000CBE72146284600F00DF80028CCD04FF04B
:1046F000FF373846F8BD00BFD04F0008F04F000824
:10470000B04F0008324B70B51D6806460C4625B107
:10471000AB6913B9284600F053F92E4B9C420FD1D8
:104720006C68B4F90C309AB215072CD4D00611D4A9
:104730000922326043F04003A3814FF0FF303EE096
:10474000254B9C4201D1AC68EBE7244B9C4208BF4F
:10475000EC68E6E7510712D5616B41B104F14403FF
:10476000994202D0304600F019FA00236363A3890E
:1047700023F02403A3810023636023692360A389BA
:1047800043F00803A38123694BB9A38903F4207381
:10479000B3F5007F03D02146304600F0BFF9A2896F
:1047A00012F001030CD00023A36063695B42A36194
:1047B000236953B9B4F90C3013F08000BAD170BD3D
:1047C000920758BF6369A360F2E70020F7E700BFD4
:1047D00004000020D04F0008F04F0008B04F000840
:1047E0008A892DE9F041054610070C4658D44B68DC
:1047F000002B05DC0B6C002B02DC0020BDE8F081F7
:10480000E66A002EF9D0002312F480522F68216A44
:104810002B6032D0606DA3895A0705D56368C01A32
:10482000636B0BB1236CC01A00230246E66A216A4F
:104830002846B047431CA38906D129681D2948D8BA
:10484000294ACA40D60744D500226260D9042269A9
:10485000226004D5421C01D12B6803B96065616BED
:104860002F600029C9D004F14403994202D02846A0
:1048700000F094F900206063C0E701232846B047A8
:10488000411CC8D12B68002BC5D01D2B01D0162B85
:1048900001D12F60B1E7A38943F04003A381ADE7C5
:1048A0000F69002FA9D093070E6808BF4B690F60EE
:1048B00018BF0023A6EB07088B60B8F1000F9CDD42
:1048C00043463A46216AA66A2846B047002806DCD5
:1048D000A38943F04003A3814FF0FF308EE70744E4
:1048E000A8EB0008E9E700BF0100402038B50B69DC
:1048F00005460C46DBB118B183690BB900F060F8CE
:104900000C4B9C4209D16C68B4F90C307BB1214648
:104910002846BDE83840FFF763BF074B9C4201D1F2
:10492000AC68F1E7054B9C4208BFEC68ECE700205F
:1049300038BD00BFD04F0008F04F0008B04F00084E
:10494000002310B50446C0E90033836081814366CB
:10495000C281C0E904338361194608225C30FFF745
:1049600012FE054B6362054BA362054BE362054BE8
:104970002462236310BD00BF0D4D00082F4D0008B9
:10498000674D00088B4D0008014900F085B800BF55
:10499000ED48000870B54A1E682555430E4605F1DE
:1049A000740100F049F9044640B10021C0E9001645
:1049B0000C30A06005F16802FFF7E5FD204670BDF0
:1049C000836910B5044633BBC0E912330365124B4B
:1049D000124A1B688262984204BF0123836100F07F
:1049E0001FF86060204600F01BF8A060204600F031
:1049F00017F80022E06004216068FFF7A1FF0122A0
:104A00000921A068FFF79CFF02221221E068FFF74E
:104A100097FF0123A36110BDAC4F0008894900082E
:104A2000F8B51B4B1E68B369074613B93046FFF74C
:104A3000C7FF4836D6E90134013B03D5336833B1AB
:104A40003668F7E7B4F90C506DB16834F4E7042127
:104A50003846FFF79FFF30600028F1D10C233B6000
:104A600004462046F8BD0B4B6566C4E90055A560B9
:104A7000C4E90335C4E905550822294604F15C0060
:104A8000FFF781FDC4E90D55C4E91255E9E700BF00
:104A9000AC4F00080100FFFF2DE9F843804689462E
:104AA00000F14804002614B93046BDE8F883D4E983
:104AB0000175013F01D52468F5E7AB89012B07D9C2
:104AC000B5F90E30013303D029464046C8470643A6
:104AD0006835EEE770B50E46B1F90E10002996B0B4
:104AE00014461D4607DA00232B60B3891A0610D43A
:104AF0004FF480630EE06A4600F06EF90028F2DBA6
:104B0000019A02F47042A2F500535A425A412A60B7
:104B1000EEE740230020236016B070BD8B8973B58B
:104B20009D0706460C4607D504F147032360236121
:104B30000123636102B070BD01AB6A46FFF7CAFF93
:104B400000990546304600F077F848B9B4F90C30C2
:104B50009A05EFD423F0030343F00203A381E3E7B4
:104B60000D4BB362A389206043F08003A381009BB7
:104B70006361019B20615BB1B4F90E10304600F017
:104B80003DF928B1A38923F0030343F00103A38176
:104B9000A3891D43A581CDE78949000838B505469D
:104BA000002945D051F8043C0C1F002BB8BFE41875
:104BB00000F046F91F4A1368104633B96360146069
:104BC0002846BDE8384000F03CB9A3420CD9216822
:104BD0006218934204BF1A685B68636004BF52188E
:104BE00022600460ECE713465A680AB1A242FAD97F
:104BF00019685818A0420BD1206801445818824205
:104C00001960DDD1106852685A6001441960D7E715
:104C100002D90C232B60D3E7206821188A4204BFF5
:104C200011685268626004BF091821605C60C7E7C0
:104C300038BD00BF3803002070B5CD1C25F003053A
:104C400008350C2D38BF0C25002D064601DBA94286
:104C500003D90C233360002070BD00F0F1F8214A25
:104C60001468214691B9204C23681BB9304600F0E6
:104C70003DF820602946304600F038F8431C24D126
:104C80000C233360304600F0DCF8E4E70B685B1B74
:104C900018D40B2B0FD90B60CD50CC18304600F038
:104CA000D0F804F10B00231D20F00700C31AD3D065
:104CB0005A42E250D0E78C424B6816BF63601360E3
:104CC0000C46EBE70C464968CCE7C41C24F003040F
:104CD000A04205D0211A304600F008F80130CFD0AC
:104CE0002560DBE7380300203C03002038B5064C84
:104CF000002305460846236000F0DEF8431C02D17D
:104D0000236803B12B6038BDDC0A002010B50C46C7
:104D1000B1F90E1000F096F80028ABBF636DA389BF
:104D20001B1823F48053ACBF6365A38110BD2DE92C
:104D3000F0411F468B89DB0505460C46164605D516
:104D400002230022B1F90E1000F068F8A389B4F92B
:104D50000E1023F48053A38132463B462846BDE81B
:104D6000F04100F017B810B50C46B1F90E1000F084
:104D700055F8431CA38915BF606523F4805343F4A1
:104D80008053A38118BFA38110BDB1F90E1000F0AC
:104D900013B8000038B5074C0546084611460022F6
:104DA00022601A46FEF73AFC431C02D1236803B185
:104DB0002B6038BDDC0A002038B5064C00230546C0
:104DC0000846236000F050F8431C02D1236803B169
:104DD0002B6038BDDC0A002038B5074C002305469F
:104DE00008461146236000F047F8431C02D12368AF
:104DF00003B12B6038BD00BFDC0A002038B5064C7B
:104E0000002305460846236000F03EF8431C02D10B
:104E1000236803B12B6038BDDC0A002038B5074C8D
:104E2000054608461146002222601A4600F034F872
:104E3000431C02D1236803B12B6038BDDC0A00207B
:104E40007047704738B5074C0546084611460022A2
:104E500022601A4600F028F8431C02D1236803B1EF
:104E60002B6038BDDC0A0020024B58221A604FF03C
:104E7000FF307047DC0A0020024B58221A604FF0C6
:104E8000FF307047DC0A0020024B58221A600020D5
:104E9000704700BFDC0A0020024B58221A604FF016
:104EA000FF307047DC0A0020024B58221A604FF096
:104EB000FF307047DC0A0020044A05491368002BC4
:104EC00008BF0B4618441060184670474003002086
:104ED000E00A0020F8B500BFF8BC08BC9E46704749
:104EE000F8B500BFF8BC08BC9E4670470000000043
:104EF0006F6374612D666C6173682052572074650E
:104F00007374204F4B0D00006F6374612D666C61EC
:104F100073682052572074657374204E4F4B0D00F8
:104F20000D0000002A2A2A2A2A2A2A2A2A2A2A2A7C
:104F30002A2A2A2A2A2A2A2A2A2A2A2A2A2A2A2AD1
:104F40002A2A2A2A2A2A2A2A2A2A2A2A2A0D000032
:104F50004F4354412D666C6173682D6578616D70A7
:104F60006C650D0000000000000000000102030459
:104F7000060708090000000001020304A0860100E2
:104F8000400D0300801A060000350C0040420F005F
:104F900080841E0000093D0000127A000024F40005
:104FA00000366E010048E801006CDC0208000020B9
:104FB00000000000000000000000000000000000F1
:104FC00000000000000000000000000000000000E1
:104FD00000000000000000000000000000000000D1
:104FE00000000000000000000000000000000000C1
:104FF00000000000000000000000000000000000B1
:1050000000000000000000000000000000000000A0
:0850100010B2FF7F0100000057
:08501800D501000800000000B2
:08502000B101000800000000CE
:1050280000093D000800002000000000D04F0008E3
:10503800F04F0008B04F000800000000000000001A
:105048000000000000000000000000000000000058
:105058000000000000000000000000000000000048
:105068000000000000000000000000000000000038
:105078000000000000000000000000000000000028
:08508800000000000000000020
:04000005080044D5D6
:00000001FF
