:020000040800F2
:1000000000000520493500087534000877340008E1
:10001000793400087B3400087D34000800000000BB
:10002000000000000000000000000000612A00083D
:100030007F34000800000000912A0008F52A00081B
:100040009935000899350008993500089935000858
:100050009935000899350008993500089935000848
:100060009935000899350008993500089935000838
:100070009935000899350008993500089935000828
:100080009935000899350008993500089935000818
:100090009935000899350008993500089935000808
:1000A0009935000881340008993500089935000811
:1000B00099350008993500089935000899350008E8
:1000C000993500089935000899350008C1340008B1
:1000D000D13400089935000891340008A134000893
:1000E00099350008993500089935000899350008B8
:1000F00099350008993500089935000899350008A8
:10010000993500089935000899350008E134000850
:1001100099350008B1340008993500089935000870
:100120009935000899350008993500089935000877
:100130009935000899350008993500089935000867
:100140009935000899350008993500089935000857
:100150009935000899350008993500089935000847
:100160009935000899350008993500089935000837
:1001700099350008993500089935000800000000FD
:100180009935000899350008993500089935000817
:100190009935000899350008993500089935000807
:1001A00099350008993500080000000000000000A3
:1001B00010B5054C237833B9044B13B10448AFF3A1
:1001C00000800123237010BD6800002000000000A3
:1001D000303F000808B5034B1BB103490348AFF398
:1001E000008008BD000000006C000020303F0008C7
:1001F00053B94AB9002908BF00281CBF4FF0FF318E
:100200004FF0FF3000F072B9ADF1080C6DE904CE8B
:1002100000F006F8DDF804E0DDE9022304B07047E1
:100220002DE9F047089E04468846002B4BD18A42B0
:10023000154667D9B2FA82F24AB1C2F1200701FA33
:1002400002F320FA07F7954047EA030894404FEA83
:10025000154E230CB8FBFEF71FFA85FC0EFB178822
:1002600043EA084307FB0CF1994209D9EB1807F15F
:10027000FF3080F01B81994240F21881023F2B44ED
:100280005B1AA4B2B3FBFEF00EFB103344EA034446
:1002900000FB0CFCA44509D92C1900F1FF3380F0B8
:1002A0000781A44540F2048102382C4440EA07400B
:1002B000A4EB0C0400271EB1D4400023C6E9004380
:1002C0003946BDE8F0878B4209D9002E00F0EB805B
:1002D0000027C6E9000138463946BDE8F087B3FA81
:1002E00083F7002F47D18B4202D3824200F2FA807B
:1002F000841A61EB030301209846002EE0D0C6E982
:100300000048DDE702B9FFDEB2FA82F2002A40F0CF
:100310008F80491B4FEA154E1FFA85F80127B1FB64
:10032000FEFC230C0EFB1C1143EA014308FB0CF1FD
:10033000994207D9EB180CF1FF3002D2994200F232
:10034000CD808446591AA3B2B1FBFEF00EFB101407
:1003500043EA044408FB00F8A04507D92C1900F132
:10036000FF3302D2A04500F2B6801846A4EB080481
:1003700040EA0C409FE7C7F1200CBB4022FA0CFE7C
:100380004EEA030E01FA07F420FA0CF521FA0CF3F9
:100390004FEA1E482543B3FBF8F92C0C08FB193330
:1003A0001FFA8EFA44EA034309FB0AF49C4202FA5C
:1003B00007F200FA07F10BD91EEB030309F1FF3036
:1003C00080F087809C4240F28480A9F10209734446
:1003D0001B1BADB2B3FBF8F008FB103345EA034436
:1003E00000FB0AFAA24508D91EEB040400F1FF3312
:1003F0006BD2A24569D90238744440EA0940A0FB97
:100400000289A4EB0A044C45C2464B4654D351D052
:10041000002E69D0B1EB0A0564EB030404FA0CFC6E
:10042000FD40FC404CEA0505C6E90054002747E7BB
:10043000C2F1200320FA03F7954001FA02F021FAF5
:1004400003F34FEA154E3843010CB3FBFEF71FFAD6
:1004500085F80EFB173341EA034107FB08F38B4293
:1004600004FA02F407D9691807F1FF3C2FD28B4236
:100470002DD9023F2944CB1A81B2B3FBFEF00EFB0B
:10048000103341EA034100FB08F38B4207D9691896
:1004900000F1FF3C17D28B4215D902382944C91A02
:1004A00040EA07473BE73746304609E70746E7E6B5
:1004B0001846FBE64145ABD2B8EB020A69EB0E02E7
:1004C00001381346A4E76046E9E7184695E7674612
:1004D000D1E781467CE702382C4447E7ACF1020CB7
:1004E0002B442FE7384608E73746E9E6704700BF58
:1004F00038B5104C204603F0D9F80F4D284603F0CC
:10050000D5F80E4803F0D2F8284603F0CFF820467D
:1005100003F0CCF80A4C4FF40041204602F0B9F841
:100520004FF4FA6000F0B4FF4FF40041204602F0AF
:10053000B0F838BD883F0008483F0008743F000805
:10054000000C004808B500F085FF02F051FD00F0F6
:100550003EF8FFF7CDFF154C4FF48041204602F0E6
:1005600098F84FF47A7000F093FF4FF480412046E2
:1005700002F08FF80E4D0121284602F08AF84FF460
:100580007A7000F085FF0121284602F082F84FF4CE
:100590000041204602F07DF84FF47A7000F078FFB9
:1005A0004FF40041204602F074F8D4E7000C0048F4
:1005B0000004004808B50268034B9A4200D008BD09
:1005C00000F058FFFBE700BF002C0140704708B562
:1005D00002F054FB08BD002859D010B5044690F82D
:1005E0004130002B43D0242384F841302268136823
:1005F00023F0010313606368226823F070631361C2
:100600002268936823F400439360E368012B33D09E
:10061000A368226843F404439360E368022B31D05B
:100620002268536843F0007343F400435360226828
:10063000D36823F40043D360236962691343A1693B
:10064000226843EA0123D360E369216A22680B43ED
:1006500013602268136843F0010313600020606494
:10066000202384F84130206384F8420010BD80F8D4
:10067000403002F039FDB6E7A368226843F4004336
:100680009360CAE723684FF400625A60C8E701200C
:10069000704790F84130DBB2202B24D190F84030E5
:1006A000012B22D0012380F84030242380F84130F0
:1006B0000268136823F0010313600268136823F4CF
:1006C000805313600268136819431160026813684D
:1006D00043F001031360202380F84130002380F8A9
:1006E000403018467047022070470220704790F84B
:1006F0004130DBB2202B22D190F84030012B20D0AA
:10070000012380F84030242380F8413002681368C8
:1007100023F0010313600268136823F4706343EA53
:10072000012111600268136843F001031360202364
:1007300080F84130002380F840301846704702208E
:10074000704702207047704730B585B00446026894
:1007500050689368C3F3801149B913F0010F06D0B4
:1007600010F0400F03D0E36C2046984708E013F0E8
:10077000020F07D010F0800F04D0236D2046984759
:1007800005B030BDC3F340151DB911B913F4807F16
:10079000F6D010F0200FF3D079B194F85D10C9B203
:1007A000032953D0216E41F00401216600210091FC
:1007B000D168009191680091009965B1216E41F076
:1007C000010121660021029191680291116821F0D6
:1007D00040011160029A13F4807F09D0236E43F028
:1007E000080323660023039323689B680393039BFA
:1007F000236E002BC4D02268536823F0E0035360BB
:10080000012384F85D3010F0030F27D0226853686D
:1008100023F003035360A36D4BB1124A9A63A06D9A
:1008200001F03BFF18B1236E43F040032366636D74
:10083000002BA5D00B4A9A63606D01F02EFF0028B3
:100840009ED0236E43F04003236699E70023019373
:10085000D368019393680193019B91E72046FFF7CA
:1008600072FF8DE76908000808B5806A0023A0F8C8
:100870004630C387FFF767FF08BD40B338B504466D
:1008800003684CF6CC421A60036845F255521A6070
:10089000036842685A60036882689A6000F0F2FD5B
:1008A00005462368DA6832B100F0ECFD401B3028C1
:1008B000F7D9032038BD1969E268914202D01A6164
:1008C0000020F7E74AF6AA221A600020F2E701208A
:1008D00070470268136823F490731360026893688A
:1008E00023F001039360202380F872300023036615
:1008F0007047704708B501680A6822F040020A6034
:10090000202280F8712000224266FFF7F2FF08BD26
:100910007047000038B504460268D36911689068D2
:1009200013F00F050CD113F0200F09D011F0200F98
:1009300006D0236E002B00F09380204698478FE06E
:10094000002D6FD010F0010502D111F4907F69D015
:1009500013F0010F07D011F4807F04D00120106242
:10096000626F0243626713F0020F07D035B122684D
:1009700002201062626F42F00402626713F0040FFB
:1009800007D035B1226804201062626F42F0020283
:10099000626713F0080F09D011F0200F00D12DB1BC
:1009A000226808201062626F02436267626F002A49
:1009B00056D013F0200F06D011F0200F03D0236E75
:1009C0000BB120469847636F13F0080F04D12368DA
:1009D0009B6813F0400F1FD02046FFF77AFF236873
:1009E0009A6812F0400F13D09A6822F040029A6081
:1009F000E36E4BB11D4A9A63E06E01F04EFE78B390
:100A0000E06E836B98472BE02046FFF781FF27E0DD
:100A10002046FFF77DFF23E02046FFF779FF002304
:100A200063671DE013F4801F02D010F4800F0AD119
:100A300013F0800F0ED011F0800F0BD0636E7BB1DE
:100A4000204698470CE04FF480131362204600F0D4
:100A500093FB05E013F0400F02D011F0400F00D1DE
:100A600038BD2046FFF746FFFAE700BF710A0008CD
:100A700008B5806A0023A0F85A30A0F85230FFF77A
:100A800047FF08BD2DE9F048044601688368026904
:100A9000134342691343C26913430868A24A0240E0
:100AA00013430B602268536823F44053E1680B43FF
:100AB0005360A16922689D4B9A4201D0236A194371
:100AC000936823F430630B4393602368984A9342FE
:100AD00027D0984A934238D0974A93424ED0974AAB
:100AE000934261D0964A934274D0904A934200F068
:100AF0008A8010258D4A934200F0AA80E369B3F5FD
:100B0000004F00F03581082D00F2BF81DFE815F0BD
:100B10007F0195019F01BD01AA01BD01BD01BD017C
:100B2000B40102F55842D2F8882002F00302032AE9
:100B300009D8DFE802F0020481060125DAE704257E
:100B4000D8E70825D6E71025D4E702F5E632D2F833
:100B5000882002F00C020C2A0ED8DFE802F0070D04
:100B60000D0D090D0D0D6F0D0D0D0B000025C1E7CD
:100B70000425BFE70825BDE71025BBE702F5E432F1
:100B8000D2F8882002F03002102A09D005D9202A94
:100B900056D0302A06D10825ACE71AB90025A9E7B6
:100BA0000425A7E71025A5E702F5E232D2F8882050
:100BB00002F0C002402A09D005D9802A42D0C02ABA
:100BC00006D1082596E71AB9002593E7042591E791
:100BD00010258FE702F5E032D2F8882002F4407247
:100BE000B2F5807F0BD007D9B2F5007F2CD0B2F5DB
:100BF000407F06D108257DE71AB900257AE704254C
:100C000078E7102576E702F5C832D2F8882002F49A
:100C10004062B2F5806F0BD007D9B2F5006F15D0E6
:100C2000B2F5406F06D1082564E71AB9002561E7DF
:100C300004255FE710255DE702255BE7022559E7FC
:100C4000022557E7022555E7022553E7022551E71C
:100C5000082D00F21D81DFE815F00C001B011400C7
:100C60001B0111001B011B011B0109004FF4004077
:100C700008E001F05BF828B90020D9E000F060FC42
:100C8000F9E73048626802EB4203834200F20281D6
:100C9000B0EB023F00F20081082D66D8DFE805F0D6
:100CA0000565206530656565580001F03FF8002551
:100CB000070E0602626850082B4616EB000B47F140
:100CC000000C58466146FFF793FA03462846A3F501
:100CD00040711D4A914200F2E1802268D360A7E092
:100CE000560800252B46DFF864B04FF0000C1BEBD4
:100CF00006004CF10001FFF77BFA03462846E6E7C1
:100D000000F01EFC0025070E0602626850082B4604
:100D100016EB000B47F1000C58466146FFF768FAE6
:100D200003462846D3E700BFF369FFEF0080004089
:100D3000003801400044004000480040004C0040A2
:100D4000005000400024F400FFFC0F00000024F4D9
:100D50005008002700252B4610F5000047F1000140
:100D6000FFF746FA03462846B1E701200023AEE725
:100D7000082D49D8DFE805F0051E294834484848C1
:100D80003F0000F0D3FF6268530803EB4003B3FB5E
:100D9000F2F39BB20020A3F110014FF6EF729142E3
:100DA0007ED89AB222F00F02C3F3420313432268A3
:100DB000D3603DE000F0CCFF6268530803EB4003D2
:100DC000B3FBF2F39BB20020E5E76268530803F13E
:100DD000F47303F59043B3FBF2F39BB20020DAE720
:100DE00000F0AEFB6268530803EB4003B3FBF2F381
:100DF0009BB20020CFE76268530803F58033B3FB52
:100E0000F2F39BB20020C6E701200023C3E700F005
:100E10008DFF636800EB5302B2FBF3F292B2002045
:100E2000A2F110014FF6EF7399423BD82368DA60C4
:100E3000002222666266BDE8F08800F089FF6368E0
:100E400000EB5302B2FBF3F292B20020E8E76368D2
:100E50005A0802F5740202F51052B2FBF3F292B294
:100E60000020DDE700F06CFB636800EB5302B2FB8F
:100E7000F3F292B20020D3E763685A0802F5004209
:100E8000B2FBF3F292B20020CAE701200022C7E7CA
:100E90000120CDE70120CBE70120C9E70120C7E70A
:100EA0000120C5E70120C3E7436A13F0010F06D014
:100EB0000268536823F40033816A0B435360436A2A
:100EC00013F0020F06D00268536823F48033C16A1E
:100ED0000B435360436A13F0040F06D00268536853
:100EE00023F48023016B0B435360436A13F0080F14
:100EF00006D00268536823F40043416B0B435360F0
:100F0000436A13F0100F06D00268936823F48053ED
:100F1000816B0B439360436A13F0200F06D0026885
:100F2000936823F40053C16B0B439360436A13F03F
:100F3000400F0AD00268536823F48013016C0B43FE
:100F40005360036CB3F5801F0BD0436A13F0800F1E
:100F500006D00268536823F40023816C0B4353606E
:100F600070470268536823F4C003416C0B4353601D
:100F7000EBE72DE9F04105460F4616469846069CDC
:100F80002B68DB6937EA03030CBF01230023B3425C
:100F90001DD1B4F1FF3FF3D02CB100F073FAA0EBF8
:100FA0000800A042ECD92A68136823F4D0731360B8
:100FB0002A68936823F001039360202385F8713039
:100FC00085F87230002385F87030032000E000209F
:100FD000BDE8F0812DE9F04182B01E4690F87130F5
:100FE000DBB2202B4ED104460D46904600294ED050
:100FF000002A4ED090F87030012B4CD0012380F89D
:10100000703000234367212380F8713000F03AFAF2
:101010000746A4F85080A4F8528009E023682A7893
:101020001A850135B4F85230013B9BB2A4F8523016
:10103000B4F852309BB2ABB100963B4600228021FF
:101040002046FFF796FF40BBA368B3F5805FE5D16C
:101050002369002BE2D1226835F8023BC3F3080371
:101060001385DFE700963B46002240212046FFF72C
:1010700080FF034698B9202284F87120002284F86A
:10108000702000E00223184602B0BDE8F081012381
:10109000F9E70123F7E70223F5E70323F3E7032347
:1010A000F1E730B583B004460023436700F0EAF966
:1010B000054623681B6813F0080F0ED123681B68D0
:1010C00013F0040F17D1202384F8713084F87230A4
:1010D000002084F8700003B030BD6FF07E430093B1
:1010E000034600224FF400112046FFF742FF00287C
:1010F000E4D00320EFE76FF07E4300932B460022FD
:101100004FF480012046FFF734FF0028DBD0032096
:10111000E1E778B310B5044690F871300BB324239F
:1011200084F871302268136823F0010313602046AD
:10113000FFF7A8FC012813D0636ABBB92268536883
:1011400023F4904353602268936823F02A0393604A
:101150002268136843F0010313602046FFF7A1FFE4
:1011600010BD80F8703002F085F8D8E72046FFF710
:101170009BFEE3E701207047704770470268D36821
:1011800043F00103D36002689168084B0B40062BC3
:1011900009D09168054B0B40B3F5803F03D013682D
:1011A00043F0010313600020704700BF07000100F7
:1011B000704770477047704710B5044603681A6956
:1011C00012F0020F11D0DA6812F0020F0DD06FF09A
:1011D00002021A610123037703689B6913F0030F6E
:1011E00079D0FFF7E6FF0023237723681A6912F00E
:1011F000040F12D0DA6812F0040F0ED06FF0040260
:101200001A610223237723689B6913F4407F68D017
:101210002046FFF7CEFF0023237723681A6912F0D8
:10122000080F12D0DA6812F0080F0ED06FF0080223
:101230001A61042323772368DB6913F0030F57D067
:101240002046FFF7B6FF0023237723681A6912F0C0
:10125000100F12D0DA6812F0100F0ED06FF01002DB
:101260001A61082323772368DB6913F4407F46D093
:101270002046FFF79EFF0023237723681A6912F0A8
:10128000010F03D0DA6812F0010F3FD123681A6909
:1012900012F0800F03D0DA6812F0800F3DD123687E
:1012A0001A6912F4807F03D0DA6812F0800F3BD104
:1012B00023681A6912F0400F03D0DA6812F0400F69
:1012C00039D123681A6912F0200F03D0DA6812F0BE
:1012D000200F37D110BDFFF76BFF2046FFF76AFFE5
:1012E00081E72046FFF764FF2046FFF763FF92E7A0
:1012F0002046FFF75DFF2046FFF75CFFA3E720468F
:10130000FFF756FF2046FFF755FFB4E76FF00102E5
:101310001A612046FFF74EF9B8E76FF080021A61B4
:10132000204600F095F8BAE76FF480721A61204603
:1013300000F08FF8BCE76FF040021A612046FFF71B
:101340003AFFBEE76FF020021A61204600F07FF8F6
:10135000C0E700000368304A904212D0B0F1804FDD
:101360000FD0A2F5943290420BD002F580629042E9
:1013700007D002F58062904203D002F59432904289
:1013800003D123F070034A681343234A90421ED0CE
:10139000B0F1804F1BD0A2F59432904217D002F5E5
:1013A0008062904213D002F5806290420FD002F525
:1013B000943290420BD002F54062904207D002F581
:1013C0008062904203D002F58062904203D123F400
:1013D0004073CA68134323F080034A6913430360D0
:1013E0008B68C3620B6883620B4B98420FD003F586
:1013F000006398420BD003F54063984207D003F591
:101400008063984203D003F58063984201D10B6951
:101410000363012343617047002C0140A8B110B55C
:10142000044690F83D305BB1022384F83D30211D25
:101430002068FFF78FFF012384F83D30002010BDA6
:1014400080F83C30FFF799FEEEE7012070477047C7
:101450007047704710B5032001F0A0F9002001F09B
:10146000CDFF10B10124204610BD044601F01CFE42
:10147000F9E70000024A136801331360704700BFA8
:101480001C070020014B1868704700BF1C07002094
:1014900038B50446FFF7F6FF0546B4F1FF3F00D02C
:1014A0000134FFF7EFFF401BA042FAD338BD000024
:1014B00030B583B00546204B9B6D13F0805F0BD099
:1014C00001F014F9B0F5007F17D0802D1FD82DD072
:1014D000702D2DD000211BE0174CA36D43F08053DD
:1014E000A365A36D03F080530193019B01F0FEF807
:1014F000A36D23F08053A365E4E7802D03D9A02DCD
:1015000003D9022104E0002102E0012100E00321CF
:101510000A4A136823F007030B431360136803F0B0
:1015200007038B4206D0012003B030BD0221EFE754
:101530000121EDE70020F7E7001002400020024003
:10154000314A9368D26802F0030213F00C030AD008
:101550000C2B06D0042B1FD0082B20D000200146D6
:1015600010E0012AF6D1284A126812F0080F0CD1B7
:10157000254AD2F89420C2F30322244951F82210BC
:1015800043B100200C2B0DD070471F4A1268C2F3E4
:101590000312F2E70846F5E71D480021F2E71D486F
:1015A0000021EFE7184BDA6802F00302DB68C3F3AF
:1015B00002130133022A0AD0032A1AD0B1FBF3F333
:1015C000114AD068C0F3062000FB03F008E0104881
:1015D000B0FBF3F30C4AD068C0F3062000FB03F025
:1015E000094BDB68C3F3416301335B00B0FBF3F0ED
:1015F000CAE70848B0FBF3F3034AD068C0F30620FB
:1016000000FB03F0ECE700BF00100240A43F00081D
:101610000024F40000127A00002800F0C182F0B526
:1016200083B00446AC4B9D6805F00C05DE6806F0FF
:101630000306036813F0100F5DD0E5B10C2D18D030
:10164000A369002B00F0B780A34A136843F001039D
:101650001360FFF717FF07469F4B1B6813F0020F3D
:1016600040F09680FFF70EFFC01B0228F4D9032339
:10167000A2E2012EE4D1984B1B6813F0020F03D0B5
:10168000A369002B00F08F82206A934B1B6813F034
:10169000080F5DD0904B1B6803F0F00398425ED9B1
:1016A000FFF706FF002840F080828B4B1A6842F05B
:1016B00008021A601A6822F0F002216A0A431A60CE
:1016C0005A6822F47F42E16942EA01225A60FFF738
:1016D00037FF814B9B68C3F30313804AD35C03F04D
:1016E0001F03D8407E4B1860002001F087FE0346A0
:1016F000002840F06182236813F0010F7AD0082D92
:101700006FD00C2D6BD06368B3F5803F00F09180F3
:10171000B3F5A02F00F093806F4B1A6822F480324B
:101720001A601A6822F480221A606368002B00F0A5
:101730009380FFF7A7FE0746674B1B6813F4003F33
:1017400058D1FFF79FFEC01B6428F5D9032333E26D
:10175000614BD3F894301B0903F0F0039EE75E4B16
:101760001A6842F008021A601A6822F0F002216A30
:101770000A431A605A6822F47F42E16942EA012270
:101780005A60206AFFF794FE0028A0D0012313E2DC
:10179000514B1A6842F008021A601A6822F0F002EF
:1017A000216A0A431A605A6822F47F42E16942EAD8
:1017B00001225A609FE7484A136823F0010313602F
:1017C000FFF760FE0746444B1B6813F0020F92D0F0
:1017D000FFF758FEC01B0228F5D90323ECE1032EC6
:1017E00091D13D4B1B6813F4003F03D06368002B7D
:1017F00000F0DD81236813F0020F4FD0042D3CD0A0
:101800000C2D38D0E368002B75D0334A136843F4AD
:1018100080731360FFF736FE06462F4B1B6813F4E8
:10182000806F5FD1FFF72EFE801B0228F5D90323BE
:10183000C2E1294A136843F48033136075E703F16A
:101840008043A3F53C331A6842F480221A601A6878
:1018500042F480321A6068E7FFF714FE07461E4B19
:101860001B6813F4003FC5D0FFF70CFEC01B6428B3
:10187000F5D90323A0E1022EC4D1174B1B6813F442
:10188000806F03D0E368002B00F09381124A536805
:1018900023F0FE43216943EA01635360236813F098
:1018A000080F53D06369002B39D00B4AD2F894301B
:1018B00043F00103C2F89430FFF7E4FD0646064BFF
:1018C000D3F8943013F0020F40D1FFF7DBFD801BFB
:1018D0000228F4D903236FE1001002408C3F000876
:1018E00000000020B74A536823F0FE43216943EA11
:1018F00001635360D2E7B34A136823F48073136023
:10190000FFF7C0FD0646AF4B1B6813F4806FC5D0D0
:10191000FFF7B8FD801B0228F5D903234CE1A94A43
:10192000D2F8943023F00103C2F89430FFF7AAFDF7
:101930000646A44BD3F8943013F0020F06D0FFF7FD
:10194000A1FD801B0228F4D9032335E1236813F09D
:10195000040F7AD09B4B9B6D13F0805F0BD1994B9A
:101960009A6D42F080529A659B6D03F0805301930B
:10197000019B012600E00026934B1B6813F4807F37
:1019800026D0A368012B37D0052B3DD08D4BD3F843
:10199000902022F00102C3F89020D3F8902022F08A
:1019A0000402C3F89020A368002B3BD0FFF76AFD28
:1019B0000746844BD3F8903013F0020F44D1FFF761
:1019C00061FDC01B41F288339842F2D90323F3E052
:1019D0007D4A136843F480731360FFF753FD074695
:1019E000794B1B6813F4807FCBD1FFF74BFDC01BF5
:1019F0000228F5D90323DFE0724AD2F8903043F091
:101A00000103C2F89030CEE76E4BD3F8902042F03D
:101A10000402C3F89020D3F8902042F00102C3F8EA
:101A20009020C0E7FFF72EFD0746664BD3F89030B5
:101A300013F0020F08D0FFF725FDC01B41F28833D9
:101A40009842F2D90323B7E0E6B9236813F0200FD8
:101A500035D0636AE3B15B4AD2F8983043F00103B2
:101A6000C2F89830FFF70EFD0646564BD3F8983073
:101A700013F0020F23D1FFF705FD801B0228F4D9D4
:101A8000032399E04F4A936D23F080539365DCE77D
:101A90004C4AD2F8983023F00103C2F89830FFF78F
:101AA000F1FC0646474BD3F8983013F0020F06D0EE
:101AB000FFF7E8FC801B0228F4D903237CE0A36A2B
:101AC000002B78D00C2D7AD0022B23D03D4B1A68F6
:101AD00022F080721A601B6813F0205F04D1394A2B
:101AE000D36823F00303D360364AD36823F08873A6
:101AF00023F48033D360FFF7C5FC0446314B1B68E9
:101B000013F0007F4AD0FFF7BDFC001B0228F5D977
:101B1000032351E02B4A136823F080731360FFF70F
:101B2000B1FC0546274B1B6813F0007F06D0FFF77A
:101B3000A9FC401B0228F5D903233DE0236B5A1E64
:101B4000636B1B0243EA0213E26A1343E26B52081F
:101B5000013A43EA4253226C5208013A43EA426393
:101B6000A26B43EAC263174AD360136843F08073E1
:101B70001360D36843F08073D360FFF783FC04469F
:101B8000104B1B6813F0007F06D1FFF77BFC001B96
:101B90000228F5D903230FE000230DE000230BE01A
:101BA000012318467047012306E0012304E00123C6
:101BB00002E0012300E00023184603B0F0BD01233A
:101BC000FAE700BF0010024000700040002800F05B
:101BD0009A8070B504464E4B1B6803F007038B4296
:101BE0000CD24B4A136823F007030B4313601368AE
:101BF00003F007038B4201D0012070BD0D4623681E
:101C000013F0010F39D06368032B09D0022B26D0C3
:101C100063BB404A126812F0020F06D10120ECE7C4
:101C20003C4A126812F0007F6FD03A498A6822F06D
:101C3000030213438B60FFF725FC0646354B9B6878
:101C400003F00C036268B3EB820F16D0FFF71AFCA7
:101C5000801B41F288339842F0D90320CDE72D4A0A
:101C6000126812F4003FE0D10120C6E7294A126849
:101C700012F4806FD9D10120BFE7236813F0020F5F
:101C800006D0244A936823F0F003A1680B439360C5
:101C90001F4B1B6803F00703AB420CD91C4A1368A7
:101CA00023F007032B431360136803F00703AB42D1
:101CB00001D00120A1E7236813F0040F06D0154AD4
:101CC000936823F4E063E1680B439360236813F0A7
:101CD000080F07D00F4A936823F46053216943EA41
:101CE000C1039360FFF72CFC0A4B9B68C3F30313FB
:101CF000094AD35C03F01F03D840084B186000204A
:101D000001F07CFB79E701207047012075E700BFF7
:101D100000200240001002408C3F0008000000201C
:101D2000014B1868704700BF0000002008B5FFF79E
:101D3000F7FF054B9B68C3F30223044AD35C03F00F
:101D40001F03D84008BD00BF001002409C3F0008A0
:101D500008B5FFF7E5FF054B9B68C3F3C223044AB0
:101D6000D35C03F01F03D84008BD00BF0010024041
:101D70009C3F00080F2303600B4B9A6802F003029C
:101D800042609A6802F0F00282609A6802F4E062AF
:101D9000C2609B68DB0803F4E0630361034B1B68CC
:101DA00003F007030B607047001002400020024060
:101DB000F8B5594BDB6813F0030F18D0564BDB68AE
:101DC00003F003030268934202D001252846F8BDC0
:101DD000002A00F09F80504BDB68C3F302130133ED
:101DE0004268934201D00125F0E700251AE003681C
:101DF000022B58D0032B5DD0012B01D001250FE021
:101E0000454A126812F0020F60D0434DEA6822F092
:101E100073024468013C43EA04131343EB6000255A
:101E2000002DD3D10F4604463B4A136823F080634C
:101E30001360FFF727FB0646374B1B6813F0006F54
:101E400005D0FFF71FFB801B0228F5D90325002DC5
:101E5000BCD1002F3CD130490B6923F0784323F4E7
:101E6000FE43A068E268D20642EA002213430B61F7
:101E7000294A136843F080631360FFF703FB0646AB
:101E8000254B1B6813F0006F05D1FFF7FBFA801B91
:101E90000228F5D90325002D98D11F4A1369A1699D
:101EA0000B43136192E71C4A126812F4806FACD1A5
:101EB0000125B5E7184A126812F4003FA5D1164A69
:101EC000126812F4802FA0D10125A9E70125A7E708
:101ED000012F0FD01048026922F0C06222F4FE42A6
:101EE000A16863695B08013B5B0643EA0123134376
:101EF0000361BDE70848026922F4C00222F4FE42F1
:101F0000A16823695B08013B5B0543EA0123134396
:101F10000361ADE7012559E700100240F8B5504BC9
:101F2000DB6813F0030F18D04D4BDB6803F003039D
:101F30000268934202D001252846F8BD002A00F02D
:101F40008D80474BDB68C3F3021301334268934231
:101F500001D00125F0E700251AE00368022B58D0D4
:101F6000032B5DD0012B01D001250FE03C4A126804
:101F700012F0020F60D03A4DEA6822F07302446812
:101F8000013C43EA04131343EB600025002DD3D139
:101F90000F460446324A136823F080531360FFF75C
:101FA00071FA06462E4B1B6813F0005F05D0FFF751
:101FB00069FA801B0228F5D90325002DBCD1002F1A
:101FC0003CD127494B6923F0784323F4FE43A068B2
:101FD000E268D20642EA002213434B61204A1368AA
:101FE00043F080531360FFF74DFA06461C4B1B6805
:101FF00013F0005F05D1FFF745FA801B0228F5D9E1
:102000000325002D98D1164A536961690B4353612A
:1020100092E7134A126812F4806FACD10125B5E73C
:102020000F4A126812F4003FA5D10D4A126812F44B
:10203000802FA0D10125A9E70125A7E7084842691B
:1020400022F0C06222F4FE42A16823695B08013BD2
:102050005B0643EA012313434361BFE701256BE7B6
:10206000001002402DE9F04182B00446036813F4E9
:10207000006F2FD0836EB3F5800F25D008D9B3F54C
:10208000000F10D0B3F5400F40F09980002610E00B
:10209000002B40F0948000210430FFF789FE0646B3
:1020A0003EB1374618E05E4AD36843F48033D360CC
:1020B00000265B4AD2F8883023F44003A16E0B431C
:1020C000C2F88830002707E000212030FFF726FF04
:1020D0000646E5E700273E46236813F4805F15D0E7
:1020E000E36EB3F1807F7AD06CD9B3F1007F70D00A
:1020F000B3F1407F7AD1002E7BD1494AD2F88830A3
:1021000023F04073E16E0B43C2F88830236813F468
:10211000003F00F08E80424B9B6D13F0805F6AD1D0
:102120003F4B9A6D42F080529A659B6D03F080534D
:102130000193019B4FF001083A4A136843F48073FE
:102140001360FFF79FF90546364B1B6813F4807F39
:1021500005D1FFF797F9401B0228F5D90326002E79
:1021600062D12F4BD3F8903013F4407316D0D4F8CB
:1021700088209A4212D02A4AD2F8903023F4407331
:10218000D2F8901041F48031C2F89010D2F890103B
:1021900021F48031C2F89010C2F8903013F0010F92
:1021A0002CD1002E40F051811D4AD2F8903023F4FA
:1021B0004073D4F888100B43C2F8903035E0012703
:1021C0003E4689E793B90021201DFFF7F1FD064641
:1021D00091E7134AD36843F48033D3608BE700213F
:1021E00004F12000FFF79AFE064684E701273E46E9
:1021F0008CE737468AE74FF000089DE7FFF742F982
:102200000546074BD3F8903013F0020FC9D1FFF702
:1022100039F9401B41F288339842F2D90326C0E7CE
:1022200000100240007000403746B8F1000F40F047
:102230000E81236813F0010F08D0A44AD2F8883029
:1022400023F00303A16B0B43C2F88830236813F01B
:10225000020F08D09D4AD2F8883023F00C03E16BBE
:102260000B43C2F88830236813F0040F08D0974A54
:10227000D2F8883023F03003216C0B43C2F8883049
:10228000236813F0080F08D0904AD2F8883023F062
:10229000C003616C0B43C2F88830236813F0100F41
:1022A00008D08A4AD2F8883023F44073A16C0B43DB
:1022B000C2F88830236813F0200F08D0834AD2F880
:1022C000883023F44063E16C0B43C2F88830236804
:1022D00013F4007F08D07D4AD2F8883023F44023DD
:1022E000216E0B43C2F88830236813F4806F08D046
:1022F000764AD2F8883023F44013616E0B43C2F85B
:102300008830236813F0400F08D0704AD2F8883024
:1023100023F44053216D0B43C2F88830236813F037
:10232000800F08D0694AD2F8883023F44043616DA9
:102330000B43C2F88830236813F4807F08D0634AC7
:10234000D2F8883023F44033A16D0B43C2F88830B3
:10235000236813F4801F08D05C4AD2F89C3023F025
:102360000303E16D0B43C2F89C30236813F4005F54
:102370000FD0564AD2F8883023F04063216F0B43C8
:10238000C2F88830236FB3F1006F66D0B3F1806F6D
:1023900068D0236813F4002F0FD04C4AD2F888304D
:1023A00023F04063616F0B43C2F88830636FB3F171
:1023B000006F5FD0B3F1806F61D0236813F4802F7A
:1023C0000FD0424AD2F8883023F04063A16F0B430C
:1023D000C2F88830A36FB3F1006F58D0B3F1806FAB
:1023E0005AD0236813F4804F0FD0384AD2F888307F
:1023F00023F04053E16F0B43C2F88830E36FB3F131
:10240000805F51D0B3F1005F56D0236813F4004FC2
:1024100009D02E4AD2F8883023F08043D4F88010B7
:102420000B43C2F88830236813F4803F09D0274A51
:10243000D2F8883023F00043D4F884100B43C2F85C
:102440008830384602B0BDE8F0813746EDE61F4AD5
:10245000936D23F080539365EBE6D36843F48013C8
:10246000D36096E70121201DFFF7A2FC002890D041
:1024700007468EE7D36843F48013D3609DE70121BC
:10248000201DFFF795FC002897D0074695E7D368F5
:1024900043F48013D360A4E70121201DFFF788FCDB
:1024A00000289ED007469CE70221201DFFF780FCF4
:1024B0000028AAD00746A8E7022104F12000FFF770
:1024C0002DFD0028A1D007469FE700BF0010024065
:1024D000F0B482B0002336E0072400E00024B440CA
:1024E0003C430235644E46F82540644C2568D4438D
:1024F00004EA05064F6817F4803F01D042EA05065A
:102500005E4D2E606D6804EA05064F6817F4003FC3
:1025100001D042EA0506594D6E60AD6804EA050631
:102520004F6817F4801F01D042EA0506534DAE6094
:10253000ED682C404E6816F4001F01D042EA0504F5
:102540004E4AD46001330A6832FA03F400F09180F5
:1025500001249C402240F5D04D68022D01D0122D5F
:1025600010D1DE08083650F826C003F00705AF008A
:102570000F25BD402CEA050C0D69BD4045EA0C0550
:1025800040F8265006685F000325BD40ED4305EA8C
:10259000060C4E6806F00306BE4046EA0C060660CE
:1025A0004E6806F1FF3CBCF1010F03D9112E01D09A
:1025B000122E10D1866805EA060CCE68BE4046EAA7
:1025C0000C068660466826EA04044E68C6F30016C8
:1025D0009E4026434660C46825408C68BC402C431E
:1025E000C4604C6814F0805FACD0254C256E45F07B
:1025F00001052566246E04F001040194019C9D08E8
:10260000AE1C1D4C54F8267003F00304A6000F24E2
:10261000B44027EA0407B0F1904F3FF45FAF194C84
:10262000A0421AD004F58064A04218D004F580645A
:10263000A04216D004F58064A04214D004F5806452
:10264000A04212D004F58064A04210D004F580644A
:10265000A0423FF441AF082441E701243FE70224B0
:102660003DE703243BE7042439E7052437E7062444
:1026700035E702B0F0BC70470000014000040140A3
:1026800000100240000400480AB98162704781616D
:102690007047436959404161704708B590F825304B
:1026A000DBB2022B03D00423C363012008BD026800
:1026B000136823F00E0313600268136823F001030C
:1026C0001360436C03F01C03016C012202FA03F354
:1026D0004B6080F82520002380F82430836B13B1F1
:1026E00098470020E2E70020E0E70000024B18686E
:1026F00000F4C060704700BF00700040B0F5007F7C
:102700000FD01F4B1B6803F4C063B3F5806F34D048
:102710001B4A136823F4C06343F4806313600020F2
:102720007047174B1B6803F4C063B3F5007F22D0DA
:10273000134A136823F4C06343F400731360114B0E
:102740001A68322303FB02F30F4AA2FB03239B0CFC
:10275000013300E0013B0A4A526912F4806F01D054
:10276000002BF7D1064B5B6913F4806F01D1002079
:10277000704703207047002070470020704700BF5B
:10278000007000400000002083DE1B43024A5368B3
:1027900043F400735360704700700040074AD368E9
:1027A00023F4E0631B041B0C000200F4E0601843F8
:1027B00040F0BF6040F40030D060704700ED00E0B2
:1027C00030B4174BDB68C3F30223C3F10704042CB6
:1027D00028BF04241D1D062D18D9033B4FF0FF35DB
:1027E00005FA04F421EA0401994005FA03F322EA08
:1027F0000303194300280BDB0901C9B200F1604053
:1028000000F5614080F8001330BC70470023E5E715
:1028100000F00F000901C9B2024B1954F4E700BFE0
:1028200000ED00E014ED00E000F01F02400901237C
:102830009340024A42F82030704700BF00E100E0B8
:1028400043684B609A688A609A6851609960086131
:1028500003680133036070470369426881689160CF
:102860008268416851605A68824206D00022026143
:102870001A68013A1A601868704782685A60F5E76A
:10288000084B1B681B683BB1064B1B68DB68DB68A9
:102890005A68054B1A607047034B4FF0FF321A60BD
:1028A000704700BF8800002028010020F8B53A4B8F
:1028B0001B68002B64D1394B1D6801351D60C5B9FB
:1028C000374B1B681B6843B14FF0100383F311882B
:1028D000BFF36F8FBFF34F8FFEE7314A1168314B63
:1028E000186810601960304A136801331360FFF7ED
:1028F000C7FF2E4B1B68AB4238D900242C4B1B68FA
:10290000DB6A03EB83039A002A4B9B58012B3CD9CB
:1029100001243AE00124224B1B681B6843B3204B7F
:102920001B68DB68DE6873689D4226D3371D384616
:10293000FFF792FFB36A1BB106F11800FFF78CFF97
:10294000F36A01229A401C49086802430A6003EBBB
:1029500083039A00394617481044FFF771FFF26A63
:10296000134B1B68DB6A9A42D4D2D4E70024D2E727
:102970000E4B4FF0FF321A60C0E70C4A1360BDE700
:102980000E4A13680133136000240D4B1B6803B11A
:1029900001242046F8BD00BF2001002030010020A6
:1029A000880000208C0000202C010020280100203D
:1029B0008400002090000020240100201C01002041
:1029C00034010020204B1B681BB1204B01221A60F0
:1029D00070471E4B00221A601D4B1B68B3FA83F32D
:1029E000DBB2C3F11F0303EB83018A0019498A5844
:1029F00042B94FF0100383F31188BFF36F8FBFF319
:102A00004F8FFEE710B413489A00D418A100014478
:102A10004C6864684C601A44910008310844844250
:102A20000BD003EB83039A000A4B13445B68DA680C
:102A3000094B1A605DF8044B704761680548142221
:102A400002FB03025160ECE720010020340100206A
:102A500024010020900000208400002000000000DD
:102A6000074B19680868B0E8F04F80F30988BFF396
:102A70006F8F4FF0000080F311887047AFF3008034
:102A800084000020000000000000000000000000A2
:102A9000EFF30980BFF36F8F154B1A681EF0100F0C
:102AA00008BF20ED108A20E9F04F10602DE90900E1
:102AB0004FF0100080F31188BFF34F8FBFF36F8F7B
:102AC000FFF780FF4FF0000080F3118809BC196800
:102AD0000868B0E8F04F1EF0100F08BFB0EC108A85
:102AE00080F30988BFF36F8F704700BFAFF300809A
:102AF0008400002008B54FF0100383F31188BFF362
:102B00006F8FBFF34F8FFFF7D1FE18B1034B4FF01C
:102B100080521A60002383F3118808BD04ED00E0A1
:102B20000F49D1F8883043F47003C1F888300D4B59
:102B30001A6842F001021A60002098601A6822F0B8
:102B4000A85222F410221A604FF48052DA601A68F8
:102B500022F480221A6098614FF000638B60704706
:102B600000ED00E00010024008B500F0E1F800F0D0
:102B7000C9F800F0BDFC4FF4E13000F089F808BD61
:102B80000A4B01221A700A4A5A600A4A9A600A4A93
:102B9000DA600A4A1A610A4A5A610A4A9A610A4A7A
:102BA000DA610A4A1A620A4A5A627047100600201D
:102BB000A802002040030020F00300204C06002063
:102BC0000C070020B0050020200300205406002040
:102BD000A00500200A4B02221A700A4A5A600A4ACB
:102BE0009A600A4ADA600A4A1A610A4A5A610A4A2B
:102BF0009A610A4ADA610A4A1A620A4A5A627047B4
:102C0000B8050020A0010020C00600205C060020BE
:102C1000200200203C060020A80500204C010020D6
:102C200018020020180500200A4B03221A700A4AD5
:102C30005A600A4A9A600A4ADA600A4A1A610A4ADB
:102C40005A610A4A9A610A4ADA610A4A1A620A4AC7
:102C50005A627047E4050020280200205401002039
:102C60008C030020A0020020380300202005002053
:102C700014070020440600204401002008B5FFF797
:102C800073FFFFF77DFFFFF7A5FFFFF7CDFF08BD3F
:102C900008B50A4B0A4A1A60586000229A60DA6046
:102CA0001A610C2159619A611A625A621846FEF73C
:102CB00030FA00B908BDFDF789FCFBE75404002099
:102CC0000080004000B583B002A941F8040D4FF622
:102CD000FF7301220348FEF77DF9019803B05DF808
:102CE00004FB00BF5404002070B51646002405E024
:102CF0004D1C0878FFF7E6FF01342946B442F7DBA4
:102D0000304670BD08B50848084B03600623436091
:102D100040F6FF73C3608360FDF7AFFD00B908BDE7
:102D2000FDF754FCFBE700BF280300200030004003
:102D30002DE9F0478CB000240794089409940A9474
:102D40000B94914BDA6C42F01002DA64DA6C02F008
:102D500010020092009ADA6C42F00402DA64DA6C33
:102D600002F004020192019ADA6C42F02002DA6465
:102D7000DA6C02F020020292029ADA6C42F001024E
:102D8000DA64DA6C02F001020392039ADA6C42F020
:102D90000202DA64DA6C02F002020492049ADA6C3B
:102DA00042F04002DA64DA6C02F040020592059AC1
:102DB000DA6C42F00802DA64DB6C03F00803069375
:102DC000069BFFF7E3FC714D012240F2FC7128469F
:102DD000FFF75AFC6E4E012244F228113046FFF7ED
:102DE00053FC22464FF400713046FFF74DFC694F0B
:102DF00001224FF442713846FFF746FC01220221BE
:102E00004FF09040FFF740FC012280214FF09040AE
:102E1000FFF73AFCDFF8D091012203214846FFF783
:102E200033FC22464FF481414846FFF72DFCDFF882
:102E3000BCA101224FF440415046FFF725FC40F26F
:102E4000FC7307934FF00108CDF8208009940A9491
:102E500007A92846FFF73CFB4FF4005307934E4B5E
:102E60000893099407A93846FFF732FB44F2A833C8
:102E70000793CDF8208009940A9407A93046FFF7FC
:102E800027FB4FF442730793CDF8208009940A94EE
:102E900007A93846FFF71CFB82230793CDF8208053
:102EA00009940A9407A94FF09040FFF711FB44F2F0
:102EB00083030793CDF8208009940A9407A9484614
:102EC000FFF706FB032307930894099407A93348E7
:102ED000FFF7FEFA4FF440430793CDF820800994A2
:102EE0000A9407A95046FFF7F3FA2D4B1F604FF4E1
:102EF000007199802B4A17604FF4807393802A48A1
:102F0000066008228280294C4FF09040206080208B
:102F1000A080274C26604FF0200CA4F804C0254C5C
:102F20002760A280244C25600427A780234C2560BD
:102F30001027A780224C25604027A780214C2560C0
:102F4000A4F804C0204C2660A380204C2560A280F9
:102F50001F4A156090801F4A15604FF48060908072
:102F60001D4A16604FF4804090801C4A1560938083
:102F70001B4B1D6099801B4BC3F8009002229A8066
:102F80000CB0BDE8F08700BF001002400010004800
:102F90000014004800080048000011100018004804
:102FA0004C0600200C070020B00500202003002064
:102FB00054060020A0050020200200203C0600202E
:102FC000A80500204C010020180200201805002050
:102FD000A002002038030020200500201407002054
:102FE000440600204401002000040048000C004872
:102FF00000B5BBB0242200212AA800F0F3FA00217A
:10300000249125912691279128918C2201A800F0E6
:10301000E9FA1823299301222E922F9290233193BB
:103020000223339334920522359247223692379306
:1030300038930623399329A8FEF7EEFA28BB0F230D
:10304000249303232593902326934FF4806327939F
:103050000021289124A8FEF7B9FDC8B9114B0193AE
:1030600000231093119313931493159316931793AE
:10307000189301A8FEF7F6FF68B94FF40070FFF748
:103080003DFB58B93BB05DF804FBFDF79FFAD6E76E
:10309000FDF79CFAE2E7FDF799FAEEE7FDF796FAFD
:1030A000F0E700BFF601100000B583B00D4B1A6EBB
:1030B00042F001021A661A6E02F001020092009AB2
:1030C0009A6D42F080529A659B6D03F08053019394
:1030D000019B00220F216FF00100FFF771FB03B08D
:1030E0005DF804FB00100240F0B58FB004460023E9
:1030F00009930A930B930C930D930268554B9A42D4
:103100000BD02368544A93422AD0544A934248D061
:10311000534A934266D00FB0F0BD524DEB6C43F072
:103120000203EB64EB6C03F002030093009B4FF48B
:103130004073099312230A9301230B9303230C93E7
:1031400004230D9309A94848FFF7C2F9AB6D43F476
:103150000013AB65AB6D03F400130193019BD0E743
:10316000404CE36C43F02003E364E36C03F0200382
:103170000293029B0323099312220A9201220B92CB
:103180000C9304230D9309A93848FFF7A1F9A36D07
:1031900043F48003A365A36D03F480030393039BAF
:1031A000B9E7304CE36C43F00403E364E36C03F0F1
:1031B00004030493049B0323099312220A9201221D
:1031C0000B920C9304230D9309A92948FFF780F96A
:1031D000A36D43F40003A365A36D03F400030593FB
:1031E000059B98E71F4CE36C43F02003E364E36C1A
:1031F00003F020030693069BE36C43F00203E364B1
:10320000E36C03F002030793079B4FF40043099319
:1032100012270A9701260B9603250C9504230D937C
:1032200009A91248FFF754F94FF4806309930A97EC
:103230000B960C950D9509A90B48FFF749F9E36D1D
:1032400043F00203E365E36D03F002030893089B78
:1032500061E700BF0054004000580040005C00409F
:1032600000840040001002400004004800140048A0
:103270000008004870B58EB0002309930A930B93A1
:103280000C930D930368554A93420AD0544A9342D3
:103290002CD0544A93425ED0534A93427CD00EB015
:1032A00070BD524BDA6D42F00102DA65DA6D02F060
:1032B00001020092009ADA6C42F04002DA64DB6CA0
:1032C00003F040030193019BFFF760FA4FF4C073D2
:1032D000099302230A9300230B9303230C930823DF
:1032E0000D9309A94248FFF7F3F8D8E73F4B9A6DD1
:1032F00042F480129A659A6D02F480120292029A48
:10330000DA6C42F00402DA64DA6C02F0040203922E
:10331000039ADA6C42F00802DA64DB6C03F008030B
:103320000493049B4FF48053099302260A960325C5
:103330000C9508240D9409A92E48FFF7C9F8042319
:1033400009930A9600230B930C950D9409A92A481A
:10335000FFF7BEF8A3E7254B9A6D42F400329A6559
:103360009A6D02F400320592059ADA6C42F001027D
:10337000DA64DB6C03F001030693069B0C230993CC
:1033800002230A9303230C9307230D9309A94FF0FB
:103390009040FFF79DF882E7144B9A6D42F480222B
:1033A0009A659A6D02F480220792079ADA6C42F0CD
:1033B0000802DA64DB6C03F008030893089B4FF4FF
:1033C0004073099302230A9303230C9307230D935D
:1033D00009A90948FFF77CF861E700BF00800040B9
:1033E00000500040004400400048004000100240EF
:1033F0000018004800080048000C004800B589B0DB
:10340000002201461920FFF7DBF91920FFF70CFA1B
:10341000144B1A6E42F400621A661B6E03F40063CA
:103420000193019B02A903A8FEF7A4FCFEF790FC00
:103430000D4BA3FB00239B0C013B0C480C4A026084
:1034400040F2E732C2604360002303618360FDF70E
:10345000E5FF18B1012009B05DF804FB0348FDF752
:103460008DFEF8E70010024083DE1B43200700209A
:10347000002C01407047FEE7FEE7FEE7FEE77047DD
:1034800008B50248FDF798FE08BD00BF20070020E0
:1034900008B50248FDF73EFA08BD00BFA0010020B4
:1034A00008B50248FDF736FA08BD00BF2802002023
:1034B00008B50248FDF72EFA08BD00BFA80200209B
:1034C00008B50248FDF740F908BD00BF8C03002095
:1034D00008B50248FDF738F908BD00BF5C060020BA
:1034E00008B50248FDF730F908BD00BFF003002021
:1034F00008B51248124B0360124B436000238360EF
:103500000122C260036143618361C3610362FDF70D
:1035100062F850B900210948FDF7BBF840B9002115
:103520000648FDF7E4F830B908BDFDF74FF8F1E7BC
:10353000FDF74CF8F3E7FDF749F8F5E7CC04002078
:1035400000540040261A1000DFF834D0002103E0B8
:103550000C4B5B58435004310B480C4B42189A42B9
:10356000F6D30B4A02E0002342F8043B094B9A428F
:10357000F9D3FFF7D5FA00F011F8FCF7E3FFFEE707
:1035800000000520504000080000002068000020D6
:103590006800002064070020FEE7000070B50D4EB3
:1035A0000D4CA41BA4100025A54209D10B4E0C4CB8
:1035B00000F0BEFCA41BA4100025A54205D170BDDF
:1035C00056F8253098470135EEE756F825309847EC
:1035D0000135F2E740400008404000084040000844
:1035E0004440000802440346934200D1704703F868
:1035F000011BF9E770B50E46054618B183690BB992
:1036000000F00CFAAB69AC6813B9284600F006FA72
:10361000234B9C4217D16C68A3891B071DD52369D6
:10362000DBB1013EA36816F8011F013BA360E9B9B5
:10363000002B2EDA22460A21284600F03FF80130FE
:1036400011D00A2011E0174B9C4201D1AC68E3E78E
:10365000154B9C4208BFEC68DEE72146284600F087
:103660007FF80028DDD04FF0FF3070BD002B04DA6A
:10367000A2699A4206DC0A2904D023685A1C2260F7
:103680001970CFE72246284600F018F80130C9D15A
:10369000E9E723680A205A1C22601870E5E700BF9A
:1036A000F83F000818400008D83F0008024B0146C8
:1036B0001868FFF79FBF00BF04000020F8B50E4652
:1036C0001446054618B183690BB900F0A7F9214BE0
:1036D0009C422AD16C68A369A360A3891A072ED5DE
:1036E000236963B323692068C01A6369F6B2834211
:1036F000374604DC2146284600F026F928BBA3689B
:10370000013BA36023685A1C22601E70636901306C
:10371000834204D0A389DB0719D50A2E17D121468D
:10372000284600F011F990B10FE00B4B9C4201D1FB
:10373000AC68D0E7094B9C4208BFEC68CBE7214658
:10374000284600F00DF80028CCD04FF0FF3738465F
:10375000F8BD00BFF83F000818400008D83F000837
:10376000324B70B51D6806460C4625B1AB6913B9DE
:10377000284600F053F92E4B9C420FD16C68B4F9E7
:103780000C309AB215072CD4D00611D4092232601D
:1037900043F04003A3814FF0FF303EE0254B9C42B5
:1037A00001D1AC68EBE7244B9C4208BFEC68E6E72C
:1037B000510712D5616B41B104F14403994202D023
:1037C000304600F019FA00236363A38923F0240331
:1037D000A3810023636023692360A38943F0080366
:1037E000A38123694BB9A38903F42073B3F5007F48
:1037F00003D02146304600F0BFF9A28912F0010340
:103800000CD00023A36063695B42A361236953B9B1
:10381000B4F90C3013F08000BAD170BD920758BFD4
:103820006369A360F2E70020F7E700BF040000200F
:10383000F83F000818400008D83F00088A892DE9A1
:10384000F041054610070C4658D44B68002B05DCA8
:103850000B6C002B02DC0020BDE8F081E66A002E34
:10386000F9D0002312F480522F68216A2B6032D0E5
:10387000606DA3895A0705D56368C01A636B0BB1E5
:10388000236CC01A00230246E66A216A2846B04724
:10389000431CA38906D129681D2948D8294ACA4052
:1038A000D60744D500226260D9042269226004D57B
:1038B000421C01D12B6803B96065616B2F60002940
:1038C000C9D004F14403994202D0284600F094F98B
:1038D00000206063C0E701232846B047411CC8D1DF
:1038E0002B68002BC5D01D2B01D0162B01D12F60CA
:1038F000B1E7A38943F04003A381ADE70F69002F2F
:10390000A9D093070E6808BF4B690F6018BF00234A
:10391000A6EB07088B60B8F1000F9CDD43463A46E2
:10392000216AA66A2846B047002806DCA38943F02E
:103930004003A3814FF0FF308EE70744A8EB000857
:10394000E9E700BF0100402038B50B6905460C4689
:10395000DBB118B183690BB900F060F80C4B9C42E5
:1039600009D16C68B4F90C307BB121462846BDE81A
:103970003840FFF763BF074B9C4201D1AC68F1E7C9
:10398000054B9C4208BFEC68ECE7002038BD00BF47
:10399000F83F000818400008D83F0008002310B581
:1039A0000446C0E90033836081814366C281C0E977
:1039B00004338361194608225C30FFF713FE054B80
:1039C0006362054BA362054BE362054B24622363EC
:1039D00010BD00BF693D00088B3D0008C33D0008D5
:1039E000E73D0008014900F085B800BF49390008EB
:1039F00070B54A1E682555430E4605F1740100F066
:103A000049F9044640B10021C0E900160C30A0601D
:103A100005F16802FFF7E6FD204670BD836910B529
:103A2000044633BBC0E912330365124B124A1B68CC
:103A30008262984204BF0123836100F01FF8606036
:103A4000204600F01BF8A060204600F017F8002286
:103A5000E06004216068FFF7A1FF01220921A0684E
:103A6000FFF79CFF02221221E068FFF797FF012376
:103A7000A36110BDD43F0008E5390008F8B51B4B21
:103A80001E68B369074613B93046FFF7C7FF4836CB
:103A9000D6E90134013B03D5336833B13668F7E723
:103AA000B4F90C506DB16834F4E704213846FFF7DF
:103AB0009FFF30600028F1D10C233B600446204674
:103AC000F8BD0B4B6566C4E90055A560C4E9033534
:103AD000C4E905550822294604F15C00FFF782FD80
:103AE000C4E90D55C4E91255E9E700BFD43F000809
:103AF0000100FFFF2DE9F8438046894600F14804A4
:103B0000002614B93046BDE8F883D4E90175013FB9
:103B100001D52468F5E7AB89012B07D9B5F90E303B
:103B2000013303D029464046C84706436835EEE7CF
:103B300070B50E46B1F90E10002996B014461D4618
:103B400007DA00232B60B3891A0610D44FF4806380
:103B50000EE06A4600F06EF90028F2DB019A02F4EA
:103B60007042A2F500535A425A412A60EEE74023C0
:103B70000020236016B070BD8B8973B59D07064683
:103B80000C4607D504F147032360236101236361D9
:103B900002B070BD01AB6A46FFF7CAFF0099054647
:103BA000304600F077F848B9B4F90C309A05EFD4F4
:103BB00023F0030343F00203A381E3E70D4BB36259
:103BC000A389206043F08003A381009B6361019B74
:103BD00020615BB1B4F90E10304600F03DF928B118
:103BE000A38923F0030343F00103A381A3891D43A9
:103BF000A581CDE7E539000838B50546002945D04F
:103C000051F8043C0C1F002BB8BFE41800F046F933
:103C10001F4A1368104633B9636014602846BDE834
:103C2000384000F03CB9A3420CD921686218934295
:103C300004BF1A685B68636004BF521822600460A6
:103C4000ECE713465A680AB1A242FAD91968581823
:103C5000A0420BD120680144581882421960DDD17E
:103C6000106852685A6001441960D7E702D90C23E2
:103C70002B60D3E7206821188A4204BF116852687C
:103C8000626004BF091821605C60C7E738BD00BFEF
:103C90003801002070B5CD1C25F0030508350C2D2A
:103CA00038BF0C25002D064601DBA94203D90C23A1
:103CB0003360002070BD00F0F1F8214A14682146FD
:103CC00091B9204C23681BB9304600F03DF82060C4
:103CD0002946304600F038F8431C24D10C233360C9
:103CE000304600F0DCF8E4E70B685B1B18D40B2BC4
:103CF0000FD90B60CD50CC18304600F0D0F804F14D
:103D00000B00231D20F00700C31AD3D05A42E25003
:103D1000D0E78C424B6816BF636013600C46EBE73C
:103D20000C464968CCE7C41C24F00304A04205D02B
:103D3000211A304600F008F80130CFD02560DBE7CB
:103D4000380100203C01002038B5064C0023054610
:103D50000846236000F0DEF8431C02D1236803B15B
:103D60002B6038BD6007002010B50C46B1F90E106D
:103D700000F096F80028ABBF636DA3891B1823F4ED
:103D80008053ACBF6365A38110BD2DE9F0411F4690
:103D90008B89DB0505460C46164605D50223002215
:103DA000B1F90E1000F068F8A389B4F90E1023F4ED
:103DB0008053A38132463B462846BDE8F04100F0DF
:103DC00017B810B50C46B1F90E1000F055F8431CA9
:103DD000A38915BF606523F4805343F48053A38106
:103DE00018BFA38110BDB1F90E1000F013B8000088
:103DF00038B5074C054608461146002222601A468F
:103E0000FEF772FF431C02D1236803B12B6038BD5B
:103E10006007002038B5064C00230546084623609D
:103E200000F050F8431C02D1236803B12B6038BD69
:103E30006007002038B5074C0023054608461146A8
:103E4000236000F047F8431C02D1236803B12B60C4
:103E500038BD00BF6007002038B5064C002305467A
:103E60000846236000F03EF8431C02D1236803B1EA
:103E70002B6038BD6007002038B5074C0546084662
:103E80001146002222601A4600F034F8431C02D189
:103E9000236803B12B6038BD60070020704770476E
:103EA00038B5074C054608461146002222601A46DE
:103EB00000F028F8431C02D1236803B12B6038BD01
:103EC00060070020024B58221A604FF0FF30704705
:103ED00060070020024B58221A604FF0FF307047F5
:103EE00060070020024B58221A600020704700BF74
:103EF00060070020024B58221A604FF0FF307047D5
:103F000060070020024B58221A604FF0FF307047C4
:103F100060070020044A05491368002B08BF0B46C0
:103F200018441060184670474001002068070020C0
:103F3000F8B500BFF8BC08BC9E467047F8B500BF96
:083F4000F8BC08BC9E46704766
:103F48002A2A2A2A2A2A2A2A2A2A2A2A2A2A2A2AC9
:103F58002A2A2A2A2A2A2A2A2A2A2A2A2A2A2A2AB9
:103F68002A2A2A2A2A2A2A2A2A0D00006E6F207352
:103F780063686564756C6572206578616D706C65E1
:103F88000D00000000000000000000000102030412
:103F9800060708090000000001020304A0860100CA
:103FA800400D0300801A060000350C0040420F0047
:103FB80080841E0000093D0000127A000024F400ED
:103FC80000366E010048E801006CDC0208000020A1
:103FD80000000000000000000000000000000000D9
:103FE80000000000000000000000000000000000C9
:103FF80000000000000000000000000000000000B9
:1040080000000000000000000000000000000000A8
:104018000000000000000000000000000000000098
:104028000000000000000000000000000000000088
:08403800E8C1FF7F0100000058
:08404000D5010008000000009A
:08404800B101000800000000B6
:1040500000093D000800002000000000F83F0008B3
:1040600018400008D83F00080000000000000000D1
:104070000000000000000000000000000000000040
:104080000000000000000000000000000000000030
:104090000000000000000000000000000000000020
:1040A0000000000000000000000000000000000010
:0840B000000000000000000008
:040000050800354971
:00000001FF
