:020000040800F2
:1000000000000520CD6B0008F96A0008FB6A0008B3
:10001000FD6A0008FF6A0008016B0008000000008C
:10002000000000000000000000000000B15C0008BB
:10003000036B000800000000515D0008B55D00087A
:100040001D6C00081D6C00081D6C00081D6C00086C
:100050001D6C00081D6C00081D6C00081D6C00085C
:100060001D6C00081D6C00081D6C00081D6C00084C
:100070001D6C00081D6C00081D6C00081D6C00083C
:100080001D6C00081D6C00081D6C00081D6C00082C
:100090001D6C00081D6C00081D6C00081D6C00081C
:1000A0001D6C0008056B00081D6C00081D6C000825
:1000B0001D6C00081D6C00081D6C00081D6C0008FC
:1000C0001D6C00081D6C00081D6C0008456B0008C5
:1000D000556B00081D6C0008156B0008256B0008A7
:1000E0001D6C00081D6C00081D6C00081D6C0008CC
:1000F0001D6C00081D6C00081D6C00081D6C0008BC
:100100001D6C00081D6C00081D6C0008656B000864
:100110001D6C0008356B00081D6C00081D6C000884
:100120001D6C00081D6C00081D6C00081D6C00088B
:100130001D6C00081D6C00081D6C00081D6C00087B
:100140001D6C00081D6C00081D6C00081D6C00086B
:100150001D6C00081D6C00081D6C00081D6C00085B
:100160001D6C00081D6C00081D6C00081D6C00084B
:100170001D6C00081D6C00081D6C000800000000CC
:100180001D6C00081D6C00081D6C00081D6C00082B
:100190001D6C00081D6C00081D6C00081D6C00081B
:1001A0001D6C00081D6C000800000000000000002D
:1001B00010B5054C237833B9044B13B10448AFF3A1
:1001C00000800123237010BDB0000020000000005B
:1001D000A47C000808B5034B1BB103490348AFF3E7
:1001E000008008BD00000000B4000020A47C0008CE
:1001F00001F0FF01102A2BDB10F0070F08D010F8D8
:10020000013B013A8B422DD010F0070F42B3F6D1DB
:10021000F0B441EA012141EA014122F007047FF0F4
:1002200000070023F0E80256083C85EA010586EA4B
:10023000010685FA47F5A3FA87F586FA47F6A5FA87
:1002400087F68EB9EED1F0BC01F0FF0102F0070293
:1002500032B110F8013B013A83EA010313B1F8D13E
:100260000020704701387047002D06BF354603381F
:10027000073815F0010F07D1013015F4807F02BF58
:10028000013015F4C03F0130F0BC0138704700BFA9
:1002900053B94AB9002908BF00281CBF4FF0FF31ED
:1002A0004FF0FF3000F072B9ADF1080C6DE904CEEB
:1002B00000F006F8DDF804E0DDE9022304B0704741
:1002C0002DE9F047089E04468846002B4BD18A4210
:1002D000154667D9B2FA82F24AB1C2F1200701FA93
:1002E00002F320FA07F7954047EA030894404FEAE3
:1002F000154E230CB8FBFEF71FFA85FC0EFB178882
:1003000043EA084307FB0CF1994209D9EB1807F1BE
:10031000FF3080F01B81994240F21881023F2B444C
:100320005B1AA4B2B3FBFEF00EFB103344EA0344A5
:1003300000FB0CFCA44509D92C1900F1FF3380F017
:100340000781A44540F2048102382C4440EA07406A
:10035000A4EB0C0400271EB1D4400023C6E90043DF
:100360003946BDE8F0878B4209D9002E00F0EB80BA
:100370000027C6E9000138463946BDE8F087B3FAE0
:1003800083F7002F47D18B4202D3824200F2FA80DA
:10039000841A61EB030301209846002EE0D0C6E9E1
:1003A0000048DDE702B9FFDEB2FA82F2002A40F02F
:1003B0008F80491B4FEA154E1FFA85F80127B1FBC4
:1003C000FEFC230C0EFB1C1143EA014308FB0CF15D
:1003D000994207D9EB180CF1FF3002D2994200F292
:1003E000CD808446591AA3B2B1FBFEF00EFB101467
:1003F00043EA044408FB00F8A04507D92C1900F192
:10040000FF3302D2A04500F2B6801846A4EB0804E0
:1004100040EA0C409FE7C7F1200CBB4022FA0CFEDB
:100420004EEA030E01FA07F420FA0CF521FA0CF358
:100430004FEA1E482543B3FBF8F92C0C08FB19338F
:100440001FFA8EFA44EA034309FB0AF49C4202FABB
:1004500007F200FA07F10BD91EEB030309F1FF3095
:1004600080F087809C4240F28480A9F102097344A5
:100470001B1BADB2B3FBF8F008FB103345EA034495
:1004800000FB0AFAA24508D91EEB040400F1FF3371
:100490006BD2A24569D90238744440EA0940A0FBF6
:1004A0000289A4EB0A044C45C2464B4654D351D0B2
:1004B000002E69D0B1EB0A0564EB030404FA0CFCCE
:1004C000FD40FC404CEA0505C6E90054002747E71B
:1004D000C2F1200320FA03F7954001FA02F021FA55
:1004E00003F34FEA154E3843010CB3FBFEF71FFA36
:1004F00085F80EFB173341EA034107FB08F38B42F3
:1005000004FA02F407D9691807F1FF3C2FD28B4295
:100510002DD9023F2944CB1A81B2B3FBFEF00EFB6A
:10052000103341EA034100FB08F38B4207D96918F5
:1005300000F1FF3C17D28B4215D902382944C91A61
:1005400040EA07473BE73746304609E70746E7E614
:100550001846FBE64145ABD2B8EB020A69EB0E0246
:1005600001381346A4E76046E9E7184695E7674671
:10057000D1E781467CE702382C4447E7ACF1020C16
:100580002B442FE7384608E73746E9E6704700BFB7
:1005900000B583B0194B1B785BB314238DF8003082
:1005A000174B1B888DF801301B0A8DF802304FF075
:1005B000FF31144B186805F0A5F90321684601F0D6
:1005C000B7F890B90D4A13780133137040F6B8307C
:1005D00005F03EF90B4B186805F0CCF9084A138872
:1005E0000133138003B05DF804FB044B01221A7041
:1005F000ECE7054806F0B6FEF4E700BFCE000020A9
:10060000CC000020C0480220D47C000808B508486F
:1006100006F0A8FE074B1B7803B108BD064BD3E9D3
:10062000000101F005F8034B187001F067F8F4E7DA
:10063000FC7C0008CE000020604A022008B502E0E1
:10064000012005F005F94FF0FF31012004F000FE14
:100650000128F5D101F084F8F2E7000008B5034B5A
:10066000834200D008BD01F07FF8FBE794460220EA
:1006700030B583B01A4C204606F074FE194D28465A
:1006800006F070FE184806F06DFE284606F06AFE79
:10069000204606F067FE154B6C4693E8030084E89D
:1006A0000300134806F0EAFD03E0124806F0E6FDF9
:1006B000013421780029F8D10F4806F053FE0F4C81
:1006C0004FF40041204603F07EFA4FF4FA6002F046
:1006D00079F94FF40041204603F075FA03B030BDBC
:1006E00018890008587D0008847D0008604A0220AF
:1006F000987D0008A47D0008AC7D0008000C00482F
:1007000000B58BB002F040F905F0B4FF01F02EF90E
:1007100005F0F0FC2C4CC4E90001FFF7A9FFD4E977
:10072000000100F085FF294B1870002847D10026F2
:100730000AA840F8046D05F0DFF8254B186004ACFA
:10074000244D0FCD0FC42B682360314604A805F05B
:1007500065F8214B186000F0E5FF304605F022FEF9
:100760000AA81E4B40F81C3D3246012105F07AF8DC
:100770001B4B186041F2883105F088F80AA8194B24
:1007800040F8203D3246012105F06CF8164B186008
:100790004EF6602105F07AF80AA8144B40F8243D83
:1007A0003246012105F05EF8114B1860114905F041
:1007B0006DF8114806F0D6FD05F02BF8FEE70F485E
:1007C00006F0D0FDB3E700BF604A0220CE00002053
:1007D000C0480220C07C0008CC4A0220A563000863
:1007E000504B022091050008BC4502200D06000870
:1007F000C84A022080EE36003C7D0008207D0008BB
:1008000008B50268034B9A4200D008BD02F0CCF84C
:10081000FBE700BF002C014070470000094A118827
:100820000B0243EA11239BB25840C0F30313584014
:1008300080EA003000B283B25B0103F4FF535840FA
:1008400010807047D000002070B506460D46084B5A
:100850004FF6FF721A80002404E0305DFFF7DEFFE0
:100860000134E4B2AC42F8D3014B188870BD00BF2C
:10087000D0000020B0B500AF0C460B79DA1D02F4B1
:10088000FC72ADEB020D6D460022694601F02BF8BB
:100890000E4A13780133DBB21370A278934201D071
:1008A0000A4B1A7021792846FFF7CEFF6279C0F310
:1008B0000F239A4202D00020BD46B0BDA379C0B23A
:1008C000834201D00020F7E70120F5E7EC0100208A
:1008D00030B5C1B0094D284600F0DCFFC4B2224655
:1008E0006946284601F032F84FF47A732246694689
:1008F0000348006801F008FE41B030BDDC01002073
:10090000CC4B022010B5064C01222146054B18683D
:1009100001F0C0F901222146034800F06CFF10BD30
:10092000B04B0220CC4B0220B44B0220F0B583B078
:1009300007460E461546FFF787FF134A1378013323
:10094000DBB21370C0228DF8002000248DF8014026
:100950008DF802308DF803508DF80460030A8DF88D
:1009600005308DF80600094D07226946284600F03B
:1009700042FF32463946284600F03DFF2046FFF749
:10098000A7FF03B0F0BD00BFED010020DC01002097
:1009900030B587B04E4B1C785CBB4E4800F07AFFF8
:1009A00007282ED94C4D072300222946494800F03C
:1009B0009AFF2B78C02B01D16B7873B1454D012183
:1009C000284600F082FF0023414A1370434A137007
:1009D000284600F05FFF072813D83D4B01221A700C
:1009E00007213C4800F071FF3B4B1A793B4B1A70D2
:1009F00007E0384800F04EFF384B1B78984203D28E
:100A00000024204607B030BD0022324902A800F081
:100A1000DAFE314902A8FFF72DFF08B32E4BDB7831
:100A2000012B0DD0032B27D0042B2CD0022B31D03F
:100A3000052B3BD0294B197802A800F046FF05E0B2
:100A4000274A1268002AEDD002A89047234B1D7850
:100A500002A800F01FFF291A89B21E4800F035FFD6
:100A600000231E4A13701A4A13701A4800F012FF2E
:100A70000728C6D80024C4E71A4A1268002AD3D02F
:100A800002A89047E2E7184A1268002ACED002A8CE
:100A90009047DBE78DF80430012102A800F015FF34
:100AA0000322012101A8FFF741FFCFE7012201A99D
:100AB00002A800F04BFF9DF804100C4806F0DEFB86
:100AC0000B4B1B68002BC1D09DF804009847BDE775
:100AD000EE010020B44B0220C44B0220EF010020A5
:100AE000D4000020F0010020D8000020C87D0008BC
:100AF000F402002010B50C4C2060FF220B490C487A
:100B000000F05BFE0020FFF7E3FEFFF741FF4FF42C
:100B100080720849084800F050FE01220749206809
:100B200001F0B8F810BD00BFCC4B0220DC00002063
:100B3000DC010020F4010020B44B0220B04B022065
:100B4000012904D0032905D0042906D07047044B9D
:100B500018607047034B18607047034B1860F5E747
:100B6000D4000020F0010020D8000020014B1860C4
:100B7000704700BFF4020020F0B5CBB00446002659
:100B8000374618E09DF81E10634B1A78914204D145
:100B90009DF81C709DF81D600DE0604806F06EFB2E
:100BA00009E05F4B1B68DD682DB10AAB099A089913
:100BB0009DF81C00A847204600F06CFE002800F0BD
:100BC0009C8006A9204600F077FC9DF81830043B75
:100BD0001F2B00F28C8001A252F823F0A30B000817
:100BE000EF0C0008EF0C0008EF0C0008EF0C0008F9
:100BF000EF0C0008EF0C0008EF0C0008EF0C0008E9
:100C0000EF0C0008EF0C0008EF0C0008EF0C0008D8
:100C1000EF0C0008EF0C0008EF0C0008EF0C0008C8
:100C2000EF0C0008EF0C0008EF0C0008EF0C0008B8
:100C3000EF0C0008EF0C0008EF0C0008EF0C0008A8
:100C4000EF0C0008EF0C0008EF0C00085D0C00082A
:100C5000EF0C0008750C0008850B0008304B1B6872
:100C60009D68002DA7D00AAB099A08999DF81C0031
:100C7000A847A0E79DF81C31D72B09D0284B1B684B
:100C80005B68002B97D007A99DF81C01984792E755
:100C90006D460DF11C0CBCE80F000FC59CE803006D
:100CA00045F8040B25F8021B090C29709DF80D303E
:100CB000C3F30113032B0FD8DFE803F01715020C61
:100CC0000825184806F0DAFA29460DF10F0006F05B
:100CD000D5FAD3E70225F4E7134B144A4FF4977182
:100CE000134805F09DFF0025EBE70125E9E70E4BD2
:100CF000104A6921104805F093FF57B1084B1B6853
:100D00001B681BB1044A117830469847024B0022F9
:100D10005A704BB0F0BD00BFFC020020347E0008CA
:100D2000F80200208C7E0008647E0008FC7D00082C
:100D30006C7E0008E47D0008A47E000808B5034B23
:100D40001860006908B1FFF711FF08BDF802002024
:100D500010B5002406E0FFF71BFE052001F032FE6F
:100D60000134E4B2034800F095FD08B1312CF2D90A
:100D700010BD00BFB44B022008B5FFF7BBFE012138
:100D80000348FFF7DDFE034B00225A7008BD00BF89
:100D9000790B0008FC020020014B00225A707047BA
:100DA000FC02002070B5104B5B78ABB90E4D0124EE
:100DB0006C702E1D4FF4807205F11401304600F066
:100DC000FCFC0A4B197829700A191A702246304621
:100DD00000F0C6FB204670BD054806F04FFA00F053
:100DE0008DFC0020F7E700BFFC020020100400206B
:100DF000187E00082DE9F04782B0074688469146E4
:100E00009A46FFF7CFFF0446C8B10A9B1B78D3B1BF
:100E1000012B20D0022B26D0174D2E1DCDF800A07F
:100E20004B4642463946304600F00CFB304600F057
:100E300031FD0122C1B205F11400FFF777FD204614
:100E400002B0BDE8F0870C230A9A0432D7210B4880
:100E500000F0A8F9E0E722230A9A043203210748A8
:100E600000F0A0F9D8E72C230A9A043202210348A3
:100E700000F098F9D0E700BFFC020020000300203A
:100E800008B50B714A710122063100F05FFD00B90F
:100E900008BD034B034AD421034805F0C1FE00BF3F
:100EA00084870008787F0008C487000870B586B082
:100EB000AAB104460D4693B901220DF1170100F0C5
:100EC00045FD90B99DF8173085F80431D72B12D025
:100ED000023BDBB2012B40F2848006B070BD4A4B6E
:100EE0004A4AD9214A4805F09BFE4A4B474ADB2132
:100EF000474805F095FE6E4655F8040F6968AA68E4
:100F0000EB680FC628693060AA8AAB7DB280B371E6
:100F100001226946204600F019FD02220DEB020174
:100F2000204600F013FDBDF802305BBAADF8023088
:100F3000012201A9204600F009FD01220DF1050161
:100F4000204600F003FD01220DF10701204600F0CC
:100F5000FDFC012202A9204600F0F8FC01220DF15F
:100F60000901204600F0F2FC01220DF10A012046A1
:100F700000F0ECFC01220DF10B01204600F0E6FC34
:100F800001220DF10D01204600F0E0FC01220DF1DF
:100F90000E01204600F0DAFC9DF80D30C3F301137A
:100FA000032B07D8DFE803F01B0D0204082209E039
:100FB000022207E0184B194A4FF49771184805F0C0
:100FC0002FFE00220DF10F01204600F0BFFC00288B
:100FD00083D0144B0D4AF0210D4805F021FE01226B
:100FE000F0E7AB88ADF800300121204600F06DFC41
:100FF00001226946204600F0A9FC01220DEB020106
:10100000204600F0A3FC68E7008700088C7F0008FA
:10101000C48700080C870008647E0008C87E0008AA
:101020006C7E00083887000810B582B0044602A91B
:10103000002301F8013D012200F088FC9DF8070023
:10104000820901D102B010BD00F03F00D3009840EA
:1010500002A941F8080D204600F078FC0098F1E75D
:1010600030B585B0054601913F2925D9B1F5804FAE
:101070002ED20124B1F5800F00D30324A301DBB2EB
:101080008DF80F3004AA224412F80C2C134404A942
:1010900001F8013D0122284600F0ADFBD0B9013C2A
:1010A000E4B2012201AB1919284600F0A4FBB8B93B
:1010B000002CF4D105B030BD012201A900F09BFB4A
:1010C0000028F7D0094B0A4A3F210A4805F0A8FD3D
:1010D0000224CFE7084B064A4C21064805F0A0FD44
:1010E000064B034A4F21034805F09AFD708500081E
:1010F000E47E0008C4870008A4850008CC850008A9
:1011000030B583B004460D4601226946284600F0FA
:101110001DFC58B92846FFF787FF019002AB13E981
:10112000030084E80300204603B030BD024B034AAD
:101130005521034805F074FDEC860008007F000887
:10114000C487000870B582B005460E466C4601465D
:101150002046FFF7D5FF331D94E8030083E8030022
:101160002846FFF761FFF060FF2807D882B206F13A
:101170001001284600F0EAFB02B070BD024B034AA2
:10118000C221034805F04CFDE4870008607F000899
:10119000C487000808B5FFF7D5FF08BD08B5FFF7FD
:1011A000D1FF08BDF0B583B0EAB104460E461F4634
:1011B0001546322100F062FBD8B93146204600F0D6
:1011C0005DFBE0B9D72E20D0022E6ED0032E00F0AA
:1011D000C1803A462946204600F00DFB002840F029
:1011E000FA8003B0F0BD7F4B7F4A6B217F4805F04A
:1011F00017FD7F4B7C4A6C217C4805F011FD7D4B2F
:10120000794A6D21794805F00BFD2978204600F0D8
:1012100035FB90B96978204600F030FB98B9A97881
:10122000204600F02BFBA0B9AB78C3F30113032BCE
:101230002AD8DFE803F0323014276F4B6A4A712155
:101240006A4805F0EDFC6D4B674A7221674805F06E
:10125000E7FC6B4B644A7321644805F0E1FC082607
:10126000E978204600F00AFBC8B93246291D20461D
:1012700000F0C1FA0028B4D0624B5B4A76215B488B
:1012800005F0CEFC0226EBE75F4B604A4FF4977106
:101290005F4805F0C5FC0026E2E70126E0E75D4B6C
:1012A000514A7521514805F0BBFC95F828104900BA
:1012B00001F0FE01204600F0E1FA68BB95F8291024
:1012C000204600F0DBFA68BB10222946204600F0D9
:1012D00092FA68BB1022A918204600F08CFA68BB6D
:1012E0002B6A1BBA02A941F8083D0422204600F0EF
:1012F00082FA48BB6B6A1BBA02A941F8043D04227A
:10130000204600F078FA00283FF46BAF424B364A93
:101310008321364805F084FC404B334A7B21334817
:1013200005F07EFC3E4B304A7C21304805F078FCCD
:101330003C4B2D4A7D212D4805F072FC3A4B2A4A40
:101340007E212A4805F06CFC384B274A802127482B
:1013500005F066FC95F82010490001F0FE012046DA
:1013600000F08CFAF8B995F82110204600F086FAC2
:10137000F8B908222946204600F03DFAF8B90822BB
:10138000A918204600F037FAF8B91022A91820460B
:1013900000F031FA00283FF424AF254B124A8C218B
:1013A000124805F03DFC1D4B0F4A88210F4805F0FF
:1013B00037FC204B0C4A89210C4805F031FC1E4BB0
:1013C000094A8A21094805F02BFC1C4B064A8B214F
:1013D000064805F025FC1A4B034A9021034805F006
:1013E0001FFC00BF04800008207F0008C48700089D
:1013F000148000084880000874800008C480000839
:101400001C810008D8810008647E0008C87E00089E
:101410006C7E000878810008A883000834820008E8
:1014200068820008C88200081C83000870830008D6
:10143000E8840008E08300084084000894840008E1
:101440003C850008F8B504460F4616461D46202187
:1014500000F014FA98B93946204600F00FFAA0B906
:1014600031462046FFF7FCFD29462046FFF7F8FDF0
:10147000AAB20699204600F0BEF960B9F8BD094B42
:10148000094A9721094805F0CBFB094B064A9821E8
:10149000064805F0C5FB074B034A9B21034805F0AE
:1014A000BFFB00BF088600083C7F0008C487000817
:1014B000D87F00084486000830B583B005460C4646
:1014C00001220DF1070100F041FAF0B99DF8071073
:1014D000C1F38012CB0901F03F018DF80710217094
:1014E00004391F292CD8DFE801F0162B2B2B2B2BCE
:1014F0002B2B2B2B2B2B2B2B2B2B2B2B2B2B2B2B3C
:101500002B2B2B2B2B2B1C2B2621114B114AFF2174
:10151000114805F085FB21462846FFF73BFE03B046
:1015200030BD21462846FFF739FEF8E72146284618
:10153000FFF7A6FCF3E721462846FFF7B7FCEEE7E6
:10154000064B044A40F21311034805F069FB00BF43
:10155000C4860008A47F0008C4870008647E0008D1
:1015600038B504460D46D20142F0340101F0B40111
:1015700000F084F928B92946204600F07FF938B9EF
:1015800038BD074B074A4FF4A871074805F048FBE0
:10159000064B044A40F25111034805F041FB00BFDD
:1015A00070860008B87F0008C48700089886000885
:1015B00008B5044B00221A7080F00102024805F0C1
:1015C0005DFE08BD110400204C89000830B583B0D1
:1015D000054C00252570009313460A460146034832
:1015E00005F04CFE03B030BD11040020B0890008A6
:1015F00030B583B0054C00252570009313460A468C
:101600000146034805F03AFE03B030BD1104002046
:10161000F889000808B5044B00221A70034805F049
:10162000A1FEFFF7B9FB08BD110400208C8900085A
:1016300070B596B0CDE91401254805F093FE254E0E
:10164000032108A804F084FD354608AC0FCC0FC573
:101650000FCC0FC594E8070085E8070096F82840EE
:10166000002C31D003211C4805F008FE1B491C4802
:1016700005F004FE1B4B16AA12E9030083E80300E1
:10168000144E4FF4E13307936C4606F110050FCD6D
:101690000FC495E8070084E8070096E80F0004F0FF
:1016A00039FD3269104B1A60726A104B1A6070680B
:1016B000FFF762FB0E48FFF741FB0E4805F052FEB4
:1016C0000124204616B070BD0B4805F04BFEF8E72C
:1016D00040880008D04B02209C880008C088000881
:1016E000D8880008180000201C4A022090490220D7
:1016F00000000020008900086C88000810B5084C24
:10170000236800229988186802F058FA322001F004
:1017100059F9236801229988186802F04FFA10BD20
:1017200090490220014B186001207047204A022096
:1017300030B583B00C46084B009303460A4600219F
:101740004020FFF757FB05462146044805F096FD6B
:10175000284603B030BD00BF140000201C890008DB
:1017600008B5FFF7F5FA08BD08B5FFF7CBF8064B4B
:101770001B7803B108BD054B186804F0DDFD024B72
:1017800001221A70F6E700BF11040020204A02204F
:101790000388194489B201808388994204D9B1FB36
:1017A000F3F203FB12110180704781600021018078
:1017B000013B838042800173704708B513460022C5
:1017C000FFF7F3FF08BD10B48C6884600C881444E4
:1017D00004800C88224413FA82F39BB243808A88E7
:1017E000934201D99B1A43808B8883800123037322
:1017F0005DF8044B7047F8B5037B002B36D11546D6
:101800000E4604464388008883420CD21A44824222
:101810002EDAA0682A46184405F056FA62882A444F
:101820006280002023E0D118A288914213DDD21AF1
:1018300097B2EA1B95B2A8421DD9A0683A46314634
:10184000184405F041FA2A46F119A06805F03CFA5F
:10185000658000200BE0A0682A463146184405F058
:1018600033FA62882A446280002000E01620F8BD26
:1018700041F28A30FBE741F28A30F8E700B583B0E5
:1018800002AB03F8011D01221946FFF7B4FF03B0B4
:101890005DF804FB028843889A4205D98088801A43
:1018A00013FA80F080B27047981A80B2704751B135
:1018B00010B50C46FFF7EEFFA04201D3002010BD8B
:1018C00041F28A30FBE70020704770B505460E46AE
:1018D000FFF7EDFF044608B1204670BD31462846AB
:1018E000FFF756FFF8E72DE9F04106468846144613
:1018F0001D461946FFF7DBFF0746E8B93288224448
:10190000B38892FBF3F103FB112189B2681890FBB5
:10191000F3F203FB120292B2914210D95B1A9CB20D
:10192000B36822461944404605F0CEF92A1BB16837
:1019300008EB040005F0C8F93846BDE8F081B3684B
:101940002A461944404605F0BFF9F5E770B506464A
:10195000144613460022FFF7C6FF054608B1284685
:1019600070BD21463046FFF713FFF8E708B504F0D5
:10197000B7FB08BD002859D010B5044690F8413097
:10198000002B43D0242384F841302268136823F0CD
:10199000010313606368226823F070631361226897
:1019A000936823F400439360E368012B33D0A3686A
:1019B000226843F404439360E368022B31D0226829
:1019C000536843F0007343F4004353602268D368C4
:1019D00023F40043D360236962691343A169226839
:1019E00043EA0123D360E369216A22680B43136051
:1019F0002268136843F00103136000206064202311
:101A000084F84130206384F8420010BD80F84030F3
:101A100004F0ACFEB6E7A368226843F40043936089
:101A2000CAE723684FF400625A60C8E70120704794
:101A300090F84130DBB2202B24D190F84030012BBC
:101A400022D0012380F84030242380F841300268FE
:101A5000136823F0010313600268136823F48053B2
:101A6000136002681368194311600268136843F039
:101A700001031360202380F84130002380F84030B8
:101A800018467047022070470220704790F8413096
:101A9000DBB2202B22D190F84030012B20D0012343
:101AA00080F84030242380F841300268136823F026
:101AB000010313600268136823F4706343EA012191
:101AC00011600268136843F001031360202380F85B
:101AD0004130002380F8403018467047022070479C
:101AE000022070477047000030B585B00446026898
:101AF00050689368C3F3801149B913F0010F06D001
:101B000010F0400F03D0E36C2046984708E013F034
:101B1000020F07D010F0800F04D0236D20469847A5
:101B200005B030BDC3F340151DB911B913F4807F62
:101B3000F6D010F0200FF3D079B194F85D10C9B24F
:101B4000032953D0216E41F0040121660021009148
:101B5000D168009191680091009965B1216E41F0C2
:101B6000010121660021029191680291116821F022
:101B700040011160029A13F4807F09D0236E43F074
:101B8000080323660023039323689B680393039B46
:101B9000236E002BC4D02268536823F0E003536007
:101BA000012384F85D3010F0030F27D022685368BA
:101BB00023F003035360A36D4BB1124A9A63A06DE7
:101BC00002F005F818B1236E43F040032366636DFD
:101BD000002BA5D00B4A9A63606D01F0F8FF002836
:101BE0009ED0236E43F04003236699E700230193C0
:101BF000D368019393680193019B91E72046FFF717
:101C000071FF8DE7091C000808B5806A0023A0F861
:101C10004630C387FFF766FF08BD40B338B50446BA
:101C200003684CF6CC421A60036845F255521A60BC
:101C3000036842685A60036882689A6000F0BCFEDC
:101C400005462368DA6832B100F0B6FE401B302842
:101C5000F7D9032038BD1969E268914202D01A61B0
:101C60000020F7E74AF6AA221A600020F2E70120D6
:101C700070470268136823F49073136002689368D6
:101C800023F001039360202380F872300023036661
:101C90007047000090F87230DBB2202B58D1002939
:101CA00058D0002A58D090F87030012B56D001231C
:101CB00080F870304165A0F85820A0F85A20002321
:101CC00003668368B3F5805F06D0A3B9036973B96F
:101CD000FF23A0F85C3011E0036923B940F2FF1341
:101CE000A0F85C300AE0FF23A0F85C3006E07F2318
:101CF000A0F85C3002E0B3F1805F19D000234367A5
:101D0000222380F872300268936843F001039360E5
:101D10008368B3F5805F15D0114B0366002380F80C
:101D2000703001680A6842F490720A601846704781
:101D300003691BB97F23A0F85C30DFE73F23A0F8DD
:101D40005C30DBE70369002BE6D1064B0366E5E771
:101D50000220704701207047012070470220704721
:101D6000871D0008E71D0008704708B501680A686C
:101D700022F040020A60202280F871200022426690
:101D8000FFF7F2FF08BDB0F85C2090F87230DBB2CC
:101D9000222B05D00268138B43F00803138370478E
:101DA00010B50368998CD2B2436D5C1C44650A403F
:101DB0001A70B0F85A30013B9BB2A0F85A3003B108
:101DC00010BD0268136823F490731360026893686F
:101DD00023F001039360202380F872300023036610
:101DE000FEF73CFCECE708B5B0F85C2090F87230E8
:101DF000DBB2222B05D00268138B43F00803138358
:101E000008BD0368998C436D0A401A80436D023304
:101E10004365B0F85A30013B9BB2A0F85A30002B12
:101E2000EED10268136823F490731360026893681C
:101E300023F001039360202380F8723000230366AF
:101E4000FEF70CFCDCE7704738B504460268D3693E
:101E50001168906813F00F050CD113F0200F09D012
:101E600011F0200F06D0236E002B00F09380204647
:101E700098478FE0002D6FD010F0010502D111F4CA
:101E8000907F69D013F0010F07D011F4807F04D048
:101E900001201062626F0243626713F0020F07D0E5
:101EA00035B1226802201062626F42F0040262675C
:101EB00013F0040F07D035B1226804201062626F5E
:101EC00042F00202626713F0080F09D011F0200FF0
:101ED00000D12DB1226808201062626F0243626750
:101EE000626F002A56D013F0200F06D011F0200F99
:101EF00003D0236E0BB120469847636F13F0080F91
:101F000004D123689B6813F0400F1FD02046FFF7D1
:101F1000B0FE23689A6812F0400F13D09A6822F03E
:101F200040029A60E36E4BB11D4A9A63E06E01F085
:101F30004EFE78B3E06E836B98472BE02046FFF7A8
:101F400082FF27E02046FFF77EFF23E02046FFF7D1
:101F50007AFF002363671DE013F4801F02D010F4A2
:101F6000800F0AD113F0800F0ED011F0800F0BD02C
:101F7000636E7BB1204698470CE04FF480131362E8
:101F8000204600F093FB05E013F0400F02D011F063
:101F9000400F00D138BD2046FFF7E7FEFAE700BF4B
:101FA000A51F000808B5806A0023A0F85A30A0F8E1
:101FB0005230FFF748FF08BD2DE9F048044601689C
:101FC00083680269134342691343C2691343086873
:101FD000A24A024013430B602268536823F4405323
:101FE000E1680B435360A16922689D4B9A4201D07E
:101FF000236A1943936823F430630B439360236887
:10200000984A934227D0984A934238D0974A9342AD
:102010004ED0974A934261D0964A934274D0904AE8
:10202000934200F08A8010258D4A934200F0AA80E6
:10203000E369B3F5004F00F03581082D00F2BF8150
:10204000DFE815F07F0195019F01BD01AA01BD01E7
:10205000BD01BD01B40102F55842D2F8882002F05A
:102060000302032A09D8DFE802F0020481060125F1
:10207000DAE70425D8E70825D6E71025D4E702F5E6
:10208000E632D2F8882002F00C020C2A0ED8DFE8E3
:1020900002F0070D0D0D090D0D0D6F0D0D0D0B004F
:1020A0000025C1E70425BFE70825BDE71025BBE7EC
:1020B00002F5E432D2F8882002F03002102A09D06A
:1020C00005D9202A56D0302A06D10825ACE71AB9FE
:1020D0000025A9E70425A7E71025A5E702F5E232C8
:1020E000D2F8882002F0C002402A09D005D9802AFF
:1020F00042D0C02A06D1082596E71AB9002593E7F1
:10210000042591E710258FE702F5E032D2F8882008
:1021100002F44072B2F5807F0BD007D9B2F5007F90
:102120002CD0B2F5407F06D108257DE71AB90025ED
:102130007AE7042578E7102576E702F5C832D2F869
:10214000882002F44062B2F5806F0BD007D9B2F557
:10215000006F15D0B2F5406F06D1082564E71AB9B3
:10216000002561E704255FE710255DE702255BE7B1
:10217000022559E7022557E7022555E7022553E7CF
:10218000022551E7082D00F21D81DFE815F00C0053
:102190001B0114001B0111001B011B011B01090085
:1021A0004FF4004008E001F05BF828B90020D9E0C6
:1021B00000F060FCF9E73048626802EB42038342BA
:1021C00000F20281B0EB023F00F20081082D66D8D8
:1021D000DFE805F00565206530656565580001F0AC
:1021E0003FF80025070E0602626850082B4616EBE2
:1021F000000B47F1000C58466146FEF749F80346CC
:102200002846A3F540711D4A914200F2E180226800
:10221000D360A7E0560800252B46DFF864B04FF0E6
:10222000000C1BEB06004CF10001FEF731F80346F1
:102230002846E6E700F01EFC0025070E060262684D
:1022400050082B4616EB000B47F1000C5846614630
:10225000FEF71EF803462846D3E700BFF369FFEFF9
:102260000080004000380140004400400048004029
:10227000004C0040005000400024F400FFFC0F0020
:10228000000024F45008002700252B4610F500001C
:1022900047F10001FDF7FCFF03462846B1E70120A6
:1022A0000023AEE7082D49D8DFE805F0051E2948D0
:1022B000344848483F0000F0D3FF6268530803EBFE
:1022C0004003B3FBF2F39BB20020A3F110014FF6E1
:1022D000EF7291427ED89AB222F00F02C3F342030A
:1022E00013432268D3603DE000F0CCFF62685308DE
:1022F00003EB4003B3FBF2F39BB20020E5E7626817
:10230000530803F1F47303F59043B3FBF2F39BB26C
:102310000020DAE700F0AEFB6268530803EB4003ED
:10232000B3FBF2F39BB20020CFE76268530803F5DA
:102330008033B3FBF2F39BB20020C6E701200023F9
:10234000C3E700F08DFF636800EB5302B2FBF3F2CA
:1023500092B20020A2F110014FF6EF7399423BD8E0
:102360002368DA60002222666266BDE8F08800F029
:1023700089FF636800EB5302B2FBF3F292B20020D4
:10238000E8E763685A0802F5740202F51052B2FBDE
:10239000F3F292B20020DDE700F06CFB636800EB23
:1023A0005302B2FBF3F292B20020D3E763685A08FB
:1023B00002F50042B2FBF3F292B20020CAE701201C
:1023C0000022C7E70120CDE70120CBE70120C9E7C4
:1023D0000120C7E70120C5E70120C3E7436A13F0E6
:1023E000010F06D00268536823F40033816A0B435F
:1023F0005360436A13F0020F06D00268536823F457
:102400008033C16A0B435360436A13F0040F06D054
:102410000268536823F48023016B0B435360436AC3
:1024200013F0080F06D00268536823F40043416B91
:102430000B435360436A13F0100F06D00268936891
:1024400023F48053816B0B439360436A13F0200F96
:1024500006D00268936823F40053C16B0B4393606A
:10246000436A13F0400F0AD00268536823F48013C4
:10247000016C0B435360036CB3F5801F0BD0436AB0
:1024800013F0800F06D00268536823F40023816C98
:102490000B43536070470268536823F4C003416CD8
:1024A0000B435360EBE72DE9F04105460F46164616
:1024B0009846069C2B68DB6937EA03030CBF0123AF
:1024C0000023B3421DD1B4F1FF3FF3D02CB100F093
:1024D00073FAA0EB0800A042ECD92A68136823F431
:1024E000D07313602A68936823F00103936020235C
:1024F00085F8713085F87230002385F8703003203C
:1025000000E00020BDE8F0812DE9F04182B01E46D8
:1025100090F87130DBB2202B4ED104460D46904628
:1025200000294ED0002A4ED090F87030012B4CD0AC
:10253000012380F8703000234367212380F8713035
:1025400000F03AFA0746A4F85080A4F8528009E057
:1025500023682A781A850135B4F85230013B9BB2C2
:10256000A4F85230B4F852309BB2ABB100963B465F
:10257000002280212046FFF796FF40BBA368B3F5F9
:10258000805FE5D12369002BE2D1226835F8023B58
:10259000C3F308031385DFE700963B460022402182
:1025A0002046FFF780FF034698B9202284F8712067
:1025B000002284F8702000E00223184602B0BDE833
:1025C000F0810123F9E70123F7E70223F5E703236D
:1025D000F3E70323F1E730B583B0044600234367F4
:1025E00000F0EAF9054623681B6813F0080F0ED1C6
:1025F00023681B6813F0040F17D1202384F871306F
:1026000084F87230002084F8700003B030BD6FF0A1
:102610007E430093034600224FF400112046FFF74B
:1026200042FF0028E4D00320EFE76FF07E430093E1
:102630002B4600224FF480012046FFF734FF00288C
:10264000DBD00320E1E778B310B5044690F8713091
:102650000BB3242384F871302268136823F001033C
:1026600013602046FFF7A8FC012813D0636ABBB9AA
:102670002268536823F4904353602268936823F0E0
:102680002A0393602268136843F001031360204615
:10269000FFF7A1FF10BD80F8703004F02DF9D8E7E6
:1026A0002046FFF79BFEE3E7012070477047704725
:1026B0000268D36843F00103D36002689168084B55
:1026C0000B40062B09D09168054B0B40B3F5803FBA
:1026D00003D0136843F0010313600020704700BF6C
:1026E00007000100704770477047704710B50446F7
:1026F00003681A6912F0020F11D0DA6812F0020FA3
:102700000DD06FF002021A610123037703689B6901
:1027100013F0030F79D0FFF7E6FF00232377236838
:102720001A6912F0040F12D0DA6812F0040F0ED0FA
:102730006FF004021A610223237723689B6913F464
:10274000407F68D02046FFF7CEFF00232377236821
:102750001A6912F0080F12D0DA6812F0080F0ED0C2
:102760006FF008021A61042323772368DB6913F0F2
:10277000030F57D02046FFF7B6FF002323772368C7
:102780001A6912F0100F12D0DA6812F0100F0ED082
:102790006FF010021A61082323772368DB6913F4B2
:1027A000407F46D02046FFF79EFF00232377236813
:1027B0001A6912F0010F03D0DA6812F0010F3FD14D
:1027C00023681A6912F0800F03D0DA6812F0800FC4
:1027D0003DD123681A6912F4807F03D0DA6812F0C1
:1027E000800F3BD123681A6912F0400F03D0DA68DA
:1027F00012F0400F39D123681A6912F0200F03D06C
:10280000DA6812F0200F37D110BDFFF76BFF2046BA
:10281000FFF76AFF81E72046FFF764FF2046FFF7D6
:1028200063FF92E72046FFF75DFF2046FFF75CFF5E
:10283000A3E72046FFF756FF2046FFF755FFB4E712
:102840006FF001021A612046FDF7DAFFB8E76FF07A
:1028500080021A61204600F095F8BAE76FF48072A2
:102860001A61204600F08FF8BCE76FF040021A6151
:102870002046FFF73AFFBEE76FF020021A612046BC
:1028800000F07FF8C0E700000368304A904212D0A1
:10289000B0F1804F0FD0A2F5943290420BD002F5E8
:1028A0008062904207D002F58062904203D002F528
:1028B0009432904203D123F070034A681343234AB1
:1028C00090421ED0B0F1804F1BD0A2F594329042BE
:1028D00017D002F58062904213D002F580629042D8
:1028E0000FD002F5943290420BD002F54062904234
:1028F00007D002F58062904203D002F580629042D8
:1029000003D123F44073CA68134323F080034A6958
:10291000134303608B68C3620B6883620B4B98425E
:102920000FD003F5006398420BD003F54063984243
:1029300007D003F58063984203D003F58063984283
:1029400001D10B690363012343617047002C0140EF
:10295000A8B110B5044690F83D305BB1022384F86D
:102960003D30211D2068FFF78FFF012384F83D30A3
:10297000002010BD80F83C30FFF799FEEEE7012003
:10298000704770477047704710B5032001F0A0F9F9
:10299000002004F075F810B10124204610BD044653
:1029A00003F0C4FEF9E70000024A13680133136024
:1029B000704700BFFC4B0220014B1868704700BFF6
:1029C000FC4B022038B50446FFF7F6FF0546B4F18C
:1029D000FF3F00D00134FFF7EFFF401BA042FAD3C6
:1029E00038BD000030B583B00546204B9B6D13F019
:1029F000805F0BD001F014F9B0F5007F17D0802D67
:102A00001FD82DD0702D2DD000211BE0174CA36DA9
:102A100043F08053A365A36D03F080530193019BA2
:102A200001F0FEF8A36D23F08053A365E4E7802D49
:102A300003D9A02D03D9022104E0002102E00121E5
:102A400000E003210A4A136823F007030B431360D5
:102A5000136803F007038B4206D0012003B030BD9A
:102A60000221EFE70121EDE70020F7E70010024027
:102A700000200240314A9368D26802F0030213F04A
:102A80000C030AD00C2B06D0042B1FD0082B20D00F
:102A90000020014610E0012AF6D1284A126812F0FF
:102AA000080F0CD1254AD2F89420C2F303222449FE
:102AB00051F8221043B100200C2B0DD070471F4A53
:102AC0001268C2F30312F2E70846F5E71D48002139
:102AD000F2E71D480021EFE7184BDA6802F0030225
:102AE000DB68C3F302130133022A0AD0032A1AD087
:102AF000B1FBF3F3114AD068C0F3062000FB03F0EA
:102B000008E01048B0FBF3F30C4AD068C0F306208D
:102B100000FB03F0094BDB68C3F3416301335B0047
:102B2000B0FBF3F0CAE70848B0FBF3F3034AD06800
:102B3000C0F3062000FB03F0ECE700BF00100240EA
:102B4000708A00080024F40000127A00002800F0C7
:102B5000C182F0B583B00446AC4B9D6805F00C050E
:102B6000DE6806F00306036813F0100F5DD0E5B1D0
:102B70000C2D18D0A369002B00F0B780A34A13686E
:102B800043F001031360FFF717FF07469F4B1B68D5
:102B900013F0020F40F09680FFF70EFFC01B0228D3
:102BA000F4D90323A2E2012EE4D1984B1B6813F061
:102BB000020F03D0A369002B00F08F82206A934B91
:102BC0001B6813F0080F5DD0904B1B6803F0F003F7
:102BD00098425ED9FFF706FF002840F080828B4BB9
:102BE0001A6842F008021A601A6822F0F002216A9C
:102BF0000A431A605A6822F47F42E16942EA0122DC
:102C00005A60FFF737FF814B9B68C3F30313804A79
:102C1000D35C03F01F03D8407E4B1860002003F004
:102C20002FFF0346002840F06182236813F0010F54
:102C30007AD0082D6FD00C2D6BD06368B3F5803F30
:102C400000F09180B3F5A02F00F093806F4B1A68CD
:102C500022F480321A601A6822F480221A606368B3
:102C6000002B00F09380FFF7A7FE0746674B1B6819
:102C700013F4003F58D1FFF79FFEC01B6428F5D91D
:102C8000032333E2614BD3F894301B0903F0F003C4
:102C90009EE75E4B1A6842F008021A601A6822F03A
:102CA000F002216A0A431A605A6822F47F42E169FD
:102CB00042EA01225A60206AFFF794FE0028A0D061
:102CC000012313E2514B1A6842F008021A601A6895
:102CD00022F0F002216A0A431A605A6822F47F4205
:102CE000E16942EA01225A609FE7484A136823F0EB
:102CF00001031360FFF760FE0746444B1B6813F0A7
:102D0000020F92D0FFF758FEC01B0228F5D903230B
:102D1000ECE1032E91D13D4B1B6813F4003F03D02F
:102D20006368002B00F0DD81236813F0020F4FD0A1
:102D3000042D3CD00C2D38D0E368002B75D0334ADD
:102D4000136843F480731360FFF736FE06462F4B7B
:102D50001B6813F4806F5FD1FFF72EFE801B0228E3
:102D6000F5D90323C2E1294A136843F48033136081
:102D700075E703F18043A3F53C331A6842F48022DF
:102D80001A601A6842F480321A6068E7FFF714FE8E
:102D900007461E4B1B6813F4003FC5D0FFF70CFE1F
:102DA000C01B6428F5D90323A0E1022EC4D1174B20
:102DB0001B6813F4806F03D0E368002B00F093814D
:102DC000124A536823F0FE43216943EA01635360CA
:102DD000236813F0080F53D06369002B39D00B4AD6
:102DE000D2F8943043F00103C2F89430FFF7E4FDC9
:102DF0000646064BD3F8943013F0020F40D1FFF78C
:102E0000DBFD801B0228F4D903236FE10010024090
:102E1000588A000848000020B74A536823F0FE4350
:102E2000216943EA01635360D2E7B34A136823F48C
:102E300080731360FFF7C0FD0646AF4B1B6813F4A9
:102E4000806FC5D0FFF7B8FD801B0228F5D903239A
:102E50004CE1A94AD2F8943023F00103C2F894302F
:102E6000FFF7AAFD0646A44BD3F8943013F0020FE7
:102E700006D0FFF7A1FD801B0228F4D9032335E11A
:102E8000236813F0040F7AD09B4B9B6D13F0805F87
:102E90000BD1994B9A6D42F080529A659B6D03F06D
:102EA00080530193019B012600E00026934B1B6891
:102EB00013F4807F26D0A368012B37D0052B3DD09B
:102EC0008D4BD3F8902022F00102C3F89020D3F864
:102ED000902022F00402C3F89020A368002B3BD07E
:102EE000FFF76AFD0746844BD3F8903013F0020FCA
:102EF00044D1FFF761FDC01B41F288339842F2D9FB
:102F00000323F3E07D4A136843F480731360FFF7F3
:102F100053FD0746794B1B6813F4807FCBD1FFF735
:102F20004BFDC01B0228F5D90323DFE0724AD2F81B
:102F3000903043F00103C2F89030CEE76E4BD3F8E7
:102F4000902042F00402C3F89020D3F8902042F081
:102F50000102C3F89020C0E7FFF72EFD0746664B3D
:102F6000D3F8903013F0020F08D0FFF725FDC01BF7
:102F700041F288339842F2D90323B7E0E6B92368D7
:102F800013F0200F35D0636AE3B15B4AD2F8983072
:102F900043F00103C2F89830FFF70EFD0646564B8A
:102FA000D3F8983013F0020F23D1FFF705FD801BF3
:102FB0000228F4D9032399E04F4A936D23F08053FC
:102FC0009365DCE74C4AD2F8983023F00103C2F84D
:102FD0009830FFF7F1FC0646474BD3F8983013F0D2
:102FE000020F06D0FFF7E8FC801B0228F4D9032368
:102FF0007CE0A36A002B78D00C2D7AD0022B23D052
:103000003D4B1A6822F080721A601B6813F0205F33
:1030100004D1394AD36823F00303D360364AD36816
:1030200023F0887323F48033D360FFF7C5FC044694
:10303000314B1B6813F0007F4AD0FFF7BDFC001B2B
:103040000228F5D9032351E02B4A136823F080733B
:103050001360FFF7B1FC0546274B1B6813F0007F98
:1030600006D0FFF7A9FC401B0228F5D903233DE059
:10307000236B5A1E636B1B0243EA0213E26A13437B
:10308000E26B5208013A43EA4253226C5208013A79
:1030900043EA4263A26B43EAC263174AD3601368F0
:1030A00043F080731360D36843F08073D360FFF7FD
:1030B00083FC0446104B1B6813F0007F06D1FFF71A
:1030C0007BFC001B0228F5D903230FE000230DE051
:1030D00000230BE0012318467047012306E001237B
:1030E00004E0012302E0012300E00023184603B0BE
:1030F000F0BD0123FAE700BF00100240007000405D
:10310000002800F09A8070B504464E4B1B6803F00F
:1031100007038B420CD24B4A136823F007030B437F
:103120001360136803F007038B4201D0012070BDC8
:103130000D46236813F0010F39D06368032B09D0C3
:10314000022B26D063BB404A126812F0020F06D150
:103150000120ECE73C4A126812F0007F6FD03A4938
:103160008A6822F0030213438B60FFF725FC0646B2
:10317000354B9B6803F00C036268B3EB820F16D0EB
:10318000FFF71AFC801B41F288339842F0D90320E4
:10319000CDE72D4A126812F4003FE0D10120C6E7C6
:1031A000294A126812F4806FD9D10120BFE7236841
:1031B00013F0020F06D0244A936823F0F003A168AD
:1031C0000B4393601F4B1B6803F00703AB420CD902
:1031D0001C4A136823F007032B431360136803F0A2
:1031E0000703AB4201D00120A1E7236813F0040FCD
:1031F00006D0154A936823F4E063E1680B439360BB
:10320000236813F0080F07D00F4A936823F4605324
:10321000216943EAC1039360FFF72CFC0A4B9B68CA
:10322000C3F30313094AD35C03F01F03D840084BD0
:103230001860002003F024FC79E70120704701208A
:1032400075E700BF0020024000100240588A0008C5
:1032500048000020014B1868704700BF480000205C
:1032600008B5FFF7F7FF054B9B68C3F30223044A39
:10327000D35C03F01F03D84008BD00BF001002401C
:10328000688A000808B5FFF7E5FF054B9B68C3F3A4
:10329000C223044AD35C03F01F03D84008BD00BF1B
:1032A00000100240688A00080F2303600B4B9A68E5
:1032B00002F0030242609A6802F0F00282609A68AB
:1032C00002F4E062C2609B68DB0803F4E063036120
:1032D000034B1B6803F007030B60704700100240AC
:1032E00000200240F8B5594BDB6813F0030F18D0EB
:1032F000564BDB6803F003030268934202D00125BA
:103300002846F8BD002A00F09F80504BDB68C3F3CD
:10331000021301334268934201D00125F0E70025F2
:103320001AE00368022B58D0032B5DD0012B01D08B
:1033300001250FE0454A126812F0020F60D0434D9C
:10334000EA6822F073024468013C43EA0413134321
:10335000EB600025002DD3D10F4604463B4A13688D
:1033600023F080631360FFF727FB0646374B1B688B
:1033700013F0006F05D0FFF71FFB801B0228F5D963
:103380000325002DBCD1002F3CD130490B6923F01F
:10339000784323F4FE43A068E268D20642EA0022A2
:1033A00013430B61294A136843F080631360FFF7EE
:1033B00003FB0646254B1B6813F0006F05D1FFF792
:1033C000FBFA801B0228F5D90325002D98D11F4A4E
:1033D0001369A1690B43136192E71C4A126812F446
:1033E000806FACD10125B5E7184A126812F4003F8E
:1033F000A5D1164A126812F4802FA0D10125A9E7A1
:103400000125A7E7012F0FD01048026922F0C06202
:1034100022F4FE42A16863695B08013B5B0643EA54
:10342000012313430361BDE70848026922F4C00287
:1034300022F4FE42A16823695B08013B5B0543EA75
:10344000012313430361ADE7012559E70010024052
:10345000F8B5504BDB6813F0030F18D04D4BDB6809
:1034600003F003030268934202D001252846F8BD09
:10347000002A00F08D80474BDB68C3F30213013351
:103480004268934201D00125F0E700251AE0036865
:10349000022B58D0032B5DD0012B01D001250FE06A
:1034A0003C4A126812F0020F60D03A4DEA6822F0EE
:1034B00073024468013C43EA04131343EB600025A4
:1034C000002DD3D10F460446324A136823F08053AF
:1034D0001360FFF771FA06462E4B1B6813F0005F6E
:1034E00005D0FFF769FA801B0228F5D90325002DC6
:1034F000BCD1002F3CD127494B6923F0784323F4FA
:10350000FE43A068E268D20642EA002213434B6100
:10351000204A136843F080531360FFF74DFA0646C4
:103520001C4B1B6813F0005F05D1FFF745FA801BA9
:103530000228F5D90325002D98D1164A53696169EF
:103540000B43536192E7134A126812F4806FACD1B7
:103550000125B5E70F4A126812F4003FA5D10D4AC4
:10356000126812F4802FA0D10125A9E70125A7E751
:103570000848426922F0C06222F4FE42A168236931
:103580005B08013B5B0643EA012313434361BFE74A
:1035900001256BE7001002402DE9F04182B004469E
:1035A000036813F4006F2FD0836EB3F5800F25D01E
:1035B00008D9B3F5000F10D0B3F5400F40F0998053
:1035C000002610E0002B40F0948000210430FFF72B
:1035D00089FE06463EB1374618E05E4AD36843F49A
:1035E0008033D36000265B4AD2F8883023F440034E
:1035F000A16E0B43C2F88830002707E0002120307D
:10360000FFF726FF0646E5E700273E46236813F44A
:10361000805F15D0E36EB3F1807F7AD06CD9B3F1BF
:10362000007F70D0B3F1407F7AD1002E7BD1494A20
:10363000D2F8883023F04073E16E0B43C2F8883033
:10364000236813F4003F00F08E80424B9B6D13F013
:10365000805F6AD13F4B9A6D42F080529A659B6DB4
:1036600003F080530193019B4FF001083A4A13681D
:1036700043F480731360FFF79FF90546364B1B68D0
:1036800013F4807F05D1FFF797F9401B0228F5D985
:103690000326002E62D12F4BD3F8903013F44073E1
:1036A00016D0D4F888209A4212D02A4AD2F8903004
:1036B00023F44073D2F8901041F48031C2F8901096
:1036C000D2F8901021F48031C2F89010C2F89030F6
:1036D00013F0010F2CD1002E40F051811D4AD2F879
:1036E000903023F44073D4F888100B43C2F8903024
:1036F00035E001273E4689E793B90021201DFFF7F9
:10370000F1FD064691E7134AD36843F48033D36052
:103710008BE7002104F12000FFF79AFE064684E7BC
:1037200001273E468CE737468AE74FF000089DE7C1
:10373000FFF742F90546074BD3F8903013F0020F1C
:10374000C9D1FFF739F9401B41F288339842F2D9C9
:103750000326C0E700100240007000403746B8F171
:10376000000F40F00E81236813F0010F08D0A44A27
:10377000D2F8883023F00303A16B0B43C2F88830E2
:10378000236813F0020F08D09D4AD2F8883023F046
:103790000C03E16B0B43C2F88830236813F0040F6D
:1037A00008D0974AD2F8883023F03003216C0B43BD
:1037B000C2F88830236813F0080F08D0904AD2F876
:1037C000883023F0C003616C0B43C2F88830236853
:1037D00013F0100F08D08A4AD2F8883023F44073CF
:1037E000A16C0B43C2F88830236813F0200F08D077
:1037F000834AD2F8883023F44063E16C0B43C2F86B
:103800008830236813F4007F08D07D4AD2F88830CE
:1038100023F44023216E0B43C2F88830236813F44D
:10382000806F08D0764AD2F8883023F44013616E56
:103830000B43C2F88830236813F0400F08D0704A59
:10384000D2F8883023F44053216D0B43C2F88830FE
:10385000236813F0800F08D0694AD2F8883023F427
:103860004043616D0B43C2F88830236813F4807FB6
:1038700008D0634AD2F8883023F44033A16D0B435B
:10388000C2F88830236813F4801F08D05C4AD2F84D
:103890009C3023F00303E16D0B43C2F89C30236896
:1038A00013F4005F0FD0564AD2F8883023F04063FB
:1038B000216F0B43C2F88830236FB3F1006F66D0DD
:1038C000B3F1806F68D0236813F4002F0FD04C4AF7
:1038D000D2F8883023F04063616F0B43C2F8883020
:1038E000636FB3F1006F5FD0B3F1806F61D0236875
:1038F00013F4802F0FD0424AD2F8883023F040636F
:10390000A16F0B43C2F88830A36FB3F1006F58D09A
:10391000B3F1806F5AD0236813F4804F0FD0384A28
:10392000D2F8883023F04053E16F0B43C2F888305F
:10393000E36FB3F1805F51D0B3F1005F56D02368DD
:1039400013F4004F09D02E4AD2F8883023F0804378
:10395000D4F880100B43C2F88830236813F4803FFA
:1039600009D0274AD2F8883023F00043D4F88410D5
:103970000B43C2F88830384602B0BDE8F0813746C4
:10398000EDE61F4A936D23F080539365EBE6D36811
:1039900043F48013D36096E70121201DFFF7A2FCBA
:1039A000002890D007468EE7D36843F48013D36095
:1039B0009DE70121201DFFF795FC002897D00746C1
:1039C00095E7D36843F48013D360A4E70121201D59
:1039D000FFF788FC00289ED007469CE70221201DA7
:1039E000FFF780FC0028AAD00746A8E7022104F1CF
:1039F0002000FFF72DFD0028A1D007469FE700BF5C
:103A000000100240F0B482B0002336E0072400E04A
:103A10000024B4403C430235644E46F82540644CD3
:103A20002568D44304EA05064F6817F4803F01D0A7
:103A300042EA05065E4D2E606D6804EA05064F6891
:103A400017F4003F01D042EA0506594D6E60AD689B
:103A500004EA05064F6817F4801F01D042EA050604
:103A6000534DAE60ED682C404E6816F4001F01D037
:103A700042EA05044E4AD46001330A6832FA03F47C
:103A800000F0918001249C402240F5D04D68022D29
:103A900001D0122D10D1DE08083650F826C003F0F0
:103AA0000705AF000F25BD402CEA050C0D69BD4090
:103AB00045EA0C0540F8265006685F000325BD4026
:103AC000ED4305EA060C4E6806F00306BE4046EAE2
:103AD0000C0606604E6806F1FF3CBCF1010F03D9ED
:103AE000112E01D0122E10D1866805EA060CCE6880
:103AF000BE4046EA0C068660466826EA04044E6824
:103B0000C6F300169E4026434660C46825408C6874
:103B1000BC402C43C4604C6814F0805FACD0254C92
:103B2000256E45F001052566246E04F0010401941C
:103B3000019C9D08AE1C1D4C54F8267003F0030434
:103B4000A6000F24B44027EA0407B0F1904F3FF4D9
:103B50005FAF194CA0421AD004F58064A04218D07F
:103B600004F58064A04216D004F58064A04214D00D
:103B700004F58064A04212D004F58064A04210D005
:103B800004F58064A0423FF441AF082441E70124DA
:103B90003FE702243DE703243BE7042439E70524FB
:103BA00037E7062435E702B0F0BC7047000001405B
:103BB0000004014000100240000400480AB981627C
:103BC000704781617047436959404161704708B54A
:103BD00090F82530DBB2022B03D00423C36301200D
:103BE00008BD0268136823F00E03136002681368AF
:103BF00023F001031360436C03F01C03016C0122EA
:103C000002FA03F34B6080F82520002380F824306B
:103C1000836B13B198470020E2E70020E0E7000043
:103C2000024B186800F4C060704700BF007000408D
:103C3000B0F5007F0FD01F4B1B6803F4C063B3F5D2
:103C4000806F34D01B4A136823F4C06343F480634D
:103C5000136000207047174B1B6803F4C063B3F573
:103C6000007F22D0134A136823F4C06343F4007327
:103C70001360114B1A68322303FB02F30F4AA2FBB5
:103C800003239B0C013300E0013B0A4A526912F402
:103C9000806F01D0002BF7D1064B5B6913F4806F66
:103CA00001D100207047032070470020704700209A
:103CB000704700BF007000404800002083DE1B43B7
:103CC000024A536843F40073536070470070004029
:103CD000074AD36823F4E0631B041B0C000200F4C2
:103CE000E060184340F0BF6040F40030D06070479F
:103CF00000ED00E030B4174BDB68C3F30223C3F1DF
:103D00000704042C28BF04241D1D062D18D9033BCD
:103D10004FF0FF3505FA04F421EA0401994005FA51
:103D200003F322EA0303194300280BDB0901C9B29C
:103D300000F1604000F5614080F8001330BC70472E
:103D40000023E5E700F00F000901C9B2024B195446
:103D5000F4E700BF00ED00E014ED00E000F01F020A
:103D6000400901239340024A42F82030704700BFC7
:103D700000E100E0436A23B1036B1868C0F107005B
:103D800070470020704710B5044601F0A3FFA26BF6
:103D9000E36B9A4204D0002401F0BEFF204610BD20
:103DA0000124F9E710B5044601F094FFA36B23B199
:103DB000002401F0B1FF204610BD0124F9E770B5E1
:103DC00004461646856B026C5AB903681BB1002085
:103DD0000135A56370BD406801F074F9002363608C
:103DE000F6E76EB9806802F06FFF226CA368134497
:103DF000A3606268934219D32368A3600020E7E7B9
:103E0000C06802F061FF226C5242E3681344E36031
:103E100021688B4202D263681A44E260022E01D00C
:103E20000020D5E725B1013D0020D1E70020CFE7F4
:103E30000020CDE7026C72B110B5C3681344C360B3
:103E40004468A34201D30368C3600C46C16820469E
:103E500002F03AFF10BD704738B5054601F03AFF51
:103E600095F8454064B203E001F0BAF8013C64B251
:103E7000002C08DD6B6A33B105F1240001F01EF857
:103E80000028F3D0F0E7FF2385F8453001F044FF28
:103E900001F020FF95F8444064B203E001F0A0F87F
:103EA000013C64B2002C08DD2B6933B105F1100030
:103EB00001F004F80028F3D0F0E7FF2385F8443040
:103EC00001F02AFF38BD000038B540B94FF01003AB
:103ED00083F31188BFF36F8FBFF34F8FFEE7044664
:103EE0000D4601F0F7FE2168E26B236C03FB021024
:103EF00060600020A063A160013A02FB0313E3604D
:103F0000FF2384F8443084F84530A5B923691BB9F0
:103F100001F002FF012038BD04F1100000F0CEFFD7
:103F20000028F5D0084B4FF080521A60BFF34F8F36
:103F3000BFF36F8FECE704F1100000F0DAFB04F13F
:103F4000240000F0D6FBE3E704ED00E010B5029B8F
:103F50000C4639B11A60D8631C6401211846FFF77A
:103F6000B3FF10BD1B60F6E740B94FF0100383F3B9
:103F70001188BFF36F8FBFF34F8FFEE7F0B583B0AB
:103F8000054611B101FB00F000E0002017460C4689
:103F9000483001F07BFD064638B100903B4600F109
:103FA000480221462846FFF7D1FF304603B0F0BD56
:103FB000F0B585B0019260B1044699B9026C8AB13E
:103FC0004FF0100383F31188BFF36F8FBFF34F8F50
:103FD000FEE74FF0100383F31188BFF36F8FBFF339
:103FE0004F8FFEE7022B0BD1E26B012A08D04FF076
:103FF000100383F31188BFF36F8FBFF34F8FFEE77A
:104000001E460F4600F0F2FF50B9019B53B14FF02E
:10401000100383F31188BFF36F8FBFF34F8FFEE759
:1040200000253AE0002538E0324639462046FFF7C1
:10403000C6FE636A4BB9A8B13B4B4FF080521A6081
:10404000BFF34F8FBFF36F8F0CE004F1240000F03B
:1040500035FF38B1344B4FF080521A60BFF34F8FA9
:10406000BFF36F8F01F058FE012005B0F0BD01F0E5
:1040700053FE0020F9E702A800F066FF012519E0D1
:10408000002384F8443021E0002384F8453023E005
:104090002046FFF7E1FE00F0F1FD01F01BFEA26BF0
:1040A000E36B9A42C0D3022EBED0019B002BDED020
:1040B000002DE0D001F030FE00F046FD01F00AFED8
:1040C00094F844305BB2B3F1FF3FD9D094F8453057
:1040D0005BB2B3F1FF3FD7D001F01EFE01A902A8E9
:1040E00000F03EFFC8B92046FFF74DFE0028CFD0B4
:1040F000019904F1100000F0ADFE2046FFF7ACFE80
:1041000000F0BCFD0028C8D1074B4FF080521A6068
:10411000BFF34F8FBFF36F8FBFE72046FFF79CFEC3
:1041200000F0ACFD0020A0E704ED00E048B108B5C8
:10413000002141600160C1600B460A46FFF738FF6D
:1041400008BD704710B5024600210120FFF70CFFA3
:104150000446FFF7EBFF204610BD2DE9F84360B1A0
:10416000044699B9006C88B14FF0100383F31188AD
:10417000BFF36F8FBFF34F8FFEE74FF0100383F352
:104180001188BFF36F8FBFF34F8FFEE7022B0BD168
:10419000E06B012808D04FF0100383F31188BFF3C0
:1041A0006F8FBFF34F8FFEE71F469046894601F0A1
:1041B000BBFEEFF311864FF0100383F31188BFF3BA
:1041C0006F8FBFF34F8FA26BE36B9A4203D3022F23
:1041D00001D000200FE094F845506DB23A464946B0
:1041E0002046FFF7ECFDB5F1FF3F08D06B1C5BB23A
:1041F00084F84530012086F31188BDE8F883636AAE
:104200005BB104F1240000F059FE40B1B8F1000F99
:1042100007D00120C8F80000EDE70120EBE70120FE
:10422000E9E70120E7E760B170B50446036C8BB1A4
:104230004FF0100383F31188BFF36F8FBFF34F8FDD
:10424000FEE74FF0100383F31188BFF36F8FBFF3C6
:104250004F8FFEE703682BB30E4601F065FEEFF3C8
:1042600011854FF0100383F31188BFF36F8FBFF3F5
:104270004F8FA26BE36B934226D994F845305BB223
:104280000132A263B3F1FF3F18D1636AF3B104F1C5
:10429000240000F013FED8B1E6B10120306085F3B0
:1042A000118870BD4368002BD6D04FF0100383F304
:1042B0001188BFF36F8FBFF34F8FFEE701335BB2FF
:1042C00084F845300120EAE70020E8E70120E6E72E
:1042D0000120E4E70120E2E7F0B585B0019260B18A
:1042E000044699B9036C8BB14FF0100383F3118826
:1042F000BFF36F8FBFF34F8FFEE74FF0100383F3D1
:104300001188BFF36F8FBFF34F8FFEE70F4600F0AA
:104310006DFE50B9019B53B14FF0100383F3118828
:10432000BFF36F8FBFF34F8FFEE700263EE00026FE
:104330003CE039462046FFF77DFD013DA56323693A
:1043400023B901F0E9FC012005B0F0BD04F1100033
:1043500000F0B4FD0028F4D0344B4FF080521A60C6
:10436000BFF34F8FBFF36F8FEBE701F0D5FC002059
:10437000EAE702A800F0E8FD012621E0002384F826
:10438000443029E0002384F845302BE02046FFF735
:1043900063FD00F073FC09E02046FFF75DFD00F0CF
:1043A0006DFC2046FFF7FEFC00283DD101F092FC99
:1043B000A56B002DBDD1019B002BD6D0002ED8D0EF
:1043C00001F0AAFC00F0C0FB01F084FC94F844303A
:1043D0005BB2B3F1FF3FD1D094F845305BB2B3F19B
:1043E000FF3FCFD001F098FC01A902A800F0B8FD72
:1043F0000028D1D12046FFF7D5FC0028C6D001996E
:1044000004F1240000F026FD2046FFF725FD00F012
:1044100035FC0028CAD1054B4FF080521A60BFF31B
:104420004F8FBFF36F8FC1E700208DE704ED00E0F1
:1044300070B584B0019140B94FF0100383F3118837
:10444000BFF36F8FBFF34F8FFEE70446036C43B19A
:104450004FF0100383F31188BFF36F8FBFF34F8FBB
:10446000FEE700F0C3FD50B9019B5BB14FF01003B4
:1044700083F31188BFF36F8FBFF34F8FFEE70025E3
:104480002E4651E000252E464EE0013BA3632368F3
:1044900013B900F0CFFE6060236963B104F110002E
:1044A00000F00CFD38B1484B4FF080521A60BFF35A
:1044B0004F8FBFF36F8F01F02FFC0125284604B00A
:1044C00070BD45B14FF0100383F31188BFF36F8FB8
:1044D000BFF34F8FFEE701F01FFCEFE702A800F0EB
:1044E00033FD01262AE0002384F8443032E0002323
:1044F00084F8453034E001F0EDFB606800F086FDA3
:10450000054601F009FC3BE02046FFF7A5FC00F062
:10451000B5FB09E02046FFF79FFC00F0AFFB20460B
:10452000FFF740FC002840D101F0D4FBA36B002B27
:10453000ABD1019B002BC4D0002ECFD001F0ECFBFF
:1045400000F002FB01F0C6FB94F844305BB2B3F11B
:10455000FF3FC8D094F845305BB2B3F1FF3FC6D0FF
:1045600001F0DAFB01A902A800F0FAFC0028D1D181
:104570002046FFF717FC0028C6D02368002BBAD0CE
:10458000019904F1240000F065FC2046FFF764FC6B
:1045900000F074FB0028C7D10B4B4FF080521A601B
:1045A000BFF34F8FBFF36F8FBEE7002D86D001F0B2
:1045B00091FB2046FFF7DEFB0146606800F0DAFD64
:1045C00001F0AAFB002579E704ED00E02DE9F843AE
:1045D00060B1044699B9036C8BB14FF0100383F3BB
:1045E0001188BFF36F8FBFF34F8FFEE74FF01003BB
:1045F00083F31188BFF36F8FBFF34F8FFEE717462A
:10460000894601F091FCEFF311864FF0100383F31C
:104610001188BFF36F8FBFF34F8FD4F83880B8F194
:10462000000F1DD094F844506DB249462046FFF764
:1046300001FC08F1FF33A363B5F1FF3F05D06B1C0C
:104640005BB284F8443001200BE023696BB104F1C4
:10465000100000F033FC50B15FB10120386000E081
:10466000002086F31188BDE8F8830120F9E70120D6
:10467000F7E70120F5E700000023072B0CD8074AD5
:1046800052F833200AB10133F7E7044A42F83310F5
:1046900002EBC30358607047704700BF004C022014
:1046A00070B504460D46164601F014FB94F84430EC
:1046B0005BB2B3F1FF3F0DD094F845305BB2B3F17C
:1046C000FF3F0BD001F028FBA36B5BB12046FFF747
:1046D000C3FB70BD002384F84430EDE7002384F869
:1046E0004530EFE73246294604F1240000F0CAFBCA
:1046F000ECE700F1080343604FF0FF328260C360D3
:10470000036100230360704700230361704743681F
:104710004B609A688A609A68516099600861036882
:1047200001330360704730B40D68B5F1FF3F02D02C
:1047300000F1080202E0026904E01A4653681C68AE
:10474000AC42FAD953684B6099608A605160086145
:1047500003680133036030BC7047036942688168B5
:1047600091608268416851605A68824206D0002296
:1047700002611A68013A1A601868704782685A60C4
:10478000F5E70000084B1B681B683BB1064B1B6834
:10479000DB68DB685A68054B1A607047034B4FF0C3
:1047A000FF321A60704700BF18040020F004002098
:1047B00010B50446006B01F0EDF9204601F0EAF96E
:1047C00010BD2DE9F04780469946089D099F0A9C37
:1047D000266B02F18042013A06EB820626F00706BC
:1047E00000230F2B07D8C85CE21882F83400CA5C9B
:1047F0000AB10133F5E7002384F84330062D00D9D0
:104800000625E56265644FF0000AC4F848A0201D43
:10481000FFF77AFF04F11800FFF776FF2461C5F176
:104820000705A5616462C4F84CA084F850A04A460C
:104830004146304601F024FA206007B13C60BDE8F3
:10484000F087000038B5002407E004EB84029300F1
:104850000E481844FFF74DFF0134062CF5D90C4DD6
:104860002846FFF746FF0B4C2046FFF742FF0A4859
:10487000FFF73FFF0948FFF73CFF0948FFF739FF03
:10488000084B1D60084B1C6038BD00BF2004002091
:10489000C4040020D8040020F804002024050020CF
:1048A00010050020180400201C04002010B5044648
:1048B00001F010FA204A1368013313601F4B1B6884
:1048C0005BB11F4B1B686BB91C4B1B68DA6AE36A50
:1048D0009A4207D8194B1C6004E0184B1C601368FF
:1048E000012B26D0174A136801331360E36A0122B3
:1048F0009A401549086802430A6003EB83039A0053
:10490000211D12481044FFF702FF01F005FA0C4B7D
:104910001B686BB1094B1B68DA6AE36A9A4207D2DB
:104920000B4B4FF080521A60BFF34F8FBFF36F8F66
:1049300010BDFFF787FFD5E7AC040020140400206A
:104940000C050020BC040020C0040020200400202E
:1049500004ED00E00F4B1B68D3B110B501F0BAF9BC
:104960000D4BDB68DC68201DFFF7F7FE0B4A136870
:10497000013B1360074A1368013B136001F0CCF957
:104980002046FFF715FF034B1B68002BE6D110BD37
:10499000704700BFB004002024050020AC040020B4
:1049A00008B5FFF7D7FF064B1B68012BF9D9054B5C
:1049B0004FF080521A60BFF34F8FBFF36F8FF0E755
:1049C0002004002004ED00E070B504460E461D4BA7
:1049D0001D681D4B18680430FFF7BFFE50B91A4B15
:1049E0001B68DA6A012303FA02F218490B6823EA0A
:1049F00002030B60B4F1FF3F13D02C44124B1B6831
:104A00005C60A54216D8124B18680F4B1968043128
:104A1000FFF789FE0F4B1B68A34212D90D4B1C6098
:104A20000FE0002EE9D0084B196804310A48FFF75F
:104A30006EFE06E0094B1868034B19680431FFF756
:104A400072FE70BD3805002014040020C004002050
:104A500018040020F0040020100500201C04002091
:104A60002DE9F04385B007468846154699469000E3
:104A700001F00CF8F8B10646542001F007F804469E
:104A8000A8B10663D4B10023039302940D9B019354
:104A90000C9B00934B462A4641463846FFF791FE51
:104AA0002046FFF703FF012005B0BDE8F083304644
:104AB00001F070F8E6E74FF0FF30F5E74FF0FF3018
:104AC000F2E7000000B583B0194B01930023009377
:104AD000802218491848FFF7C3FF012807D0012892
:104AE00008D0B0F1FF3F1AD003B05DF804FB00F02E
:104AF000D5FCF4E74FF0100383F31188BFF36F8FF9
:104B0000BFF34F8F0D4B4FF0FF321A600C4B012259
:104B10001A600C4B00221A6001F07EF9E4E74FF0B6
:104B2000100383F31188BFF36F8FBFF34F8FFEE73E
:104B3000EC040020408A0008A1490008F00400208D
:104B40000C05002038050020024A13680133136069
:104B5000704700BFB8040020014B1868704700BFC1
:104B600038050020F8B53A4B1B68002B64D1394B4F
:104B70001D6801351D60C5B9374B1B681B6843B103
:104B80004FF0100383F31188BFF36F8FBFF34F8F84
:104B9000FEE7314A1168314B186810601960304ADD
:104BA000136801331360FFF7EDFD2E4B1B68AB421A
:104BB00038D900242C4B1B68DB6A03EB83039A0073
:104BC0002A4B9B58012B3CD901243AE00124224B6B
:104BD0001B681B6843B3204B1B68DB68DE68736887
:104BE0009D4226D3371D3846FFF7B7FDB36A1BB188
:104BF00006F11800FFF7B1FDF36A01229A401C4943
:104C0000086802430A6003EB83039A003946174899
:104C10001044FFF77CFDF26A134B1B68DB6A9A4273
:104C2000D4D2D4E70024D2E70E4B4FF0FF321A6003
:104C3000C0E70C4A1360BDE70E4A136801331360E6
:104C400000240D4B1B6803B101242046F8BD00BFB2
:104C5000B804002038050020180400201C0400209F
:104C6000F4040020F004002014040020200400209C
:104C7000C0040020B40400203C05002038B5334BAC
:104C80001B6843B94FF0100383F31188BFF36F8F94
:104C9000BFF34F8FFEE701F01DF82C4B1A68013A65
:104CA0001A601B68002B4DD1294B1B6823B90024C7
:104CB00001F032F8204638BD0024264B1B681BB398
:104CC000244BDB68DC6804F11800FFF746FD251D66
:104CD0002846FFF742FDE36A01229A401E49086810
:104CE00002430A6003EB83039A0029461B481044E1
:104CF000FFF70DFDE26A1A4B1B68DB6A9A42DCD3B0
:104D0000184B01221A60D8E70CB1FFF73BFD164B98
:104D10001C6854B1FFF726FF10B1124B01221A6034
:104D2000013CF7D1104B00221A600E4B1B685BB19F
:104D30000E4B4FF080521A60BFF34F8FBFF36F8F4F
:104D40000124B5E70024B3E70024B1E7B80400204C
:104D5000AC040020F8040020C0040020200400203F
:104D6000140400203C050020B404002004ED00E001
:104D700010B5A8B104460F4B1B6843B14FF01003A8
:104D800083F31188BFF36F8FBFF34F8FFEE7FFF7F9
:104D9000DBFE00212046FFF717FEFFF76FFF38B953
:104DA000054B4FF080521A60BFF34F8FBFF36F8FE8
:104DB00010BD00BFB804002004ED00E0204B1B68CC
:104DC0001BB1204B01221A6070471E4B00221A6053
:104DD0001D4B1B68B3FA83F3DBB2C3F11F0303EB74
:104DE00083018A0019498A5842B94FF0100383F3AE
:104DF0001188BFF36F8FBFF34F8FFEE710B41348D6
:104E00009A00D418A10001444C6864684C601A44AC
:104E100091000831084484420BD003EB83039A00CD
:104E20000A4B13445B68DA68094B1A605DF8044B5F
:104E3000704761680548142202FB03025160ECE7E9
:104E4000B80400203C050020C004002020040020FD
:104E50001404002040B94FF0100383F31188BFF30E
:104E60006F8FBFF34F8FFEE710B50C46044B1968E8
:104E70001831FFF758FC01212046FFF7A5FD10BDB2
:104E80001404002038B540B94FF0100383F31188A3
:104E9000BFF36F8FBFF34F8FFEE70C461546064AF0
:104EA00011681831FFF733FC0DB14FF0FF3429467C
:104EB0002046FFF789FD38BD1404002038B5C368CB
:104EC000DC6844B94FF0100383F31188BFF36F8F90
:104ED000BFF34F8FFEE704F118052846FFF73DFCAE
:104EE000134B1B68E3B9251D2846FFF736FCE36A20
:104EF00001229A400F49086802430A6003EB8303CA
:104F00009A0029460C481044FFF701FCE26A0B4B5B
:104F10001B68DB6A9A4208D90120094B186038BD2A
:104F200029460848FFF7F3FBF0E70020F7E700BF4A
:104F3000B8040020C0040020200400201404002035
:104F40003C050020F8040020034B1B680360034B62
:104F50001B684360704700BFF40400203805002040
:104F6000F8B550B1054689B94FF0100383F31188A5
:104F7000BFF36F8FBFF34F8FFEE74FF0100383F344
:104F80001188BFF36F8FBFF34F8FFEE70C4600F021
:104F9000A1FE114B196868680A1A2368B3F1FF3F34
:104FA00016D02F680D4E3668B74201D0884211D90D
:104FB000934203D800232360012405E09B1A236059
:104FC0002846FFF7C1FF002400F0A6FE2046F8BDEA
:104FD0000024F9E70124F7E738050020F404002055
:104FE000014B01221A6070473C050020054B1B68ED
:104FF00033B1054B1B680BB100207047022070478E
:10500000012070470C050020B8040020002850D073
:1050100038B50446C26A28490968C96A8A423ED23C
:105020008169002905DB24490968C96AC1F10701C2
:105030008161606902EB82029100204A0A44904239
:1050400005D01D4A1268D26AE262012038BD251DD2
:105050002846FFF782FB68B9E36A03EB83018A0005
:1050600016498A5832B901229A4015490B6823EA39
:1050700002030B60104B1B68DB6AE362012404FA35
:1050800003F20F49086802430A6003EB83039A00A6
:1050900029460A481044FFF73AFB2046D6E7426CFF
:1050A000054B1B68DB6A9A4201D20120CEE7002043
:1050B000CCE70020704700BF14040020200400202B
:1050C000C0040020002849D038B50446264A12689A
:1050D000824208D04FF0100383F31188BFF36F8F23
:1050E000BFF34F8FFEE7826C42B94FF0100383F39A
:1050F0001188BFF36F8FBFF34F8FFEE7013A8264D1
:10510000C06A616C88422BD062BB251D2846FFF720
:1051100024FB70B9E26A142303FB02F31349CB5852
:105120003BB9012303FA02F211490B6823EA020397
:105130000B60636CE362C3F10702A261012404FA0D
:1051400003F20B49086802430A602946074A142003
:1051500000FB0320FFF7DBFA204638BD0020704734
:105160000020FAE70020F8E71404002020040020C3
:10517000C0040020002855D038B50346806C40B9E3
:105180004FF0100383F31188BFF36F8FBFF34F8F7E
:10519000FEE75A6C8A4200D20A46D96A914201D08F
:1051A000012800D038BD20480068984208D14FF04F
:1051B000100383F31188BFF36F8FBFF34F8FFEE7A8
:1051C000DA629869002802DBC2F107029A615A6923
:1051D0001648142404FB01018A42E3D11C461D1D1C
:1051E0002846FFF7BAFA70B9E26A142303FB02F308
:1051F0000E49CB583BB9012303FA02F20C490B6864
:1052000023EA02030B60E26A01239340084908681D
:1052100003430B602946054B142000FB0230FFF7C7
:1052200076FABFE7704700BF140400202004002076
:10523000C0040020054B1B6823B1044B1A68936C13
:1052400001339364014B1868704700BF14040020B9
:1052500038B505460C4600F03DFD194B1B68DB6C6C
:105260002BB9174B1B68012283F85020ACB900F012
:1052700053FD00F02FFD124B1B68DC6C24B1CDB93F
:105280000F4B1B68621EDA640D4B1B68002283F80B
:10529000502000F041FD204638BD11462046FFF762
:1052A00093FB084B4FF080521A60BFF34F8FBFF350
:1052B0006F8FDCE7024B1B680022DA64E4E700BF73
:1052C0001404002004ED00E0F8B540B94FF01003DD
:1052D00083F31188BFF36F8FBFF34F8FFEE7044650
:1052E0000D4600F021FEEFF311864FF0100383F31B
:1052F0001188BFF36F8FBFF34F8F94F85030DBB23C
:10530000022284F85020E26C0132E264012B02D0C8
:1053100086F31188F8BDA36A43B14FF0100383F3FD
:105320001188BFF36F8FBFF34F8FFEE7144B1B68DD
:10533000DBB9271D3846FFF710FAE26A01239340D4
:105340001049086803430B6039460F4B142000FBDB
:105350000230FFF7DCF9E26A0C4B1B68DB6A9A4209
:10536000D6D945B101232B60D2E704F118010848D2
:10537000FFF7CDF9EFE7074B01221A60C8E700BF3E
:10538000B8040020C00400202004002014040020E1
:10539000F80400203C050020064B1A681368B3FA95
:1053A00083F35B09036013B9D36818687047002062
:1053B000704700BF4005002008B541600061914280
:1053C0000CD8D21A83699A4201D3012010E0011D42
:1053D000094B1868FFF7A7F9002009E09A4201D2AB
:1053E000994206D2011D054B1868FFF79CF9002071
:1053F00008BD0120FCE700BF440500204005002057
:1054000038B500F067FC0F4B1B6813B100F084FC4B
:1054100038BD0D4D2846FFF76CF90C4C2046FFF7C0
:1054200068F90B4B1D600B4B1C6000220C210A20FD
:10543000FEF79AFD034B18600028E7D00649FFF7F6
:105440001BF9E3E774050020480500205C050020F7
:105450004005002044050020488A00082DE9F0415D
:10546000079C41B94FF0100383F31188BFF36F8F8E
:10547000BFF34F8FFEE70F4674B11D4616468046B8
:10548000FFF7BEFFC4F80080A761E6612562069BB6
:105490006362201DFFF738F9BDE8F08100B583B0E5
:1054A000FFF7AEFF0D4B1B685BB10D4B0193032360
:1054B000009300234FF480720A490B48FFF7D0FA9B
:1054C00040B94FF0100383F31188BFF36F8FBFF320
:1054D0004F8FFEE703B05DF804FB00BF74050020AA
:1054E00078050020508A0008E55700082DE9F041B2
:1054F00082B005460E4617469846282000F0C6FAA8
:10550000044640B10190089B009343463A46314619
:105510002846FFF7A3FF204602B0BDE8F081000057
:10552000C8B130B585B015460446174A106840B377
:105530001A4601910295039405291DDCFFF756FDDB
:10554000022811D000231A4601A90F480068FEF76F
:105550002FFD05B030BD4FF0100383F31188BFF36A
:105560006F8FBFF34F8FFEE70023089A01A906480B
:105570000068FEF71DFDECE7002301A9FEF7EDFD35
:10558000E7E70020E5E700BF7405002070B582B0B2
:105590001A4B1B681A6852B3DB681E68DC68251D4D
:1055A0002846FFF7DAF8636A20469847E369012B3B
:1055B000EED1A36933449E4207D263602461294639
:1055C0000E4B1868FFF7AFF8E2E7002100910B4699
:1055D00032462046FFF7A4FF0028D9D14FF0100330
:1055E00083F31188BFF36F8FBFF34F8FFEE7044A39
:1055F000106802490860136002B070BD40050020C9
:105600004405002038B50546FFF7A6FA0446074BC7
:105610001B68834205D800232B60044B1C60204686
:1056200038BDFFF7B3FF01232B60F6E770050020BC
:1056300070B582B005460E46144B1B68DB68DC680B
:10564000201DFFF78AF8E369012B04D0636A204626
:10565000984702B070BDA1692B46324629442046C6
:10566000FFF7AAFE0028F1D0002100910B462A4640
:105670002046FFF755FF0028E8D14FF0100383F3D1
:105680001188BFF36F8FBFF34F8FFEE740050020F7
:1056900070B582B006460C46FFF756FA01A8FFF730
:1056A000B1FF019B1BBB05460CB9B04218D22CB10F
:1056B000114B1B681C68B4FA84F464092246711B00
:1056C0000E4B1868FEF7ECFFFFF7D8FA88B90C4BC1
:1056D0004FF080521A60BFF34F8FBFF36F8F08E017
:1056E000FFF7CCFA29463046FFF7A2FF01E0FFF7AB
:1056F000C5FA02B070BD00BF44050020740500204B
:1057000004ED00E030B587B0002203A9344B1868DF
:10571000FEF7E2FD002860D0039B002BF4DB059C24
:10572000636913B1201DFFF718F802A8FFF76AFF9D
:10573000039B092BE8D801A252F823F06557000813
:10574000655700086557000809570008AD5700085D
:10575000D357000865570008655700080957000827
:10576000AD5700080499A5690B4602462944204616
:10577000FFF722FE0028C7D0636A20469847E369F6
:10578000012BC1D1A269002100910B46049802446B
:105790002046FFF7C5FE0028B6D14FF0100383F373
:1057A0001188BFF36F8FBFF34F8FFEE70499A1619C
:1057B00031B10346024601442046FFF7FDFDA3E751
:1057C0004FF0100383F31188BFF36F8FBFF34F8F38
:1057D000FEE7204600F0DEF996E707B030BD00BFD7
:1057E0007405002000B583B001A8FFF7D5FD01992D
:1057F000FFF74EFFFFF786FFF6E7842801D003305E
:10580000704700207047EFF30580003018BF01207B
:10581000704708B5FFF756F9002008BDF0B585B010
:105820000F46446805680669B0F90800FFF7E5FF10
:1058300003AB019300903B46B2B229462046FFF7E6
:105840000FF9012802D1039805B0F0BD0020FBE755
:1058500008B5034600B901231846FFF789FA00206E
:1058600008BD000000B583B01346012909D000220D
:105870000168009101210448FFF738FE03B05DF88C
:1058800004FB0122F4E700BF8889000830B585B029
:105890000546002303930C4601B90124FFF7B3FF2B
:1058A000A8B10023009303AB224609212846FFF745
:1058B00037FE012817D1039BBBB10E4B4FF080522E
:1058C0001A60BFF34F8FBFF36F8F002009E00023F2
:1058D0000093224604212846FFF722FE012806D124
:1058E000002005B030BDFF20FBE70020F9E7FF20D6
:1058F000F7E700BF04ED00E008B50120FEF722FC49
:1059000008BD000030B583B00023019350B30C46AE
:105910000546B1F1FF3F02D019B91C4601E04FF036
:10592000FF34FFF770FF90B101AA00212846FEF76F
:105930004DFE012818D1019BC3B10D4B4FF0805291
:105940001A60BFF34F8FBFF36F8F002006E0214630
:105950002846FEF76DFD012802D1002003B030BDBE
:10596000FF20FBE78020F9E7FF20F7E70020F5E7BD
:1059700004ED00E010B582B0044600230193FFF768
:1059800042FF88B101A92046FEF74DFC012816D13F
:10599000019BB3B10D4B4FF080521A60BFF34F8F94
:1059A000BFF36F8F002008E000231A4619462046F7
:1059B000FEF7FEFA012806D1002002B010BDFF203C
:1059C000FBE70020F9E7FF20F7E700BF04ED00E068
:1059D000124A12F0070F1ED0D11D21F00701C1F5A8
:1059E000103313440A460E480260002141601344FC
:1059F000083B23F007030B48036059601960991AAC
:105A000051601360084B1960084B1960084B4FF048
:105A100000421A6070474FF41033E4E7800500201D
:105A20008C4502207C050020884502208445022008
:105A30008045022010B4134B1A6882421BD3596868
:105A40005C18844203D1406801445960184641689B
:105A50004418A24213D10C4C2468A2420DD05268C3
:105A6000114441601A6812680260984200D01860C0
:105A70005DF8044B70471346DEE70460F5E702600B
:105A8000F3E700BF8C4502207C05002070B504467A
:105A9000FFF75AF83A4B1B68BBB13A4B1B681C42E4
:105AA00063D1ACB1083414F0070F11D024F007040F
:105AB000083404F007035BB14FF0100383F311883F
:105AC000BFF36F8FBFF34F8FFEE7FFF781FFE4E770
:105AD000002C4CD02C4B1B68A3424AD32B4B1D6887
